{
  "contractName": "Dao_v1",
  "abi": [
    {
      "inputs": [],
      "stateMutability": "nonpayable",
      "type": "constructor"
    },
    {
      "anonymous": false,
      "inputs": [
        {
          "indexed": true,
          "internalType": "address",
          "name": "previousOwner",
          "type": "address"
        },
        {
          "indexed": true,
          "internalType": "address",
          "name": "newOwner",
          "type": "address"
        }
      ],
      "name": "OwnershipTransferred",
      "type": "event"
    },
    {
      "anonymous": false,
      "inputs": [
        {
          "indexed": false,
          "internalType": "uint256",
          "name": "proposalId",
          "type": "uint256"
        }
      ],
      "name": "ProposalCanceled",
      "type": "event"
    },
    {
      "anonymous": false,
      "inputs": [
        {
          "indexed": false,
          "internalType": "uint256",
          "name": "proposalId",
          "type": "uint256"
        },
        {
          "indexed": false,
          "internalType": "address",
          "name": "proposer",
          "type": "address"
        },
        {
          "indexed": false,
          "internalType": "address[]",
          "name": "targets",
          "type": "address[]"
        },
        {
          "indexed": false,
          "internalType": "uint256[]",
          "name": "values",
          "type": "uint256[]"
        },
        {
          "indexed": false,
          "internalType": "string[]",
          "name": "signatures",
          "type": "string[]"
        },
        {
          "indexed": false,
          "internalType": "bytes[]",
          "name": "calldatas",
          "type": "bytes[]"
        },
        {
          "indexed": false,
          "internalType": "uint256",
          "name": "startBlock",
          "type": "uint256"
        },
        {
          "indexed": false,
          "internalType": "uint256",
          "name": "endBlock",
          "type": "uint256"
        },
        {
          "indexed": false,
          "internalType": "string",
          "name": "description",
          "type": "string"
        }
      ],
      "name": "ProposalCreated",
      "type": "event"
    },
    {
      "anonymous": false,
      "inputs": [
        {
          "indexed": false,
          "internalType": "uint256",
          "name": "proposalId",
          "type": "uint256"
        }
      ],
      "name": "ProposalExecuted",
      "type": "event"
    },
    {
      "anonymous": false,
      "inputs": [
        {
          "indexed": false,
          "internalType": "uint256",
          "name": "oldProposalThreshold",
          "type": "uint256"
        },
        {
          "indexed": false,
          "internalType": "uint256",
          "name": "newProposalThreshold",
          "type": "uint256"
        }
      ],
      "name": "ProposalThresholdSet",
      "type": "event"
    },
    {
      "anonymous": false,
      "inputs": [
        {
          "indexed": false,
          "internalType": "uint256",
          "name": "oldQuorumNumerator",
          "type": "uint256"
        },
        {
          "indexed": false,
          "internalType": "uint256",
          "name": "newQuorumNumerator",
          "type": "uint256"
        }
      ],
      "name": "QuorumNumeratorUpdated",
      "type": "event"
    },
    {
      "anonymous": false,
      "inputs": [
        {
          "indexed": true,
          "internalType": "address",
          "name": "voter",
          "type": "address"
        },
        {
          "indexed": false,
          "internalType": "uint256",
          "name": "proposalId",
          "type": "uint256"
        },
        {
          "indexed": false,
          "internalType": "uint8",
          "name": "support",
          "type": "uint8"
        },
        {
          "indexed": false,
          "internalType": "uint256",
          "name": "weight",
          "type": "uint256"
        },
        {
          "indexed": false,
          "internalType": "string",
          "name": "reason",
          "type": "string"
        }
      ],
      "name": "VoteCast",
      "type": "event"
    },
    {
      "anonymous": false,
      "inputs": [
        {
          "indexed": false,
          "internalType": "uint256",
          "name": "oldVotingDelay",
          "type": "uint256"
        },
        {
          "indexed": false,
          "internalType": "uint256",
          "name": "newVotingDelay",
          "type": "uint256"
        }
      ],
      "name": "VotingDelaySet",
      "type": "event"
    },
    {
      "anonymous": false,
      "inputs": [
        {
          "indexed": false,
          "internalType": "uint256",
          "name": "oldVotingPeriod",
          "type": "uint256"
        },
        {
          "indexed": false,
          "internalType": "uint256",
          "name": "newVotingPeriod",
          "type": "uint256"
        }
      ],
      "name": "VotingPeriodSet",
      "type": "event"
    },
    {
      "inputs": [],
      "name": "BALLOT_TYPEHASH",
      "outputs": [
        {
          "internalType": "bytes32",
          "name": "",
          "type": "bytes32"
        }
      ],
      "stateMutability": "view",
      "type": "function"
    },
    {
      "inputs": [],
      "name": "COUNTING_MODE",
      "outputs": [
        {
          "internalType": "string",
          "name": "",
          "type": "string"
        }
      ],
      "stateMutability": "pure",
      "type": "function"
    },
    {
      "inputs": [
        {
          "internalType": "uint256",
          "name": "proposalId",
          "type": "uint256"
        },
        {
          "internalType": "uint8",
          "name": "support",
          "type": "uint8"
        }
      ],
      "name": "castVote",
      "outputs": [
        {
          "internalType": "uint256",
          "name": "",
          "type": "uint256"
        }
      ],
      "stateMutability": "nonpayable",
      "type": "function"
    },
    {
      "inputs": [
        {
          "internalType": "uint256",
          "name": "proposalId",
          "type": "uint256"
        },
        {
          "internalType": "uint8",
          "name": "support",
          "type": "uint8"
        },
        {
          "internalType": "uint8",
          "name": "v",
          "type": "uint8"
        },
        {
          "internalType": "bytes32",
          "name": "r",
          "type": "bytes32"
        },
        {
          "internalType": "bytes32",
          "name": "s",
          "type": "bytes32"
        }
      ],
      "name": "castVoteBySig",
      "outputs": [
        {
          "internalType": "uint256",
          "name": "",
          "type": "uint256"
        }
      ],
      "stateMutability": "nonpayable",
      "type": "function"
    },
    {
      "inputs": [
        {
          "internalType": "uint256",
          "name": "proposalId",
          "type": "uint256"
        },
        {
          "internalType": "uint8",
          "name": "support",
          "type": "uint8"
        },
        {
          "internalType": "string",
          "name": "reason",
          "type": "string"
        }
      ],
      "name": "castVoteWithReason",
      "outputs": [
        {
          "internalType": "uint256",
          "name": "",
          "type": "uint256"
        }
      ],
      "stateMutability": "nonpayable",
      "type": "function"
    },
    {
      "inputs": [
        {
          "internalType": "address[]",
          "name": "targets",
          "type": "address[]"
        },
        {
          "internalType": "uint256[]",
          "name": "values",
          "type": "uint256[]"
        },
        {
          "internalType": "bytes[]",
          "name": "calldatas",
          "type": "bytes[]"
        },
        {
          "internalType": "bytes32",
          "name": "descriptionHash",
          "type": "bytes32"
        }
      ],
      "name": "execute",
      "outputs": [
        {
          "internalType": "uint256",
          "name": "",
          "type": "uint256"
        }
      ],
      "stateMutability": "payable",
      "type": "function"
    },
    {
      "inputs": [
        {
          "internalType": "uint256",
          "name": "proposalId",
          "type": "uint256"
        },
        {
          "internalType": "address",
          "name": "account",
          "type": "address"
        }
      ],
      "name": "hasVoted",
      "outputs": [
        {
          "internalType": "bool",
          "name": "",
          "type": "bool"
        }
      ],
      "stateMutability": "view",
      "type": "function"
    },
    {
      "inputs": [
        {
          "internalType": "address[]",
          "name": "targets",
          "type": "address[]"
        },
        {
          "internalType": "uint256[]",
          "name": "values",
          "type": "uint256[]"
        },
        {
          "internalType": "bytes[]",
          "name": "calldatas",
          "type": "bytes[]"
        },
        {
          "internalType": "bytes32",
          "name": "descriptionHash",
          "type": "bytes32"
        }
      ],
      "name": "hashProposal",
      "outputs": [
        {
          "internalType": "uint256",
          "name": "",
          "type": "uint256"
        }
      ],
      "stateMutability": "pure",
      "type": "function"
    },
    {
      "inputs": [],
      "name": "name",
      "outputs": [
        {
          "internalType": "string",
          "name": "",
          "type": "string"
        }
      ],
      "stateMutability": "view",
      "type": "function"
    },
    {
      "inputs": [],
      "name": "owner",
      "outputs": [
        {
          "internalType": "address",
          "name": "",
          "type": "address"
        }
      ],
      "stateMutability": "view",
      "type": "function"
    },
    {
      "inputs": [
        {
          "internalType": "uint256",
          "name": "proposalId",
          "type": "uint256"
        }
      ],
      "name": "proposalDeadline",
      "outputs": [
        {
          "internalType": "uint256",
          "name": "",
          "type": "uint256"
        }
      ],
      "stateMutability": "view",
      "type": "function"
    },
    {
      "inputs": [
        {
          "internalType": "uint256",
          "name": "proposalId",
          "type": "uint256"
        }
      ],
      "name": "proposalSnapshot",
      "outputs": [
        {
          "internalType": "uint256",
          "name": "",
          "type": "uint256"
        }
      ],
      "stateMutability": "view",
      "type": "function"
    },
    {
      "inputs": [
        {
          "internalType": "uint256",
          "name": "proposalId",
          "type": "uint256"
        }
      ],
      "name": "proposalVotes",
      "outputs": [
        {
          "internalType": "uint256",
          "name": "againstVotes",
          "type": "uint256"
        },
        {
          "internalType": "uint256",
          "name": "forVotes",
          "type": "uint256"
        },
        {
          "internalType": "uint256",
          "name": "abstainVotes",
          "type": "uint256"
        }
      ],
      "stateMutability": "view",
      "type": "function"
    },
    {
      "inputs": [],
      "name": "quorumDenominator",
      "outputs": [
        {
          "internalType": "uint256",
          "name": "",
          "type": "uint256"
        }
      ],
      "stateMutability": "view",
      "type": "function"
    },
    {
      "inputs": [],
      "name": "quorumNumerator",
      "outputs": [
        {
          "internalType": "uint256",
          "name": "",
          "type": "uint256"
        }
      ],
      "stateMutability": "view",
      "type": "function"
    },
    {
      "inputs": [
        {
          "internalType": "address",
          "name": "target",
          "type": "address"
        },
        {
          "internalType": "uint256",
          "name": "value",
          "type": "uint256"
        },
        {
          "internalType": "bytes",
          "name": "data",
          "type": "bytes"
        }
      ],
      "name": "relay",
      "outputs": [],
      "stateMutability": "nonpayable",
      "type": "function"
    },
    {
      "inputs": [],
      "name": "renounceOwnership",
      "outputs": [],
      "stateMutability": "nonpayable",
      "type": "function"
    },
    {
      "inputs": [
        {
          "internalType": "uint256",
          "name": "newProposalThreshold",
          "type": "uint256"
        }
      ],
      "name": "setProposalThreshold",
      "outputs": [],
      "stateMutability": "nonpayable",
      "type": "function"
    },
    {
      "inputs": [
        {
          "internalType": "uint256",
          "name": "newVotingDelay",
          "type": "uint256"
        }
      ],
      "name": "setVotingDelay",
      "outputs": [],
      "stateMutability": "nonpayable",
      "type": "function"
    },
    {
      "inputs": [
        {
          "internalType": "uint256",
          "name": "newVotingPeriod",
          "type": "uint256"
        }
      ],
      "name": "setVotingPeriod",
      "outputs": [],
      "stateMutability": "nonpayable",
      "type": "function"
    },
    {
      "inputs": [
        {
          "internalType": "uint256",
          "name": "proposalId",
          "type": "uint256"
        }
      ],
      "name": "state",
      "outputs": [
        {
          "internalType": "enum IGovernorUpgradeable.ProposalState",
          "name": "",
          "type": "uint8"
        }
      ],
      "stateMutability": "view",
      "type": "function"
    },
    {
      "inputs": [
        {
          "internalType": "bytes4",
          "name": "interfaceId",
          "type": "bytes4"
        }
      ],
      "name": "supportsInterface",
      "outputs": [
        {
          "internalType": "bool",
          "name": "",
          "type": "bool"
        }
      ],
      "stateMutability": "view",
      "type": "function"
    },
    {
      "inputs": [],
      "name": "token",
      "outputs": [
        {
          "internalType": "contract IVotesUpgradeable",
          "name": "",
          "type": "address"
        }
      ],
      "stateMutability": "view",
      "type": "function"
    },
    {
      "inputs": [
        {
          "internalType": "address",
          "name": "newOwner",
          "type": "address"
        }
      ],
      "name": "transferOwnership",
      "outputs": [],
      "stateMutability": "nonpayable",
      "type": "function"
    },
    {
      "inputs": [],
      "name": "version",
      "outputs": [
        {
          "internalType": "string",
          "name": "",
          "type": "string"
        }
      ],
      "stateMutability": "view",
      "type": "function"
    },
    {
      "stateMutability": "payable",
      "type": "receive"
    },
    {
      "inputs": [
        {
          "internalType": "contract IVotesUpgradeable",
          "name": "_token",
          "type": "address"
        },
        {
          "components": [
            {
              "internalType": "bool",
              "name": "isVotingEnabled",
              "type": "bool"
            },
            {
              "internalType": "bool",
              "name": "everybodyCreateCanVote",
              "type": "bool"
            }
          ],
          "internalType": "struct Dao_v1.DaoSettings",
          "name": "settings",
          "type": "tuple"
        }
      ],
      "name": "initialize",
      "outputs": [],
      "stateMutability": "nonpayable",
      "type": "function"
    },
    {
      "inputs": [],
      "name": "votingDelay",
      "outputs": [
        {
          "internalType": "uint256",
          "name": "",
          "type": "uint256"
        }
      ],
      "stateMutability": "view",
      "type": "function"
    },
    {
      "inputs": [],
      "name": "votingPeriod",
      "outputs": [
        {
          "internalType": "uint256",
          "name": "",
          "type": "uint256"
        }
      ],
      "stateMutability": "view",
      "type": "function"
    },
    {
      "inputs": [
        {
          "internalType": "uint256",
          "name": "blockNumber",
          "type": "uint256"
        }
      ],
      "name": "quorum",
      "outputs": [
        {
          "internalType": "uint256",
          "name": "",
          "type": "uint256"
        }
      ],
      "stateMutability": "view",
      "type": "function"
    },
    {
      "inputs": [
        {
          "internalType": "address",
          "name": "account",
          "type": "address"
        },
        {
          "internalType": "uint256",
          "name": "blockNumber",
          "type": "uint256"
        }
      ],
      "name": "getVotes",
      "outputs": [
        {
          "internalType": "uint256",
          "name": "",
          "type": "uint256"
        }
      ],
      "stateMutability": "view",
      "type": "function"
    },
    {
      "inputs": [],
      "name": "proposalThreshold",
      "outputs": [
        {
          "internalType": "uint256",
          "name": "",
          "type": "uint256"
        }
      ],
      "stateMutability": "view",
      "type": "function"
    },
    {
      "inputs": [
        {
          "internalType": "address[]",
          "name": "targets",
          "type": "address[]"
        },
        {
          "internalType": "uint256[]",
          "name": "values",
          "type": "uint256[]"
        },
        {
          "internalType": "bytes[]",
          "name": "calldatas",
          "type": "bytes[]"
        },
        {
          "internalType": "string",
          "name": "description",
          "type": "string"
        }
      ],
      "name": "propose",
      "outputs": [
        {
          "internalType": "uint256",
          "name": "",
          "type": "uint256"
        }
      ],
      "stateMutability": "nonpayable",
      "type": "function"
    },
    {
      "inputs": [
        {
          "internalType": "uint256",
          "name": "newQuorumNumerator",
          "type": "uint256"
        }
      ],
      "name": "updateQuorumNumerator",
      "outputs": [],
      "stateMutability": "nonpayable",
      "type": "function"
    }
  ],
  "bytecode": "0x60806040523480156200001157600080fd5b50600060019054906101000a900460ff166200003c5760008054906101000a900460ff16156200004d565b6200004c6200010960201b60201c565b5b6200008f576040517f08c379a00000000000000000000000000000000000000000000000000000000081526004016200008690620001d1565b60405180910390fd5b60008060019054906101000a900460ff161590508015620000e0576001600060016101000a81548160ff02191690831515021790555060016000806101000a81548160ff0219169083151502179055505b8015620001025760008060016101000a81548160ff0219169083151502179055505b50620001f3565b600062000121306200012760201b620017411760201c565b15905090565b6000808273ffffffffffffffffffffffffffffffffffffffff163b119050919050565b600082825260208201905092915050565b7f496e697469616c697a61626c653a20636f6e747261637420697320616c72656160008201527f647920696e697469616c697a6564000000000000000000000000000000000000602082015250565b6000620001b9602e836200014a565b9150620001c6826200015b565b604082019050919050565b60006020820190508181036000830152620001ec81620001aa565b9050919050565b61560180620002036000396000f3fe6080604052600436106101f25760003560e01c80637b3c71d31161010d578063c59057e4116100a0578063eb9019d41161006f578063eb9019d4146107a0578063ece40cc1146107dd578063f2fde38b14610806578063f8ce560a1461082f578063fc0c546a1461086c57610238565b8063c59057e4146106e4578063dd4e2ba514610721578063deaaa7cc1461074c578063ea0217cf1461077757610238565b8063a7713a70116100dc578063a7713a7014610628578063b58131b014610653578063c01f9e371461067e578063c28bc2fa146106bb57610238565b80637b3c71d3146105585780637d5e81e2146105955780638da5cb5b146105d257806397c3d334146105fd57610238565b80633bccf4fd1161018557806354fd4d501161015457806354fd4d50146104b057806356781388146104db57806370b0f66014610518578063715018a61461054157610238565b80633bccf4fd146103ba5780633e4f49e6146103f75780634385963214610434578063544ffc9c1461047157610238565b806315a0c477116101c157806315a0c477146102f95780632656227d146103225780632d63f693146103525780633932abb11461038f57610238565b806301ffc9a71461023d57806302a251a31461027a57806306f3f9e6146102a557806306fdde03146102ce57610238565b36610238573073ffffffffffffffffffffffffffffffffffffffff16610216610897565b73ffffffffffffffffffffffffffffffffffffffff161461023657600080fd5b005b600080fd5b34801561024957600080fd5b50610264600480360381019061025f9190613002565b61089f565b604051610271919061304a565b60405180910390f35b34801561028657600080fd5b5061028f610919565b60405161029c919061307e565b60405180910390f35b3480156102b157600080fd5b506102cc60048036038101906102c791906130c5565b610928565b005b3480156102da57600080fd5b506102e36109b0565b6040516102f0919061318b565b60405180910390f35b34801561030557600080fd5b50610320600480360381019061031b9190613319565b610a42565b005b61033c600480360381019061033791906136e1565b610bdf565b604051610349919061307e565b60405180910390f35b34801561035e57600080fd5b50610379600480360381019061037491906130c5565b610d13565b604051610386919061307e565b60405180910390f35b34801561039b57600080fd5b506103a4610d81565b6040516103b1919061307e565b60405180910390f35b3480156103c657600080fd5b506103e160048036038101906103dc91906137d5565b610d90565b6040516103ee919061307e565b60405180910390f35b34801561040357600080fd5b5061041e600480360381019061041991906130c5565b610e1a565b60405161042b91906138c7565b60405180910390f35b34801561044057600080fd5b5061045b600480360381019061045691906138e2565b610f2f565b604051610468919061304a565b60405180910390f35b34801561047d57600080fd5b50610498600480360381019061049391906130c5565b610f9b565b6040516104a793929190613922565b60405180910390f35b3480156104bc57600080fd5b506104c5610fd4565b6040516104d2919061318b565b60405180910390f35b3480156104e757600080fd5b5061050260048036038101906104fd9190613959565b611011565b60405161050f919061307e565b60405180910390f35b34801561052457600080fd5b5061053f600480360381019061053a91906130c5565b611042565b005b34801561054d57600080fd5b506105566110ca565b005b34801561056457600080fd5b5061057f600480360381019061057a91906139f4565b611152565b60405161058c919061307e565b60405180910390f35b3480156105a157600080fd5b506105bc60048036038101906105b79190613b09565b6111ba565b6040516105c9919061307e565b60405180910390f35b3480156105de57600080fd5b506105e76112c1565b6040516105f49190613bef565b60405180910390f35b34801561060957600080fd5b506106126112ec565b60405161061f919061307e565b60405180910390f35b34801561063457600080fd5b5061063d6112f5565b60405161064a919061307e565b60405180910390f35b34801561065f57600080fd5b50610668611300565b604051610675919061307e565b60405180910390f35b34801561068a57600080fd5b506106a560048036038101906106a091906130c5565b61130f565b6040516106b2919061307e565b60405180910390f35b3480156106c757600080fd5b506106e260048036038101906106dd9190613c60565b61137d565b005b3480156106f057600080fd5b5061070b600480360381019061070691906136e1565b61144f565b604051610718919061307e565b60405180910390f35b34801561072d57600080fd5b5061073661148b565b604051610743919061318b565b60405180910390f35b34801561075857600080fd5b506107616114c8565b60405161076e9190613ce3565b60405180910390f35b34801561078357600080fd5b5061079e600480360381019061079991906130c5565b6114ec565b005b3480156107ac57600080fd5b506107c760048036038101906107c29190613cfe565b611574565b6040516107d4919061307e565b60405180910390f35b3480156107e957600080fd5b5061080460048036038101906107ff91906130c5565b611588565b005b34801561081257600080fd5b5061082d60048036038101906108289190613d3e565b611610565b005b34801561083b57600080fd5b50610856600480360381019061085191906130c5565b611708565b604051610863919061307e565b60405180910390f35b34801561087857600080fd5b5061088161171a565b60405161088e9190613dca565b60405180910390f35b600030905090565b60007fbf26d897000000000000000000000000000000000000000000000000000000007bffffffffffffffffffffffffffffffffffffffffffffffffffffffff1916827bffffffffffffffffffffffffffffffffffffffffffffffffffffffff19161480610912575061091182611764565b5b9050919050565b60006109236117ce565b905090565b6109306117d8565b73ffffffffffffffffffffffffffffffffffffffff1661094e6112c1565b73ffffffffffffffffffffffffffffffffffffffff16146109a4576040517f08c379a000000000000000000000000000000000000000000000000000000000815260040161099b90613e31565b60405180910390fd5b6109ad816117e0565b50565b606060cb80546109bf90613e80565b80601f01602080910402602001604051908101604052809291908181526020018280546109eb90613e80565b8015610a385780601f10610a0d57610100808354040283529160200191610a38565b820191906000526020600020905b815481529060010190602001808311610a1b57829003601f168201915b5050505050905090565b600060019054906101000a900460ff16610a6a5760008054906101000a900460ff1615610a73565b610a72611877565b5b610ab2576040517f08c379a0000000000000000000000000000000000000000000000000000000008152600401610aa990613f24565b60405180910390fd5b60008060019054906101000a900460ff161590508015610b02576001600060016101000a81548160ff02191690831515021790555060016000806101000a81548160ff0219169083151502179055505b610b406040518060400160405280600381526020017f44414f0000000000000000000000000000000000000000000000000000000000815250611888565b610b4f600161b2fa60016118f4565b610b57611953565b610b60836119a4565b610b6a60046119ff565b610b72611a5a565b816101f860008201518160000160006101000a81548160ff02191690831515021790555060208201518160000160016101000a81548160ff0219169083151502179055509050508015610bda5760008060016101000a81548160ff0219169083151502179055505b505050565b600080610bee8686868661144f565b90506000610bfb82610e1a565b905060046007811115610c1157610c10613850565b5b816007811115610c2457610c23613850565b5b1480610c54575060056007811115610c3f57610c3e613850565b5b816007811115610c5257610c51613850565b5b145b610c93576040517f08c379a0000000000000000000000000000000000000000000000000000000008152600401610c8a90613fb6565b60405180910390fd5b600160cc600084815260200190815260200160002060020160006101000a81548160ff0219169083151502179055507f712ae1383f79ac853f8d882153778e0260ef8f03b504e2866e0593e04d2b291f82604051610cf1919061307e565b60405180910390a1610d068288888888611ab3565b8192505050949350505050565b6000610d7060cc60008481526020019081526020016000206000016040518060200160405290816000820160009054906101000a900467ffffffffffffffff1667ffffffffffffffff1667ffffffffffffffff1681525050611bc2565b67ffffffffffffffff169050919050565b6000610d8b611bd0565b905090565b600080610df1610de97f150214d74d59b7d1e90c73fc22ef3d991dd0a76b046543d4d80ab92d2a50328f8989604051602001610dce93929190613fe5565b60405160208183030381529060405280519060200120611bda565b868686611bf4565b9050610e0e87828860405180602001604052806000815250611c1f565b91505095945050505050565b60008060cc600084815260200190815260200160002090508060020160009054906101000a900460ff1615610e53576007915050610f2a565b8060020160019054906101000a900460ff1615610e74576002915050610f2a565b6000610e7f84610d13565b90506000811415610ec5576040517f08c379a0000000000000000000000000000000000000000000000000000000008152600401610ebc90614068565b60405180910390fd5b438110610ed757600092505050610f2a565b6000610ee28561130f565b9050438110610ef75760019350505050610f2a565b610f0085611d73565b8015610f115750610f1085611dbb565b5b15610f225760049350505050610f2a565b600393505050505b919050565b600061012f600084815260200190815260200160002060030160008373ffffffffffffffffffffffffffffffffffffffff1673ffffffffffffffffffffffffffffffffffffffff16815260200190815260200160002060009054906101000a900460ff16905092915050565b60008060008061012f60008681526020019081526020016000209050806000015481600101548260020154935093509350509193909250565b60606040518060400160405280600181526020017f3100000000000000000000000000000000000000000000000000000000000000815250905090565b60008061101c6117d8565b905061103984828560405180602001604052806000815250611c1f565b91505092915050565b61104a610897565b73ffffffffffffffffffffffffffffffffffffffff166110686117d8565b73ffffffffffffffffffffffffffffffffffffffff16146110be576040517f08c379a00000000000000000000000000000000000000000000000000000000081526004016110b5906140d4565b60405180910390fd5b6110c781611de7565b50565b6110d26117d8565b73ffffffffffffffffffffffffffffffffffffffff166110f06112c1565b73ffffffffffffffffffffffffffffffffffffffff1614611146576040517f08c379a000000000000000000000000000000000000000000000000000000000815260040161113d90613e31565b60405180910390fd5b6111506000611e2c565b565b60008061115d6117d8565b90506111af86828787878080601f016020809104026020016040519081016040528093929190818152602001838380828437600081840152601f19601f82011690508083019250505050505050611c1f565b915050949350505050565b6000600115156101f860000160009054906101000a900460ff16151514611216576040517f08c379a000000000000000000000000000000000000000000000000000000000815260040161120d90614140565b60405180910390fd5b6101f860000160019054906101000a900460ff166112ab576112366117d8565b73ffffffffffffffffffffffffffffffffffffffff166112546112c1565b73ffffffffffffffffffffffffffffffffffffffff16146112aa576040517f08c379a00000000000000000000000000000000000000000000000000000000081526004016112a1906141d2565b60405180910390fd5b5b6112b785858585611ef4565b9050949350505050565b600061016160009054906101000a900473ffffffffffffffffffffffffffffffffffffffff16905090565b60006064905090565b60006101c654905090565b600061130a6121f4565b905090565b600061136c60cc60008481526020019081526020016000206001016040518060200160405290816000820160009054906101000a900467ffffffffffffffff1667ffffffffffffffff1667ffffffffffffffff1681525050611bc2565b67ffffffffffffffff169050919050565b611385610897565b73ffffffffffffffffffffffffffffffffffffffff166113a36117d8565b73ffffffffffffffffffffffffffffffffffffffff16146113f9576040517f08c379a00000000000000000000000000000000000000000000000000000000081526004016113f0906140d4565b60405180910390fd5b6114488483838080601f016020809104026020016040519081016040528093929190818152602001838380828437600081840152601f19601f82011690508083019250505050505050856121fe565b5050505050565b6000848484846040516020016114689493929190614485565b6040516020818303038152906040528051906020012060001c9050949350505050565b60606040518060400160405280602081526020017f737570706f72743d627261766f2671756f72756d3d666f722c6162737461696e815250905090565b7f150214d74d59b7d1e90c73fc22ef3d991dd0a76b046543d4d80ab92d2a50328f81565b6114f4610897565b73ffffffffffffffffffffffffffffffffffffffff166115126117d8565b73ffffffffffffffffffffffffffffffffffffffff1614611568576040517f08c379a000000000000000000000000000000000000000000000000000000000815260040161155f906140d4565b60405180910390fd5b6115718161222d565b50565b600061158083836122b5565b905092915050565b611590610897565b73ffffffffffffffffffffffffffffffffffffffff166115ae6117d8565b73ffffffffffffffffffffffffffffffffffffffff1614611604576040517f08c379a00000000000000000000000000000000000000000000000000000000081526004016115fb906140d4565b60405180910390fd5b61160d8161236d565b50565b6116186117d8565b73ffffffffffffffffffffffffffffffffffffffff166116366112c1565b73ffffffffffffffffffffffffffffffffffffffff161461168c576040517f08c379a000000000000000000000000000000000000000000000000000000000815260040161168390613e31565b60405180910390fd5b600073ffffffffffffffffffffffffffffffffffffffff168173ffffffffffffffffffffffffffffffffffffffff1614156116fc576040517f08c379a00000000000000000000000000000000000000000000000000000000081526004016116f390614551565b60405180910390fd5b61170581611e2c565b50565b6000611713826123b2565b9050919050565b61019360009054906101000a900473ffffffffffffffffffffffffffffffffffffffff1681565b6000808273ffffffffffffffffffffffffffffffffffffffff163b119050919050565b60007f01ffc9a7000000000000000000000000000000000000000000000000000000007bffffffffffffffffffffffffffffffffffffffffffffffffffffffff1916827bffffffffffffffffffffffffffffffffffffffffffffffffffffffff1916149050919050565b600060fe54905090565b600033905090565b6117e86112ec565b81111561182a576040517f08c379a000000000000000000000000000000000000000000000000000000000815260040161182190614609565b60405180910390fd5b60006101c6549050816101c6819055507f0553476bf02ef2726e8ce5ced78d63e26e602e4a2257b1f559418e24b4633997818360405161186b929190614629565b60405180910390a15050565b600061188230611741565b15905090565b600060019054906101000a900460ff166118d7576040517f08c379a00000000000000000000000000000000000000000000000000000000081526004016118ce906146c4565b60405180910390fd5b6118e8816118e3610fd4565b61248b565b6118f181612506565b50565b600060019054906101000a900460ff16611943576040517f08c379a000000000000000000000000000000000000000000000000000000000815260040161193a906146c4565b60405180910390fd5b61194e83838361256f565b505050565b600060019054906101000a900460ff166119a2576040517f08c379a0000000000000000000000000000000000000000000000000000000008152600401611999906146c4565b60405180910390fd5b565b600060019054906101000a900460ff166119f3576040517f08c379a00000000000000000000000000000000000000000000000000000000081526004016119ea906146c4565b60405180910390fd5b6119fc816125de565b50565b600060019054906101000a900460ff16611a4e576040517f08c379a0000000000000000000000000000000000000000000000000000000008152600401611a45906146c4565b60405180910390fd5b611a5781612672565b50565b600060019054906101000a900460ff16611aa9576040517f08c379a0000000000000000000000000000000000000000000000000000000008152600401611aa0906146c4565b60405180910390fd5b611ab16126cd565b565b600060405180606001604052806027815260200161557c60279139905060005b8551811015611bb957600080878381518110611af257611af16146e4565b5b602002602001015173ffffffffffffffffffffffffffffffffffffffff16878481518110611b2357611b226146e4565b5b6020026020010151878581518110611b3e57611b3d6146e4565b5b6020026020010151604051611b53919061474f565b60006040518083038185875af1925050503d8060008114611b90576040519150601f19603f3d011682016040523d82523d6000602084013e611b95565b606091505b5091509150611ba582828661272e565b50505080611bb290614795565b9050611ad3565b50505050505050565b600081600001519050919050565b600060fd54905090565b6000611bed611be7612795565b836127d5565b9050919050565b6000806000611c0587878787612808565b91509150611c1281612915565b8192505050949350505050565b60008060cc6000878152602001908152602001600020905060016007811115611c4b57611c4a613850565b5b611c5487610e1a565b6007811115611c6657611c65613850565b5b14611ca6576040517f08c379a0000000000000000000000000000000000000000000000000000000008152600401611c9d90614850565b60405180910390fd5b6000611d0486611cf5846000016040518060200160405290816000820160009054906101000a900467ffffffffffffffff1667ffffffffffffffff1667ffffffffffffffff1681525050611bc2565b67ffffffffffffffff16611574565b9050611d1287878784612aea565b8573ffffffffffffffffffffffffffffffffffffffff167fb8e138887d0aa13bab447e82de9d5c1777041ecd21ca36ba824ff1e6c07ddda488878488604051611d5e9493929190614870565b60405180910390a28092505050949350505050565b60008061012f6000848152602001908152602001600020905080600201548160010154611da091906148bc565b611db1611dac85610d13565b611708565b1115915050919050565b60008061012f600084815260200190815260200160002090508060000154816001015411915050919050565b7fc565b045403dc03c2eea82b81a0465edad9e2e7fc4d97e11421c209da93d7a9360fd5482604051611e1a929190614629565b60405180910390a18060fd8190555050565b600061016160009054906101000a900473ffffffffffffffffffffffffffffffffffffffff1690508161016160006101000a81548173ffffffffffffffffffffffffffffffffffffffff021916908373ffffffffffffffffffffffffffffffffffffffff1602179055508173ffffffffffffffffffffffffffffffffffffffff168173ffffffffffffffffffffffffffffffffffffffff167f8be0079c531659141344cd1fd0a4f28419497f9722a3daafe3b4186f6b6457e060405160405180910390a35050565b6000611efe611300565b611f1433600143611f0f9190614912565b611574565b1015611f55576040517f08c379a0000000000000000000000000000000000000000000000000000000008152600401611f4c906149de565b60405180910390fd5b6000611f6a868686868051906020012061144f565b90508451865114611fb0576040517f08c379a0000000000000000000000000000000000000000000000000000000008152600401611fa790614a70565b60405180910390fd5b8351865114611ff4576040517f08c379a0000000000000000000000000000000000000000000000000000000008152600401611feb90614a70565b60405180910390fd5b6000865111612038576040517f08c379a000000000000000000000000000000000000000000000000000000000815260040161202f90614adc565b60405180910390fd5b600060cc60008381526020019081526020016000209050612098816000016040518060200160405290816000820160009054906101000a900467ffffffffffffffff1667ffffffffffffffff1667ffffffffffffffff1681525050612cf1565b6120d7576040517f08c379a00000000000000000000000000000000000000000000000000000000081526004016120ce90614b6e565b60405180910390fd5b60006120e96120e4610d81565b612d0b565b6120f243612d0b565b6120fc9190614ba2565b9050600061211061210b610919565b612d0b565b8261211b9190614ba2565b90506121338284600001612d6290919063ffffffff16565b6121498184600101612d6290919063ffffffff16565b7f7d84a6263ae0d98d3329bd7b46bb4e8d6f98cd35a7adb45c274c8b7fd5ebd5e0846121736117d8565b8b8b8d5167ffffffffffffffff8111156121905761218f613222565b5b6040519080825280602002602001820160405280156121c357816020015b60608152602001906001900390816121ae5790505b508c88888e6040516121dd99989796959493929190614d1d565b60405180910390a183945050505050949350505050565b600060ff54905090565b60606122248484846040518060600160405280602981526020016155a360299139612d91565b90509392505050565b60008111612270576040517f08c379a000000000000000000000000000000000000000000000000000000000815260040161226790614e3f565b60405180910390fd5b7f7e3f7f0708a84de9203036abaa450dccc85ad5ff52f78c170f3edb55cf5e882860fe54826040516122a3929190614629565b60405180910390a18060fe8190555050565b600061019360009054906101000a900473ffffffffffffffffffffffffffffffffffffffff1673ffffffffffffffffffffffffffffffffffffffff16633a46b1a884846040518363ffffffff1660e01b8152600401612315929190614e5f565b60206040518083038186803b15801561232d57600080fd5b505afa158015612341573d6000803e3d6000fd5b505050506040513d601f19601f820116820180604052508101906123659190614e9d565b905092915050565b7fccb45da8d5717e6c4544694297c4ba5cf151d455c9bb0ed4fc7a38411bc0546160ff54826040516123a0929190614629565b60405180910390a18060ff8190555050565b60006123bc6112ec565b6123c46112f5565b61019360009054906101000a900473ffffffffffffffffffffffffffffffffffffffff1673ffffffffffffffffffffffffffffffffffffffff16638e539e8c856040518263ffffffff1660e01b8152600401612420919061307e565b60206040518083038186803b15801561243857600080fd5b505afa15801561244c573d6000803e3d6000fd5b505050506040513d601f19601f820116820180604052508101906124709190614e9d565b61247a9190614eca565b6124849190614f53565b9050919050565b600060019054906101000a900460ff166124da576040517f08c379a00000000000000000000000000000000000000000000000000000000081526004016124d1906146c4565b60405180910390fd5b600082805190602001209050600082805190602001209050816065819055508060668190555050505050565b600060019054906101000a900460ff16612555576040517f08c379a000000000000000000000000000000000000000000000000000000000815260040161254c906146c4565b60405180910390fd5b8060cb908051906020019061256b929190612ef3565b5050565b600060019054906101000a900460ff166125be576040517f08c379a00000000000000000000000000000000000000000000000000000000081526004016125b5906146c4565b60405180910390fd5b6125c783611de7565b6125d08261222d565b6125d98161236d565b505050565b600060019054906101000a900460ff1661262d576040517f08c379a0000000000000000000000000000000000000000000000000000000008152600401612624906146c4565b60405180910390fd5b8061019360006101000a81548173ffffffffffffffffffffffffffffffffffffffff021916908373ffffffffffffffffffffffffffffffffffffffff16021790555050565b600060019054906101000a900460ff166126c1576040517f08c379a00000000000000000000000000000000000000000000000000000000081526004016126b8906146c4565b60405180910390fd5b6126ca816117e0565b50565b600060019054906101000a900460ff1661271c576040517f08c379a0000000000000000000000000000000000000000000000000000000008152600401612713906146c4565b60405180910390fd5b61272c6127276117d8565b611e2c565b565b6060831561273e5782905061278e565b6000835111156127515782518084602001fd5b816040517f08c379a0000000000000000000000000000000000000000000000000000000008152600401612785919061318b565b60405180910390fd5b9392505050565b60006127d07f8b73c3c69bb8fe3d512ecc4cf759cc79239f7b179b0ffacaa9a75d522b39400f6127c3612ea5565b6127cb612eaf565b612eb9565b905090565b600082826040516020016127ea929190614ffc565b60405160208183030381529060405280519060200120905092915050565b6000807f7fffffffffffffffffffffffffffffff5d576e7357a4501ddfe92f46681b20a08360001c111561284357600060039150915061290c565b601b8560ff161415801561285b5750601c8560ff1614155b1561286d57600060049150915061290c565b6000600187878787604051600081526020016040526040516128929493929190615033565b6020604051602081039080840390855afa1580156128b4573d6000803e3d6000fd5b505050602060405103519050600073ffffffffffffffffffffffffffffffffffffffff168173ffffffffffffffffffffffffffffffffffffffff1614156129035760006001925092505061290c565b80600092509250505b94509492505050565b6000600481111561292957612928613850565b5b81600481111561293c5761293b613850565b5b141561294757612ae7565b6001600481111561295b5761295a613850565b5b81600481111561296e5761296d613850565b5b14156129af576040517f08c379a00000000000000000000000000000000000000000000000000000000081526004016129a6906150c4565b60405180910390fd5b600260048111156129c3576129c2613850565b5b8160048111156129d6576129d5613850565b5b1415612a17576040517f08c379a0000000000000000000000000000000000000000000000000000000008152600401612a0e90615130565b60405180910390fd5b60036004811115612a2b57612a2a613850565b5b816004811115612a3e57612a3d613850565b5b1415612a7f576040517f08c379a0000000000000000000000000000000000000000000000000000000008152600401612a76906151c2565b60405180910390fd5b600480811115612a9257612a91613850565b5b816004811115612aa557612aa4613850565b5b1415612ae6576040517f08c379a0000000000000000000000000000000000000000000000000000000008152600401612add90615254565b60405180910390fd5b5b50565b600061012f600086815260200190815260200160002090508060030160008573ffffffffffffffffffffffffffffffffffffffff1673ffffffffffffffffffffffffffffffffffffffff16815260200190815260200160002060009054906101000a900460ff1615612b91576040517f08c379a0000000000000000000000000000000000000000000000000000000008152600401612b88906152e6565b60405180910390fd5b60018160030160008673ffffffffffffffffffffffffffffffffffffffff1673ffffffffffffffffffffffffffffffffffffffff16815260200190815260200160002060006101000a81548160ff02191690831515021790555060006002811115612bff57612bfe613850565b5b60ff168360ff161415612c2c5781816000016000828254612c2091906148bc565b92505081905550612cea565b60016002811115612c4057612c3f613850565b5b60ff168360ff161415612c6d5781816001016000828254612c6191906148bc565b92505081905550612ce9565b600280811115612c8057612c7f613850565b5b60ff168360ff161415612cad5781816002016000828254612ca191906148bc565b92505081905550612ce8565b6040517f08c379a0000000000000000000000000000000000000000000000000000000008152600401612cdf90615378565b60405180910390fd5b5b5b5050505050565b600080826000015167ffffffffffffffff16149050919050565b600067ffffffffffffffff8016821115612d5a576040517f08c379a0000000000000000000000000000000000000000000000000000000008152600401612d519061540a565b60405180910390fd5b819050919050565b808260000160006101000a81548167ffffffffffffffff021916908367ffffffffffffffff1602179055505050565b606082471015612dd6576040517f08c379a0000000000000000000000000000000000000000000000000000000008152600401612dcd9061549c565b60405180910390fd5b612ddf85611741565b612e1e576040517f08c379a0000000000000000000000000000000000000000000000000000000008152600401612e1590615508565b60405180910390fd5b6000808673ffffffffffffffffffffffffffffffffffffffff168587604051612e47919061474f565b60006040518083038185875af1925050503d8060008114612e84576040519150601f19603f3d011682016040523d82523d6000602084013e612e89565b606091505b5091509150612e9982828661272e565b92505050949350505050565b6000606554905090565b6000606654905090565b60008383834630604051602001612ed4959493929190615528565b6040516020818303038152906040528051906020012090509392505050565b828054612eff90613e80565b90600052602060002090601f016020900481019282612f215760008555612f68565b82601f10612f3a57805160ff1916838001178555612f68565b82800160010185558215612f68579182015b82811115612f67578251825591602001919060010190612f4c565b5b509050612f759190612f79565b5090565b5b80821115612f92576000816000905550600101612f7a565b5090565b6000604051905090565b600080fd5b600080fd5b60007fffffffff0000000000000000000000000000000000000000000000000000000082169050919050565b612fdf81612faa565b8114612fea57600080fd5b50565b600081359050612ffc81612fd6565b92915050565b60006020828403121561301857613017612fa0565b5b600061302684828501612fed565b91505092915050565b60008115159050919050565b6130448161302f565b82525050565b600060208201905061305f600083018461303b565b92915050565b6000819050919050565b61307881613065565b82525050565b6000602082019050613093600083018461306f565b92915050565b6130a281613065565b81146130ad57600080fd5b50565b6000813590506130bf81613099565b92915050565b6000602082840312156130db576130da612fa0565b5b60006130e9848285016130b0565b91505092915050565b600081519050919050565b600082825260208201905092915050565b60005b8381101561312c578082015181840152602081019050613111565b8381111561313b576000848401525b50505050565b6000601f19601f8301169050919050565b600061315d826130f2565b61316781856130fd565b935061317781856020860161310e565b61318081613141565b840191505092915050565b600060208201905081810360008301526131a58184613152565b905092915050565b600073ffffffffffffffffffffffffffffffffffffffff82169050919050565b60006131d8826131ad565b9050919050565b60006131ea826131cd565b9050919050565b6131fa816131df565b811461320557600080fd5b50565b600081359050613217816131f1565b92915050565b600080fd5b7f4e487b7100000000000000000000000000000000000000000000000000000000600052604160045260246000fd5b61325a82613141565b810181811067ffffffffffffffff8211171561327957613278613222565b5b80604052505050565b600061328c612f96565b90506132988282613251565b919050565b6132a68161302f565b81146132b157600080fd5b50565b6000813590506132c38161329d565b92915050565b6000604082840312156132df576132de61321d565b5b6132e96040613282565b905060006132f9848285016132b4565b600083015250602061330d848285016132b4565b60208301525092915050565b600080606083850312156133305761332f612fa0565b5b600061333e85828601613208565b925050602061334f858286016132c9565b9150509250929050565b600080fd5b600067ffffffffffffffff82111561337957613378613222565b5b602082029050602081019050919050565b600080fd5b613398816131cd565b81146133a357600080fd5b50565b6000813590506133b58161338f565b92915050565b60006133ce6133c98461335e565b613282565b905080838252602082019050602084028301858111156133f1576133f061338a565b5b835b8181101561341a578061340688826133a6565b8452602084019350506020810190506133f3565b5050509392505050565b600082601f83011261343957613438613359565b5b81356134498482602086016133bb565b91505092915050565b600067ffffffffffffffff82111561346d5761346c613222565b5b602082029050602081019050919050565b600061349161348c84613452565b613282565b905080838252602082019050602084028301858111156134b4576134b361338a565b5b835b818110156134dd57806134c988826130b0565b8452602084019350506020810190506134b6565b5050509392505050565b600082601f8301126134fc576134fb613359565b5b813561350c84826020860161347e565b91505092915050565b600067ffffffffffffffff8211156135305761352f613222565b5b602082029050602081019050919050565b600080fd5b600067ffffffffffffffff82111561356157613560613222565b5b61356a82613141565b9050602081019050919050565b82818337600083830152505050565b600061359961359484613546565b613282565b9050828152602081018484840111156135b5576135b4613541565b5b6135c0848285613577565b509392505050565b600082601f8301126135dd576135dc613359565b5b81356135ed848260208601613586565b91505092915050565b600061360961360484613515565b613282565b9050808382526020820190506020840283018581111561362c5761362b61338a565b5b835b8181101561367357803567ffffffffffffffff81111561365157613650613359565b5b80860161365e89826135c8565b8552602085019450505060208101905061362e565b5050509392505050565b600082601f83011261369257613691613359565b5b81356136a28482602086016135f6565b91505092915050565b6000819050919050565b6136be816136ab565b81146136c957600080fd5b50565b6000813590506136db816136b5565b92915050565b600080600080608085870312156136fb576136fa612fa0565b5b600085013567ffffffffffffffff81111561371957613718612fa5565b5b61372587828801613424565b945050602085013567ffffffffffffffff81111561374657613745612fa5565b5b613752878288016134e7565b935050604085013567ffffffffffffffff81111561377357613772612fa5565b5b61377f8782880161367d565b9250506060613790878288016136cc565b91505092959194509250565b600060ff82169050919050565b6137b28161379c565b81146137bd57600080fd5b50565b6000813590506137cf816137a9565b92915050565b600080600080600060a086880312156137f1576137f0612fa0565b5b60006137ff888289016130b0565b9550506020613810888289016137c0565b9450506040613821888289016137c0565b9350506060613832888289016136cc565b9250506080613843888289016136cc565b9150509295509295909350565b7f4e487b7100000000000000000000000000000000000000000000000000000000600052602160045260246000fd5b600881106138905761388f613850565b5b50565b60008190506138a18261387f565b919050565b60006138b182613893565b9050919050565b6138c1816138a6565b82525050565b60006020820190506138dc60008301846138b8565b92915050565b600080604083850312156138f9576138f8612fa0565b5b6000613907858286016130b0565b9250506020613918858286016133a6565b9150509250929050565b6000606082019050613937600083018661306f565b613944602083018561306f565b613951604083018461306f565b949350505050565b600080604083850312156139705761396f612fa0565b5b600061397e858286016130b0565b925050602061398f858286016137c0565b9150509250929050565b600080fd5b60008083601f8401126139b4576139b3613359565b5b8235905067ffffffffffffffff8111156139d1576139d0613999565b5b6020830191508360018202830111156139ed576139ec61338a565b5b9250929050565b60008060008060608587031215613a0e57613a0d612fa0565b5b6000613a1c878288016130b0565b9450506020613a2d878288016137c0565b935050604085013567ffffffffffffffff811115613a4e57613a4d612fa5565b5b613a5a8782880161399e565b925092505092959194509250565b600067ffffffffffffffff821115613a8357613a82613222565b5b613a8c82613141565b9050602081019050919050565b6000613aac613aa784613a68565b613282565b905082815260208101848484011115613ac857613ac7613541565b5b613ad3848285613577565b509392505050565b600082601f830112613af057613aef613359565b5b8135613b00848260208601613a99565b91505092915050565b60008060008060808587031215613b2357613b22612fa0565b5b600085013567ffffffffffffffff811115613b4157613b40612fa5565b5b613b4d87828801613424565b945050602085013567ffffffffffffffff811115613b6e57613b6d612fa5565b5b613b7a878288016134e7565b935050604085013567ffffffffffffffff811115613b9b57613b9a612fa5565b5b613ba78782880161367d565b925050606085013567ffffffffffffffff811115613bc857613bc7612fa5565b5b613bd487828801613adb565b91505092959194509250565b613be9816131cd565b82525050565b6000602082019050613c046000830184613be0565b92915050565b60008083601f840112613c2057613c1f613359565b5b8235905067ffffffffffffffff811115613c3d57613c3c613999565b5b602083019150836001820283011115613c5957613c5861338a565b5b9250929050565b60008060008060608587031215613c7a57613c79612fa0565b5b6000613c88878288016133a6565b9450506020613c99878288016130b0565b935050604085013567ffffffffffffffff811115613cba57613cb9612fa5565b5b613cc687828801613c0a565b925092505092959194509250565b613cdd816136ab565b82525050565b6000602082019050613cf86000830184613cd4565b92915050565b60008060408385031215613d1557613d14612fa0565b5b6000613d23858286016133a6565b9250506020613d34858286016130b0565b9150509250929050565b600060208284031215613d5457613d53612fa0565b5b6000613d62848285016133a6565b91505092915050565b6000819050919050565b6000613d90613d8b613d86846131ad565b613d6b565b6131ad565b9050919050565b6000613da282613d75565b9050919050565b6000613db482613d97565b9050919050565b613dc481613da9565b82525050565b6000602082019050613ddf6000830184613dbb565b92915050565b7f4f776e61626c653a2063616c6c6572206973206e6f7420746865206f776e6572600082015250565b6000613e1b6020836130fd565b9150613e2682613de5565b602082019050919050565b60006020820190508181036000830152613e4a81613e0e565b9050919050565b7f4e487b7100000000000000000000000000000000000000000000000000000000600052602260045260246000fd5b60006002820490506001821680613e9857607f821691505b60208210811415613eac57613eab613e51565b5b50919050565b7f496e697469616c697a61626c653a20636f6e747261637420697320616c72656160008201527f647920696e697469616c697a6564000000000000000000000000000000000000602082015250565b6000613f0e602e836130fd565b9150613f1982613eb2565b604082019050919050565b60006020820190508181036000830152613f3d81613f01565b9050919050565b7f476f7665726e6f723a2070726f706f73616c206e6f742073756363657373667560008201527f6c00000000000000000000000000000000000000000000000000000000000000602082015250565b6000613fa06021836130fd565b9150613fab82613f44565b604082019050919050565b60006020820190508181036000830152613fcf81613f93565b9050919050565b613fdf8161379c565b82525050565b6000606082019050613ffa6000830186613cd4565b614007602083018561306f565b6140146040830184613fd6565b949350505050565b7f476f7665726e6f723a20756e6b6e6f776e2070726f706f73616c206964000000600082015250565b6000614052601d836130fd565b915061405d8261401c565b602082019050919050565b6000602082019050818103600083015261408181614045565b9050919050565b7f476f7665726e6f723a206f6e6c79476f7665726e616e63650000000000000000600082015250565b60006140be6018836130fd565b91506140c982614088565b602082019050919050565b600060208201905081810360008301526140ed816140b1565b9050919050565b7f566f74696e672069732064697361626c65640000000000000000000000000000600082015250565b600061412a6012836130fd565b9150614135826140f4565b602082019050919050565b600060208201905081810360008301526141598161411d565b9050919050565b7f566f74696e6720697320656e61626c6564206f6e6c7920666f72206f776e657260008201527f7300000000000000000000000000000000000000000000000000000000000000602082015250565b60006141bc6021836130fd565b91506141c782614160565b604082019050919050565b600060208201905081810360008301526141eb816141af565b9050919050565b600081519050919050565b600082825260208201905092915050565b6000819050602082019050919050565b614227816131cd565b82525050565b6000614239838361421e565b60208301905092915050565b6000602082019050919050565b600061425d826141f2565b61426781856141fd565b93506142728361420e565b8060005b838110156142a357815161428a888261422d565b975061429583614245565b925050600181019050614276565b5085935050505092915050565b600081519050919050565b600082825260208201905092915050565b6000819050602082019050919050565b6142e581613065565b82525050565b60006142f783836142dc565b60208301905092915050565b6000602082019050919050565b600061431b826142b0565b61432581856142bb565b9350614330836142cc565b8060005b8381101561436157815161434888826142eb565b975061435383614303565b925050600181019050614334565b5085935050505092915050565b600081519050919050565b600082825260208201905092915050565b6000819050602082019050919050565b600081519050919050565b600082825260208201905092915050565b60006143c18261439a565b6143cb81856143a5565b93506143db81856020860161310e565b6143e481613141565b840191505092915050565b60006143fb83836143b6565b905092915050565b6000602082019050919050565b600061441b8261436e565b6144258185614379565b9350836020820285016144378561438a565b8060005b85811015614473578484038952815161445485826143ef565b945061445f83614403565b925060208a0199505060018101905061443b565b50829750879550505050505092915050565b6000608082019050818103600083015261449f8187614252565b905081810360208301526144b38186614310565b905081810360408301526144c78185614410565b90506144d66060830184613cd4565b95945050505050565b7f4f776e61626c653a206e6577206f776e657220697320746865207a65726f206160008201527f6464726573730000000000000000000000000000000000000000000000000000602082015250565b600061453b6026836130fd565b9150614546826144df565b604082019050919050565b6000602082019050818103600083015261456a8161452e565b9050919050565b7f476f7665726e6f72566f74657351756f72756d4672616374696f6e3a2071756f60008201527f72756d4e756d657261746f72206f7665722071756f72756d44656e6f6d696e6160208201527f746f720000000000000000000000000000000000000000000000000000000000604082015250565b60006145f36043836130fd565b91506145fe82614571565b606082019050919050565b60006020820190508181036000830152614622816145e6565b9050919050565b600060408201905061463e600083018561306f565b61464b602083018461306f565b9392505050565b7f496e697469616c697a61626c653a20636f6e7472616374206973206e6f74206960008201527f6e697469616c697a696e67000000000000000000000000000000000000000000602082015250565b60006146ae602b836130fd565b91506146b982614652565b604082019050919050565b600060208201905081810360008301526146dd816146a1565b9050919050565b7f4e487b7100000000000000000000000000000000000000000000000000000000600052603260045260246000fd5b600081905092915050565b60006147298261439a565b6147338185614713565b935061474381856020860161310e565b80840191505092915050565b600061475b828461471e565b915081905092915050565b7f4e487b7100000000000000000000000000000000000000000000000000000000600052601160045260246000fd5b60006147a082613065565b91507fffffffffffffffffffffffffffffffffffffffffffffffffffffffffffffffff8214156147d3576147d2614766565b5b600182019050919050565b7f476f7665726e6f723a20766f7465206e6f742063757272656e746c792061637460008201527f6976650000000000000000000000000000000000000000000000000000000000602082015250565b600061483a6023836130fd565b9150614845826147de565b604082019050919050565b600060208201905081810360008301526148698161482d565b9050919050565b6000608082019050614885600083018761306f565b6148926020830186613fd6565b61489f604083018561306f565b81810360608301526148b18184613152565b905095945050505050565b60006148c782613065565b91506148d283613065565b9250827fffffffffffffffffffffffffffffffffffffffffffffffffffffffffffffffff0382111561490757614906614766565b5b828201905092915050565b600061491d82613065565b915061492883613065565b92508282101561493b5761493a614766565b5b828203905092915050565b7f476f7665726e6f72436f6d7061746962696c697479427261766f3a2070726f7060008201527f6f73657220766f7465732062656c6f772070726f706f73616c2074687265736860208201527f6f6c640000000000000000000000000000000000000000000000000000000000604082015250565b60006149c86043836130fd565b91506149d382614946565b606082019050919050565b600060208201905081810360008301526149f7816149bb565b9050919050565b7f476f7665726e6f723a20696e76616c69642070726f706f73616c206c656e677460008201527f6800000000000000000000000000000000000000000000000000000000000000602082015250565b6000614a5a6021836130fd565b9150614a65826149fe565b604082019050919050565b60006020820190508181036000830152614a8981614a4d565b9050919050565b7f476f7665726e6f723a20656d7074792070726f706f73616c0000000000000000600082015250565b6000614ac66018836130fd565b9150614ad182614a90565b602082019050919050565b60006020820190508181036000830152614af581614ab9565b9050919050565b7f476f7665726e6f723a2070726f706f73616c20616c726561647920657869737460008201527f7300000000000000000000000000000000000000000000000000000000000000602082015250565b6000614b586021836130fd565b9150614b6382614afc565b604082019050919050565b60006020820190508181036000830152614b8781614b4b565b9050919050565b600067ffffffffffffffff82169050919050565b6000614bad82614b8e565b9150614bb883614b8e565b92508267ffffffffffffffff03821115614bd557614bd4614766565b5b828201905092915050565b600081519050919050565b600082825260208201905092915050565b6000819050602082019050919050565b600082825260208201905092915050565b6000614c28826130f2565b614c328185614c0c565b9350614c4281856020860161310e565b614c4b81613141565b840191505092915050565b6000614c628383614c1d565b905092915050565b6000602082019050919050565b6000614c8282614be0565b614c8c8185614beb565b935083602082028501614c9e85614bfc565b8060005b85811015614cda5784840389528151614cbb8582614c56565b9450614cc683614c6a565b925060208a01995050600181019050614ca2565b50829750879550505050505092915050565b6000614d07614d02614cfd84614b8e565b613d6b565b613065565b9050919050565b614d1781614cec565b82525050565b600061012082019050614d33600083018c61306f565b614d40602083018b613be0565b8181036040830152614d52818a614252565b90508181036060830152614d668189614310565b90508181036080830152614d7a8188614c77565b905081810360a0830152614d8e8187614410565b9050614d9d60c0830186614d0e565b614daa60e0830185614d0e565b818103610100830152614dbd8184613152565b90509a9950505050505050505050565b7f476f7665726e6f7253657474696e67733a20766f74696e6720706572696f642060008201527f746f6f206c6f7700000000000000000000000000000000000000000000000000602082015250565b6000614e296027836130fd565b9150614e3482614dcd565b604082019050919050565b60006020820190508181036000830152614e5881614e1c565b9050919050565b6000604082019050614e746000830185613be0565b614e81602083018461306f565b9392505050565b600081519050614e9781613099565b92915050565b600060208284031215614eb357614eb2612fa0565b5b6000614ec184828501614e88565b91505092915050565b6000614ed582613065565b9150614ee083613065565b9250817fffffffffffffffffffffffffffffffffffffffffffffffffffffffffffffffff0483118215151615614f1957614f18614766565b5b828202905092915050565b7f4e487b7100000000000000000000000000000000000000000000000000000000600052601260045260246000fd5b6000614f5e82613065565b9150614f6983613065565b925082614f7957614f78614f24565b5b828204905092915050565b600081905092915050565b7f1901000000000000000000000000000000000000000000000000000000000000600082015250565b6000614fc5600283614f84565b9150614fd082614f8f565b600282019050919050565b6000819050919050565b614ff6614ff1826136ab565b614fdb565b82525050565b600061500782614fb8565b91506150138285614fe5565b6020820191506150238284614fe5565b6020820191508190509392505050565b60006080820190506150486000830187613cd4565b6150556020830186613fd6565b6150626040830185613cd4565b61506f6060830184613cd4565b95945050505050565b7f45434453413a20696e76616c6964207369676e61747572650000000000000000600082015250565b60006150ae6018836130fd565b91506150b982615078565b602082019050919050565b600060208201905081810360008301526150dd816150a1565b9050919050565b7f45434453413a20696e76616c6964207369676e6174757265206c656e67746800600082015250565b600061511a601f836130fd565b9150615125826150e4565b602082019050919050565b600060208201905081810360008301526151498161510d565b9050919050565b7f45434453413a20696e76616c6964207369676e6174757265202773272076616c60008201527f7565000000000000000000000000000000000000000000000000000000000000602082015250565b60006151ac6022836130fd565b91506151b782615150565b604082019050919050565b600060208201905081810360008301526151db8161519f565b9050919050565b7f45434453413a20696e76616c6964207369676e6174757265202776272076616c60008201527f7565000000000000000000000000000000000000000000000000000000000000602082015250565b600061523e6022836130fd565b9150615249826151e2565b604082019050919050565b6000602082019050818103600083015261526d81615231565b9050919050565b7f476f7665726e6f72566f74696e6753696d706c653a20766f746520616c72656160008201527f6479206361737400000000000000000000000000000000000000000000000000602082015250565b60006152d06027836130fd565b91506152db82615274565b604082019050919050565b600060208201905081810360008301526152ff816152c3565b9050919050565b7f476f7665726e6f72566f74696e6753696d706c653a20696e76616c696420766160008201527f6c756520666f7220656e756d20566f7465547970650000000000000000000000602082015250565b60006153626035836130fd565b915061536d82615306565b604082019050919050565b6000602082019050818103600083015261539181615355565b9050919050565b7f53616665436173743a2076616c756520646f65736e27742066697420696e203660008201527f3420626974730000000000000000000000000000000000000000000000000000602082015250565b60006153f46026836130fd565b91506153ff82615398565b604082019050919050565b60006020820190508181036000830152615423816153e7565b9050919050565b7f416464726573733a20696e73756666696369656e742062616c616e636520666f60008201527f722063616c6c0000000000000000000000000000000000000000000000000000602082015250565b60006154866026836130fd565b91506154918261542a565b604082019050919050565b600060208201905081810360008301526154b581615479565b9050919050565b7f416464726573733a2063616c6c20746f206e6f6e2d636f6e7472616374000000600082015250565b60006154f2601d836130fd565b91506154fd826154bc565b602082019050919050565b60006020820190508181036000830152615521816154e5565b9050919050565b600060a08201905061553d6000830188613cd4565b61554a6020830187613cd4565b6155576040830186613cd4565b615564606083018561306f565b6155716080830184613be0565b969550505050505056fe476f7665726e6f723a2063616c6c20726576657274656420776974686f7574206d657373616765416464726573733a206c6f772d6c6576656c2063616c6c20776974682076616c7565206661696c6564a2646970667358221220cf9247c1b765aaebb3abad22d3bafe85537ef4a95df4f8fd960fcea47f6f9d0764736f6c63430008090033",
  "immutableReferences": {},
  "source": "// SPDX-License-Identifier: MIT\r\npragma solidity ^0.8.9;\r\n\r\nimport \"@openzeppelin/contracts-upgradeable/governance/GovernorUpgradeable.sol\";\r\nimport \"@openzeppelin/contracts-upgradeable/governance/extensions/GovernorSettingsUpgradeable.sol\";\r\nimport \"@openzeppelin/contracts-upgradeable/governance/extensions/GovernorCountingSimpleUpgradeable.sol\";\r\nimport \"@openzeppelin/contracts-upgradeable/governance/extensions/GovernorVotesUpgradeable.sol\";\r\nimport \"@openzeppelin/contracts-upgradeable/governance/extensions/GovernorVotesQuorumFractionUpgradeable.sol\";\r\nimport \"@openzeppelin/contracts-upgradeable/proxy/utils/Initializable.sol\";\r\nimport \"@openzeppelin/contracts-upgradeable/access/OwnableUpgradeable.sol\";\r\n\r\ncontract Dao_v1 is Initializable, GovernorUpgradeable, GovernorSettingsUpgradeable, GovernorCountingSimpleUpgradeable, OwnableUpgradeable, GovernorVotesUpgradeable, GovernorVotesQuorumFractionUpgradeable {\r\n    \r\n    struct DaoSettings {\r\n        bool isVotingEnabled;\r\n        bool everybodyCreateCanVote;\r\n    }\r\n    \r\n    /// @custom:oz-upgrades-unsafe-allow constructor\r\n    constructor() initializer {}\r\n    DaoSettings internal _settings;\r\n\r\n    function initialize(IVotesUpgradeable _token, DaoSettings memory settings) initializer public {\r\n        __Governor_init(\"DAO\");\r\n        __GovernorSettings_init(1 /* 1 block - no delay */, 45818 /* 1 week */, 1);\r\n        __GovernorCountingSimple_init();\r\n        __GovernorVotes_init(_token);\r\n        __GovernorVotesQuorumFraction_init(4);\r\n        __Ownable_init();\r\n        _settings = settings;\r\n    }\r\n\r\n    // The following functions are overrides required by Solidity.\r\n\r\n    function votingDelay()\r\n        public\r\n        view\r\n        override(IGovernorUpgradeable, GovernorSettingsUpgradeable)\r\n        returns (uint256)\r\n    {\r\n        return super.votingDelay();\r\n    }\r\n\r\n    function votingPeriod()\r\n        public\r\n        view\r\n        override(IGovernorUpgradeable, GovernorSettingsUpgradeable)\r\n        returns (uint256)\r\n    {\r\n        return super.votingPeriod();\r\n    }\r\n\r\n    function quorum(uint256 blockNumber)\r\n        public\r\n        view\r\n        override(IGovernorUpgradeable, GovernorVotesQuorumFractionUpgradeable)\r\n        returns (uint256)\r\n    {\r\n        return super.quorum(blockNumber);\r\n    }\r\n\r\n    function getVotes(address account, uint256 blockNumber)\r\n        public\r\n        view\r\n        override(IGovernorUpgradeable, GovernorVotesUpgradeable)\r\n        returns (uint256)\r\n    {\r\n        return super.getVotes(account, blockNumber);\r\n    }\r\n\r\n    function proposalThreshold()\r\n        public\r\n        view\r\n        override(GovernorUpgradeable, GovernorSettingsUpgradeable)\r\n        returns (uint256)\r\n    {\r\n        return super.proposalThreshold();\r\n    }\r\n\r\n    function propose(\r\n        address[] memory targets,\r\n        uint256[] memory values,\r\n        bytes[] memory calldatas,\r\n        string memory description\r\n    ) public virtual override returns (uint256) {\r\n        require(_settings.isVotingEnabled == true, \"Voting is disabled\");\r\n        if(!_settings.everybodyCreateCanVote){\r\n            require(owner() == _msgSender(), \"Voting is enabled only for owners\");\r\n        }\r\n        return super.propose(targets, values, calldatas, description);\r\n    }\r\n\r\n    function updateQuorumNumerator(uint256 newQuorumNumerator) external override onlyOwner {\r\n        _updateQuorumNumerator(newQuorumNumerator);\r\n    }\r\n}\r\n",
  "sourcePath": "D:\\repositories\\mosaico-reference\\smart_contracts\\contracts\\Dao_v1.sol",
  "compiler": {
    "name": "solc",
    "version": "0.8.9+commit.e5eed63a.Emscripten.clang"
  },
  "schemaVersion": "3.4.3",
  "updatedAt": "2022-02-24T10:04:24.792Z",
  "devdoc": {
    "kind": "dev",
    "methods": {
      "COUNTING_MODE()": {
        "details": "See {IGovernor-COUNTING_MODE}."
      },
      "castVote(uint256,uint8)": {
        "details": "See {IGovernor-castVote}."
      },
      "castVoteBySig(uint256,uint8,uint8,bytes32,bytes32)": {
        "details": "See {IGovernor-castVoteBySig}."
      },
      "castVoteWithReason(uint256,uint8,string)": {
        "details": "See {IGovernor-castVoteWithReason}."
      },
      "constructor": {
        "custom:oz-upgrades-unsafe-allow": "constructor"
      },
      "execute(address[],uint256[],bytes[],bytes32)": {
        "details": "See {IGovernor-execute}."
      },
      "hasVoted(uint256,address)": {
        "details": "See {IGovernor-hasVoted}."
      },
      "hashProposal(address[],uint256[],bytes[],bytes32)": {
        "details": "See {IGovernor-hashProposal}. The proposal id is produced by hashing the RLC encoded `targets` array, the `values` array, the `calldatas` array and the descriptionHash (bytes32 which itself is the keccak256 hash of the description string). This proposal id can be produced from the proposal data which is part of the {ProposalCreated} event. It can even be computed in advance, before the proposal is submitted. Note that the chainId and the governor address are not part of the proposal id computation. Consequently, the same proposal (with same operation and same description) will have the same id if submitted on multiple governors accross multiple networks. This also means that in order to execute the same operation twice (on the same governor) the proposer will have to change the description in order to avoid proposal id conflicts."
      },
      "name()": {
        "details": "See {IGovernor-name}."
      },
      "owner()": {
        "details": "Returns the address of the current owner."
      },
      "proposalDeadline(uint256)": {
        "details": "See {IGovernor-proposalDeadline}."
      },
      "proposalSnapshot(uint256)": {
        "details": "See {IGovernor-proposalSnapshot}."
      },
      "proposalVotes(uint256)": {
        "details": "Accessor to the internal vote counts."
      },
      "propose(address[],uint256[],bytes[],string)": {
        "details": "See {IGovernor-propose}."
      },
      "quorumDenominator()": {
        "details": "Returns the quorum denominator. Defaults to 100, but may be overridden."
      },
      "quorumNumerator()": {
        "details": "Returns the current quorum numerator. See {quorumDenominator}."
      },
      "relay(address,uint256,bytes)": {
        "details": "Relays a transaction or function call to an arbitrary target. In cases where the governance executor is some contract other than the governor itself, like when using a timelock, this function can be invoked in a governance proposal to recover tokens or Ether that was sent to the governor contract by mistake. Note that if the executor is simply the governor itself, use of `relay` is redundant."
      },
      "renounceOwnership()": {
        "details": "Leaves the contract without owner. It will not be possible to call `onlyOwner` functions anymore. Can only be called by the current owner. NOTE: Renouncing ownership will leave the contract without an owner, thereby removing any functionality that is only available to the owner."
      },
      "setProposalThreshold(uint256)": {
        "details": "Update the proposal threshold. This operation can only be performed through a governance proposal. Emits a {ProposalThresholdSet} event."
      },
      "setVotingDelay(uint256)": {
        "details": "Update the voting delay. This operation can only be performed through a governance proposal. Emits a {VotingDelaySet} event."
      },
      "setVotingPeriod(uint256)": {
        "details": "Update the voting period. This operation can only be performed through a governance proposal. Emits a {VotingPeriodSet} event."
      },
      "state(uint256)": {
        "details": "See {IGovernor-state}."
      },
      "supportsInterface(bytes4)": {
        "details": "See {IERC165-supportsInterface}."
      },
      "transferOwnership(address)": {
        "details": "Transfers ownership of the contract to a new account (`newOwner`). Can only be called by the current owner."
      },
      "updateQuorumNumerator(uint256)": {
        "details": "Changes the quorum numerator. Emits a {QuorumNumeratorUpdated} event. Requirements: - Must be called through a governance proposal. - New numerator must be smaller or equal to the denominator."
      },
      "version()": {
        "details": "See {IGovernor-version}."
      }
    },
    "version": 1
  },
  "userdoc": {
    "kind": "user",
    "methods": {},
    "version": 1
  }
}