{
  "contractName": "Daov1",
  "abi": [
    {
      "inputs": [
        {
          "components": [
            {
              "internalType": "string",
              "name": "name",
              "type": "string"
            },
            {
              "internalType": "bool",
              "name": "isVotingEnabled",
              "type": "bool"
            },
            {
              "internalType": "bool",
              "name": "onlyOwnerProposals",
              "type": "bool"
            },
            {
              "internalType": "uint256",
              "name": "initialVotingDelay",
              "type": "uint256"
            },
            {
              "internalType": "uint256",
              "name": "initialVotingPeriod",
              "type": "uint256"
            },
            {
              "internalType": "uint256",
              "name": "quorum",
              "type": "uint256"
            },
            {
              "internalType": "address",
              "name": "owner",
              "type": "address"
            }
          ],
          "internalType": "struct Daov1.DaoSettings",
          "name": "settings",
          "type": "tuple"
        }
      ],
      "stateMutability": "nonpayable",
      "type": "constructor"
    },
    {
      "anonymous": false,
      "inputs": [
        {
          "indexed": true,
          "internalType": "address",
          "name": "newOwner",
          "type": "address"
        }
      ],
      "name": "OwnerAdded",
      "type": "event"
    },
    {
      "anonymous": false,
      "inputs": [
        {
          "indexed": true,
          "internalType": "address",
          "name": "oldOwner",
          "type": "address"
        }
      ],
      "name": "OwnerRemoved",
      "type": "event"
    },
    {
      "anonymous": false,
      "inputs": [
        {
          "indexed": false,
          "internalType": "address",
          "name": "account",
          "type": "address"
        }
      ],
      "name": "Paused",
      "type": "event"
    },
    {
      "anonymous": false,
      "inputs": [
        {
          "indexed": false,
          "internalType": "uint256",
          "name": "proposalId",
          "type": "uint256"
        }
      ],
      "name": "ProposalCanceled",
      "type": "event"
    },
    {
      "anonymous": false,
      "inputs": [
        {
          "indexed": false,
          "internalType": "uint256",
          "name": "proposalId",
          "type": "uint256"
        },
        {
          "indexed": false,
          "internalType": "address",
          "name": "proposer",
          "type": "address"
        },
        {
          "indexed": false,
          "internalType": "uint256",
          "name": "startBlock",
          "type": "uint256"
        },
        {
          "indexed": false,
          "internalType": "uint256",
          "name": "endBlock",
          "type": "uint256"
        },
        {
          "indexed": false,
          "internalType": "string",
          "name": "description",
          "type": "string"
        },
        {
          "indexed": false,
          "internalType": "address",
          "name": "tokenAddress",
          "type": "address"
        }
      ],
      "name": "ProposalCreated",
      "type": "event"
    },
    {
      "anonymous": false,
      "inputs": [
        {
          "indexed": false,
          "internalType": "uint256",
          "name": "proposalId",
          "type": "uint256"
        }
      ],
      "name": "ProposalExecuted",
      "type": "event"
    },
    {
      "anonymous": false,
      "inputs": [
        {
          "indexed": false,
          "internalType": "address",
          "name": "tokenAddress",
          "type": "address"
        },
        {
          "indexed": false,
          "internalType": "bool",
          "name": "isVoting",
          "type": "bool"
        }
      ],
      "name": "TokenAdded",
      "type": "event"
    },
    {
      "anonymous": false,
      "inputs": [
        {
          "indexed": false,
          "internalType": "address",
          "name": "account",
          "type": "address"
        }
      ],
      "name": "Unpaused",
      "type": "event"
    },
    {
      "anonymous": false,
      "inputs": [
        {
          "indexed": true,
          "internalType": "address",
          "name": "voter",
          "type": "address"
        },
        {
          "indexed": false,
          "internalType": "uint256",
          "name": "proposalId",
          "type": "uint256"
        },
        {
          "indexed": false,
          "internalType": "uint8",
          "name": "support",
          "type": "uint8"
        },
        {
          "indexed": false,
          "internalType": "uint256",
          "name": "weight",
          "type": "uint256"
        },
        {
          "indexed": false,
          "internalType": "string",
          "name": "reason",
          "type": "string"
        }
      ],
      "name": "VoteCast",
      "type": "event"
    },
    {
      "inputs": [],
      "name": "BALLOT_TYPEHASH",
      "outputs": [
        {
          "internalType": "bytes32",
          "name": "",
          "type": "bytes32"
        }
      ],
      "stateMutability": "view",
      "type": "function"
    },
    {
      "inputs": [
        {
          "internalType": "uint256",
          "name": "",
          "type": "uint256"
        }
      ],
      "name": "_owners",
      "outputs": [
        {
          "internalType": "address",
          "name": "",
          "type": "address"
        }
      ],
      "stateMutability": "view",
      "type": "function"
    },
    {
      "inputs": [],
      "name": "getOwners",
      "outputs": [
        {
          "internalType": "address[]",
          "name": "",
          "type": "address[]"
        }
      ],
      "stateMutability": "view",
      "type": "function"
    },
    {
      "inputs": [],
      "name": "getTokens",
      "outputs": [
        {
          "internalType": "address[]",
          "name": "",
          "type": "address[]"
        }
      ],
      "stateMutability": "view",
      "type": "function"
    },
    {
      "inputs": [
        {
          "internalType": "address",
          "name": "account",
          "type": "address"
        },
        {
          "internalType": "address",
          "name": "tokenAddress",
          "type": "address"
        }
      ],
      "name": "getWeight",
      "outputs": [
        {
          "internalType": "uint256",
          "name": "",
          "type": "uint256"
        }
      ],
      "stateMutability": "view",
      "type": "function"
    },
    {
      "inputs": [
        {
          "internalType": "address",
          "name": "token",
          "type": "address"
        }
      ],
      "name": "isManagedToken",
      "outputs": [
        {
          "internalType": "bool",
          "name": "",
          "type": "bool"
        }
      ],
      "stateMutability": "view",
      "type": "function"
    },
    {
      "inputs": [
        {
          "internalType": "address",
          "name": "account",
          "type": "address"
        }
      ],
      "name": "isOwner",
      "outputs": [
        {
          "internalType": "bool",
          "name": "",
          "type": "bool"
        }
      ],
      "stateMutability": "view",
      "type": "function"
    },
    {
      "inputs": [
        {
          "internalType": "address",
          "name": "token",
          "type": "address"
        }
      ],
      "name": "isVotingToken",
      "outputs": [
        {
          "internalType": "bool",
          "name": "",
          "type": "bool"
        }
      ],
      "stateMutability": "view",
      "type": "function"
    },
    {
      "inputs": [],
      "name": "paused",
      "outputs": [
        {
          "internalType": "bool",
          "name": "",
          "type": "bool"
        }
      ],
      "stateMutability": "view",
      "type": "function"
    },
    {
      "inputs": [],
      "name": "requiredApprovals",
      "outputs": [
        {
          "internalType": "uint256",
          "name": "",
          "type": "uint256"
        }
      ],
      "stateMutability": "view",
      "type": "function"
    },
    {
      "inputs": [],
      "name": "name",
      "outputs": [
        {
          "internalType": "string",
          "name": "",
          "type": "string"
        }
      ],
      "stateMutability": "view",
      "type": "function"
    },
    {
      "inputs": [
        {
          "internalType": "uint256",
          "name": "proposalId",
          "type": "uint256"
        },
        {
          "internalType": "address",
          "name": "account",
          "type": "address"
        }
      ],
      "name": "hasVoted",
      "outputs": [
        {
          "internalType": "bool",
          "name": "",
          "type": "bool"
        }
      ],
      "stateMutability": "view",
      "type": "function"
    },
    {
      "inputs": [],
      "name": "votingDelay",
      "outputs": [
        {
          "internalType": "uint256",
          "name": "",
          "type": "uint256"
        }
      ],
      "stateMutability": "view",
      "type": "function"
    },
    {
      "inputs": [],
      "name": "isVotingEnabled",
      "outputs": [
        {
          "internalType": "bool",
          "name": "",
          "type": "bool"
        }
      ],
      "stateMutability": "view",
      "type": "function"
    },
    {
      "inputs": [],
      "name": "onlyOwnerProposals",
      "outputs": [
        {
          "internalType": "bool",
          "name": "",
          "type": "bool"
        }
      ],
      "stateMutability": "view",
      "type": "function"
    },
    {
      "inputs": [],
      "name": "votingPeriod",
      "outputs": [
        {
          "internalType": "uint256",
          "name": "",
          "type": "uint256"
        }
      ],
      "stateMutability": "view",
      "type": "function"
    },
    {
      "inputs": [],
      "name": "quorum",
      "outputs": [
        {
          "internalType": "uint256",
          "name": "",
          "type": "uint256"
        }
      ],
      "stateMutability": "view",
      "type": "function"
    },
    {
      "inputs": [
        {
          "internalType": "address",
          "name": "tokenAddress",
          "type": "address"
        }
      ],
      "name": "tokenQuorum",
      "outputs": [
        {
          "internalType": "uint256",
          "name": "",
          "type": "uint256"
        }
      ],
      "stateMutability": "view",
      "type": "function"
    },
    {
      "inputs": [
        {
          "internalType": "uint256",
          "name": "proposalId",
          "type": "uint256"
        }
      ],
      "name": "state",
      "outputs": [
        {
          "internalType": "enum Daov1.ProposalState",
          "name": "",
          "type": "uint8"
        }
      ],
      "stateMutability": "view",
      "type": "function"
    },
    {
      "inputs": [
        {
          "internalType": "uint256",
          "name": "proposalId",
          "type": "uint256"
        }
      ],
      "name": "proposalSnapshot",
      "outputs": [
        {
          "internalType": "uint256",
          "name": "",
          "type": "uint256"
        }
      ],
      "stateMutability": "view",
      "type": "function"
    },
    {
      "inputs": [
        {
          "internalType": "uint256",
          "name": "proposalId",
          "type": "uint256"
        }
      ],
      "name": "proposalDeadline",
      "outputs": [
        {
          "internalType": "uint256",
          "name": "",
          "type": "uint256"
        }
      ],
      "stateMutability": "view",
      "type": "function"
    },
    {
      "inputs": [],
      "name": "version",
      "outputs": [
        {
          "internalType": "string",
          "name": "",
          "type": "string"
        }
      ],
      "stateMutability": "view",
      "type": "function"
    },
    {
      "inputs": [
        {
          "internalType": "string",
          "name": "description",
          "type": "string"
        },
        {
          "internalType": "address",
          "name": "target",
          "type": "address"
        }
      ],
      "name": "hashProposal",
      "outputs": [
        {
          "internalType": "uint256",
          "name": "",
          "type": "uint256"
        }
      ],
      "stateMutability": "view",
      "type": "function"
    },
    {
      "inputs": [
        {
          "internalType": "string",
          "name": "description",
          "type": "string"
        },
        {
          "internalType": "address",
          "name": "tokenAddress",
          "type": "address"
        }
      ],
      "name": "propose",
      "outputs": [
        {
          "internalType": "uint256",
          "name": "",
          "type": "uint256"
        }
      ],
      "stateMutability": "nonpayable",
      "type": "function"
    },
    {
      "inputs": [
        {
          "internalType": "uint256",
          "name": "proposalId",
          "type": "uint256"
        },
        {
          "internalType": "uint8",
          "name": "support",
          "type": "uint8"
        }
      ],
      "name": "castVote",
      "outputs": [
        {
          "internalType": "uint256",
          "name": "",
          "type": "uint256"
        }
      ],
      "stateMutability": "nonpayable",
      "type": "function"
    },
    {
      "inputs": [
        {
          "internalType": "uint256",
          "name": "proposalId",
          "type": "uint256"
        }
      ],
      "name": "proposalVotes",
      "outputs": [
        {
          "internalType": "uint256",
          "name": "againstVotes",
          "type": "uint256"
        },
        {
          "internalType": "uint256",
          "name": "forVotes",
          "type": "uint256"
        },
        {
          "internalType": "uint256",
          "name": "abstainVotes",
          "type": "uint256"
        }
      ],
      "stateMutability": "view",
      "type": "function"
    },
    {
      "inputs": [
        {
          "internalType": "address",
          "name": "token",
          "type": "address"
        },
        {
          "internalType": "bool",
          "name": "isVoting",
          "type": "bool"
        }
      ],
      "name": "addToken",
      "outputs": [],
      "stateMutability": "nonpayable",
      "type": "function"
    },
    {
      "inputs": [
        {
          "internalType": "address",
          "name": "tokenAddress",
          "type": "address"
        },
        {
          "internalType": "uint256",
          "name": "amount",
          "type": "uint256"
        }
      ],
      "name": "mint",
      "outputs": [],
      "stateMutability": "nonpayable",
      "type": "function"
    },
    {
      "inputs": [
        {
          "internalType": "address",
          "name": "tokenAddress",
          "type": "address"
        },
        {
          "internalType": "uint256",
          "name": "amount",
          "type": "uint256"
        }
      ],
      "name": "burn",
      "outputs": [],
      "stateMutability": "nonpayable",
      "type": "function"
    },
    {
      "inputs": [
        {
          "internalType": "address",
          "name": "tokenAddress",
          "type": "address"
        }
      ],
      "name": "pauseToken",
      "outputs": [],
      "stateMutability": "nonpayable",
      "type": "function"
    },
    {
      "inputs": [
        {
          "internalType": "address",
          "name": "tokenAddress",
          "type": "address"
        }
      ],
      "name": "unpauseToken",
      "outputs": [],
      "stateMutability": "nonpayable",
      "type": "function"
    },
    {
      "inputs": [
        {
          "internalType": "address",
          "name": "newOwner",
          "type": "address"
        }
      ],
      "name": "addOwner",
      "outputs": [],
      "stateMutability": "nonpayable",
      "type": "function"
    },
    {
      "inputs": [
        {
          "internalType": "address",
          "name": "owner",
          "type": "address"
        }
      ],
      "name": "removeOwner",
      "outputs": [],
      "stateMutability": "nonpayable",
      "type": "function"
    },
    {
      "inputs": [],
      "name": "pause",
      "outputs": [],
      "stateMutability": "nonpayable",
      "type": "function"
    },
    {
      "inputs": [],
      "name": "unpause",
      "outputs": [],
      "stateMutability": "nonpayable",
      "type": "function"
    },
    {
      "inputs": [
        {
          "components": [
            {
              "internalType": "bool",
              "name": "isMintable",
              "type": "bool"
            },
            {
              "internalType": "bool",
              "name": "isBurnable",
              "type": "bool"
            },
            {
              "internalType": "string",
              "name": "name",
              "type": "string"
            },
            {
              "internalType": "string",
              "name": "symbol",
              "type": "string"
            },
            {
              "internalType": "uint256",
              "name": "initialSupply",
              "type": "uint256"
            },
            {
              "internalType": "address",
              "name": "walletAddress",
              "type": "address"
            },
            {
              "internalType": "bool",
              "name": "isGovernance",
              "type": "bool"
            }
          ],
          "internalType": "struct MosaicoStructs.ERC20Settings",
          "name": "contractSettings",
          "type": "tuple"
        }
      ],
      "name": "create",
      "outputs": [
        {
          "internalType": "address",
          "name": "",
          "type": "address"
        }
      ],
      "stateMutability": "nonpayable",
      "type": "function"
    }
  ],
  "bytecode": "0x61012060405260006002553480156200001757600080fd5b5060405162009ae338038062009ae383398181016040528101906200003d91906200089f565b8060c00151816000015162000057620001da60201b60201c565b60008280519060200120905060008280519060200120905060007f8b73c3c69bb8fe3d512ecc4cf759cc79239f7b179b0ffacaa9a75d522b39400f90508260c081815250508160e081815250504660a08181525050620000bf8184846200021760201b60201c565b608081815250508061010081815250505050505050620000e5816200025360201b60201c565b506000600360006101000a81548160ff021916908315150217905550600160048190555080600a60008201518160000190805190602001906200012a92919062000485565b5060208201518160010160006101000a81548160ff02191690831515021790555060408201518160010160016101000a81548160ff021916908315150217905550606082015181600201556080820151816003015560a0820151816004015560c08201518160050160006101000a81548173ffffffffffffffffffffffffffffffffffffffff021916908373ffffffffffffffffffffffffffffffffffffffff1602179055509050505062000b9d565b60606040518060400160405280600181526020017f3100000000000000000000000000000000000000000000000000000000000000815250905090565b60008383834630604051602001620002349594939291906200092d565b6040516020818303038152906040528051906020012090509392505050565b600015156000808373ffffffffffffffffffffffffffffffffffffffff1673ffffffffffffffffffffffffffffffffffffffff16815260200190815260200160002060009054906101000a900460ff16151514620002e8576040517f08c379a0000000000000000000000000000000000000000000000000000000008152600401620002df90620009eb565b60405180910390fd5b60016000808373ffffffffffffffffffffffffffffffffffffffff1673ffffffffffffffffffffffffffffffffffffffff16815260200190815260200160002060006101000a81548160ff0219169083151502179055506001819080600181540180825580915050600190039060005260206000200160009091909190916101000a81548173ffffffffffffffffffffffffffffffffffffffff021916908373ffffffffffffffffffffffffffffffffffffffff160217905550620003b2620003f860201b60201c565b8073ffffffffffffffffffffffffffffffffffffffff167f994a936646fe87ffe4f1e469d3d6aa417d6b855598397f323de5b449f765f0c360405160405180910390a250565b60026001805490501162000418576001805490506002819055506200043c565b6200043560018054905060026200043e60201b620019c01760201c565b6002819055505b565b60008082846200044f919062000a3c565b146200045d57600162000460565b60005b60ff16828462000471919062000aa3565b6200047d919062000adb565b905092915050565b828054620004939062000b67565b90600052602060002090601f016020900481019282620004b7576000855562000503565b82601f10620004d257805160ff191683800117855562000503565b8280016001018555821562000503579182015b8281111562000502578251825591602001919060010190620004e5565b5b50905062000512919062000516565b5090565b5b808211156200053157600081600090555060010162000517565b5090565b6000604051905090565b600080fd5b600080fd5b600080fd5b6000601f19601f8301169050919050565b7f4e487b7100000000000000000000000000000000000000000000000000000000600052604160045260246000fd5b62000599826200054e565b810181811067ffffffffffffffff82111715620005bb57620005ba6200055f565b5b80604052505050565b6000620005d062000535565b9050620005de82826200058e565b919050565b600080fd5b600080fd5b600080fd5b600067ffffffffffffffff82111562000610576200060f6200055f565b5b6200061b826200054e565b9050602081019050919050565b60005b83811015620006485780820151818401526020810190506200062b565b8381111562000658576000848401525b50505050565b6000620006756200066f84620005f2565b620005c4565b905082815260208101848484011115620006945762000693620005ed565b5b620006a184828562000628565b509392505050565b600082601f830112620006c157620006c0620005e8565b5b8151620006d38482602086016200065e565b91505092915050565b60008115159050919050565b620006f381620006dc565b8114620006ff57600080fd5b50565b6000815190506200071381620006e8565b92915050565b6000819050919050565b6200072e8162000719565b81146200073a57600080fd5b50565b6000815190506200074e8162000723565b92915050565b600073ffffffffffffffffffffffffffffffffffffffff82169050919050565b6000620007818262000754565b9050919050565b620007938162000774565b81146200079f57600080fd5b50565b600081519050620007b38162000788565b92915050565b600060e08284031215620007d257620007d162000549565b5b620007de60e0620005c4565b9050600082015167ffffffffffffffff811115620008015762000800620005e3565b5b6200080f84828501620006a9565b6000830152506020620008258482850162000702565b60208301525060406200083b8482850162000702565b604083015250606062000851848285016200073d565b606083015250608062000867848285016200073d565b60808301525060a06200087d848285016200073d565b60a08301525060c06200089384828501620007a2565b60c08301525092915050565b600060208284031215620008b857620008b76200053f565b5b600082015167ffffffffffffffff811115620008d957620008d862000544565b5b620008e784828501620007b9565b91505092915050565b6000819050919050565b6200090581620008f0565b82525050565b620009168162000719565b82525050565b620009278162000774565b82525050565b600060a082019050620009446000830188620008fa565b620009536020830187620008fa565b620009626040830186620008fa565b6200097160608301856200090b565b6200098060808301846200091c565b9695505050505050565b600082825260208201905092915050565b7f4d756c74694f776e61626c653a20616c726561647920616e206f776e65720000600082015250565b6000620009d3601e836200098a565b9150620009e0826200099b565b602082019050919050565b6000602082019050818103600083015262000a0681620009c4565b9050919050565b7f4e487b7100000000000000000000000000000000000000000000000000000000600052601260045260246000fd5b600062000a498262000719565b915062000a568362000719565b92508262000a695762000a6862000a0d565b5b828206905092915050565b7f4e487b7100000000000000000000000000000000000000000000000000000000600052601160045260246000fd5b600062000ab08262000719565b915062000abd8362000719565b92508262000ad05762000acf62000a0d565b5b828204905092915050565b600062000ae88262000719565b915062000af58362000719565b9250827fffffffffffffffffffffffffffffffffffffffffffffffffffffffffffffffff0382111562000b2d5762000b2c62000a74565b5b828201905092915050565b7f4e487b7100000000000000000000000000000000000000000000000000000000600052602260045260246000fd5b6000600282049050600182168062000b8057607f821691505b6020821081141562000b975762000b9662000b38565b5b50919050565b60805160a05160c05160e05161010051618f1062000bd36000396000505060005050600050506000505060005050618f106000f3fe60806040523480156200001157600080fd5b5060043610620002505760003560e01c8063567813881162000141578063a481732111620000bd578063b66187001162000087578063b6618700146200072d578063c01f9e371462000763578063c37403481462000799578063deaaa7cc14620007cf578063f6252c7114620007f15762000250565b8063a4817321146200067d578063a53cf5ed14620006b3578063aa6ca80814620006d5578063b1bead3614620006f75762000250565b80638456cb59116200010b5780638456cb5914620005d7578063992924a614620005e357806399c1aadc14620006195780639dc29fac146200063b578063a0e67e2b146200065b5762000250565b806356781388146200053f5780635c975abb14620005755780637065cb4814620005975780637c41ad2c14620005b75762000250565b80633b3bff0f11620001d157806340c10f19116200019b57806340c10f19146200046d57806341ecf700146200048d5780634385963214620004af578063544ffc9c14620004e557806354fd4d50146200051d5762000250565b80633b3bff0f14620003d55780633e4f49e614620003f55780633f4ba83a146200042b578063404d746314620004375762000250565b8063175d1157116200021f578063175d115714620002db5780631b408b2214620003115780632d63f69314620003475780632f54bf6e146200037d5780633932abb114620003b35762000250565b806302a251a3146200025557806306fdde0314620002775780631703a0181462000299578063173825d914620002bb575b600080fd5b6200025f62000811565b6040516200026e919062002b8d565b60405180910390f35b620002816200081e565b60405162000290919062002c4e565b60405180910390f35b620002a3620008bb565b604051620002b2919062002b8d565b60405180910390f35b620002d96004803603810190620002d3919062002ceb565b620008c8565b005b620002f96004803603810190620002f3919062002e6e565b6200092c565b60405162000308919062002b8d565b60405180910390f35b6200032f600480360381019062000329919062002ceb565b62000c77565b6040516200033e919062002ef1565b60405180910390f35b6200036560048036038101906200035f919062002f3f565b62000cd4565b60405162000374919062002b8d565b60405180910390f35b6200039b600480360381019062000395919062002ceb565b62000d44565b604051620003aa919062002ef1565b60405180910390f35b620003bd62000da0565b604051620003cc919062002b8d565b60405180910390f35b620003f36004803603810190620003ed919062002ceb565b62000dad565b005b6200041360048036038101906200040d919062002f3f565b62000e11565b60405162000422919062002ff1565b60405180910390f35b620004356200104c565b005b6200045560048036038101906200044f919062002e6e565b620010ae565b60405162000464919062002b8d565b60405180910390f35b6200048b60048036038101906200048591906200300e565b620010ed565b005b620004976200115d565b604051620004a6919062002ef1565b60405180910390f35b620004cd6004803603810190620004c7919062003055565b62001177565b604051620004dc919062002ef1565b60405180910390f35b620005036004803603810190620004fd919062002f3f565b620011e2565b60405162000514939291906200309c565b60405180910390f35b620005276200121a565b60405162000536919062002c4e565b60405180910390f35b6200055d600480360381019062000557919062003117565b62001257565b6040516200056c919062002b8d565b60405180910390f35b6200057f6200128c565b6040516200058e919062002ef1565b60405180910390f35b620005b56004803603810190620005af919062002ceb565b620012a3565b005b620005d56004803603810190620005cf919062002ceb565b62001307565b005b620005e16200136b565b005b620006016004803603810190620005fb919062002f3f565b620013cd565b6040516200061091906200316f565b60405180910390f35b620006236200140d565b60405162000632919062002b8d565b60405180910390f35b6200065960048036038101906200065391906200300e565b62001417565b005b620006656200147d565b6040516200067491906200325a565b60405180910390f35b6200069b60048036038101906200069591906200327e565b6200150d565b604051620006aa919062002b8d565b60405180910390f35b620006bd62001606565b604051620006cc919062002ef1565b60405180910390f35b620006df62001620565b604051620006ee91906200325a565b60405180910390f35b6200071560048036038101906200070f919062002ceb565b620016b0565b60405162000724919062002ef1565b60405180910390f35b6200074b600480360381019062000745919062002ceb565b6200170d565b6040516200075a919062002b8d565b60405180910390f35b6200078160048036038101906200077b919062002f3f565b6200180f565b60405162000790919062002b8d565b60405180910390f35b620007b76004803603810190620007b1919062003405565b6200187f565b604051620007c691906200316f565b60405180910390f35b620007d962001936565b604051620007e8919062003471565b60405180910390f35b6200080f60048036038101906200080991906200348e565b6200195a565b005b6000600a60030154905090565b6060600a6000018054620008329062003504565b80601f0160208091040260200160405190810160405280929190818152602001828054620008609062003504565b8015620008b15780601f106200088557610100808354040283529160200191620008b1565b820191906000526020600020905b8154815290600101906020018083116200089357829003601f168201915b5050505050905090565b6000600a60040154905090565b620008dc620008d662001a07565b62000d44565b6200091e576040517f08c379a00000000000000000000000000000000000000000000000000000000081526004016200091590620035b0565b60405180910390fd5b620009298162001a0f565b50565b600060011515620009466200094062001a07565b62001cb0565b1515146200098b576040517f08c379a0000000000000000000000000000000000000000000000000000000008152600401620009829062003622565b60405180910390fd5b60011515600a60010160009054906101000a900460ff16151514620009e7576040517f08c379a0000000000000000000000000000000000000000000000000000000008152600401620009de9062003694565b60405180910390fd5b620009f16200128c565b1562000a34576040517f08c379a000000000000000000000000000000000000000000000000000000000815260040162000a2b9062003706565b60405180910390fd5b600062000a428484620010ae565b90506001151562000a538462000c77565b151514801562000a7157506001151562000a6d84620016b0565b1515145b62000ab3576040517f08c379a000000000000000000000000000000000000000000000000000000000815260040162000aaa9062003778565b60405180910390fd5b600060086000838152602001908152602001600020905062000b15816000016040518060200160405290816000820160009054906101000a900467ffffffffffffffff1667ffffffffffffffff1667ffffffffffffffff168152505062001cec565b62000b57576040517f08c379a000000000000000000000000000000000000000000000000000000000815260040162000b4e90620037ea565b60405180910390fd5b600062000b6d62000b6762000da0565b62001d06565b62000b784362001d06565b62000b8491906200384f565b9050600062000b9c62000b9662000811565b62001d06565b8262000ba991906200384f565b905062000bc3828460000162001d6090919063ffffffff16565b62000bdb818460010162001d6090919063ffffffff16565b858360020160006101000a81548173ffffffffffffffffffffffffffffffffffffffff021916908373ffffffffffffffffffffffffffffffffffffffff1602179055507f6366b5cc2836eb621cd5bcec3c14223a6ca47653e1e75bd70e8bf4df2662d2318462000c4a62001a07565b84848b8b60405162000c6296959493929190620038d7565b60405180910390a18394505050505092915050565b600060011515600560008473ffffffffffffffffffffffffffffffffffffffff1673ffffffffffffffffffffffffffffffffffffffff16815260200190815260200160002060009054906101000a900460ff161515149050919050565b600062000d33600860008481526020019081526020016000206000016040518060200160405290816000820160009054906101000a900467ffffffffffffffff1667ffffffffffffffff1667ffffffffffffffff168152505062001d8f565b67ffffffffffffffff169050919050565b6000600115156000808473ffffffffffffffffffffffffffffffffffffffff1673ffffffffffffffffffffffffffffffffffffffff16815260200190815260200160002060009054906101000a900460ff161515149050919050565b6000600a60020154905090565b62000dc162000dbb62001a07565b62000d44565b62000e03576040517f08c379a000000000000000000000000000000000000000000000000000000000815260040162000dfa90620035b0565b60405180910390fd5b62000e0e8162001d9d565b50565b600080600860008481526020019081526020016000206040518060a0016040529081600082016040518060200160405290816000820160009054906101000a900467ffffffffffffffff1667ffffffffffffffff1667ffffffffffffffff16815250508152602001600182016040518060200160405290816000820160009054906101000a900467ffffffffffffffff1667ffffffffffffffff1667ffffffffffffffff168152505081526020016002820160009054906101000a900473ffffffffffffffffffffffffffffffffffffffff1673ffffffffffffffffffffffffffffffffffffffff1673ffffffffffffffffffffffffffffffffffffffff1681526020016002820160149054906101000a900460ff161515151581526020016002820160159054906101000a900460ff161515151581525050905080606001511562000f6257600791505062001047565b80608001511562000f7857600291505062001047565b62000f87816000015162001e5c565b1562000f9857600091505062001047565b62000fa7816020015162001e5c565b1562000fb857600191505062001047565b62000fc7816020015162001e76565b156200100a5762000fdd83826040015162001ea5565b801562000ff1575062000ff08362001ee9565b5b62000ffe57600362001001565b60045b91505062001047565b6040517f08c379a00000000000000000000000000000000000000000000000000000000081526004016200103e906200399b565b60405180910390fd5b919050565b620010606200105a62001a07565b62000d44565b620010a2576040517f08c379a00000000000000000000000000000000000000000000000000000000081526004016200109990620035b0565b60405180910390fd5b620010ac62001f14565b565b6000828051906020012082604051602001620010cc929190620039bd565b6040516020818303038152906040528051906020012060001c905092915050565b62001101620010fb62001a07565b62000d44565b62001143576040517f08c379a00000000000000000000000000000000000000000000000000000000081526004016200113a90620035b0565b60405180910390fd5b6200115982826200115362001a07565b62001fbf565b5050565b6000600a60010160009054906101000a900460ff16905090565b60006009600084815260200190815260200160002060030160008373ffffffffffffffffffffffffffffffffffffffff1673ffffffffffffffffffffffffffffffffffffffff16815260200190815260200160002060009054906101000a900460ff16905092915050565b600080600080600960008681526020019081526020016000209050806000015481600101548260020154935093509350509193909250565b60606040518060400160405280600181526020017f3100000000000000000000000000000000000000000000000000000000000000815250905090565b6000806200126462001a07565b90506200128384828560405180602001604052806000815250620020b2565b91505092915050565b6000600360009054906101000a900460ff16905090565b620012b7620012b162001a07565b62000d44565b620012f9576040517f08c379a0000000000000000000000000000000000000000000000000000000008152600401620012f090620035b0565b60405180910390fd5b6200130481620022da565b50565b6200131b6200131562001a07565b62000d44565b6200135d576040517f08c379a00000000000000000000000000000000000000000000000000000000081526004016200135490620035b0565b60405180910390fd5b620013688162002479565b50565b6200137f6200137962001a07565b62000d44565b620013c1576040517f08c379a0000000000000000000000000000000000000000000000000000000008152600401620013b890620035b0565b60405180910390fd5b620013cb62002538565b565b60018181548110620013de57600080fd5b906000526020600020016000915054906101000a900473ffffffffffffffffffffffffffffffffffffffff1681565b6000600254905090565b6200142b6200142562001a07565b62000d44565b6200146d576040517f08c379a00000000000000000000000000000000000000000000000000000000081526004016200146490620035b0565b60405180910390fd5b620014798282620025e4565b5050565b606060018054806020026020016040519081016040528092919081815260200182805480156200150357602002820191906000526020600020905b8160009054906101000a900473ffffffffffffffffffffffffffffffffffffffff1673ffffffffffffffffffffffffffffffffffffffff1681526020019060010190808311620014b8575b5050505050905090565b6000600115156200151e8362000c77565b15151462001563576040517f08c379a00000000000000000000000000000000000000000000000000000000081526004016200155a9062003a3a565b60405180910390fd5b600082905060008173ffffffffffffffffffffffffffffffffffffffff166370a08231866040518263ffffffff1660e01b8152600401620015a591906200316f565b60206040518083038186803b158015620015be57600080fd5b505afa158015620015d3573d6000803e3d6000fd5b505050506040513d601f19601f82011682018060405250810190620015f9919062003a73565b9050809250505092915050565b6000600a60010160019054906101000a900460ff16905090565b60606007805480602002602001604051908101604052809291908181526020018280548015620016a657602002820191906000526020600020905b8160009054906101000a900473ffffffffffffffffffffffffffffffffffffffff1673ffffffffffffffffffffffffffffffffffffffff16815260200190600101908083116200165b575b5050505050905090565b600060011515600660008473ffffffffffffffffffffffffffffffffffffffff1673ffffffffffffffffffffffffffffffffffffffff16815260200190815260200160002060009054906101000a900460ff161515149050919050565b60006200171a8262000c77565b6200175c576040517f08c379a0000000000000000000000000000000000000000000000000000000008152600401620017539062003778565b60405180910390fd5b600082905060648173ffffffffffffffffffffffffffffffffffffffff166318160ddd6040518163ffffffff1660e01b815260040160206040518083038186803b158015620017aa57600080fd5b505afa158015620017bf573d6000803e3d6000fd5b505050506040513d601f19601f82011682018060405250810190620017e5919062003a73565b620017ef620008bb565b620017fb919062003aa5565b62001807919062003b35565b915050919050565b60006200186e600860008481526020019081526020016000206001016040518060200160405290816000820160009054906101000a900467ffffffffffffffff1667ffffffffffffffff1667ffffffffffffffff168152505062001d8f565b67ffffffffffffffff169050919050565b6000620018956200188f62001a07565b62000d44565b620018d7576040517f08c379a0000000000000000000000000000000000000000000000000000000008152600401620018ce90620035b0565b60405180910390fd5b620018e16200128c565b1562001924576040517f08c379a00000000000000000000000000000000000000000000000000000000081526004016200191b9062003706565b60405180910390fd5b6200192f82620026b1565b9050919050565b7f150214d74d59b7d1e90c73fc22ef3d991dd0a76b046543d4d80ab92d2a50328f81565b6200196e6200196862001a07565b62000d44565b620019b0576040517f08c379a0000000000000000000000000000000000000000000000000000000008152600401620019a790620035b0565b60405180910390fd5b620019bc828262002708565b5050565b6000808284620019d1919062003b6d565b14620019df576001620019e2565b60005b60ff168284620019f3919062003b35565b620019ff919062003ba5565b905092915050565b600033905090565b62001a1a8162000d44565b62001a5c576040517f08c379a000000000000000000000000000000000000000000000000000000000815260040162001a539062003c78565b60405180910390fd5b60008060008373ffffffffffffffffffffffffffffffffffffffff1673ffffffffffffffffffffffffffffffffffffffff16815260200190815260200160002060006101000a81548160ff02191690831515021790555060005b6001808054905062001ac9919062003c9a565b81101562001c15578173ffffffffffffffffffffffffffffffffffffffff166001828154811062001aff5762001afe62003cd5565b5b9060005260206000200160009054906101000a900473ffffffffffffffffffffffffffffffffffffffff1673ffffffffffffffffffffffffffffffffffffffff16141562001bff57600180808054905062001b5b919062003c9a565b8154811062001b6f5762001b6e62003cd5565b5b9060005260206000200160009054906101000a900473ffffffffffffffffffffffffffffffffffffffff166001828154811062001bb15762001bb062003cd5565b5b9060005260206000200160006101000a81548173ffffffffffffffffffffffffffffffffffffffff021916908373ffffffffffffffffffffffffffffffffffffffff16021790555062001c15565b808062001c0c9062003d04565b91505062001ab6565b50600180548062001c2b5762001c2a62003d52565b5b6001900381819060005260206000200160006101000a81549073ffffffffffffffffffffffffffffffffffffffff0219169055905562001c6a620028ef565b8073ffffffffffffffffffffffffffffffffffffffff167f58619076adf5bb0943d100ef88d52d7c3fd691b19d3a9071b555b651fbf418da60405160405180910390a250565b6000801515600a60010160019054906101000a900460ff161515148062001ce557506001151562001ce18362000d44565b1515145b9050919050565b600080826000015167ffffffffffffffff16149050919050565b600067ffffffffffffffff801682111562001d58576040517f08c379a000000000000000000000000000000000000000000000000000000000815260040162001d4f9062003df7565b60405180910390fd5b819050919050565b808260000160006101000a81548167ffffffffffffffff021916908367ffffffffffffffff1602179055505050565b600081600001519050919050565b6001151562001dac8262000c77565b15151462001df1576040517f08c379a000000000000000000000000000000000000000000000000000000000815260040162001de89062003a3a565b60405180910390fd5b60008190508073ffffffffffffffffffffffffffffffffffffffff16633f4ba83a6040518163ffffffff1660e01b8152600401600060405180830381600087803b15801562001e3f57600080fd5b505af115801562001e54573d6000803e3d6000fd5b505050505050565b600043826000015167ffffffffffffffff16119050919050565b600062001e83826200292a565b801562001e9e575043826000015167ffffffffffffffff1611155b9050919050565b6000806009600085815260200190815260200160002090508060020154816001015462001ed3919062003ba5565b62001ede846200170d565b111591505092915050565b6000806009600084815260200190815260200160002090508060000154816001015411915050919050565b62001f1e6200128c565b62001f60576040517f08c379a000000000000000000000000000000000000000000000000000000000815260040162001f579062003e69565b60405180910390fd5b6000600360006101000a81548160ff0219169083151502179055507f5db9ee0a495bf2e6ff9c91a7834c1ba4fdd244a5e8aa4e537bd38aeae4b073aa62001fa662001a07565b60405162001fb591906200316f565b60405180910390a1565b6001151562001fce8462000c77565b15151462002013576040517f08c379a00000000000000000000000000000000000000000000000000000000081526004016200200a9062003a3a565b60405180910390fd5b60008390508073ffffffffffffffffffffffffffffffffffffffff166394bf804d84846040518363ffffffff1660e01b81526004016200205592919062003e8b565b602060405180830381600087803b1580156200207057600080fd5b505af115801562002085573d6000803e3d6000fd5b505050506040513d601f19601f82011682018060405250810190620020ab919062003ecf565b5050505050565b600060011515620020cc620020c662001a07565b62001cb0565b15151462002111576040517f08c379a0000000000000000000000000000000000000000000000000000000008152600401620021089062003622565b60405180910390fd5b6200211b6200128c565b156200215e576040517f08c379a0000000000000000000000000000000000000000000000000000000008152600401620021559062003706565b60405180910390fd5b6000600860008781526020019081526020016000209050600160078111156200218c576200218b62002f71565b5b620021978762000e11565b6007811115620021ac57620021ab62002f71565b5b14620021ef576040517f08c379a0000000000000000000000000000000000000000000000000000000008152600401620021e69062003f77565b60405180910390fd5b600062002221868360020160009054906101000a900473ffffffffffffffffffffffffffffffffffffffff166200150d565b90506000811162002269576040517f08c379a0000000000000000000000000000000000000000000000000000000008152600401620022609062003fe9565b60405180910390fd5b620022778787878462002944565b8573ffffffffffffffffffffffffffffffffffffffff167fb8e138887d0aa13bab447e82de9d5c1777041ecd21ca36ba824ff1e6c07ddda488878488604051620022c594939291906200401c565b60405180910390a28092505050949350505050565b600015156000808373ffffffffffffffffffffffffffffffffffffffff1673ffffffffffffffffffffffffffffffffffffffff16815260200190815260200160002060009054906101000a900460ff161515146200236f576040517f08c379a00000000000000000000000000000000000000000000000000000000081526004016200236690620040c0565b60405180910390fd5b60016000808373ffffffffffffffffffffffffffffffffffffffff1673ffffffffffffffffffffffffffffffffffffffff16815260200190815260200160002060006101000a81548160ff0219169083151502179055506001819080600181540180825580915050600190039060005260206000200160009091909190916101000a81548173ffffffffffffffffffffffffffffffffffffffff021916908373ffffffffffffffffffffffffffffffffffffffff16021790555062002433620028ef565b8073ffffffffffffffffffffffffffffffffffffffff167f994a936646fe87ffe4f1e469d3d6aa417d6b855598397f323de5b449f765f0c360405160405180910390a250565b60011515620024888262000c77565b151514620024cd576040517f08c379a0000000000000000000000000000000000000000000000000000000008152600401620024c49062003a3a565b60405180910390fd5b60008190508073ffffffffffffffffffffffffffffffffffffffff16638456cb596040518163ffffffff1660e01b8152600401600060405180830381600087803b1580156200251b57600080fd5b505af115801562002530573d6000803e3d6000fd5b505050505050565b620025426200128c565b1562002585576040517f08c379a00000000000000000000000000000000000000000000000000000000081526004016200257c9062003706565b60405180910390fd5b6001600360006101000a81548160ff0219169083151502179055507f62e78cea01bee320cd4e420270b5ea74000d11b0c9f74754ebdbfc544b05a258620025cb62001a07565b604051620025da91906200316f565b60405180910390a1565b60011515620025f38362000c77565b15151462002638576040517f08c379a00000000000000000000000000000000000000000000000000000000081526004016200262f9062003a3a565b60405180910390fd5b60008290508073ffffffffffffffffffffffffffffffffffffffff166342966c68836040518263ffffffff1660e01b815260040162002678919062002b8d565b600060405180830381600087803b1580156200269357600080fd5b505af1158015620026a8573d6000803e3d6000fd5b50505050505050565b60008082604051620026c39062002b64565b620026cf919062004207565b604051809103906000f080158015620026ec573d6000803e3d6000fd5b509050620026ff818460c0015162002708565b80915050919050565b60001515600560008473ffffffffffffffffffffffffffffffffffffffff1673ffffffffffffffffffffffffffffffffffffffff16815260200190815260200160002060009054906101000a900460ff161515146200279e576040517f08c379a00000000000000000000000000000000000000000000000000000000081526004016200279590620042a1565b60405180910390fd5b6001600560008473ffffffffffffffffffffffffffffffffffffffff1673ffffffffffffffffffffffffffffffffffffffff16815260200190815260200160002060006101000a81548160ff02191690831515021790555080600660008473ffffffffffffffffffffffffffffffffffffffff1673ffffffffffffffffffffffffffffffffffffffff16815260200190815260200160002060006101000a81548160ff0219169083151502179055506007829080600181540180825580915050600190039060005260206000200160009091909190916101000a81548173ffffffffffffffffffffffffffffffffffffffff021916908373ffffffffffffffffffffffffffffffffffffffff1602179055507f654ff2be0f58b1b437adcc6ff9868ab309fc9979c02811bca8f9a7bd95a217b68282604051620028e3929190620042c3565b60405180910390a15050565b6002600180549050116200290f5760018054905060028190555062002928565b620029216001805490506002620019c0565b6002819055505b565b600080826000015167ffffffffffffffff16119050919050565b60006009600086815260200190815260200160002090508060030160008573ffffffffffffffffffffffffffffffffffffffff1673ffffffffffffffffffffffffffffffffffffffff16815260200190815260200160002060009054906101000a900460ff1615620029ed576040517f08c379a0000000000000000000000000000000000000000000000000000000008152600401620029e49062004366565b60405180910390fd5b60018160030160008673ffffffffffffffffffffffffffffffffffffffff1673ffffffffffffffffffffffffffffffffffffffff16815260200190815260200160002060006101000a81548160ff0219169083151502179055506000600281111562002a5e5762002a5d62002f71565b5b60ff168360ff16141562002a8f578181600001600082825462002a82919062003ba5565b9250508190555062002b5d565b6001600281111562002aa65762002aa562002f71565b5b60ff168360ff16141562002ad7578181600101600082825462002aca919062003ba5565b9250508190555062002b5c565b60028081111562002aed5762002aec62002f71565b5b60ff168360ff16141562002b1e578181600201600082825462002b11919062003ba5565b9250508190555062002b5b565b6040517f08c379a000000000000000000000000000000000000000000000000000000000815260040162002b5290620043fe565b60405180910390fd5b5b5b5050505050565b614aba806200442183390190565b6000819050919050565b62002b878162002b72565b82525050565b600060208201905062002ba4600083018462002b7c565b92915050565b600081519050919050565b600082825260208201905092915050565b60005b8381101562002be657808201518184015260208101905062002bc9565b8381111562002bf6576000848401525b50505050565b6000601f19601f8301169050919050565b600062002c1a8262002baa565b62002c26818562002bb5565b935062002c3881856020860162002bc6565b62002c438162002bfc565b840191505092915050565b6000602082019050818103600083015262002c6a818462002c0d565b905092915050565b6000604051905090565b600080fd5b600080fd5b600073ffffffffffffffffffffffffffffffffffffffff82169050919050565b600062002cb38262002c86565b9050919050565b62002cc58162002ca6565b811462002cd157600080fd5b50565b60008135905062002ce58162002cba565b92915050565b60006020828403121562002d045762002d0362002c7c565b5b600062002d148482850162002cd4565b91505092915050565b600080fd5b600080fd5b7f4e487b7100000000000000000000000000000000000000000000000000000000600052604160045260246000fd5b62002d618262002bfc565b810181811067ffffffffffffffff8211171562002d835762002d8262002d27565b5b80604052505050565b600062002d9862002c72565b905062002da6828262002d56565b919050565b600067ffffffffffffffff82111562002dc95762002dc862002d27565b5b62002dd48262002bfc565b9050602081019050919050565b82818337600083830152505050565b600062002e0762002e018462002dab565b62002d8c565b90508281526020810184848401111562002e265762002e2562002d22565b5b62002e3384828562002de1565b509392505050565b600082601f83011262002e535762002e5262002d1d565b5b813562002e6584826020860162002df0565b91505092915050565b6000806040838503121562002e885762002e8762002c7c565b5b600083013567ffffffffffffffff81111562002ea95762002ea862002c81565b5b62002eb78582860162002e3b565b925050602062002eca8582860162002cd4565b9150509250929050565b60008115159050919050565b62002eeb8162002ed4565b82525050565b600060208201905062002f08600083018462002ee0565b92915050565b62002f198162002b72565b811462002f2557600080fd5b50565b60008135905062002f398162002f0e565b92915050565b60006020828403121562002f585762002f5762002c7c565b5b600062002f688482850162002f28565b91505092915050565b7f4e487b7100000000000000000000000000000000000000000000000000000000600052602160045260246000fd5b6008811062002fb45762002fb362002f71565b5b50565b600081905062002fc78262002fa0565b919050565b600062002fd98262002fb7565b9050919050565b62002feb8162002fcc565b82525050565b600060208201905062003008600083018462002fe0565b92915050565b6000806040838503121562003028576200302762002c7c565b5b6000620030388582860162002cd4565b92505060206200304b8582860162002f28565b9150509250929050565b600080604083850312156200306f576200306e62002c7c565b5b60006200307f8582860162002f28565b9250506020620030928582860162002cd4565b9150509250929050565b6000606082019050620030b3600083018662002b7c565b620030c2602083018562002b7c565b620030d1604083018462002b7c565b949350505050565b600060ff82169050919050565b620030f181620030d9565b8114620030fd57600080fd5b50565b6000813590506200311181620030e6565b92915050565b6000806040838503121562003131576200313062002c7c565b5b6000620031418582860162002f28565b9250506020620031548582860162003100565b9150509250929050565b620031698162002ca6565b82525050565b60006020820190506200318660008301846200315e565b92915050565b600081519050919050565b600082825260208201905092915050565b6000819050602082019050919050565b620031c38162002ca6565b82525050565b6000620031d78383620031b8565b60208301905092915050565b6000602082019050919050565b6000620031fd826200318c565b62003209818562003197565b93506200321683620031a8565b8060005b838110156200324d578151620032318882620031c9565b97506200323e83620031e3565b9250506001810190506200321a565b5085935050505092915050565b60006020820190508181036000830152620032768184620031f0565b905092915050565b6000806040838503121562003298576200329762002c7c565b5b6000620032a88582860162002cd4565b9250506020620032bb8582860162002cd4565b9150509250929050565b600080fd5b600080fd5b620032da8162002ed4565b8114620032e657600080fd5b50565b600081359050620032fa81620032cf565b92915050565b600060e08284031215620033195762003318620032c5565b5b6200332560e062002d8c565b905060006200333784828501620032e9565b60008301525060206200334d84828501620032e9565b602083015250604082013567ffffffffffffffff811115620033745762003373620032ca565b5b620033828482850162002e3b565b604083015250606082013567ffffffffffffffff811115620033a957620033a8620032ca565b5b620033b78482850162002e3b565b6060830152506080620033cd8482850162002f28565b60808301525060a0620033e38482850162002cd4565b60a08301525060c0620033f984828501620032e9565b60c08301525092915050565b6000602082840312156200341e576200341d62002c7c565b5b600082013567ffffffffffffffff8111156200343f576200343e62002c81565b5b6200344d8482850162003300565b91505092915050565b6000819050919050565b6200346b8162003456565b82525050565b600060208201905062003488600083018462003460565b92915050565b60008060408385031215620034a857620034a762002c7c565b5b6000620034b88582860162002cd4565b9250506020620034cb85828601620032e9565b9150509250929050565b7f4e487b7100000000000000000000000000000000000000000000000000000000600052602260045260246000fd5b600060028204905060018216806200351d57607f821691505b60208210811415620035345762003533620034d5565b5b50919050565b7f4d756c74694f776e61626c653a2063616c6c6572206973206e6f74207468652060008201527f6f776e6572000000000000000000000000000000000000000000000000000000602082015250565b60006200359860258362002bb5565b9150620035a5826200353a565b604082019050919050565b60006020820190508181036000830152620035cb8162003589565b9050919050565b7f44414f3a20466f7262696464656e20746f20766f746500000000000000000000600082015250565b60006200360a60168362002bb5565b91506200361782620035d2565b602082019050919050565b600060208201905081810360008301526200363d81620035fb565b9050919050565b7f44414f3a20566f74696e672069732064697361626c6564000000000000000000600082015250565b60006200367c60178362002bb5565b9150620036898262003644565b602082019050919050565b60006020820190508181036000830152620036af816200366d565b9050919050565b7f5061757361626c653a2070617573656400000000000000000000000000000000600082015250565b6000620036ee60108362002bb5565b9150620036fb82620036b6565b602082019050919050565b600060208201905081810360008301526200372181620036df565b9050919050565b7f44414f3a20546f6b656e206973206e6f742070617274206f662044414f000000600082015250565b600062003760601d8362002bb5565b91506200376d8262003728565b602082019050919050565b60006020820190508181036000830152620037938162003751565b9050919050565b7f44414f3a2070726f706f73616c20616c72656164792065786973747300000000600082015250565b6000620037d2601c8362002bb5565b9150620037df826200379a565b602082019050919050565b600060208201905081810360008301526200380581620037c3565b9050919050565b600067ffffffffffffffff82169050919050565b7f4e487b7100000000000000000000000000000000000000000000000000000000600052601160045260246000fd5b60006200385c826200380c565b915062003869836200380c565b92508267ffffffffffffffff0382111562003889576200388862003820565b5b828201905092915050565b6000819050919050565b6000620038bf620038b9620038b3846200380c565b62003894565b62002b72565b9050919050565b620038d1816200389e565b82525050565b600060c082019050620038ee600083018962002b7c565b620038fd60208301886200315e565b6200390c6040830187620038c6565b6200391b6060830186620038c6565b81810360808301526200392f818562002c0d565b90506200394060a08301846200315e565b979650505050505050565b7f476f7665726e6f723a20756e6b6e6f776e2070726f706f73616c206964000000600082015250565b600062003983601d8362002bb5565b915062003990826200394b565b602082019050919050565b60006020820190508181036000830152620039b68162003974565b9050919050565b6000604082019050620039d4600083018562003460565b620039e360208301846200315e565b9392505050565b7f546f6b656e204d616e616765723a20556e6d616e6167656420746f6b656e0000600082015250565b600062003a22601e8362002bb5565b915062003a2f82620039ea565b602082019050919050565b6000602082019050818103600083015262003a558162003a13565b9050919050565b60008151905062003a6d8162002f0e565b92915050565b60006020828403121562003a8c5762003a8b62002c7c565b5b600062003a9c8482850162003a5c565b91505092915050565b600062003ab28262002b72565b915062003abf8362002b72565b9250817fffffffffffffffffffffffffffffffffffffffffffffffffffffffffffffffff048311821515161562003afb5762003afa62003820565b5b828202905092915050565b7f4e487b7100000000000000000000000000000000000000000000000000000000600052601260045260246000fd5b600062003b428262002b72565b915062003b4f8362002b72565b92508262003b625762003b6162003b06565b5b828204905092915050565b600062003b7a8262002b72565b915062003b878362002b72565b92508262003b9a5762003b9962003b06565b5b828206905092915050565b600062003bb28262002b72565b915062003bbf8362002b72565b9250827fffffffffffffffffffffffffffffffffffffffffffffffffffffffffffffffff0382111562003bf75762003bf662003820565b5b828201905092915050565b7f4d756c74694f776e61626c653a204163636f756e74206973206e6f7420616e2060008201527f6f776e6572000000000000000000000000000000000000000000000000000000602082015250565b600062003c6060258362002bb5565b915062003c6d8262003c02565b604082019050919050565b6000602082019050818103600083015262003c938162003c51565b9050919050565b600062003ca78262002b72565b915062003cb48362002b72565b92508282101562003cca5762003cc962003820565b5b828203905092915050565b7f4e487b7100000000000000000000000000000000000000000000000000000000600052603260045260246000fd5b600062003d118262002b72565b91507fffffffffffffffffffffffffffffffffffffffffffffffffffffffffffffffff82141562003d475762003d4662003820565b5b600182019050919050565b7f4e487b7100000000000000000000000000000000000000000000000000000000600052603160045260246000fd5b7f53616665436173743a2076616c756520646f65736e27742066697420696e203660008201527f3420626974730000000000000000000000000000000000000000000000000000602082015250565b600062003ddf60268362002bb5565b915062003dec8262003d81565b604082019050919050565b6000602082019050818103600083015262003e128162003dd0565b9050919050565b7f5061757361626c653a206e6f7420706175736564000000000000000000000000600082015250565b600062003e5160148362002bb5565b915062003e5e8262003e19565b602082019050919050565b6000602082019050818103600083015262003e848162003e42565b9050919050565b600060408201905062003ea2600083018562002b7c565b62003eb160208301846200315e565b9392505050565b60008151905062003ec981620032cf565b92915050565b60006020828403121562003ee85762003ee762002c7c565b5b600062003ef88482850162003eb8565b91505092915050565b7f476f7665726e6f723a20766f7465206e6f742063757272656e746c792061637460008201527f6976650000000000000000000000000000000000000000000000000000000000602082015250565b600062003f5f60238362002bb5565b915062003f6c8262003f01565b604082019050919050565b6000602082019050818103600083015262003f928162003f50565b9050919050565b7f4e6f742073756666696369656e74207765696768740000000000000000000000600082015250565b600062003fd160158362002bb5565b915062003fde8262003f99565b602082019050919050565b60006020820190508181036000830152620040048162003fc2565b9050919050565b6200401681620030d9565b82525050565b600060808201905062004033600083018762002b7c565b6200404260208301866200400b565b62004051604083018562002b7c565b818103606083015262004065818462002c0d565b905095945050505050565b7f4d756c74694f776e61626c653a20616c726561647920616e206f776e65720000600082015250565b6000620040a8601e8362002bb5565b9150620040b58262004070565b602082019050919050565b60006020820190508181036000830152620040db8162004099565b9050919050565b620040ed8162002ed4565b82525050565b600082825260208201905092915050565b6000620041118262002baa565b6200411d8185620040f3565b93506200412f81856020860162002bc6565b6200413a8162002bfc565b840191505092915050565b620041508162002b72565b82525050565b600060e083016000830151620041706000860182620040e2565b506020830151620041856020860182620040e2565b50604083015184820360408601526200419f828262004104565b91505060608301518482036060860152620041bb828262004104565b9150506080830151620041d2608086018262004145565b5060a0830151620041e760a0860182620031b8565b5060c0830151620041fc60c0860182620040e2565b508091505092915050565b6000602082019050818103600083015262004223818462004156565b905092915050565b7f546f6b656e204d616e616765723a20546f6b656e20616c72656164792061646460008201527f6564000000000000000000000000000000000000000000000000000000000000602082015250565b60006200428960228362002bb5565b915062004296826200422b565b604082019050919050565b60006020820190508181036000830152620042bc816200427a565b9050919050565b6000604082019050620042da60008301856200315e565b620042e9602083018462002ee0565b9392505050565b7f476f7665726e6f72566f74696e6753696d706c653a20766f746520616c72656160008201527f6479206361737400000000000000000000000000000000000000000000000000602082015250565b60006200434e60278362002bb5565b91506200435b82620042f0565b604082019050919050565b6000602082019050818103600083015262004381816200433f565b9050919050565b7f476f7665726e6f72566f74696e6753696d706c653a20696e76616c696420766160008201527f6c756520666f7220656e756d20566f7465547970650000000000000000000000602082015250565b6000620043e660358362002bb5565b9150620043f38262004388565b604082019050919050565b600060208201905081810360008301526200441981620043d7565b905091905056fe6101406040527f6e71edae12b1b97f4d1f60370fef10105fa2faae0126114a169c64845d6126c9610120908152506000600955620000426200047f60201b60201c565b600a60006101000a81548173ffffffffffffffffffffffffffffffffffffffff021916908373ffffffffffffffffffffffffffffffffffffffff1602179055503480156200008f57600080fd5b5060405162004aba38038062004aba8339818101604052810190620000b5919062000cb3565b620000c56200047f60201b60201c565b8160400151806040518060400160405280600181526020017f3100000000000000000000000000000000000000000000000000000000000000815250846040015185606001518160039080519060200190620001239291906200087a565b5080600490805190602001906200013c9291906200087a565b50505060008280519060200120905060008280519060200120905060007f8b73c3c69bb8fe3d512ecc4cf759cc79239f7b179b0ffacaa9a75d522b39400f90508260c081815250508160e081815250504660a08181525050620001a78184846200048760201b60201c565b608081815250508061010081815250505050505050506000600660006101000a81548160ff021916908315150217905550620001e981620004c360201b60201c565b5080600b60008201518160000160006101000a81548160ff02191690831515021790555060208201518160000160016101000a81548160ff02191690831515021790555060408201518160010190805190602001906200024b9291906200087a565b5060608201518160020190805190602001906200026a9291906200087a565b506080820151816003015560a08201518160040160006101000a81548173ffffffffffffffffffffffffffffffffffffffff021916908373ffffffffffffffffffffffffffffffffffffffff16021790555060c08201518160040160146101000a81548160ff021916908315150217905550905050600073ffffffffffffffffffffffffffffffffffffffff16600b60040160009054906101000a900473ffffffffffffffffffffffffffffffffffffffff1673ffffffffffffffffffffffffffffffffffffffff16146200043f57600b60040160009054906101000a900473ffffffffffffffffffffffffffffffffffffffff16600a60006101000a81548173ffffffffffffffffffffffffffffffffffffffff021916908373ffffffffffffffffffffffffffffffffffffffff160217905550620003af6200047f60201b60201c565b73ffffffffffffffffffffffffffffffffffffffff16600b60040160009054906101000a900473ffffffffffffffffffffffffffffffffffffffff1673ffffffffffffffffffffffffffffffffffffffff16146200043e576200043d600b60040160009054906101000a900473ffffffffffffffffffffffffffffffffffffffff16620004c360201b60201c565b5b5b62000478600a60009054906101000a900473ffffffffffffffffffffffffffffffffffffffff16600b600301546200066a60201b60201c565b5062001040565b600033905090565b60008383834630604051602001620004a495949392919062000d41565b6040516020818303038152906040528051906020012090509392505050565b60001515600760008373ffffffffffffffffffffffffffffffffffffffff1673ffffffffffffffffffffffffffffffffffffffff16815260200190815260200160002060009054906101000a900460ff1615151462000559576040517f08c379a0000000000000000000000000000000000000000000000000000000008152600401620005509062000dff565b60405180910390fd5b6001600760008373ffffffffffffffffffffffffffffffffffffffff1673ffffffffffffffffffffffffffffffffffffffff16815260200190815260200160002060006101000a81548160ff0219169083151502179055506008819080600181540180825580915050600190039060005260206000200160009091909190916101000a81548173ffffffffffffffffffffffffffffffffffffffff021916908373ffffffffffffffffffffffffffffffffffffffff16021790555062000624620007e360201b60201c565b8073ffffffffffffffffffffffffffffffffffffffff167f994a936646fe87ffe4f1e469d3d6aa417d6b855598397f323de5b449f765f0c360405160405180910390a250565b600073ffffffffffffffffffffffffffffffffffffffff168273ffffffffffffffffffffffffffffffffffffffff161415620006dd576040517f08c379a0000000000000000000000000000000000000000000000000000000008152600401620006d49062000e71565b60405180910390fd5b620006f1600083836200082960201b60201c565b806002600082825462000705919062000ec2565b92505081905550806000808473ffffffffffffffffffffffffffffffffffffffff1673ffffffffffffffffffffffffffffffffffffffff16815260200190815260200160002060008282546200075c919062000ec2565b925050819055508173ffffffffffffffffffffffffffffffffffffffff16600073ffffffffffffffffffffffffffffffffffffffff167fddf252ad1be2c89b69c2b068fc378daa952ba7f163c4a11628f55a4df523b3ef83604051620007c3919062000f1f565b60405180910390a3620007df600083836200082e60201b60201c565b5050565b600260088054905011620008035760088054905060098190555062000827565b6200082060088054905060026200083360201b620010df1760201c565b6009819055505b565b505050565b505050565b600080828462000844919062000f6b565b146200085257600162000855565b60005b60ff16828462000866919062000fa3565b62000872919062000ec2565b905092915050565b82805462000888906200100a565b90600052602060002090601f016020900481019282620008ac5760008555620008f8565b82601f10620008c757805160ff1916838001178555620008f8565b82800160010185558215620008f8579182015b82811115620008f7578251825591602001919060010190620008da565b5b5090506200090791906200090b565b5090565b5b80821115620009265760008160009055506001016200090c565b5090565b6000604051905090565b600080fd5b600080fd5b600080fd5b6000601f19601f8301169050919050565b7f4e487b7100000000000000000000000000000000000000000000000000000000600052604160045260246000fd5b6200098e8262000943565b810181811067ffffffffffffffff82111715620009b057620009af62000954565b5b80604052505050565b6000620009c56200092a565b9050620009d3828262000983565b919050565b600080fd5b60008115159050919050565b620009f481620009dd565b811462000a0057600080fd5b50565b60008151905062000a1481620009e9565b92915050565b600080fd5b600080fd5b600067ffffffffffffffff82111562000a425762000a4162000954565b5b62000a4d8262000943565b9050602081019050919050565b60005b8381101562000a7a57808201518184015260208101905062000a5d565b8381111562000a8a576000848401525b50505050565b600062000aa762000aa18462000a24565b620009b9565b90508281526020810184848401111562000ac65762000ac562000a1f565b5b62000ad384828562000a5a565b509392505050565b600082601f83011262000af35762000af262000a1a565b5b815162000b0584826020860162000a90565b91505092915050565b6000819050919050565b62000b238162000b0e565b811462000b2f57600080fd5b50565b60008151905062000b438162000b18565b92915050565b600073ffffffffffffffffffffffffffffffffffffffff82169050919050565b600062000b768262000b49565b9050919050565b62000b888162000b69565b811462000b9457600080fd5b50565b60008151905062000ba88162000b7d565b92915050565b600060e0828403121562000bc75762000bc66200093e565b5b62000bd360e0620009b9565b9050600062000be58482850162000a03565b600083015250602062000bfb8482850162000a03565b602083015250604082015167ffffffffffffffff81111562000c225762000c21620009d8565b5b62000c308482850162000adb565b604083015250606082015167ffffffffffffffff81111562000c575762000c56620009d8565b5b62000c658482850162000adb565b606083015250608062000c7b8482850162000b32565b60808301525060a062000c918482850162000b97565b60a08301525060c062000ca78482850162000a03565b60c08301525092915050565b60006020828403121562000ccc5762000ccb62000934565b5b600082015167ffffffffffffffff81111562000ced5762000cec62000939565b5b62000cfb8482850162000bae565b91505092915050565b6000819050919050565b62000d198162000d04565b82525050565b62000d2a8162000b0e565b82525050565b62000d3b8162000b69565b82525050565b600060a08201905062000d58600083018862000d0e565b62000d67602083018762000d0e565b62000d76604083018662000d0e565b62000d85606083018562000d1f565b62000d94608083018462000d30565b9695505050505050565b600082825260208201905092915050565b7f4d756c74694f776e61626c653a20616c726561647920616e206f776e65720000600082015250565b600062000de7601e8362000d9e565b915062000df48262000daf565b602082019050919050565b6000602082019050818103600083015262000e1a8162000dd8565b9050919050565b7f45524332303a206d696e7420746f20746865207a65726f206164647265737300600082015250565b600062000e59601f8362000d9e565b915062000e668262000e21565b602082019050919050565b6000602082019050818103600083015262000e8c8162000e4a565b9050919050565b7f4e487b7100000000000000000000000000000000000000000000000000000000600052601160045260246000fd5b600062000ecf8262000b0e565b915062000edc8362000b0e565b9250827fffffffffffffffffffffffffffffffffffffffffffffffffffffffffffffffff0382111562000f145762000f1362000e93565b5b828201905092915050565b600060208201905062000f36600083018462000d1f565b92915050565b7f4e487b7100000000000000000000000000000000000000000000000000000000600052601260045260246000fd5b600062000f788262000b0e565b915062000f858362000b0e565b92508262000f985762000f9762000f3c565b5b828206905092915050565b600062000fb08262000b0e565b915062000fbd8362000b0e565b92508262000fd05762000fcf62000f3c565b5b828204905092915050565b7f4e487b7100000000000000000000000000000000000000000000000000000000600052602260045260246000fd5b600060028204905060018216806200102357607f821691505b602082108114156200103a576200103962000fdb565b5b50919050565b60805160a05160c05160e0516101005161012051613a2a620010906000396000610f5d015260006114400152600061148201526000611461015260006113ed015260006114150152613a2a6000f3fe608060405234801561001057600080fd5b50600436106101735760003560e01c806370a08231116100de578063992924a611610097578063a457c2d711610071578063a457c2d714610450578063a9059cbb14610480578063d505accf146104b0578063dd62ed3e146104cc57610173565b8063992924a6146103e457806399c1aadc14610414578063a0e67e2b1461043257610173565b806370a082311461031057806379cc6790146103405780637ecebe001461035c5780638456cb591461038c57806394bf804d1461039657806395d89b41146103c657610173565b80633644e515116101305780633644e5151461026257806339509351146102805780633f4ba83a146102b057806342966c68146102ba5780634885b254146102d65780635c975abb146102f257610173565b806306fdde0314610178578063095ea7b31461019657806318160ddd146101c657806323b872dd146101e45780632f54bf6e14610214578063313ce56714610244575b600080fd5b6101806104fc565b60405161018d9190612094565b60405180910390f35b6101b060048036038101906101ab919061215e565b61058e565b6040516101bd91906121b9565b60405180910390f35b6101ce6105ac565b6040516101db91906121e3565b60405180910390f35b6101fe60048036038101906101f991906121fe565b6105b6565b60405161020b91906121b9565b60405180910390f35b61022e60048036038101906102299190612251565b610614565b60405161023b91906121b9565b60405180910390f35b61024c610671565b604051610259919061229a565b60405180910390f35b61026a61067a565b60405161027791906122ce565b60405180910390f35b61029a6004803603810190610295919061215e565b610689565b6040516102a791906121b9565b60405180910390f35b6102b8610735565b005b6102d460048036038101906102cf91906122e9565b61078e565b005b6102f060048036038101906102eb9190612521565b6107f3565b005b6102fa6109b5565b60405161030791906121b9565b60405180910390f35b61032a60048036038101906103259190612251565b6109cc565b60405161033791906121e3565b60405180910390f35b61035a6004803603810190610355919061215e565b610a14565b005b61037660048036038101906103719190612251565b610a8f565b60405161038391906121e3565b60405180910390f35b610394610adf565b005b6103b060048036038101906103ab91906125ac565b610b38565b6040516103bd91906121b9565b60405180910390f35b6103ce610c66565b6040516103db9190612094565b60405180910390f35b6103fe60048036038101906103f991906122e9565b610cf8565b60405161040b91906125fb565b60405180910390f35b61041c610d37565b60405161042991906121e3565b60405180910390f35b61043a610d41565b60405161044791906126d4565b60405180910390f35b61046a6004803603810190610465919061215e565b610dcf565b60405161047791906121b9565b60405180910390f35b61049a6004803603810190610495919061215e565b610eba565b6040516104a791906121b9565b60405180910390f35b6104ca60048036038101906104c5919061274e565b610f16565b005b6104e660048036038101906104e191906127f0565b611058565b6040516104f391906121e3565b60405180910390f35b60606003805461050b9061285f565b80601f01602080910402602001604051908101604052809291908181526020018280546105379061285f565b80156105845780601f1061055957610100808354040283529160200191610584565b820191906000526020600020905b81548152906001019060200180831161056757829003601f168201915b5050505050905090565b60006105a261059b61111e565b8484611126565b6001905092915050565b6000600254905090565b60006105c06109b5565b15610600576040517f08c379a00000000000000000000000000000000000000000000000000000000081526004016105f7906128dd565b60405180910390fd5b61060b8484846112f1565b90509392505050565b600060011515600760008473ffffffffffffffffffffffffffffffffffffffff1673ffffffffffffffffffffffffffffffffffffffff16815260200190815260200160002060009054906101000a900460ff161515149050919050565b60006012905090565b60006106846113e9565b905090565b600061072b61069661111e565b8484600160006106a461111e565b73ffffffffffffffffffffffffffffffffffffffff1673ffffffffffffffffffffffffffffffffffffffff16815260200190815260200160002060008873ffffffffffffffffffffffffffffffffffffffff1673ffffffffffffffffffffffffffffffffffffffff16815260200190815260200160002054610726919061292c565b611126565b6001905092915050565b61074561074061111e565b610614565b610784576040517f08c379a000000000000000000000000000000000000000000000000000000000815260040161077b906129f4565b60405180910390fd5b61078c6114ac565b565b60011515600b60000160019054906101000a900460ff161515146107e7576040517f08c379a00000000000000000000000000000000000000000000000000000000081526004016107de90612a86565b60405180910390fd5b6107f08161154e565b50565b6108036107fe61111e565b610614565b610842576040517f08c379a0000000000000000000000000000000000000000000000000000000008152600401610839906129f4565b60405180910390fd5b8051825114610886576040517f08c379a000000000000000000000000000000000000000000000000000000000815260040161087d90612b18565b60405180910390fd5b600073ffffffffffffffffffffffffffffffffffffffff168373ffffffffffffffffffffffffffffffffffffffff1614156108f6576040517f08c379a00000000000000000000000000000000000000000000000000000000081526004016108ed90612baa565b60405180910390fd5b60005b82518110156109af57600083828151811061091757610916612bca565b5b60200260200101519050600083838151811061093657610935612bca565b5b60200260200101519050600061094b876109cc565b905081811015610990576040517f08c379a000000000000000000000000000000000000000000000000000000000815260040161098790612c6b565b60405180910390fd5b61099b878484611562565b505050806109a890612c8b565b90506108f9565b50505050565b6000600660009054906101000a900460ff16905090565b60008060008373ffffffffffffffffffffffffffffffffffffffff1673ffffffffffffffffffffffffffffffffffffffff168152602001908152602001600020549050919050565b6000610a2783610a2261111e565b611058565b905081811015610a6c576040517f08c379a0000000000000000000000000000000000000000000000000000000008152600401610a6390612d46565b60405180910390fd5b610a8083610a7861111e565b848403611126565b610a8a83836117e3565b505050565b6000610ad8600560008473ffffffffffffffffffffffffffffffffffffffff1673ffffffffffffffffffffffffffffffffffffffff1681526020019081526020016000206119ba565b9050919050565b610aef610aea61111e565b610614565b610b2e576040517f08c379a0000000000000000000000000000000000000000000000000000000008152600401610b25906129f4565b60405180910390fd5b610b366119c8565b565b6000610b4a610b4561111e565b610614565b610b89576040517f08c379a0000000000000000000000000000000000000000000000000000000008152600401610b80906129f4565b60405180910390fd5b60011515600b60000160009054906101000a900460ff16151514610be2576040517f08c379a0000000000000000000000000000000000000000000000000000000008152600401610bd990612dd8565b60405180910390fd5b600073ffffffffffffffffffffffffffffffffffffffff168273ffffffffffffffffffffffffffffffffffffffff161415610c52576040517f08c379a0000000000000000000000000000000000000000000000000000000008152600401610c4990612e6a565b60405180910390fd5b610c5c8284611a6b565b6001905092915050565b606060048054610c759061285f565b80601f0160208091040260200160405190810160405280929190818152602001828054610ca19061285f565b8015610cee5780601f10610cc357610100808354040283529160200191610cee565b820191906000526020600020905b815481529060010190602001808311610cd157829003601f168201915b5050505050905090565b60088181548110610d0857600080fd5b906000526020600020016000915054906101000a900473ffffffffffffffffffffffffffffffffffffffff1681565b6000600954905090565b60606008805480602002602001604051908101604052809291908181526020018280548015610dc557602002820191906000526020600020905b8160009054906101000a900473ffffffffffffffffffffffffffffffffffffffff1673ffffffffffffffffffffffffffffffffffffffff1681526020019060010190808311610d7b575b5050505050905090565b60008060016000610dde61111e565b73ffffffffffffffffffffffffffffffffffffffff1673ffffffffffffffffffffffffffffffffffffffff16815260200190815260200160002060008573ffffffffffffffffffffffffffffffffffffffff1673ffffffffffffffffffffffffffffffffffffffff16815260200190815260200160002054905082811015610e9b576040517f08c379a0000000000000000000000000000000000000000000000000000000008152600401610e9290612efc565b60405180910390fd5b610eaf610ea661111e565b85858403611126565b600191505092915050565b6000610ec46109b5565b15610f04576040517f08c379a0000000000000000000000000000000000000000000000000000000008152600401610efb906128dd565b60405180910390fd5b610f0e8383611bcb565b905092915050565b83421115610f59576040517f08c379a0000000000000000000000000000000000000000000000000000000008152600401610f5090612f68565b60405180910390fd5b60007f0000000000000000000000000000000000000000000000000000000000000000888888610f888c611be9565b89604051602001610f9e96959493929190612f88565b6040516020818303038152906040528051906020012090506000610fc182611c47565b90506000610fd182878787611c61565b90508973ffffffffffffffffffffffffffffffffffffffff168173ffffffffffffffffffffffffffffffffffffffff1614611041576040517f08c379a000000000000000000000000000000000000000000000000000000000815260040161103890613035565b60405180910390fd5b61104c8a8a8a611126565b50505050505050505050565b6000600160008473ffffffffffffffffffffffffffffffffffffffff1673ffffffffffffffffffffffffffffffffffffffff16815260200190815260200160002060008373ffffffffffffffffffffffffffffffffffffffff1673ffffffffffffffffffffffffffffffffffffffff16815260200190815260200160002054905092915050565b60008082846110ee9190613084565b146110fa5760016110fd565b60005b60ff16828461110c91906130b5565b611116919061292c565b905092915050565b600033905090565b600073ffffffffffffffffffffffffffffffffffffffff168373ffffffffffffffffffffffffffffffffffffffff161415611196576040517f08c379a000000000000000000000000000000000000000000000000000000000815260040161118d90613158565b60405180910390fd5b600073ffffffffffffffffffffffffffffffffffffffff168273ffffffffffffffffffffffffffffffffffffffff161415611206576040517f08c379a00000000000000000000000000000000000000000000000000000000081526004016111fd906131ea565b60405180910390fd5b80600160008573ffffffffffffffffffffffffffffffffffffffff1673ffffffffffffffffffffffffffffffffffffffff16815260200190815260200160002060008473ffffffffffffffffffffffffffffffffffffffff1673ffffffffffffffffffffffffffffffffffffffff168152602001908152602001600020819055508173ffffffffffffffffffffffffffffffffffffffff168373ffffffffffffffffffffffffffffffffffffffff167f8c5be1e5ebec7d5bd14f71427d1e84f3dd0314c0f7b2291e5b200ac8c7c3b925836040516112e491906121e3565b60405180910390a3505050565b60006112fe848484611562565b6000600160008673ffffffffffffffffffffffffffffffffffffffff1673ffffffffffffffffffffffffffffffffffffffff168152602001908152602001600020600061134961111e565b73ffffffffffffffffffffffffffffffffffffffff1673ffffffffffffffffffffffffffffffffffffffff168152602001908152602001600020549050828110156113c9576040517f08c379a00000000000000000000000000000000000000000000000000000000081526004016113c09061327c565b60405180910390fd5b6113dd856113d561111e565b858403611126565b60019150509392505050565b60007f000000000000000000000000000000000000000000000000000000000000000046141561143b577f000000000000000000000000000000000000000000000000000000000000000090506114a9565b6114a67f00000000000000000000000000000000000000000000000000000000000000007f00000000000000000000000000000000000000000000000000000000000000007f0000000000000000000000000000000000000000000000000000000000000000611c8c565b90505b90565b6114b46109b5565b6114f3576040517f08c379a00000000000000000000000000000000000000000000000000000000081526004016114ea906132e8565b60405180910390fd5b6000600660006101000a81548160ff0219169083151502179055507f5db9ee0a495bf2e6ff9c91a7834c1ba4fdd244a5e8aa4e537bd38aeae4b073aa61153761111e565b60405161154491906125fb565b60405180910390a1565b61155f61155961111e565b826117e3565b50565b600073ffffffffffffffffffffffffffffffffffffffff168373ffffffffffffffffffffffffffffffffffffffff1614156115d2576040517f08c379a00000000000000000000000000000000000000000000000000000000081526004016115c99061337a565b60405180910390fd5b600073ffffffffffffffffffffffffffffffffffffffff168273ffffffffffffffffffffffffffffffffffffffff161415611642576040517f08c379a00000000000000000000000000000000000000000000000000000000081526004016116399061340c565b60405180910390fd5b61164d838383611cc6565b60008060008573ffffffffffffffffffffffffffffffffffffffff1673ffffffffffffffffffffffffffffffffffffffff168152602001908152602001600020549050818110156116d3576040517f08c379a00000000000000000000000000000000000000000000000000000000081526004016116ca9061349e565b60405180910390fd5b8181036000808673ffffffffffffffffffffffffffffffffffffffff1673ffffffffffffffffffffffffffffffffffffffff16815260200190815260200160002081905550816000808573ffffffffffffffffffffffffffffffffffffffff1673ffffffffffffffffffffffffffffffffffffffff1681526020019081526020016000206000828254611766919061292c565b925050819055508273ffffffffffffffffffffffffffffffffffffffff168473ffffffffffffffffffffffffffffffffffffffff167fddf252ad1be2c89b69c2b068fc378daa952ba7f163c4a11628f55a4df523b3ef846040516117ca91906121e3565b60405180910390a36117dd848484611ccb565b50505050565b600073ffffffffffffffffffffffffffffffffffffffff168273ffffffffffffffffffffffffffffffffffffffff161415611853576040517f08c379a000000000000000000000000000000000000000000000000000000000815260040161184a90613530565b60405180910390fd5b61185f82600083611cc6565b60008060008473ffffffffffffffffffffffffffffffffffffffff1673ffffffffffffffffffffffffffffffffffffffff168152602001908152602001600020549050818110156118e5576040517f08c379a00000000000000000000000000000000000000000000000000000000081526004016118dc906135c2565b60405180910390fd5b8181036000808573ffffffffffffffffffffffffffffffffffffffff1673ffffffffffffffffffffffffffffffffffffffff16815260200190815260200160002081905550816002600082825461193c91906135e2565b92505081905550600073ffffffffffffffffffffffffffffffffffffffff168373ffffffffffffffffffffffffffffffffffffffff167fddf252ad1be2c89b69c2b068fc378daa952ba7f163c4a11628f55a4df523b3ef846040516119a191906121e3565b60405180910390a36119b583600084611ccb565b505050565b600081600001549050919050565b6119d06109b5565b15611a10576040517f08c379a0000000000000000000000000000000000000000000000000000000008152600401611a07906128dd565b60405180910390fd5b6001600660006101000a81548160ff0219169083151502179055507f62e78cea01bee320cd4e420270b5ea74000d11b0c9f74754ebdbfc544b05a258611a5461111e565b604051611a6191906125fb565b60405180910390a1565b600073ffffffffffffffffffffffffffffffffffffffff168273ffffffffffffffffffffffffffffffffffffffff161415611adb576040517f08c379a0000000000000000000000000000000000000000000000000000000008152600401611ad290613662565b60405180910390fd5b611ae760008383611cc6565b8060026000828254611af9919061292c565b92505081905550806000808473ffffffffffffffffffffffffffffffffffffffff1673ffffffffffffffffffffffffffffffffffffffff1681526020019081526020016000206000828254611b4e919061292c565b925050819055508173ffffffffffffffffffffffffffffffffffffffff16600073ffffffffffffffffffffffffffffffffffffffff167fddf252ad1be2c89b69c2b068fc378daa952ba7f163c4a11628f55a4df523b3ef83604051611bb391906121e3565b60405180910390a3611bc760008383611ccb565b5050565b6000611bdf611bd861111e565b8484611562565b6001905092915050565b600080600560008473ffffffffffffffffffffffffffffffffffffffff1673ffffffffffffffffffffffffffffffffffffffff1681526020019081526020016000209050611c36816119ba565b9150611c4181611cd0565b50919050565b6000611c5a611c546113e9565b83611ce6565b9050919050565b6000806000611c7287878787611d19565b91509150611c7f81611e26565b8192505050949350505050565b60008383834630604051602001611ca7959493929190613682565b6040516020818303038152906040528051906020012090509392505050565b505050565b505050565b6001816000016000828254019250508190555050565b60008282604051602001611cfb92919061374d565b60405160208183030381529060405280519060200120905092915050565b6000807f7fffffffffffffffffffffffffffffff5d576e7357a4501ddfe92f46681b20a08360001c1115611d54576000600391509150611e1d565b601b8560ff1614158015611d6c5750601c8560ff1614155b15611d7e576000600491509150611e1d565b600060018787878760405160008152602001604052604051611da39493929190613784565b6020604051602081039080840390855afa158015611dc5573d6000803e3d6000fd5b505050602060405103519050600073ffffffffffffffffffffffffffffffffffffffff168173ffffffffffffffffffffffffffffffffffffffff161415611e1457600060019250925050611e1d565b80600092509250505b94509492505050565b60006004811115611e3a57611e396137c9565b5b816004811115611e4d57611e4c6137c9565b5b1415611e5857611ff8565b60016004811115611e6c57611e6b6137c9565b5b816004811115611e7f57611e7e6137c9565b5b1415611ec0576040517f08c379a0000000000000000000000000000000000000000000000000000000008152600401611eb790613844565b60405180910390fd5b60026004811115611ed457611ed36137c9565b5b816004811115611ee757611ee66137c9565b5b1415611f28576040517f08c379a0000000000000000000000000000000000000000000000000000000008152600401611f1f906138b0565b60405180910390fd5b60036004811115611f3c57611f3b6137c9565b5b816004811115611f4f57611f4e6137c9565b5b1415611f90576040517f08c379a0000000000000000000000000000000000000000000000000000000008152600401611f8790613942565b60405180910390fd5b600480811115611fa357611fa26137c9565b5b816004811115611fb657611fb56137c9565b5b1415611ff7576040517f08c379a0000000000000000000000000000000000000000000000000000000008152600401611fee906139d4565b60405180910390fd5b5b50565b600081519050919050565b600082825260208201905092915050565b60005b8381101561203557808201518184015260208101905061201a565b83811115612044576000848401525b50505050565b6000601f19601f8301169050919050565b600061206682611ffb565b6120708185612006565b9350612080818560208601612017565b6120898161204a565b840191505092915050565b600060208201905081810360008301526120ae818461205b565b905092915050565b6000604051905090565b600080fd5b600080fd5b600073ffffffffffffffffffffffffffffffffffffffff82169050919050565b60006120f5826120ca565b9050919050565b612105816120ea565b811461211057600080fd5b50565b600081359050612122816120fc565b92915050565b6000819050919050565b61213b81612128565b811461214657600080fd5b50565b60008135905061215881612132565b92915050565b60008060408385031215612175576121746120c0565b5b600061218385828601612113565b925050602061219485828601612149565b9150509250929050565b60008115159050919050565b6121b38161219e565b82525050565b60006020820190506121ce60008301846121aa565b92915050565b6121dd81612128565b82525050565b60006020820190506121f860008301846121d4565b92915050565b600080600060608486031215612217576122166120c0565b5b600061222586828701612113565b935050602061223686828701612113565b925050604061224786828701612149565b9150509250925092565b600060208284031215612267576122666120c0565b5b600061227584828501612113565b91505092915050565b600060ff82169050919050565b6122948161227e565b82525050565b60006020820190506122af600083018461228b565b92915050565b6000819050919050565b6122c8816122b5565b82525050565b60006020820190506122e360008301846122bf565b92915050565b6000602082840312156122ff576122fe6120c0565b5b600061230d84828501612149565b91505092915050565b600080fd5b7f4e487b7100000000000000000000000000000000000000000000000000000000600052604160045260246000fd5b6123538261204a565b810181811067ffffffffffffffff821117156123725761237161231b565b5b80604052505050565b60006123856120b6565b9050612391828261234a565b919050565b600067ffffffffffffffff8211156123b1576123b061231b565b5b602082029050602081019050919050565b600080fd5b60006123da6123d584612396565b61237b565b905080838252602082019050602084028301858111156123fd576123fc6123c2565b5b835b8181101561242657806124128882612113565b8452602084019350506020810190506123ff565b5050509392505050565b600082601f83011261244557612444612316565b5b81356124558482602086016123c7565b91505092915050565b600067ffffffffffffffff8211156124795761247861231b565b5b602082029050602081019050919050565b600061249d6124988461245e565b61237b565b905080838252602082019050602084028301858111156124c0576124bf6123c2565b5b835b818110156124e957806124d58882612149565b8452602084019350506020810190506124c2565b5050509392505050565b600082601f83011261250857612507612316565b5b813561251884826020860161248a565b91505092915050565b60008060006060848603121561253a576125396120c0565b5b600061254886828701612113565b935050602084013567ffffffffffffffff811115612569576125686120c5565b5b61257586828701612430565b925050604084013567ffffffffffffffff811115612596576125956120c5565b5b6125a2868287016124f3565b9150509250925092565b600080604083850312156125c3576125c26120c0565b5b60006125d185828601612149565b92505060206125e285828601612113565b9150509250929050565b6125f5816120ea565b82525050565b600060208201905061261060008301846125ec565b92915050565b600081519050919050565b600082825260208201905092915050565b6000819050602082019050919050565b61264b816120ea565b82525050565b600061265d8383612642565b60208301905092915050565b6000602082019050919050565b600061268182612616565b61268b8185612621565b935061269683612632565b8060005b838110156126c75781516126ae8882612651565b97506126b983612669565b92505060018101905061269a565b5085935050505092915050565b600060208201905081810360008301526126ee8184612676565b905092915050565b6126ff8161227e565b811461270a57600080fd5b50565b60008135905061271c816126f6565b92915050565b61272b816122b5565b811461273657600080fd5b50565b60008135905061274881612722565b92915050565b600080600080600080600060e0888a03121561276d5761276c6120c0565b5b600061277b8a828b01612113565b975050602061278c8a828b01612113565b965050604061279d8a828b01612149565b95505060606127ae8a828b01612149565b94505060806127bf8a828b0161270d565b93505060a06127d08a828b01612739565b92505060c06127e18a828b01612739565b91505092959891949750929550565b60008060408385031215612807576128066120c0565b5b600061281585828601612113565b925050602061282685828601612113565b9150509250929050565b7f4e487b7100000000000000000000000000000000000000000000000000000000600052602260045260246000fd5b6000600282049050600182168061287757607f821691505b6020821081141561288b5761288a612830565b5b50919050565b7f5061757361626c653a2070617573656400000000000000000000000000000000600082015250565b60006128c7601083612006565b91506128d282612891565b602082019050919050565b600060208201905081810360008301526128f6816128ba565b9050919050565b7f4e487b7100000000000000000000000000000000000000000000000000000000600052601160045260246000fd5b600061293782612128565b915061294283612128565b9250827fffffffffffffffffffffffffffffffffffffffffffffffffffffffffffffffff03821115612977576129766128fd565b5b828201905092915050565b7f4d756c74694f776e61626c653a2063616c6c6572206973206e6f74207468652060008201527f6f776e6572000000000000000000000000000000000000000000000000000000602082015250565b60006129de602583612006565b91506129e982612982565b604082019050919050565b60006020820190508181036000830152612a0d816129d1565b9050919050565b7f436f6e747261637420776173206e6f7420636f6e6669677572656420746f206260008201527f65206275726e61626c6500000000000000000000000000000000000000000000602082015250565b6000612a70602a83612006565b9150612a7b82612a14565b604082019050919050565b60006020820190508181036000830152612a9f81612a63565b9050919050565b7f455243313135353a20746f20616e6420616d6f756e7473206c656e677468206d60008201527f69736d6174636800000000000000000000000000000000000000000000000000602082015250565b6000612b02602783612006565b9150612b0d82612aa6565b604082019050919050565b60006020820190508181036000830152612b3181612af5565b9050919050565b7f455243313135353a207472616e7366657220746f20746865207a65726f20616460008201527f6472657373000000000000000000000000000000000000000000000000000000602082015250565b6000612b94602583612006565b9150612b9f82612b38565b604082019050919050565b60006020820190508181036000830152612bc381612b87565b9050919050565b7f4e487b7100000000000000000000000000000000000000000000000000000000600052603260045260246000fd5b7f455243313135353a20696e73756666696369656e742062616c616e636520666f60008201527f72207472616e7366657200000000000000000000000000000000000000000000602082015250565b6000612c55602a83612006565b9150612c6082612bf9565b604082019050919050565b60006020820190508181036000830152612c8481612c48565b9050919050565b6000612c9682612128565b91507fffffffffffffffffffffffffffffffffffffffffffffffffffffffffffffffff821415612cc957612cc86128fd565b5b600182019050919050565b7f45524332303a206275726e20616d6f756e74206578636565647320616c6c6f7760008201527f616e636500000000000000000000000000000000000000000000000000000000602082015250565b6000612d30602483612006565b9150612d3b82612cd4565b604082019050919050565b60006020820190508181036000830152612d5f81612d23565b9050919050565b7f436f6e747261637420776173206e6f7420636f6e6669677572656420746f206260008201527f65206d696e7461626c6500000000000000000000000000000000000000000000602082015250565b6000612dc2602a83612006565b9150612dcd82612d66565b604082019050919050565b60006020820190508181036000830152612df181612db5565b9050919050565b7f57616c6c65742061646472657373206861736e2774206265656e2070726f706560008201527f726c7920636f6e66696775726564000000000000000000000000000000000000602082015250565b6000612e54602e83612006565b9150612e5f82612df8565b604082019050919050565b60006020820190508181036000830152612e8381612e47565b9050919050565b7f45524332303a2064656372656173656420616c6c6f77616e63652062656c6f7760008201527f207a65726f000000000000000000000000000000000000000000000000000000602082015250565b6000612ee6602583612006565b9150612ef182612e8a565b604082019050919050565b60006020820190508181036000830152612f1581612ed9565b9050919050565b7f45524332305065726d69743a206578706972656420646561646c696e65000000600082015250565b6000612f52601d83612006565b9150612f5d82612f1c565b602082019050919050565b60006020820190508181036000830152612f8181612f45565b9050919050565b600060c082019050612f9d60008301896122bf565b612faa60208301886125ec565b612fb760408301876125ec565b612fc460608301866121d4565b612fd160808301856121d4565b612fde60a08301846121d4565b979650505050505050565b7f45524332305065726d69743a20696e76616c6964207369676e61747572650000600082015250565b600061301f601e83612006565b915061302a82612fe9565b602082019050919050565b6000602082019050818103600083015261304e81613012565b9050919050565b7f4e487b7100000000000000000000000000000000000000000000000000000000600052601260045260246000fd5b600061308f82612128565b915061309a83612128565b9250826130aa576130a9613055565b5b828206905092915050565b60006130c082612128565b91506130cb83612128565b9250826130db576130da613055565b5b828204905092915050565b7f45524332303a20617070726f76652066726f6d20746865207a65726f2061646460008201527f7265737300000000000000000000000000000000000000000000000000000000602082015250565b6000613142602483612006565b915061314d826130e6565b604082019050919050565b6000602082019050818103600083015261317181613135565b9050919050565b7f45524332303a20617070726f766520746f20746865207a65726f20616464726560008201527f7373000000000000000000000000000000000000000000000000000000000000602082015250565b60006131d4602283612006565b91506131df82613178565b604082019050919050565b60006020820190508181036000830152613203816131c7565b9050919050565b7f45524332303a207472616e7366657220616d6f756e742065786365656473206160008201527f6c6c6f77616e6365000000000000000000000000000000000000000000000000602082015250565b6000613266602883612006565b91506132718261320a565b604082019050919050565b6000602082019050818103600083015261329581613259565b9050919050565b7f5061757361626c653a206e6f7420706175736564000000000000000000000000600082015250565b60006132d2601483612006565b91506132dd8261329c565b602082019050919050565b60006020820190508181036000830152613301816132c5565b9050919050565b7f45524332303a207472616e736665722066726f6d20746865207a65726f20616460008201527f6472657373000000000000000000000000000000000000000000000000000000602082015250565b6000613364602583612006565b915061336f82613308565b604082019050919050565b6000602082019050818103600083015261339381613357565b9050919050565b7f45524332303a207472616e7366657220746f20746865207a65726f206164647260008201527f6573730000000000000000000000000000000000000000000000000000000000602082015250565b60006133f6602383612006565b91506134018261339a565b604082019050919050565b60006020820190508181036000830152613425816133e9565b9050919050565b7f45524332303a207472616e7366657220616d6f756e742065786365656473206260008201527f616c616e63650000000000000000000000000000000000000000000000000000602082015250565b6000613488602683612006565b91506134938261342c565b604082019050919050565b600060208201905081810360008301526134b78161347b565b9050919050565b7f45524332303a206275726e2066726f6d20746865207a65726f2061646472657360008201527f7300000000000000000000000000000000000000000000000000000000000000602082015250565b600061351a602183612006565b9150613525826134be565b604082019050919050565b600060208201905081810360008301526135498161350d565b9050919050565b7f45524332303a206275726e20616d6f756e7420657863656564732062616c616e60008201527f6365000000000000000000000000000000000000000000000000000000000000602082015250565b60006135ac602283612006565b91506135b782613550565b604082019050919050565b600060208201905081810360008301526135db8161359f565b9050919050565b60006135ed82612128565b91506135f883612128565b92508282101561360b5761360a6128fd565b5b828203905092915050565b7f45524332303a206d696e7420746f20746865207a65726f206164647265737300600082015250565b600061364c601f83612006565b915061365782613616565b602082019050919050565b6000602082019050818103600083015261367b8161363f565b9050919050565b600060a08201905061369760008301886122bf565b6136a460208301876122bf565b6136b160408301866122bf565b6136be60608301856121d4565b6136cb60808301846125ec565b9695505050505050565b600081905092915050565b7f1901000000000000000000000000000000000000000000000000000000000000600082015250565b60006137166002836136d5565b9150613721826136e0565b600282019050919050565b6000819050919050565b613747613742826122b5565b61372c565b82525050565b600061375882613709565b91506137648285613736565b6020820191506137748284613736565b6020820191508190509392505050565b600060808201905061379960008301876122bf565b6137a6602083018661228b565b6137b360408301856122bf565b6137c060608301846122bf565b95945050505050565b7f4e487b7100000000000000000000000000000000000000000000000000000000600052602160045260246000fd5b7f45434453413a20696e76616c6964207369676e61747572650000000000000000600082015250565b600061382e601883612006565b9150613839826137f8565b602082019050919050565b6000602082019050818103600083015261385d81613821565b9050919050565b7f45434453413a20696e76616c6964207369676e6174757265206c656e67746800600082015250565b600061389a601f83612006565b91506138a582613864565b602082019050919050565b600060208201905081810360008301526138c98161388d565b9050919050565b7f45434453413a20696e76616c6964207369676e6174757265202773272076616c60008201527f7565000000000000000000000000000000000000000000000000000000000000602082015250565b600061392c602283612006565b9150613937826138d0565b604082019050919050565b6000602082019050818103600083015261395b8161391f565b9050919050565b7f45434453413a20696e76616c6964207369676e6174757265202776272076616c60008201527f7565000000000000000000000000000000000000000000000000000000000000602082015250565b60006139be602283612006565b91506139c982613962565b604082019050919050565b600060208201905081810360008301526139ed816139b1565b905091905056fea26469706673582212209e1ea070a120b78f6d58663c58dd03e200a7f168bec04ec54cc4b983c1e0682064736f6c63430008090033a26469706673582212201a416092a717abb97b8e5f1cbc8f9cd6c86583f6b4baa0e84b5a6178e443f16864736f6c63430008090033",
  "immutableReferences": {},
  "source": "// SPDX-License-Identifier: MIT\r\npragma solidity ^0.8.9;\r\n\r\nimport \"../../node_modules/@openzeppelin/contracts/utils/cryptography/draft-EIP712.sol\";\r\nimport \"../../node_modules/@openzeppelin/contracts/utils/Timers.sol\";\r\nimport \"../../node_modules/@openzeppelin/contracts/utils/math/SafeCast.sol\";\r\nimport \"../MosaicoERC20v1.sol\";\r\nimport \"../MultiOwnable.sol\";\r\nimport \"./TokenManagerv1.sol\";\r\nimport \"../../node_modules/@openzeppelin/contracts/security/Pausable.sol\";\r\nimport \"../../node_modules/@openzeppelin/contracts/security/ReentrancyGuard.sol\";\r\n\r\ncontract Daov1 is EIP712, MultiOwnable, Pausable, ReentrancyGuard, TokenManagerv1 {\r\n    using SafeCast for uint256;\r\n    using Timers for Timers.BlockNumber;\r\n\r\n    struct Vote {\r\n        uint256 againstVotes;\r\n        uint256 forVotes;\r\n        uint256 abstainVotes;\r\n        mapping(address => bool) hasVoted;\r\n    }\r\n\r\n    enum VoteResult {\r\n        Against,\r\n        For,\r\n        Abstain\r\n    }\r\n\r\n    enum ProposalState {\r\n        Pending,\r\n        Active,\r\n        Canceled,\r\n        Defeated,\r\n        Succeeded,\r\n        Queued,\r\n        Expired,\r\n        Executed\r\n    }\r\n\r\n    struct Proposal {\r\n        Timers.BlockNumber voteStart;\r\n        Timers.BlockNumber voteEnd;\r\n        address tokenAddress;\r\n        bool executed;\r\n        bool canceled;\r\n    }\r\n\r\n    struct DaoSettings {\r\n        /* name of the dao */\r\n        string name;\r\n        /* is anyone able to create proposals and vote */\r\n        bool isVotingEnabled;\r\n        /* if only owners can create proposals */\r\n        bool onlyOwnerProposals;\r\n        /* 1 block - no delay (13.2 sec) */\r\n        uint256 initialVotingDelay;\r\n        /* 45818 blocks - 1 week; 6545 blocks- 1 day. */\r\n        uint256 initialVotingPeriod;\r\n        /* How many % of hodlers should vote to accomplish consensus */\r\n        uint256 quorum;\r\n        /* First owner of the DAO */\r\n        address owner;\r\n    }\r\n\r\n    /* \r\n        PROPERTIES\r\n    */\r\n    mapping(uint256 => Proposal) private _proposals;\r\n    mapping(uint256 => Vote) private _proposalVotes;\r\n    DaoSettings internal _settings;\r\n    bytes32 public constant BALLOT_TYPEHASH = keccak256(\"Ballot(uint256 proposalId,uint8 support)\");\r\n\r\n    /* \r\n        EVENTS\r\n    */\r\n\r\n    event ProposalCreated(\r\n        uint256 proposalId,\r\n        address proposer,\r\n        uint256 startBlock,\r\n        uint256 endBlock,\r\n        string description,\r\n        address tokenAddress\r\n    );\r\n    event ProposalCanceled(uint256 proposalId);\r\n    event ProposalExecuted(uint256 proposalId);\r\n    event VoteCast(address indexed voter, uint256 proposalId, uint8 support, uint256 weight, string reason);\r\n    \r\n    /* MODIFIERS  */\r\n    modifier onlyWhenVotingEnabled() {\r\n        require(_settings.isVotingEnabled == true, \"DAO: Voting is disabled\");\r\n        _;\r\n    }\r\n\r\n    modifier onlyWhenCanVote() {\r\n        require(_canVote(_msgSender()) == true, \"DAO: Forbidden to vote\");\r\n        _;\r\n    }\r\n\r\n    modifier onlyWallet() {\r\n        require(msg.sender == address(this));\r\n        _;\r\n    }\r\n\r\n    /* BODY */\r\n\r\n    constructor(DaoSettings memory settings) EIP712(settings.name, version()) MultiOwnable(settings.owner) {\r\n        _settings = settings;\r\n    }\r\n\r\n    function name() public view virtual returns (string memory) {\r\n        return _settings.name;\r\n    }\r\n\r\n    function hasVoted(uint256 proposalId, address account) public view virtual returns (bool) {\r\n        return _proposalVotes[proposalId].hasVoted[account];\r\n    }\r\n\r\n    function votingDelay() public view returns (uint256) {\r\n        return _settings.initialVotingDelay;\r\n    }\r\n\r\n    function isVotingEnabled() public view returns (bool) {\r\n        return _settings.isVotingEnabled;\r\n    }\r\n\r\n    function onlyOwnerProposals() public view returns (bool) {\r\n        return _settings.onlyOwnerProposals;\r\n    }\r\n\r\n    function votingPeriod() public view returns (uint256) {\r\n        return _settings.initialVotingPeriod;\r\n    }\r\n\r\n    function quorum() public view returns (uint256) {\r\n        return _settings.quorum;\r\n    }\r\n\r\n    function tokenQuorum(address tokenAddress)\r\n        public\r\n        view\r\n        returns (uint256)\r\n    {\r\n        require(isManagedToken(tokenAddress), \"DAO: Token is not part of DAO\");\r\n        MosaicoERC20v1 token = MosaicoERC20v1(tokenAddress);\r\n        return (quorum() * token.totalSupply()) / 100;\r\n    }\r\n\r\n    function state(uint256 proposalId)\r\n        public\r\n        view\r\n        virtual\r\n        returns (ProposalState)\r\n    {\r\n        Proposal memory proposal = _proposals[proposalId];\r\n\r\n        if (proposal.executed) {\r\n            return ProposalState.Executed;\r\n        } else if (proposal.canceled) {\r\n            return ProposalState.Canceled;\r\n        } else if (proposal.voteStart.isPending()) {\r\n            return ProposalState.Pending;\r\n        } else if (proposal.voteEnd.isPending()) {\r\n            return ProposalState.Active;\r\n        } else if (proposal.voteEnd.isExpired()) {\r\n            return\r\n                _quorumReached(proposalId, proposal.tokenAddress) && _voteSucceeded(proposalId)\r\n                    ? ProposalState.Succeeded\r\n                    : ProposalState.Defeated;\r\n        } else {\r\n            revert(\"Governor: unknown proposal id\");\r\n        }\r\n    }\r\n\r\n    function proposalSnapshot(uint256 proposalId) public view virtual returns (uint256) {\r\n        return _proposals[proposalId].voteStart.getDeadline();\r\n    }\r\n\r\n    function proposalDeadline(uint256 proposalId) public view virtual returns (uint256) {\r\n        return _proposals[proposalId].voteEnd.getDeadline();\r\n    }\r\n\r\n    function version() public view virtual returns (string memory) {\r\n        return \"1\";\r\n    }\r\n\r\n    function hashProposal(\r\n        string memory description,\r\n        address target\r\n    ) public view virtual returns (uint256) {\r\n        return\r\n            uint256(\r\n                keccak256(\r\n                    abi.encode(keccak256(bytes(description)), target)\r\n                )\r\n            );\r\n    }\r\n\r\n    function propose(string memory description, address tokenAddress) onlyWhenCanVote onlyWhenVotingEnabled whenNotPaused public virtual returns (uint256) {\r\n        uint256 proposalId = hashProposal(\r\n            description,\r\n            tokenAddress\r\n        );\r\n\r\n        require(isManagedToken(tokenAddress) == true && isVotingToken(tokenAddress) == true, \"DAO: Token is not part of DAO\");\r\n\r\n        Proposal storage proposal = _proposals[proposalId];\r\n        require(\r\n            proposal.voteStart.isUnset(),\r\n            \"DAO: proposal already exists\"\r\n        );\r\n\r\n        uint64 snapshot = block.number.toUint64() + votingDelay().toUint64();\r\n        uint64 deadline = snapshot + votingPeriod().toUint64();\r\n\r\n        proposal.voteStart.setDeadline(snapshot);\r\n        proposal.voteEnd.setDeadline(deadline);\r\n        proposal.tokenAddress = tokenAddress;\r\n\r\n        emit ProposalCreated(\r\n            proposalId,\r\n            _msgSender(),\r\n            snapshot,\r\n            deadline,\r\n            description,\r\n            tokenAddress\r\n        );\r\n\r\n        return proposalId;\r\n    }\r\n\r\n    function castVote(uint256 proposalId, uint8 support)\r\n        public\r\n        virtual\r\n        returns (uint256)\r\n    {\r\n        address voter = _msgSender();\r\n        return _castVote(proposalId, voter, support, \"\");\r\n    }\r\n\r\n    function canVote() internal virtual view returns (bool) {\r\n        return _canVote(_msgSender());\r\n    }\r\n\r\n    function _canVote(address account) internal virtual view returns (bool) {\r\n        return _settings.onlyOwnerProposals == false || isOwner(account) == true;\r\n    }\r\n\r\n    function _castVote(uint256 proposalId, address account, uint8 support, string memory reason) onlyWhenCanVote whenNotPaused internal virtual returns (uint256) {\r\n        Proposal storage proposal = _proposals[proposalId];\r\n        require(\r\n            state(proposalId) == ProposalState.Active,\r\n            \"Governor: vote not currently active\"\r\n        );\r\n        uint256 weight = getWeight(account, proposal.tokenAddress);\r\n        require(weight > 0, \"Not sufficient weight\");\r\n        _countVote(proposalId, account, support, weight);\r\n        emit VoteCast(account, proposalId, support, weight, reason);\r\n        return weight;\r\n    }\r\n\r\n    function proposalVotes(uint256 proposalId)\r\n        public\r\n        view\r\n        virtual\r\n        returns (\r\n            uint256 againstVotes,\r\n            uint256 forVotes,\r\n            uint256 abstainVotes\r\n        )\r\n    {\r\n        Vote storage proposalvote = _proposalVotes[proposalId];\r\n        return (proposalvote.againstVotes, proposalvote.forVotes, proposalvote.abstainVotes);\r\n    }\r\n\r\n    function _quorumReached(uint256 proposalId, address tokenAddress) internal view virtual returns (bool) {\r\n        Vote storage proposalvote = _proposalVotes[proposalId];\r\n        return tokenQuorum(tokenAddress) <= proposalvote.forVotes + proposalvote.abstainVotes;\r\n    }\r\n\r\n    function _voteSucceeded(uint256 proposalId) internal view virtual returns (bool) {\r\n        Vote storage proposalvote = _proposalVotes[proposalId];\r\n\r\n        return proposalvote.forVotes > proposalvote.againstVotes;\r\n    }\r\n\r\n    function _countVote(\r\n        uint256 proposalId,\r\n        address account,\r\n        uint8 support,\r\n        uint256 weight\r\n    ) internal virtual {\r\n        Vote storage proposalvote = _proposalVotes[proposalId];\r\n\r\n        require(!proposalvote.hasVoted[account], \"GovernorVotingSimple: vote already cast\");\r\n        proposalvote.hasVoted[account] = true;\r\n\r\n        if (support == uint8(VoteResult.Against)) {\r\n            proposalvote.againstVotes += weight;\r\n        } else if (support == uint8(VoteResult.For)) {\r\n            proposalvote.forVotes += weight;\r\n        } else if (support == uint8(VoteResult.Abstain)) {\r\n            proposalvote.abstainVotes += weight;\r\n        } else {\r\n            revert(\"GovernorVotingSimple: invalid value for enum VoteType\");\r\n        }\r\n    }\r\n\r\n    function addToken(address token, bool isVoting) public onlyOwner {\r\n        super._addToken(token, isVoting);\r\n    }\r\n\r\n    function mint(address tokenAddress, uint256 amount) public onlyOwner {\r\n        super._mint(tokenAddress, amount, _msgSender());\r\n    }\r\n\r\n    function burn(address tokenAddress, uint256 amount) public onlyOwner {\r\n        super._burn(tokenAddress, amount);\r\n    }\r\n\r\n    function pauseToken(address tokenAddress) public onlyOwner {\r\n        super._pause(tokenAddress);\r\n    }\r\n\r\n    function unpauseToken(address tokenAddress) public onlyOwner {\r\n        super._unpause(tokenAddress);\r\n    }\r\n\r\n    function addOwner(address newOwner) public onlyOwner {\r\n        super._setOwner(newOwner);\r\n    }\r\n\r\n    function removeOwner(address owner) public onlyOwner {\r\n        super._removeOwner(owner);\r\n    }\r\n\r\n    function pause() public onlyOwner {\r\n        super._pause();\r\n    }\r\n\r\n    function unpause() public onlyOwner {\r\n        super._unpause();\r\n    }\r\n\r\n    function create(MosaicoStructs.ERC20Settings memory contractSettings) public onlyOwner whenNotPaused returns(address){\r\n        return super._create(contractSettings);\r\n    }\r\n}\r\n",
  "sourcePath": "D:\\repositories\\mosaico-reference\\smart_contracts\\contracts\\DAO\\Daov1.sol",
  "compiler": {
    "name": "solc",
    "version": "0.8.9+commit.e5eed63a.Emscripten.clang"
  },
  "schemaVersion": "3.4.3",
  "updatedAt": "2022-04-01T04:17:56.533Z",
  "devdoc": {
    "kind": "dev",
    "methods": {
      "isOwner(address)": {
        "details": "Returns the address of the current owner."
      },
      "paused()": {
        "details": "Returns true if the contract is paused, and false otherwise."
      }
    },
    "version": 1
  },
  "userdoc": {
    "kind": "user",
    "methods": {},
    "version": 1
  }
}