{
  "contractName": "DefaultCrowdsalev1",
  "abi": [
    {
      "inputs": [
        {
          "internalType": "address payable",
          "name": "wallet",
          "type": "address"
        },
        {
          "internalType": "contract IERC20",
          "name": "token",
          "type": "address"
        },
        {
          "internalType": "uint256",
          "name": "numberOfStages_",
          "type": "uint256"
        },
        {
          "internalType": "uint256",
          "name": "softCapDenominator",
          "type": "uint256"
        },
        {
          "internalType": "address[]",
          "name": "supportedStablecoins",
          "type": "address[]"
        }
      ],
      "stateMutability": "nonpayable",
      "type": "constructor"
    },
    {
      "anonymous": false,
      "inputs": [],
      "name": "CrowdsaleFinalized",
      "type": "event"
    },
    {
      "anonymous": false,
      "inputs": [
        {
          "indexed": true,
          "internalType": "address",
          "name": "wallet",
          "type": "address"
        },
        {
          "indexed": true,
          "internalType": "address",
          "name": "stablecoin",
          "type": "address"
        },
        {
          "indexed": false,
          "internalType": "uint256",
          "name": "amount",
          "type": "uint256"
        }
      ],
      "name": "FundsWithdrawal",
      "type": "event"
    },
    {
      "anonymous": false,
      "inputs": [
        {
          "indexed": true,
          "internalType": "address",
          "name": "investor",
          "type": "address"
        },
        {
          "indexed": false,
          "internalType": "uint256",
          "name": "amount",
          "type": "uint256"
        }
      ],
      "name": "NativeCurrencyInvestmentsReturn",
      "type": "event"
    },
    {
      "anonymous": false,
      "inputs": [
        {
          "indexed": true,
          "internalType": "address",
          "name": "wallet",
          "type": "address"
        },
        {
          "indexed": false,
          "internalType": "uint256",
          "name": "amount",
          "type": "uint256"
        }
      ],
      "name": "NativeCurrencyWithdrawal",
      "type": "event"
    },
    {
      "anonymous": false,
      "inputs": [
        {
          "components": [
            {
              "internalType": "string",
              "name": "name",
              "type": "string"
            },
            {
              "internalType": "bool",
              "name": "isPrivate",
              "type": "bool"
            },
            {
              "internalType": "uint256",
              "name": "cap",
              "type": "uint256"
            },
            {
              "internalType": "uint256",
              "name": "minIndividualCap",
              "type": "uint256"
            },
            {
              "internalType": "uint256",
              "name": "maxIndividualCap",
              "type": "uint256"
            },
            {
              "internalType": "address[]",
              "name": "whitelist",
              "type": "address[]"
            },
            {
              "internalType": "uint256",
              "name": "rate",
              "type": "uint256"
            }
          ],
          "indexed": false,
          "internalType": "struct CrowdsaleBase.StageSettings",
          "name": "stage",
          "type": "tuple"
        }
      ],
      "name": "NextStage",
      "type": "event"
    },
    {
      "anonymous": false,
      "inputs": [
        {
          "indexed": true,
          "internalType": "address",
          "name": "previousOwner",
          "type": "address"
        },
        {
          "indexed": true,
          "internalType": "address",
          "name": "newOwner",
          "type": "address"
        }
      ],
      "name": "OwnershipTransferred",
      "type": "event"
    },
    {
      "anonymous": false,
      "inputs": [
        {
          "indexed": false,
          "internalType": "address",
          "name": "account",
          "type": "address"
        }
      ],
      "name": "Paused",
      "type": "event"
    },
    {
      "anonymous": false,
      "inputs": [
        {
          "indexed": true,
          "internalType": "address",
          "name": "currency",
          "type": "address"
        },
        {
          "indexed": true,
          "internalType": "address",
          "name": "investor",
          "type": "address"
        },
        {
          "indexed": false,
          "internalType": "uint256",
          "name": "amount",
          "type": "uint256"
        }
      ],
      "name": "StableCoinInvestmentsReturn",
      "type": "event"
    },
    {
      "anonymous": false,
      "inputs": [
        {
          "indexed": true,
          "internalType": "address",
          "name": "account",
          "type": "address"
        }
      ],
      "name": "StageAdminRoleAdded",
      "type": "event"
    },
    {
      "anonymous": false,
      "inputs": [
        {
          "indexed": true,
          "internalType": "address",
          "name": "account",
          "type": "address"
        }
      ],
      "name": "StageAdminRoleRemoved",
      "type": "event"
    },
    {
      "anonymous": false,
      "inputs": [
        {
          "indexed": true,
          "internalType": "address",
          "name": "purchaser",
          "type": "address"
        },
        {
          "indexed": true,
          "internalType": "address",
          "name": "beneficiary",
          "type": "address"
        },
        {
          "indexed": false,
          "internalType": "uint256",
          "name": "value",
          "type": "uint256"
        },
        {
          "indexed": false,
          "internalType": "uint256",
          "name": "amount",
          "type": "uint256"
        }
      ],
      "name": "TokensPurchased",
      "type": "event"
    },
    {
      "anonymous": false,
      "inputs": [
        {
          "indexed": false,
          "internalType": "address",
          "name": "account",
          "type": "address"
        }
      ],
      "name": "Unpaused",
      "type": "event"
    },
    {
      "anonymous": false,
      "inputs": [
        {
          "indexed": true,
          "internalType": "address",
          "name": "account",
          "type": "address"
        }
      ],
      "name": "WhitelistAdminAdded",
      "type": "event"
    },
    {
      "anonymous": false,
      "inputs": [
        {
          "indexed": true,
          "internalType": "address",
          "name": "account",
          "type": "address"
        }
      ],
      "name": "WhitelistAdminRemoved",
      "type": "event"
    },
    {
      "anonymous": false,
      "inputs": [
        {
          "indexed": true,
          "internalType": "address",
          "name": "account",
          "type": "address"
        }
      ],
      "name": "WhitelistedAdded",
      "type": "event"
    },
    {
      "anonymous": false,
      "inputs": [
        {
          "indexed": true,
          "internalType": "address",
          "name": "account",
          "type": "address"
        }
      ],
      "name": "WhitelistedRemoved",
      "type": "event"
    },
    {
      "stateMutability": "payable",
      "type": "fallback"
    },
    {
      "inputs": [
        {
          "internalType": "address",
          "name": "",
          "type": "address"
        }
      ],
      "name": "_nativeCurrencyInvestments",
      "outputs": [
        {
          "internalType": "uint256",
          "name": "",
          "type": "uint256"
        }
      ],
      "stateMutability": "view",
      "type": "function"
    },
    {
      "inputs": [],
      "name": "_rate",
      "outputs": [
        {
          "internalType": "uint256",
          "name": "",
          "type": "uint256"
        }
      ],
      "stateMutability": "view",
      "type": "function"
    },
    {
      "inputs": [],
      "name": "_saleEnded",
      "outputs": [
        {
          "internalType": "bool",
          "name": "",
          "type": "bool"
        }
      ],
      "stateMutability": "view",
      "type": "function"
    },
    {
      "inputs": [],
      "name": "_token",
      "outputs": [
        {
          "internalType": "contract IERC20",
          "name": "",
          "type": "address"
        }
      ],
      "stateMutability": "view",
      "type": "function"
    },
    {
      "inputs": [],
      "name": "_tokensSold",
      "outputs": [
        {
          "internalType": "uint256",
          "name": "",
          "type": "uint256"
        }
      ],
      "stateMutability": "view",
      "type": "function"
    },
    {
      "inputs": [],
      "name": "_wallet",
      "outputs": [
        {
          "internalType": "address payable",
          "name": "",
          "type": "address"
        }
      ],
      "stateMutability": "view",
      "type": "function"
    },
    {
      "inputs": [],
      "name": "_weiRaised",
      "outputs": [
        {
          "internalType": "uint256",
          "name": "",
          "type": "uint256"
        }
      ],
      "stateMutability": "view",
      "type": "function"
    },
    {
      "inputs": [
        {
          "internalType": "address",
          "name": "account",
          "type": "address"
        }
      ],
      "name": "addStageAdmin",
      "outputs": [],
      "stateMutability": "nonpayable",
      "type": "function"
    },
    {
      "inputs": [
        {
          "internalType": "address",
          "name": "account",
          "type": "address"
        }
      ],
      "name": "addWhitelistAdmin",
      "outputs": [],
      "stateMutability": "nonpayable",
      "type": "function"
    },
    {
      "inputs": [
        {
          "internalType": "address[]",
          "name": "accounts",
          "type": "address[]"
        }
      ],
      "name": "addWhitelisted",
      "outputs": [],
      "stateMutability": "nonpayable",
      "type": "function"
    },
    {
      "inputs": [
        {
          "internalType": "address",
          "name": "wallet",
          "type": "address"
        }
      ],
      "name": "balanceOf",
      "outputs": [
        {
          "internalType": "uint256",
          "name": "",
          "type": "uint256"
        }
      ],
      "stateMutability": "view",
      "type": "function"
    },
    {
      "inputs": [
        {
          "internalType": "address",
          "name": "beneficiary",
          "type": "address"
        }
      ],
      "name": "buyTokens",
      "outputs": [],
      "stateMutability": "payable",
      "type": "function"
    },
    {
      "inputs": [],
      "name": "cap",
      "outputs": [
        {
          "internalType": "uint256",
          "name": "",
          "type": "uint256"
        }
      ],
      "stateMutability": "view",
      "type": "function"
    },
    {
      "inputs": [
        {
          "internalType": "address",
          "name": "wallet",
          "type": "address"
        }
      ],
      "name": "claimTokens",
      "outputs": [],
      "stateMutability": "nonpayable",
      "type": "function"
    },
    {
      "inputs": [],
      "name": "closeSale",
      "outputs": [],
      "stateMutability": "nonpayable",
      "type": "function"
    },
    {
      "inputs": [],
      "name": "getRate",
      "outputs": [
        {
          "internalType": "uint256",
          "name": "",
          "type": "uint256"
        }
      ],
      "stateMutability": "view",
      "type": "function"
    },
    {
      "inputs": [],
      "name": "getToken",
      "outputs": [
        {
          "internalType": "contract IERC20",
          "name": "",
          "type": "address"
        }
      ],
      "stateMutability": "view",
      "type": "function"
    },
    {
      "inputs": [],
      "name": "getWallet",
      "outputs": [
        {
          "internalType": "address payable",
          "name": "",
          "type": "address"
        }
      ],
      "stateMutability": "view",
      "type": "function"
    },
    {
      "inputs": [],
      "name": "getWeiRaised",
      "outputs": [
        {
          "internalType": "uint256",
          "name": "",
          "type": "uint256"
        }
      ],
      "stateMutability": "view",
      "type": "function"
    },
    {
      "inputs": [],
      "name": "hardCap",
      "outputs": [
        {
          "internalType": "uint256",
          "name": "",
          "type": "uint256"
        }
      ],
      "stateMutability": "view",
      "type": "function"
    },
    {
      "inputs": [
        {
          "internalType": "address",
          "name": "account",
          "type": "address"
        }
      ],
      "name": "isStageAdmin",
      "outputs": [
        {
          "internalType": "bool",
          "name": "",
          "type": "bool"
        }
      ],
      "stateMutability": "view",
      "type": "function"
    },
    {
      "inputs": [
        {
          "internalType": "address",
          "name": "account",
          "type": "address"
        }
      ],
      "name": "isWhitelistAdmin",
      "outputs": [
        {
          "internalType": "bool",
          "name": "",
          "type": "bool"
        }
      ],
      "stateMutability": "view",
      "type": "function"
    },
    {
      "inputs": [
        {
          "internalType": "address",
          "name": "account",
          "type": "address"
        }
      ],
      "name": "isWhitelisted",
      "outputs": [
        {
          "internalType": "bool",
          "name": "",
          "type": "bool"
        }
      ],
      "stateMutability": "view",
      "type": "function"
    },
    {
      "inputs": [],
      "name": "maxIndividualCap",
      "outputs": [
        {
          "internalType": "uint256",
          "name": "",
          "type": "uint256"
        }
      ],
      "stateMutability": "view",
      "type": "function"
    },
    {
      "inputs": [],
      "name": "minIndividualCap",
      "outputs": [
        {
          "internalType": "uint256",
          "name": "",
          "type": "uint256"
        }
      ],
      "stateMutability": "view",
      "type": "function"
    },
    {
      "inputs": [],
      "name": "numberOfStages",
      "outputs": [
        {
          "internalType": "uint256",
          "name": "",
          "type": "uint256"
        }
      ],
      "stateMutability": "view",
      "type": "function"
    },
    {
      "inputs": [],
      "name": "owner",
      "outputs": [
        {
          "internalType": "address",
          "name": "",
          "type": "address"
        }
      ],
      "stateMutability": "view",
      "type": "function"
    },
    {
      "inputs": [],
      "name": "pause",
      "outputs": [],
      "stateMutability": "nonpayable",
      "type": "function"
    },
    {
      "inputs": [],
      "name": "paused",
      "outputs": [
        {
          "internalType": "bool",
          "name": "",
          "type": "bool"
        }
      ],
      "stateMutability": "view",
      "type": "function"
    },
    {
      "inputs": [],
      "name": "remainStageTokens",
      "outputs": [
        {
          "internalType": "uint256",
          "name": "",
          "type": "uint256"
        }
      ],
      "stateMutability": "view",
      "type": "function"
    },
    {
      "inputs": [
        {
          "internalType": "address",
          "name": "account",
          "type": "address"
        }
      ],
      "name": "removeStageAdmin",
      "outputs": [],
      "stateMutability": "nonpayable",
      "type": "function"
    },
    {
      "inputs": [
        {
          "internalType": "address",
          "name": "account",
          "type": "address"
        }
      ],
      "name": "removeWhitelistAdmin",
      "outputs": [],
      "stateMutability": "nonpayable",
      "type": "function"
    },
    {
      "inputs": [
        {
          "internalType": "address",
          "name": "account",
          "type": "address"
        }
      ],
      "name": "removeWhitelisted",
      "outputs": [],
      "stateMutability": "nonpayable",
      "type": "function"
    },
    {
      "inputs": [],
      "name": "renounceOwnership",
      "outputs": [],
      "stateMutability": "nonpayable",
      "type": "function"
    },
    {
      "inputs": [],
      "name": "renounceStageAdmin",
      "outputs": [],
      "stateMutability": "nonpayable",
      "type": "function"
    },
    {
      "inputs": [],
      "name": "renounceWhitelistAdmin",
      "outputs": [],
      "stateMutability": "nonpayable",
      "type": "function"
    },
    {
      "inputs": [],
      "name": "renounceWhitelisted",
      "outputs": [],
      "stateMutability": "nonpayable",
      "type": "function"
    },
    {
      "inputs": [],
      "name": "softCap",
      "outputs": [
        {
          "internalType": "uint256",
          "name": "",
          "type": "uint256"
        }
      ],
      "stateMutability": "view",
      "type": "function"
    },
    {
      "inputs": [],
      "name": "stableCoinRate",
      "outputs": [
        {
          "internalType": "uint256",
          "name": "",
          "type": "uint256"
        }
      ],
      "stateMutability": "view",
      "type": "function"
    },
    {
      "inputs": [],
      "name": "stage",
      "outputs": [
        {
          "internalType": "string",
          "name": "",
          "type": "string"
        }
      ],
      "stateMutability": "view",
      "type": "function"
    },
    {
      "inputs": [],
      "name": "tokensDistribution",
      "outputs": [],
      "stateMutability": "nonpayable",
      "type": "function"
    },
    {
      "inputs": [
        {
          "internalType": "address",
          "name": "newOwner",
          "type": "address"
        }
      ],
      "name": "transferOwnership",
      "outputs": [],
      "stateMutability": "nonpayable",
      "type": "function"
    },
    {
      "stateMutability": "payable",
      "type": "receive"
    },
    {
      "inputs": [
        {
          "components": [
            {
              "internalType": "string",
              "name": "name",
              "type": "string"
            },
            {
              "internalType": "bool",
              "name": "isPrivate",
              "type": "bool"
            },
            {
              "internalType": "uint256",
              "name": "cap",
              "type": "uint256"
            },
            {
              "internalType": "uint256",
              "name": "minIndividualCap",
              "type": "uint256"
            },
            {
              "internalType": "uint256",
              "name": "maxIndividualCap",
              "type": "uint256"
            },
            {
              "internalType": "address[]",
              "name": "whitelist",
              "type": "address[]"
            },
            {
              "internalType": "uint256",
              "name": "rate",
              "type": "uint256"
            }
          ],
          "internalType": "struct CrowdsaleBase.StageSettings",
          "name": "settings",
          "type": "tuple"
        },
        {
          "internalType": "uint256",
          "name": "stableCoinRate_",
          "type": "uint256"
        }
      ],
      "name": "startNextStage",
      "outputs": [],
      "stateMutability": "nonpayable",
      "type": "function"
    },
    {
      "inputs": [
        {
          "internalType": "address",
          "name": "paymentToken",
          "type": "address"
        },
        {
          "internalType": "uint256",
          "name": "amount",
          "type": "uint256"
        }
      ],
      "name": "exchangeTokens",
      "outputs": [],
      "stateMutability": "nonpayable",
      "type": "function"
    },
    {
      "inputs": [],
      "name": "refund",
      "outputs": [],
      "stateMutability": "nonpayable",
      "type": "function"
    },
    {
      "inputs": [],
      "name": "withdrawFunds",
      "outputs": [],
      "stateMutability": "nonpayable",
      "type": "function"
    }
  ],
  "bytecode": "0x60806040523480156200001157600080fd5b506040516200770f3803806200770f833981810160405281019062000037919062000ac7565b600185858486600160008190555062000065620000596200040660201b60201c565b6200040e60201b60201c565b62000085620000796200040660201b60201c565b620004d460201b60201c565b620000a5620000996200040660201b60201c565b6200053560201b60201c565b6000600560006101000a81548160ff0219169083151502179055506000851162000106576040517f08c379a0000000000000000000000000000000000000000000000000000000008152600401620000fd9062000bcf565b60405180910390fd5b60008211801562000118575060648211155b6200015a576040517f08c379a0000000000000000000000000000000000000000000000000000000008152600401620001519062000c67565b60405180910390fd5b600073ffffffffffffffffffffffffffffffffffffffff168473ffffffffffffffffffffffffffffffffffffffff161415620001cd576040517f08c379a0000000000000000000000000000000000000000000000000000000008152600401620001c49062000cff565b60405180910390fd5b600073ffffffffffffffffffffffffffffffffffffffff168373ffffffffffffffffffffffffffffffffffffffff16141562000240576040517f08c379a0000000000000000000000000000000000000000000000000000000008152600401620002379062000d97565b60405180910390fd5b81601c819055508460178190555083601660006101000a81548173ffffffffffffffffffffffffffffffffffffffff021916908373ffffffffffffffffffffffffffffffffffffffff16021790555082601560016101000a81548173ffffffffffffffffffffffffffffffffffffffff021916908373ffffffffffffffffffffffffffffffffffffffff16021790555060006006819055508060078190555050505050508267ffffffffffffffff81111562000301576200030062000937565b5b604051908082528060200260200182016040528015620003305781602001602082028036833780820191505090505b50602790805190602001906200034892919062000714565b5060005b8151811015620003e15760016024600084848151811062000372576200037162000db9565b5b602002602001015173ffffffffffffffffffffffffffffffffffffffff1673ffffffffffffffffffffffffffffffffffffffff16815260200190815260200160002060006101000a81548160ff0219169083151502179055508080620003d89062000e17565b9150506200034c565b508060239080519060200190620003fa92919062000766565b50505050505062000f6f565b600033905090565b6000600160009054906101000a900473ffffffffffffffffffffffffffffffffffffffff16905081600160006101000a81548173ffffffffffffffffffffffffffffffffffffffff021916908373ffffffffffffffffffffffffffffffffffffffff1602179055508173ffffffffffffffffffffffffffffffffffffffff168173ffffffffffffffffffffffffffffffffffffffff167f8be0079c531659141344cd1fd0a4f28419497f9722a3daafe3b4186f6b6457e060405160405180910390a35050565b620004ef8160026200059660201b62002aea1790919060201c565b8073ffffffffffffffffffffffffffffffffffffffff167f22380c05984257a1cb900161c713dd71d39e74820f1aea43bd3f1bdd2096129960405160405180910390a250565b620005508160046200059660201b62002aea1790919060201c565b8073ffffffffffffffffffffffffffffffffffffffff167fa725686d021bc23476b2f5d62f9f0b735a01f83c715ee6193e4177617d2715ba60405160405180910390a250565b620005a882826200064960201b60201c565b15620005eb576040517f08c379a0000000000000000000000000000000000000000000000000000000008152600401620005e29062000eb5565b60405180910390fd5b60018260000160008373ffffffffffffffffffffffffffffffffffffffff1673ffffffffffffffffffffffffffffffffffffffff16815260200190815260200160002060006101000a81548160ff0219169083151502179055505050565b60008073ffffffffffffffffffffffffffffffffffffffff168273ffffffffffffffffffffffffffffffffffffffff161415620006bd576040517f08c379a0000000000000000000000000000000000000000000000000000000008152600401620006b49062000f4d565b60405180910390fd5b8260000160008373ffffffffffffffffffffffffffffffffffffffff1673ffffffffffffffffffffffffffffffffffffffff16815260200190815260200160002060009054906101000a900460ff16905092915050565b82805482825590600052602060002090810192821562000753579160200282015b828111156200075257825182559160200191906001019062000735565b5b509050620007629190620007f5565b5090565b828054828255906000526020600020908101928215620007e2579160200282015b82811115620007e15782518260006101000a81548173ffffffffffffffffffffffffffffffffffffffff021916908373ffffffffffffffffffffffffffffffffffffffff1602179055509160200191906001019062000787565b5b509050620007f19190620007f5565b5090565b5b8082111562000810576000816000905550600101620007f6565b5090565b6000604051905090565b600080fd5b600080fd5b600073ffffffffffffffffffffffffffffffffffffffff82169050919050565b6000620008558262000828565b9050919050565b620008678162000848565b81146200087357600080fd5b50565b60008151905062000887816200085c565b92915050565b60006200089a8262000828565b9050919050565b6000620008ae826200088d565b9050919050565b620008c081620008a1565b8114620008cc57600080fd5b50565b600081519050620008e081620008b5565b92915050565b6000819050919050565b620008fb81620008e6565b81146200090757600080fd5b50565b6000815190506200091b81620008f0565b92915050565b600080fd5b6000601f19601f8301169050919050565b7f4e487b7100000000000000000000000000000000000000000000000000000000600052604160045260246000fd5b620009718262000926565b810181811067ffffffffffffffff8211171562000993576200099262000937565b5b80604052505050565b6000620009a862000814565b9050620009b6828262000966565b919050565b600067ffffffffffffffff821115620009d957620009d862000937565b5b602082029050602081019050919050565b600080fd5b620009fa816200088d565b811462000a0657600080fd5b50565b60008151905062000a1a81620009ef565b92915050565b600062000a3762000a3184620009bb565b6200099c565b9050808382526020820190506020840283018581111562000a5d5762000a5c620009ea565b5b835b8181101562000a8a578062000a75888262000a09565b84526020840193505060208101905062000a5f565b5050509392505050565b600082601f83011262000aac5762000aab62000921565b5b815162000abe84826020860162000a20565b91505092915050565b600080600080600060a0868803121562000ae65762000ae56200081e565b5b600062000af68882890162000876565b955050602062000b0988828901620008cf565b945050604062000b1c888289016200090a565b935050606062000b2f888289016200090a565b925050608086015167ffffffffffffffff81111562000b535762000b5262000823565b5b62000b618882890162000a94565b9150509295509295909350565b600082825260208201905092915050565b7f43726f776473616c653a20726174652069732030000000000000000000000000600082015250565b600062000bb760148362000b6e565b915062000bc48262000b7f565b602082019050919050565b6000602082019050818103600083015262000bea8162000ba8565b9050919050565b7f43726f776473616c653a20736f6674206361702064656e6f6d696e61746f722060008201527f6973203000000000000000000000000000000000000000000000000000000000602082015250565b600062000c4f60248362000b6e565b915062000c5c8262000bf1565b604082019050919050565b6000602082019050818103600083015262000c828162000c40565b9050919050565b7f43726f776473616c653a2077616c6c657420697320746865207a65726f20616460008201527f6472657373000000000000000000000000000000000000000000000000000000602082015250565b600062000ce760258362000b6e565b915062000cf48262000c89565b604082019050919050565b6000602082019050818103600083015262000d1a8162000cd8565b9050919050565b7f43726f776473616c653a20746f6b656e20697320746865207a65726f2061646460008201527f7265737300000000000000000000000000000000000000000000000000000000602082015250565b600062000d7f60248362000b6e565b915062000d8c8262000d21565b604082019050919050565b6000602082019050818103600083015262000db28162000d70565b9050919050565b7f4e487b7100000000000000000000000000000000000000000000000000000000600052603260045260246000fd5b7f4e487b7100000000000000000000000000000000000000000000000000000000600052601160045260246000fd5b600062000e2482620008e6565b91507fffffffffffffffffffffffffffffffffffffffffffffffffffffffffffffffff82141562000e5a5762000e5962000de8565b5b600182019050919050565b7f526f6c65733a206163636f756e7420616c72656164792068617320726f6c6500600082015250565b600062000e9d601f8362000b6e565b915062000eaa8262000e65565b602082019050919050565b6000602082019050818103600083015262000ed08162000e8e565b9050919050565b7f526f6c65733a206163636f756e7420697320746865207a65726f20616464726560008201527f7373000000000000000000000000000000000000000000000000000000000000602082015250565b600062000f3560228362000b6e565b915062000f428262000ed7565b604082019050919050565b6000602082019050818103600083015262000f688162000f26565b9050919050565b6167908062000f7f6000396000f3fe6080604052600436106102815760003560e01c80638456cb591161014f578063d6cd9473116100c1578063ecd0c0c31161007a578063ecd0c0c314610911578063ee291ff21461093c578063ee55efee14610965578063f2fde38b1461097c578063fb86a404146109a5578063ff62a9e7146109d057610298565b8063d6cd947314610836578063d9b4476b1461084d578063df8de3e714610876578063e06ec1461461089f578063e6b9b01e146108ca578063ec8ac4d8146108f557610298565b8063bb5f747b11610113578063bb5f747b14610700578063bff2bc7e1461073d578063c040e6b81461077a578063d00d65f7146107a5578063d13a73c4146107ce578063d197eb1b146107f957610298565b80638456cb591461063d5780638da5cb5b14610654578063906a26e01461067f57806394a5aa8d146106aa578063a824d056146106d557610298565b806356066c3c116101f3578063679aefce116101ac578063679aefce146105415780636897e9741461056c57806370a0823114610595578063715018a6146105d25780637362d9c8146105e957806383bebced1461061257610298565b806356066c3c1461045357806358958be71461047e578063590e1ae3146104a95780635c975abb146104c05780635fde4ea6146104eb578063610757e41461051657610298565b806333b2dfec1161024557806333b2dfec14610369578063355274ea146103805780633af32abf146103ab57806340582f13146103e85780634256fa9f146104135780634c5a628c1461043c57610298565b806313299604146102aa57806321df0da7146102d5578063227275ef1461030057806324600fc314610329578063291d95491461034057610298565b36610298576102966102916109e7565b6109ef565b005b6102a86102a36109e7565b6109ef565b005b3480156102b657600080fd5b506102bf610d4e565b6040516102cc9190614767565b60405180910390f35b3480156102e157600080fd5b506102ea610d78565b6040516102f791906147e1565b60405180910390f35b34801561030c57600080fd5b50610327600480360381019061032291906149a7565b610da2565b005b34801561033557600080fd5b5061033e610dfd565b005b34801561034c57600080fd5b50610367600480360381019061036291906149f0565b611078565b005b34801561037557600080fd5b5061037e6110d3565b005b34801561038c57600080fd5b50610395611455565b6040516103a29190614a36565b60405180910390f35b3480156103b757600080fd5b506103d260048036038101906103cd91906149f0565b611462565b6040516103df9190614a6c565b60405180910390f35b3480156103f457600080fd5b506103fd61147f565b60405161040a9190614a36565b60405180910390f35b34801561041f57600080fd5b5061043a60048036038101906104359190614ab3565b611489565b005b34801561044857600080fd5b50610451611cbd565b005b34801561045f57600080fd5b50610468611ccf565b6040516104759190614a6c565b60405180910390f35b34801561048a57600080fd5b50610493611ce2565b6040516104a09190614a36565b60405180910390f35b3480156104b557600080fd5b506104be611cef565b005b3480156104cc57600080fd5b506104d5611fec565b6040516104e29190614a6c565b60405180910390f35b3480156104f757600080fd5b50610500612003565b60405161050d9190614a36565b60405180910390f35b34801561052257600080fd5b5061052b612010565b6040516105389190614767565b60405180910390f35b34801561054d57600080fd5b50610556612036565b6040516105639190614a36565b60405180910390f35b34801561057857600080fd5b50610593600480360381019061058e91906149f0565b612040565b005b3480156105a157600080fd5b506105bc60048036038101906105b791906149f0565b6120c8565b6040516105c99190614a36565b60405180910390f35b3480156105de57600080fd5b506105e7612111565b005b3480156105f557600080fd5b50610610600480360381019061060b91906149f0565b612199565b005b34801561061e57600080fd5b50610627612221565b6040516106349190614a36565b60405180910390f35b34801561064957600080fd5b50610652612227565b005b34801561066057600080fd5b506106696122c8565b6040516106769190614b02565b60405180910390f35b34801561068b57600080fd5b506106946122f2565b6040516106a19190614a36565b60405180910390f35b3480156106b657600080fd5b506106bf6122f8565b6040516106cc9190614a36565b60405180910390f35b3480156106e157600080fd5b506106ea6122fe565b6040516106f79190614a36565b60405180910390f35b34801561070c57600080fd5b50610727600480360381019061072291906149f0565b612304565b6040516107349190614a6c565b60405180910390f35b34801561074957600080fd5b50610764600480360381019061075f91906149f0565b612321565b6040516107719190614a36565b60405180910390f35b34801561078657600080fd5b5061078f612339565b60405161079c9190614ba5565b60405180910390f35b3480156107b157600080fd5b506107cc60048036038101906107c79190614d9e565b6123ce565b005b3480156107da57600080fd5b506107e361245c565b6040516107f09190614a36565b60405180910390f35b34801561080557600080fd5b50610820600480360381019061081b91906149f0565b612462565b60405161082d9190614a6c565b60405180910390f35b34801561084257600080fd5b5061084b61247f565b005b34801561085957600080fd5b50610874600480360381019061086f91906149f0565b612491565b005b34801561088257600080fd5b5061089d600480360381019061089891906149f0565b6124ec565b005b3480156108ab57600080fd5b506108b461285f565b6040516108c19190614a36565b60405180910390f35b3480156108d657600080fd5b506108df612865565b6040516108ec9190614a36565b60405180910390f35b61090f600480360381019061090a91906149f0565b6109ef565b005b34801561091d57600080fd5b5061092661286b565b60405161093391906147e1565b60405180910390f35b34801561094857600080fd5b50610963600480360381019061095e91906149f0565b612891565b005b34801561097157600080fd5b5061097a6128ec565b005b34801561098857600080fd5b506109a3600480360381019061099e91906149f0565b6129da565b005b3480156109b157600080fd5b506109ba612ad2565b6040516109c79190614a36565b60405180910390f35b3480156109dc57600080fd5b506109e5612ad8565b005b600033905090565b60026000541415610a35576040517f08c379a0000000000000000000000000000000000000000000000000000000008152600401610a2c90614e46565b60405180910390fd5b600260008190555060001515602060009054906101000a900460ff16151514610a93576040517f08c379a0000000000000000000000000000000000000000000000000000000008152600401610a8a90614eb2565b60405180910390fd5b600060175411610ad8576040517f08c379a0000000000000000000000000000000000000000000000000000000008152600401610acf90614f1e565b60405180910390fd5b60003490506000610ae882612b92565b9050601e5481601a54610afb9190614f6d565b1115610b3c576040517f08c379a0000000000000000000000000000000000000000000000000000000008152600401610b339061500f565b60405180910390fd5b610b4583612bca565b610b50838383612d1a565b610b65826019546130b490919063ffffffff16565b601981905550610b8081601a546130b490919063ffffffff16565b601a81905550610bdf82601d6000610b966109e7565b73ffffffffffffffffffffffffffffffffffffffff1673ffffffffffffffffffffffffffffffffffffffff168152602001908152602001600020546130b490919063ffffffff16565b601d6000610beb6109e7565b73ffffffffffffffffffffffffffffffffffffffff1673ffffffffffffffffffffffffffffffffffffffff16815260200190815260200160002081905550610c7b81602160008673ffffffffffffffffffffffffffffffffffffffff1673ffffffffffffffffffffffffffffffffffffffff168152602001908152602001600020546130b490919063ffffffff16565b602160008573ffffffffffffffffffffffffffffffffffffffff1673ffffffffffffffffffffffffffffffffffffffff168152602001908152602001600020819055508273ffffffffffffffffffffffffffffffffffffffff16610cdd6109e7565b73ffffffffffffffffffffffffffffffffffffffff167f6faf93231a456e552dbc9961f58d9713ee4f2e69d15f1975b050ef0911053a7b8484604051610d2492919061502f565b60405180910390a3610d378383836130ca565b610d418383613242565b5050600160008190555050565b6000601660009054906101000a900473ffffffffffffffffffffffffffffffffffffffff16905090565b6000601560019054906101000a900473ffffffffffffffffffffffffffffffffffffffff16905090565b610db2610dad6109e7565b612304565b610df1576040517f08c379a0000000000000000000000000000000000000000000000000000000008152600401610de8906150ca565b60405180910390fd5b610dfa81613246565b50565b60011515602060009054906101000a900460ff16151514610e53576040517f08c379a0000000000000000000000000000000000000000000000000000000008152600401610e4a90615136565b60405180910390fd5b601f54601a541015610e9a576040517f08c379a0000000000000000000000000000000000000000000000000000000008152600401610e91906151a2565b60405180910390fd5b610ea26132f4565b60005b60238054905081101561107557600060238281548110610ec857610ec76151c2565b5b9060005260206000200160009054906101000a900473ffffffffffffffffffffffffffffffffffffffff16905060008173ffffffffffffffffffffffffffffffffffffffff166370a08231306040518263ffffffff1660e01b8152600401610f309190614b02565b60206040518083038186803b158015610f4857600080fd5b505afa158015610f5c573d6000803e3d6000fd5b505050506040513d601f19601f82011682018060405250810190610f809190615206565b9050600081111561106057610fd8601660009054906101000a900473ffffffffffffffffffffffffffffffffffffffff16828473ffffffffffffffffffffffffffffffffffffffff1661354d9092919063ffffffff16565b8173ffffffffffffffffffffffffffffffffffffffff16601660009054906101000a900473ffffffffffffffffffffffffffffffffffffffff1673ffffffffffffffffffffffffffffffffffffffff167ff9bd8d87bc3f4bf4b7707d7cf40318153372acb672bf7789c89878766d333557836040516110579190614a36565b60405180910390a35b5050808061106d90615233565b915050610ea5565b50565b6110886110836109e7565b612304565b6110c7576040517f08c379a00000000000000000000000000000000000000000000000000000000081526004016110be906150ca565b60405180910390fd5b6110d081613683565b50565b60011515602060009054906101000a900460ff16151514611129576040517f08c379a000000000000000000000000000000000000000000000000000000000815260040161112090615136565b60405180910390fd5b601f54601a541015611170576040517f08c379a0000000000000000000000000000000000000000000000000000000008152600401611167906151a2565b60405180910390fd5b60005b6022805490508110156114525760001515601460006022848154811061119c5761119b6151c2565b5b9060005260206000200160009054906101000a900473ffffffffffffffffffffffffffffffffffffffff1673ffffffffffffffffffffffffffffffffffffffff1673ffffffffffffffffffffffffffffffffffffffff16815260200190815260200160002060009054906101000a900460ff16151514611251576040517f08c379a0000000000000000000000000000000000000000000000000000000008152600401611248906152c8565b60405180910390fd5b6001601460006022848154811061126b5761126a6151c2565b5b9060005260206000200160009054906101000a900473ffffffffffffffffffffffffffffffffffffffff1673ffffffffffffffffffffffffffffffffffffffff1673ffffffffffffffffffffffffffffffffffffffff16815260200190815260200160002060006101000a81548160ff021916908315150217905550601560019054906101000a900473ffffffffffffffffffffffffffffffffffffffff1673ffffffffffffffffffffffffffffffffffffffff166323b872dd601660009054906101000a900473ffffffffffffffffffffffffffffffffffffffff166022848154811061135c5761135b6151c2565b5b9060005260206000200160009054906101000a900473ffffffffffffffffffffffffffffffffffffffff166113ce6022868154811061139e5761139d6151c2565b5b9060005260206000200160009054906101000a900473ffffffffffffffffffffffffffffffffffffffff166120c8565b6040518463ffffffff1660e01b81526004016113ec93929190615309565b602060405180830381600087803b15801561140657600080fd5b505af115801561141a573d6000803e3d6000fd5b505050506040513d601f19601f8201168201806040525081019061143e9190615355565b50808061144a90615233565b915050611173565b50565b6000600960020154905090565b60006114788260036136dd90919063ffffffff16565b9050919050565b6000601954905090565b600260005414156114cf576040517f08c379a00000000000000000000000000000000000000000000000000000000081526004016114c690614e46565b60405180910390fd5b600260008190555060001515602060009054906101000a900460ff1615151461152d576040517f08c379a000000000000000000000000000000000000000000000000000000000815260040161152490614eb2565b60405180910390fd5b600073ffffffffffffffffffffffffffffffffffffffff168273ffffffffffffffffffffffffffffffffffffffff16141561159d576040517f08c379a0000000000000000000000000000000000000000000000000000000008152600401611594906153f4565b60405180910390fd5b6000602654116115e2576040517f08c379a00000000000000000000000000000000000000000000000000000000081526004016115d990614f1e565b60405180910390fd5b60011515602460008473ffffffffffffffffffffffffffffffffffffffff1673ffffffffffffffffffffffffffffffffffffffff16815260200190815260200160002060009054906101000a900460ff16151514611675576040517f08c379a000000000000000000000000000000000000000000000000000000000815260040161166c90615486565b60405180910390fd5b808273ffffffffffffffffffffffffffffffffffffffff1663dd62ed3e61169a6109e7565b306040518363ffffffff1660e01b81526004016116b89291906154a6565b60206040518083038186803b1580156116d057600080fd5b505afa1580156116e4573d6000803e3d6000fd5b505050506040513d601f19601f820116820180604052508101906117089190615206565b1015611749576040517f08c379a000000000000000000000000000000000000000000000000000000000815260040161174090615486565b60405180910390fd5b60006117536109e7565b90506000611760846137a5565b90506000611791670de0b6b3a7640000611783848761385190919063ffffffff16565b61386790919063ffffffff16565b9050601e546117ab82601a546130b490919063ffffffff16565b11156117ec576040517f08c379a00000000000000000000000000000000000000000000000000000000081526004016117e39061500f565b60405180910390fd5b6117f583612bca565b611800838583612d1a565b6000600160065461181191906154cf565b905061188182601860008773ffffffffffffffffffffffffffffffffffffffff1673ffffffffffffffffffffffffffffffffffffffff1681526020019081526020016000208381548110611868576118676151c2565b5b90600052602060002001546130b490919063ffffffff16565b601860008673ffffffffffffffffffffffffffffffffffffffff1673ffffffffffffffffffffffffffffffffffffffff16815260200190815260200160002082815481106118d2576118d16151c2565b5b906000526020600020018190555061193285601260008973ffffffffffffffffffffffffffffffffffffffff1673ffffffffffffffffffffffffffffffffffffffff168152602001908152602001600020546130b490919063ffffffff16565b601260008873ffffffffffffffffffffffffffffffffffffffff1673ffffffffffffffffffffffffffffffffffffffff168152602001908152602001600020819055506119d8856011600084815260200190815260200160002060008973ffffffffffffffffffffffffffffffffffffffff1673ffffffffffffffffffffffffffffffffffffffff168152602001908152602001600020546130b490919063ffffffff16565b6011600083815260200190815260200160002060008873ffffffffffffffffffffffffffffffffffffffff1673ffffffffffffffffffffffffffffffffffffffff16815260200190815260200160002081905550611a4182601b5461387d90919063ffffffff16565b601b81905550611a9982602160008773ffffffffffffffffffffffffffffffffffffffff1673ffffffffffffffffffffffffffffffffffffffff168152602001908152602001600020546130b490919063ffffffff16565b602160008673ffffffffffffffffffffffffffffffffffffffff1673ffffffffffffffffffffffffffffffffffffffff16815260200190815260200160002081905550611af182601a546130b490919063ffffffff16565b601a81905550611b8d8560256000611b076109e7565b73ffffffffffffffffffffffffffffffffffffffff1673ffffffffffffffffffffffffffffffffffffffff16815260200190815260200160002060008973ffffffffffffffffffffffffffffffffffffffff1673ffffffffffffffffffffffffffffffffffffffff168152602001908152602001600020546130b490919063ffffffff16565b60256000611b996109e7565b73ffffffffffffffffffffffffffffffffffffffff1673ffffffffffffffffffffffffffffffffffffffff16815260200190815260200160002060008873ffffffffffffffffffffffffffffffffffffffff1673ffffffffffffffffffffffffffffffffffffffff168152602001908152602001600020819055508373ffffffffffffffffffffffffffffffffffffffff168473ffffffffffffffffffffffffffffffffffffffff167f6faf93231a456e552dbc9961f58d9713ee4f2e69d15f1975b050ef0911053a7b8785604051611c7392919061502f565b60405180910390a3611cad611c866109e7565b868873ffffffffffffffffffffffffffffffffffffffff166138939092919063ffffffff16565b5050505060016000819055505050565b611ccd611cc86109e7565b6139cb565b565b602060009054906101000a900460ff1681565b6000600960040154905090565b60011515602060009054906101000a900460ff16151514611d45576040517f08c379a0000000000000000000000000000000000000000000000000000000008152600401611d3c90615136565b60405180910390fd5b611d4d6109e7565b6000601860008373ffffffffffffffffffffffffffffffffffffffff1673ffffffffffffffffffffffffffffffffffffffff1681526020019081526020016000208054905011611dd2576040517f08c379a0000000000000000000000000000000000000000000000000000000008152600401611dc990615575565b60405180910390fd5b611dda613a25565b60005b602380549050811015611fe857600060256000611df86109e7565b73ffffffffffffffffffffffffffffffffffffffff1673ffffffffffffffffffffffffffffffffffffffff168152602001908152602001600020600060238481548110611e4857611e476151c2565b5b9060005260206000200160009054906101000a900473ffffffffffffffffffffffffffffffffffffffff1673ffffffffffffffffffffffffffffffffffffffff1673ffffffffffffffffffffffffffffffffffffffff1681526020019081526020016000205490506000811115611fd457611f29611ec46109e7565b8260238581548110611ed957611ed86151c2565b5b9060005260206000200160009054906101000a900473ffffffffffffffffffffffffffffffffffffffff1673ffffffffffffffffffffffffffffffffffffffff1661354d9092919063ffffffff16565b611f316109e7565b73ffffffffffffffffffffffffffffffffffffffff1660238381548110611f5b57611f5a6151c2565b5b9060005260206000200160009054906101000a900473ffffffffffffffffffffffffffffffffffffffff1673ffffffffffffffffffffffffffffffffffffffff167fd82ff48013bf11d7da5ee2c1b8eca25bb59cb11cd4f680afca6f022786522f3e83604051611fcb9190614a36565b60405180910390a35b508080611fe090615233565b915050611ddd565b5050565b6000600560009054906101000a900460ff16905090565b6000600960030154905090565b601660009054906101000a900473ffffffffffffffffffffffffffffffffffffffff1681565b6000601754905090565b6120486109e7565b73ffffffffffffffffffffffffffffffffffffffff166120666122c8565b73ffffffffffffffffffffffffffffffffffffffff16146120bc576040517f08c379a00000000000000000000000000000000000000000000000000000000081526004016120b3906155e1565b60405180910390fd5b6120c5816139cb565b50565b6000602160008373ffffffffffffffffffffffffffffffffffffffff1673ffffffffffffffffffffffffffffffffffffffff168152602001908152602001600020549050919050565b6121196109e7565b73ffffffffffffffffffffffffffffffffffffffff166121376122c8565b73ffffffffffffffffffffffffffffffffffffffff161461218d576040517f08c379a0000000000000000000000000000000000000000000000000000000008152600401612184906155e1565b60405180910390fd5b6121976000613e20565b565b6121a16109e7565b73ffffffffffffffffffffffffffffffffffffffff166121bf6122c8565b73ffffffffffffffffffffffffffffffffffffffff1614612215576040517f08c379a000000000000000000000000000000000000000000000000000000000815260040161220c906155e1565b60405180910390fd5b61221e81613ee6565b50565b60175481565b6122376122326109e7565b612462565b612276576040517f08c379a000000000000000000000000000000000000000000000000000000000815260040161226d90615673565b60405180910390fd5b61227e611fec565b156122be576040517f08c379a00000000000000000000000000000000000000000000000000000000081526004016122b5906156df565b60405180910390fd5b6122c6613f40565b565b6000600160009054906101000a900473ffffffffffffffffffffffffffffffffffffffff16905090565b601f5481565b60195481565b601a5481565b600061231a8260026136dd90919063ffffffff16565b9050919050565b601d6020528060005260406000206000915090505481565b60606009600001805461234b9061572e565b80601f01602080910402602001604051908101604052809291908181526020018280546123779061572e565b80156123c45780601f10612399576101008083540402835291602001916123c4565b820191906000526020600020905b8154815290600101906020018083116123a757829003601f168201915b5050505050905090565b6123de6123d96109e7565b612462565b61241d576040517f08c379a000000000000000000000000000000000000000000000000000000000815260040161241490615673565b60405180910390fd5b61242682613fe3565b80602681905550602760265490806001815401808255809150506001900390600052602060002001600090919091909150555050565b60075481565b60006124788260046136dd90919063ffffffff16565b9050919050565b61248f61248a6109e7565b613683565b565b6124a161249c6109e7565b612304565b6124e0576040517f08c379a00000000000000000000000000000000000000000000000000000000081526004016124d7906150ca565b60405180910390fd5b6124e98161430c565b50565b60011515602060009054906101000a900460ff16151514612542576040517f08c379a000000000000000000000000000000000000000000000000000000000815260040161253990615136565b60405180910390fd5b601f54601a541015612589576040517f08c379a0000000000000000000000000000000000000000000000000000000008152600401612580906151a2565b60405180910390fd5b806000601860008373ffffffffffffffffffffffffffffffffffffffff1673ffffffffffffffffffffffffffffffffffffffff168152602001908152602001600020805490501161260f576040517f08c379a000000000000000000000000000000000000000000000000000000000815260040161260690615575565b60405180910390fd5b60001515601460008473ffffffffffffffffffffffffffffffffffffffff1673ffffffffffffffffffffffffffffffffffffffff16815260200190815260200160002060009054906101000a900460ff161515146126a2576040517f08c379a0000000000000000000000000000000000000000000000000000000008152600401612699906152c8565b60405180910390fd5b6000601860008473ffffffffffffffffffffffffffffffffffffffff1673ffffffffffffffffffffffffffffffffffffffff1681526020019081526020016000208054905011612727576040517f08c379a000000000000000000000000000000000000000000000000000000000815260040161271e90615575565b60405180910390fd5b6001601460008473ffffffffffffffffffffffffffffffffffffffff1673ffffffffffffffffffffffffffffffffffffffff16815260200190815260200160002060006101000a81548160ff021916908315150217905550601560019054906101000a900473ffffffffffffffffffffffffffffffffffffffff1673ffffffffffffffffffffffffffffffffffffffff166323b872dd601660009054906101000a900473ffffffffffffffffffffffffffffffffffffffff16846127ea866120c8565b6040518463ffffffff1660e01b815260040161280893929190615309565b602060405180830381600087803b15801561282257600080fd5b505af1158015612836573d6000803e3d6000fd5b505050506040513d601f19601f8201168201806040525081019061285a9190615355565b505050565b60265481565b601b5481565b601560019054906101000a900473ffffffffffffffffffffffffffffffffffffffff1681565b6128a161289c6109e7565b612304565b6128e0576040517f08c379a00000000000000000000000000000000000000000000000000000000081526004016128d7906150ca565b60405180910390fd5b6128e981613ee6565b50565b6128fc6128f76109e7565b612462565b61293b576040517f08c379a000000000000000000000000000000000000000000000000000000000815260040161293290615673565b60405180910390fd5b60001515602060009054906101000a900460ff16151514612991576040517f08c379a000000000000000000000000000000000000000000000000000000000815260040161298890614eb2565b60405180910390fd5b6001602060006101000a81548160ff0219169083151502179055507f9270cc390c096600a1c17c44345a1ba689fafd99d97487b10cfccf86cf73183660405160405180910390a1565b6129e26109e7565b73ffffffffffffffffffffffffffffffffffffffff16612a006122c8565b73ffffffffffffffffffffffffffffffffffffffff1614612a56576040517f08c379a0000000000000000000000000000000000000000000000000000000008152600401612a4d906155e1565b60405180910390fd5b600073ffffffffffffffffffffffffffffffffffffffff168173ffffffffffffffffffffffffffffffffffffffff161415612ac6576040517f08c379a0000000000000000000000000000000000000000000000000000000008152600401612abd906157d2565b60405180910390fd5b612acf81613e20565b50565b601e5481565b612ae8612ae36109e7565b61430c565b565b612af482826136dd565b15612b34576040517f08c379a0000000000000000000000000000000000000000000000000000000008152600401612b2b9061583e565b60405180910390fd5b60018260000160008373ffffffffffffffffffffffffffffffffffffffff1673ffffffffffffffffffffffffffffffffffffffff16815260200190815260200160002060006101000a81548160ff0219169083151502179055505050565b6000612bc3670de0b6b3a7640000612bb56017548561385190919063ffffffff16565b61386790919063ffffffff16565b9050919050565b6000601860008373ffffffffffffffffffffffffffffffffffffffff1673ffffffffffffffffffffffffffffffffffffffff168152602001908152602001600020805490501415612d175760075467ffffffffffffffff811115612c3157612c30614826565b5b604051908082528060200260200182016040528015612c5f5781602001602082028036833780820191505090505b50601860008373ffffffffffffffffffffffffffffffffffffffff1673ffffffffffffffffffffffffffffffffffffffff1681526020019081526020016000209080519060200190612cb29291906145ac565b506022819080600181540180825580915050600190039060005260206000200160009091909190916101000a81548173ffffffffffffffffffffffffffffffffffffffff021916908373ffffffffffffffffffffffffffffffffffffffff1602179055505b50565b612d22611fec565b15612d62576040517f08c379a0000000000000000000000000000000000000000000000000000000008152600401612d59906156df565b60405180910390fd5b600073ffffffffffffffffffffffffffffffffffffffff168373ffffffffffffffffffffffffffffffffffffffff161415612dd2576040517f08c379a0000000000000000000000000000000000000000000000000000000008152600401612dc9906158d0565b60405180910390fd5b6000821415612e16576040517f08c379a0000000000000000000000000000000000000000000000000000000008152600401612e0d9061593c565b60405180910390fd5b6000811415612e5a576040517f08c379a0000000000000000000000000000000000000000000000000000000008152600401612e51906159a8565b60405180910390fd5b600060096006015410158015612e7257506000600654115b612eb1576040517f08c379a0000000000000000000000000000000000000000000000000000000008152600401612ea890615a14565b60405180910390fd5b60011515600960010160009054906101000a900460ff161515141580612edc5750612edb83611462565b5b612f1b576040517f08c379a0000000000000000000000000000000000000000000000000000000008152600401612f1290615aa6565b60405180910390fd5b601b54811115612f60576040517f08c379a0000000000000000000000000000000000000000000000000000000008152600401612f5790615b12565b60405180910390fd5b600960030154612fe282601860008773ffffffffffffffffffffffffffffffffffffffff1673ffffffffffffffffffffffffffffffffffffffff1681526020019081526020016000206001600654612fb891906154cf565b81548110612fc957612fc86151c2565b5b90600052602060002001546130b490919063ffffffff16565b10158015613070575060096004015461306d82601860008773ffffffffffffffffffffffffffffffffffffffff1673ffffffffffffffffffffffffffffffffffffffff168152602001908152602001600020600160065461304391906154cf565b81548110613054576130536151c2565b5b90600052602060002001546130b490919063ffffffff16565b11155b6130af576040517f08c379a00000000000000000000000000000000000000000000000000000000081526004016130a690615ba4565b60405180910390fd5b505050565b600081836130c29190614f6d565b905092915050565b61314681601860008673ffffffffffffffffffffffffffffffffffffffff1673ffffffffffffffffffffffffffffffffffffffff168152602001908152602001600020600160065461311c91906154cf565b8154811061312d5761312c6151c2565b5b90600052602060002001546130b490919063ffffffff16565b601860008573ffffffffffffffffffffffffffffffffffffffff1673ffffffffffffffffffffffffffffffffffffffff168152602001908152602001600020600160065461319491906154cf565b815481106131a5576131a46151c2565b5b90600052602060002001819055506131f282601060016006546131c891906154cf565b815481106131d9576131d86151c2565b5b90600052602060002001546130b490919063ffffffff16565b6010600160065461320391906154cf565b81548110613214576132136151c2565b5b906000526020600020018190555061323781601b5461387d90919063ffffffff16565b601b81905550505050565b5050565b60005b81518110156132f057613280828281518110613268576132676151c2565b5b60200260200101516003612aea90919063ffffffff16565b818181518110613293576132926151c2565b5b602002602001015173ffffffffffffffffffffffffffffffffffffffff167fee1504a83b6d4a361f4c1dc78ab59bfa30d6a3b6612c403e86bb01ef2984295f60405160405180910390a280806132e890615233565b915050613249565b5050565b60011515602060009054906101000a900460ff1615151461334a576040517f08c379a000000000000000000000000000000000000000000000000000000000815260040161334190615136565b60405180910390fd5b601f54601a541015613391576040517f08c379a0000000000000000000000000000000000000000000000000000000008152600401613388906151a2565b60405180910390fd5b601560009054906101000a900460ff16156133e1576040517f08c379a00000000000000000000000000000000000000000000000000000000081526004016133d890615c10565b60405180910390fd5b6000601954111561354b576001601560006101000a81548160ff0219169083151502179055506000601660009054906101000a900473ffffffffffffffffffffffffffffffffffffffff1673ffffffffffffffffffffffffffffffffffffffff1660195460405161345190615c61565b60006040518083038185875af1925050503d806000811461348e576040519150601f19603f3d011682016040523d82523d6000602084013e613493565b606091505b50509050806134d7576040517f08c379a00000000000000000000000000000000000000000000000000000000081526004016134ce90615cc2565b60405180910390fd5b601660009054906101000a900473ffffffffffffffffffffffffffffffffffffffff1673ffffffffffffffffffffffffffffffffffffffff167f5bd8ba4e42f0c070924a74b6b12c70fde17fbab26f2cc40d3137aae2c2fcc9916019546040516135419190614a36565b60405180910390a2505b565b6000808473ffffffffffffffffffffffffffffffffffffffff1663a9059cbb858560405160240161357f929190615ce2565b6040516020818303038152906040529060e01b6020820180517bffffffffffffffffffffffffffffffffffffffffffffffffffffffff83818316178352505050506040516135cd9190615d47565b6000604051808303816000865af19150503d806000811461360a576040519150601f19603f3d011682016040523d82523d6000602084013e61360f565b606091505b509150915081801561363d575060008151148061363c57508080602001905181019061363b9190615355565b5b5b61367c576040517f08c379a000000000000000000000000000000000000000000000000000000000815260040161367390615daa565b60405180910390fd5b5050505050565b61369781600361436690919063ffffffff16565b8073ffffffffffffffffffffffffffffffffffffffff167f270d9b30cf5b0793bbfd54c9d5b94aeb49462b8148399000265144a8722da6b660405160405180910390a250565b60008073ffffffffffffffffffffffffffffffffffffffff168273ffffffffffffffffffffffffffffffffffffffff16141561374e576040517f08c379a000000000000000000000000000000000000000000000000000000000815260040161374590615e3c565b60405180910390fd5b8260000160008373ffffffffffffffffffffffffffffffffffffffff1673ffffffffffffffffffffffffffffffffffffffff16815260200190815260200160002060009054906101000a900460ff16905092915050565b6000806137c78373ffffffffffffffffffffffffffffffffffffffff1661440d565b60ff16905060008160126137db91906154cf565b101561381c576040517f08c379a000000000000000000000000000000000000000000000000000000000815260040161381390615ea8565b60405180910390fd5b61384981601261382c91906154cf565b600a6138389190615ffb565b60265461385190919063ffffffff16565b915050919050565b6000818361385f9190616075565b905092915050565b6000818361387591906160a6565b905092915050565b6000818361388b91906154cf565b905092915050565b6000808473ffffffffffffffffffffffffffffffffffffffff166323b872dd8530866040516024016138c793929190616100565b6040516020818303038152906040529060e01b6020820180517bffffffffffffffffffffffffffffffffffffffffffffffffffffffff83818316178352505050506040516139159190615d47565b6000604051808303816000865af19150503d8060008114613952576040519150601f19603f3d011682016040523d82523d6000602084013e613957565b606091505b509150915081801561398557506000815114806139845750808060200190518101906139839190615355565b5b5b6139c4576040517f08c379a00000000000000000000000000000000000000000000000000000000081526004016139bb90616183565b60405180910390fd5b5050505050565b6139df81600261436690919063ffffffff16565b8073ffffffffffffffffffffffffffffffffffffffff167f0a8eb35e5ca14b3d6f28e4abf2f128dbab231a58b56e89beb5d636115001e16560405160405180910390a250565b60011515602060009054906101000a900460ff16151514613a7b576040517f08c379a0000000000000000000000000000000000000000000000000000000008152600401613a7290615136565b60405180910390fd5b613a836109e7565b6000601860008373ffffffffffffffffffffffffffffffffffffffff1673ffffffffffffffffffffffffffffffffffffffff1681526020019081526020016000208054905011613b08576040517f08c379a0000000000000000000000000000000000000000000000000000000008152600401613aff90615575565b60405180910390fd5b600073ffffffffffffffffffffffffffffffffffffffff16613b286109e7565b73ffffffffffffffffffffffffffffffffffffffff161415613b7f576040517f08c379a0000000000000000000000000000000000000000000000000000000008152600401613b76906161ef565b60405180910390fd5b601f54601a5410613bc5576040517f08c379a0000000000000000000000000000000000000000000000000000000008152600401613bbc9061625b565b60405180910390fd5b6000151560136000613bd56109e7565b73ffffffffffffffffffffffffffffffffffffffff1673ffffffffffffffffffffffffffffffffffffffff16815260200190815260200160002060009054906101000a900460ff16151514613c5f576040517f08c379a0000000000000000000000000000000000000000000000000000000008152600401613c56906162c7565b60405180910390fd5b600160136000613c6d6109e7565b73ffffffffffffffffffffffffffffffffffffffff1673ffffffffffffffffffffffffffffffffffffffff16815260200190815260200160002060006101000a81548160ff0219169083151502179055506000601d6000613ccc6109e7565b73ffffffffffffffffffffffffffffffffffffffff1673ffffffffffffffffffffffffffffffffffffffff1681526020019081526020016000205490506000811115613e1c576000613d1c6109e7565b73ffffffffffffffffffffffffffffffffffffffff1682604051613d3f90615c61565b60006040518083038185875af1925050503d8060008114613d7c576040519150601f19603f3d011682016040523d82523d6000602084013e613d81565b606091505b5050905080613dc5576040517f08c379a0000000000000000000000000000000000000000000000000000000008152600401613dbc90616359565b60405180910390fd5b613dcd6109e7565b73ffffffffffffffffffffffffffffffffffffffff167f85bd24b522892757128855fa64035f18b8eabd97bc9e740c96bd740a19b66fb583604051613e129190614a36565b60405180910390a2505b5050565b6000600160009054906101000a900473ffffffffffffffffffffffffffffffffffffffff16905081600160006101000a81548173ffffffffffffffffffffffffffffffffffffffff021916908373ffffffffffffffffffffffffffffffffffffffff1602179055508173ffffffffffffffffffffffffffffffffffffffff168173ffffffffffffffffffffffffffffffffffffffff167f8be0079c531659141344cd1fd0a4f28419497f9722a3daafe3b4186f6b6457e060405160405180910390a35050565b613efa816002612aea90919063ffffffff16565b8073ffffffffffffffffffffffffffffffffffffffff167f22380c05984257a1cb900161c713dd71d39e74820f1aea43bd3f1bdd2096129960405160405180910390a250565b613f48611fec565b15613f88576040517f08c379a0000000000000000000000000000000000000000000000000000000008152600401613f7f906156df565b60405180910390fd5b6001600560006101000a81548160ff0219169083151502179055507f62e78cea01bee320cd4e420270b5ea74000d11b0c9f74754ebdbfc544b05a258613fcc6109e7565b604051613fd99190614b02565b60405180910390a1565b613ff3613fee6109e7565b612462565b614032576040517f08c379a000000000000000000000000000000000000000000000000000000000815260040161402990615673565b60405180910390fd5b6007546006541115614079576040517f08c379a0000000000000000000000000000000000000000000000000000000008152600401614070906163eb565b60405180910390fd5b6140868160c001516144fe565b600881908060018154018082558091505060019003906000526020600020906007020160009091909190915060008201518160000190805190602001906140ce9291906145f9565b5060208201518160010160006101000a81548160ff02191690831515021790555060408201518160020155606082015181600301556080820151816004015560a082015181600501908051906020019061412992919061467f565b5060c082015181600601555050601060009080600181540180825580915050600190039060005260206000200160009091909190915055806009600082015181600001908051906020019061417f9291906145f9565b5060208201518160010160006101000a81548160ff02191690831515021790555060408201518160020155606082015181600301556080820151816004015560a08201518160050190805190602001906141da92919061467f565b5060c082015181600601559050506001600660008282546141fb9190614f6d565b9250508190555061420a614508565b6142178160a00151610da2565b8060400151601b8190555061422a611fec565b156142385761423761450a565b5b6000601e8190555060005b6008805490508110156142a15760088181548110614264576142636151c2565b5b906000526020600020906007020160020154601e60008282546142879190614f6d565b92505081905550808061429990615233565b915050614243565b506142cc60646142be601c54601e5461386790919063ffffffff16565b61385190919063ffffffff16565b601f819055507f6eb802d1714357dcea5886ae35af662866c3943c00450fd19ac4d7c7d421976f8160405161430191906165d4565b60405180910390a150565b61432081600461436690919063ffffffff16565b8073ffffffffffffffffffffffffffffffffffffffff167fad6228a09eb1df2086c95460e8f1ac7a7f031d74280f897c659ba312419a1e8960405160405180910390a250565b61437082826136dd565b6143af576040517f08c379a00000000000000000000000000000000000000000000000000000000081526004016143a690616668565b60405180910390fd5b60008260000160008373ffffffffffffffffffffffffffffffffffffffff1673ffffffffffffffffffffffffffffffffffffffff16815260200190815260200160002060006101000a81548160ff0219169083151502179055505050565b60008060008373ffffffffffffffffffffffffffffffffffffffff1663313ce5676040516024016040516020818303038152906040529060e01b6020820180517bffffffffffffffffffffffffffffffffffffffffffffffffffffffff83818316178352505050506040516144829190615d47565b600060405180830381855afa9150503d80600081146144bd576040519150601f19603f3d011682016040523d82523d6000602084013e6144c2565b606091505b50915091508180156144d5575060208151145b6144e05760126144f5565b808060200190518101906144f491906166c1565b5b92505050919050565b8060178190555050565b565b614512611fec565b614551576040517f08c379a00000000000000000000000000000000000000000000000000000000081526004016145489061673a565b60405180910390fd5b6000600560006101000a81548160ff0219169083151502179055507f5db9ee0a495bf2e6ff9c91a7834c1ba4fdd244a5e8aa4e537bd38aeae4b073aa6145956109e7565b6040516145a29190614b02565b60405180910390a1565b8280548282559060005260206000209081019282156145e8579160200282015b828111156145e75782518255916020019190600101906145cc565b5b5090506145f59190614709565b5090565b8280546146059061572e565b90600052602060002090601f016020900481019282614627576000855561466e565b82601f1061464057805160ff191683800117855561466e565b8280016001018555821561466e579182015b8281111561466d578251825591602001919060010190614652565b5b50905061467b9190614709565b5090565b8280548282559060005260206000209081019282156146f8579160200282015b828111156146f75782518260006101000a81548173ffffffffffffffffffffffffffffffffffffffff021916908373ffffffffffffffffffffffffffffffffffffffff1602179055509160200191906001019061469f565b5b5090506147059190614709565b5090565b5b8082111561472257600081600090555060010161470a565b5090565b600073ffffffffffffffffffffffffffffffffffffffff82169050919050565b600061475182614726565b9050919050565b61476181614746565b82525050565b600060208201905061477c6000830184614758565b92915050565b6000819050919050565b60006147a76147a261479d84614726565b614782565b614726565b9050919050565b60006147b98261478c565b9050919050565b60006147cb826147ae565b9050919050565b6147db816147c0565b82525050565b60006020820190506147f660008301846147d2565b92915050565b6000604051905090565b600080fd5b600080fd5b600080fd5b6000601f19601f8301169050919050565b7f4e487b7100000000000000000000000000000000000000000000000000000000600052604160045260246000fd5b61485e82614815565b810181811067ffffffffffffffff8211171561487d5761487c614826565b5b80604052505050565b60006148906147fc565b905061489c8282614855565b919050565b600067ffffffffffffffff8211156148bc576148bb614826565b5b602082029050602081019050919050565b600080fd5b60006148dd82614726565b9050919050565b6148ed816148d2565b81146148f857600080fd5b50565b60008135905061490a816148e4565b92915050565b600061492361491e846148a1565b614886565b90508083825260208201905060208402830185811115614946576149456148cd565b5b835b8181101561496f578061495b88826148fb565b845260208401935050602081019050614948565b5050509392505050565b600082601f83011261498e5761498d614810565b5b813561499e848260208601614910565b91505092915050565b6000602082840312156149bd576149bc614806565b5b600082013567ffffffffffffffff8111156149db576149da61480b565b5b6149e784828501614979565b91505092915050565b600060208284031215614a0657614a05614806565b5b6000614a14848285016148fb565b91505092915050565b6000819050919050565b614a3081614a1d565b82525050565b6000602082019050614a4b6000830184614a27565b92915050565b60008115159050919050565b614a6681614a51565b82525050565b6000602082019050614a816000830184614a5d565b92915050565b614a9081614a1d565b8114614a9b57600080fd5b50565b600081359050614aad81614a87565b92915050565b60008060408385031215614aca57614ac9614806565b5b6000614ad8858286016148fb565b9250506020614ae985828601614a9e565b9150509250929050565b614afc816148d2565b82525050565b6000602082019050614b176000830184614af3565b92915050565b600081519050919050565b600082825260208201905092915050565b60005b83811015614b57578082015181840152602081019050614b3c565b83811115614b66576000848401525b50505050565b6000614b7782614b1d565b614b818185614b28565b9350614b91818560208601614b39565b614b9a81614815565b840191505092915050565b60006020820190508181036000830152614bbf8184614b6c565b905092915050565b600080fd5b600080fd5b600080fd5b600067ffffffffffffffff821115614bf157614bf0614826565b5b614bfa82614815565b9050602081019050919050565b82818337600083830152505050565b6000614c29614c2484614bd6565b614886565b905082815260208101848484011115614c4557614c44614bd1565b5b614c50848285614c07565b509392505050565b600082601f830112614c6d57614c6c614810565b5b8135614c7d848260208601614c16565b91505092915050565b614c8f81614a51565b8114614c9a57600080fd5b50565b600081359050614cac81614c86565b92915050565b600060e08284031215614cc857614cc7614bc7565b5b614cd260e0614886565b9050600082013567ffffffffffffffff811115614cf257614cf1614bcc565b5b614cfe84828501614c58565b6000830152506020614d1284828501614c9d565b6020830152506040614d2684828501614a9e565b6040830152506060614d3a84828501614a9e565b6060830152506080614d4e84828501614a9e565b60808301525060a082013567ffffffffffffffff811115614d7257614d71614bcc565b5b614d7e84828501614979565b60a08301525060c0614d9284828501614a9e565b60c08301525092915050565b60008060408385031215614db557614db4614806565b5b600083013567ffffffffffffffff811115614dd357614dd261480b565b5b614ddf85828601614cb2565b9250506020614df085828601614a9e565b9150509250929050565b7f5265656e7472616e637947756172643a207265656e7472616e742063616c6c00600082015250565b6000614e30601f83614b28565b9150614e3b82614dfa565b602082019050919050565b60006020820190508181036000830152614e5f81614e23565b9050919050565b7f43726f776473616c653a2043726f776473616c6520656e646564000000000000600082015250565b6000614e9c601a83614b28565b9150614ea782614e66565b602082019050919050565b60006020820190508181036000830152614ecb81614e8f565b9050919050565b7f43726f776473616c653a20507572636861736520756e617661696c61626c6500600082015250565b6000614f08601f83614b28565b9150614f1382614ed2565b602082019050919050565b60006020820190508181036000830152614f3781614efb565b9050919050565b7f4e487b7100000000000000000000000000000000000000000000000000000000600052601160045260246000fd5b6000614f7882614a1d565b9150614f8383614a1d565b9250827fffffffffffffffffffffffffffffffffffffffffffffffffffffffffffffffff03821115614fb857614fb7614f3e565b5b828201905092915050565b7f43726f776473616c653a20486172646361702065786365656465640000000000600082015250565b6000614ff9601b83614b28565b915061500482614fc3565b602082019050919050565b6000602082019050818103600083015261502881614fec565b9050919050565b60006040820190506150446000830185614a27565b6150516020830184614a27565b9392505050565b7f57686974656c69737441646d696e526f6c653a2063616c6c657220646f65732060008201527f6e6f742068617665207468652057686974656c69737441646d696e20726f6c65602082015250565b60006150b4604083614b28565b91506150bf82615058565b604082019050919050565b600060208201905081810360008301526150e3816150a7565b9050919050565b7f43726f776473616c653a2043726f776473616c6520696e2070726f6772657373600082015250565b6000615120602083614b28565b915061512b826150ea565b602082019050919050565b6000602082019050818103600083015261514f81615113565b9050919050565b7f43726f776473616c653a20536f6674436170206e6f7420726561636865640000600082015250565b600061518c601e83614b28565b915061519782615156565b602082019050919050565b600060208201905081810360008301526151bb8161517f565b9050919050565b7f4e487b7100000000000000000000000000000000000000000000000000000000600052603260045260246000fd5b60008151905061520081614a87565b92915050565b60006020828403121561521c5761521b614806565b5b600061522a848285016151f1565b91505092915050565b600061523e82614a1d565b91507fffffffffffffffffffffffffffffffffffffffffffffffffffffffffffffffff82141561527157615270614f3e565b5b600182019050919050565b7f43726f776473616c653a20416c726561647920636c61696d6564000000000000600082015250565b60006152b2601a83614b28565b91506152bd8261527c565b602082019050919050565b600060208201905081810360008301526152e1816152a5565b9050919050565b60006152f3826147ae565b9050919050565b615303816152e8565b82525050565b600060608201905061531e60008301866152fa565b61532b6020830185614af3565b6153386040830184614a27565b949350505050565b60008151905061534f81614c86565b92915050565b60006020828403121561536b5761536a614806565b5b600061537984828501615340565b91505092915050565b7f43726f776473616c653a205061796d656e7420546f6b656e20697320696e766160008201527f6c69640000000000000000000000000000000000000000000000000000000000602082015250565b60006153de602383614b28565b91506153e982615382565b604082019050919050565b6000602082019050818103600083015261540d816153d1565b9050919050565b7f43726f776473616c653a20496e76616c696420746f6b656e20616c6c6f77616e60008201527f6365000000000000000000000000000000000000000000000000000000000000602082015250565b6000615470602283614b28565b915061547b82615414565b604082019050919050565b6000602082019050818103600083015261549f81615463565b9050919050565b60006040820190506154bb6000830185614af3565b6154c86020830184614af3565b9392505050565b60006154da82614a1d565b91506154e583614a1d565b9250828210156154f8576154f7614f3e565b5b828203905092915050565b7f43726f776473616c653a204f6e6c7920696e766573746f7273207065726d697460008201527f7465640000000000000000000000000000000000000000000000000000000000602082015250565b600061555f602383614b28565b915061556a82615503565b604082019050919050565b6000602082019050818103600083015261558e81615552565b9050919050565b7f4f776e61626c653a2063616c6c6572206973206e6f7420746865206f776e6572600082015250565b60006155cb602083614b28565b91506155d682615595565b602082019050919050565b600060208201905081810360008301526155fa816155be565b9050919050565b7f537461676541646d696e526f6c653a2063616c6c657220646f6573206e6f742060008201527f686176652074686520537461676541646d696e526f6c6520726f6c6500000000602082015250565b600061565d603c83614b28565b915061566882615601565b604082019050919050565b6000602082019050818103600083015261568c81615650565b9050919050565b7f5061757361626c653a2070617573656400000000000000000000000000000000600082015250565b60006156c9601083614b28565b91506156d482615693565b602082019050919050565b600060208201905081810360008301526156f8816156bc565b9050919050565b7f4e487b7100000000000000000000000000000000000000000000000000000000600052602260045260246000fd5b6000600282049050600182168061574657607f821691505b6020821081141561575a576157596156ff565b5b50919050565b7f4f776e61626c653a206e6577206f776e657220697320746865207a65726f206160008201527f6464726573730000000000000000000000000000000000000000000000000000602082015250565b60006157bc602683614b28565b91506157c782615760565b604082019050919050565b600060208201905081810360008301526157eb816157af565b9050919050565b7f526f6c65733a206163636f756e7420616c72656164792068617320726f6c6500600082015250565b6000615828601f83614b28565b9150615833826157f2565b602082019050919050565b600060208201905081810360008301526158578161581b565b9050919050565b7f43726f776473616c653a2062656e656669636961727920697320746865207a6560008201527f726f206164647265737300000000000000000000000000000000000000000000602082015250565b60006158ba602a83614b28565b91506158c58261585e565b604082019050919050565b600060208201905081810360008301526158e9816158ad565b9050919050565b7f43726f776473616c653a20776569416d6f756e74206973203000000000000000600082015250565b6000615926601983614b28565b9150615931826158f0565b602082019050919050565b6000602082019050818103600083015261595581615919565b9050919050565b7f43726f776473616c653a20746f6b656e416d6f756e7420697320300000000000600082015250565b6000615992601b83614b28565b915061599d8261595c565b602082019050919050565b600060208201905081810360008301526159c181615985565b9050919050565b7f43726f776473616c653a205374616765206973206e6f74206163746976650000600082015250565b60006159fe601e83614b28565b9150615a09826159c8565b602082019050919050565b60006020820190508181036000830152615a2d816159f1565b9050919050565b7f43726f776473616c653a204f6e676f696e6720707269766174652073616c653a60008201527f2062656e6566656369617279206973206e6f74207768697465206c6973746564602082015250565b6000615a90604083614b28565b9150615a9b82615a34565b604082019050919050565b60006020820190508181036000830152615abf81615a83565b9050919050565b7f43726f776473616c653a20636170206578636565646564000000000000000000600082015250565b6000615afc601783614b28565b9150615b0782615ac6565b602082019050919050565b60006020820190508181036000830152615b2b81615aef565b9050919050565b7f43726f776473616c653a20496e646976696475616c20636170206c696d69742060008201527f776173206e6f74206d6574000000000000000000000000000000000000000000602082015250565b6000615b8e602b83614b28565b9150615b9982615b32565b604082019050919050565b60006020820190508181036000830152615bbd81615b81565b9050919050565b7f43726f776473616c653a2046756e64732077697468647261776e000000000000600082015250565b6000615bfa601a83614b28565b9150615c0582615bc4565b602082019050919050565b60006020820190508181036000830152615c2981615bed565b9050919050565b600081905092915050565b50565b6000615c4b600083615c30565b9150615c5682615c3b565b600082019050919050565b6000615c6c82615c3e565b9150819050919050565b7f43726f776473616c653a204661696c656420746f2073656e6420457468657200600082015250565b6000615cac601f83614b28565b9150615cb782615c76565b602082019050919050565b60006020820190508181036000830152615cdb81615c9f565b9050919050565b6000604082019050615cf76000830185614af3565b615d046020830184614a27565b9392505050565b600081519050919050565b6000615d2182615d0b565b615d2b8185615c30565b9350615d3b818560208601614b39565b80840191505092915050565b6000615d538284615d16565b915081905092915050565b7f5361666545524332303a205472616e73666572206661696c6564000000000000600082015250565b6000615d94601a83614b28565b9150615d9f82615d5e565b602082019050919050565b60006020820190508181036000830152615dc381615d87565b9050919050565b7f526f6c65733a206163636f756e7420697320746865207a65726f20616464726560008201527f7373000000000000000000000000000000000000000000000000000000000000602082015250565b6000615e26602283614b28565b9150615e3182615dca565b604082019050919050565b60006020820190508181036000830152615e5581615e19565b9050919050565b7f43726f776473616c653a20496e76616c696420646563696d616c730000000000600082015250565b6000615e92601b83614b28565b9150615e9d82615e5c565b602082019050919050565b60006020820190508181036000830152615ec181615e85565b9050919050565b60008160011c9050919050565b6000808291508390505b6001851115615f1f57808604811115615efb57615efa614f3e565b5b6001851615615f0a5780820291505b8081029050615f1885615ec8565b9450615edf565b94509492505050565b600082615f385760019050615ff4565b81615f465760009050615ff4565b8160018114615f5c5760028114615f6657615f95565b6001915050615ff4565b60ff841115615f7857615f77614f3e565b5b8360020a915084821115615f8f57615f8e614f3e565b5b50615ff4565b5060208310610133831016604e8410600b8410161715615fca5782820a905083811115615fc557615fc4614f3e565b5b615ff4565b615fd78484846001615ed5565b92509050818404811115615fee57615fed614f3e565b5b81810290505b9392505050565b600061600682614a1d565b915061601183614a1d565b925061603e7fffffffffffffffffffffffffffffffffffffffffffffffffffffffffffffffff8484615f28565b905092915050565b7f4e487b7100000000000000000000000000000000000000000000000000000000600052601260045260246000fd5b600061608082614a1d565b915061608b83614a1d565b92508261609b5761609a616046565b5b828204905092915050565b60006160b182614a1d565b91506160bc83614a1d565b9250817fffffffffffffffffffffffffffffffffffffffffffffffffffffffffffffffff04831182151516156160f5576160f4614f3e565b5b828202905092915050565b60006060820190506161156000830186614af3565b6161226020830185614af3565b61612f6040830184614a27565b949350505050565b7f5361666545524332303a205472616e7366657246726f6d206661696c65640000600082015250565b600061616d601e83614b28565b915061617882616137565b602082019050919050565b6000602082019050818103600083015261619c81616160565b9050919050565b7f43726f776473616c653a20496e76616c69642061646472657373000000000000600082015250565b60006161d9601a83614b28565b91506161e4826161a3565b602082019050919050565b60006020820190508181036000830152616208816161cc565b9050919050565b7f43726f776473616c653a20536f66744361702072656163686564000000000000600082015250565b6000616245601a83614b28565b91506162508261620f565b602082019050919050565b6000602082019050818103600083015261627481616238565b9050919050565b7f43726f776473616c653a20416c726561647920726566756e6465640000000000600082015250565b60006162b1601b83614b28565b91506162bc8261627b565b602082019050919050565b600060208201905081810360008301526162e0816162a4565b9050919050565b7f43726f776473616c653a204661696c656420746f20726566756e64204574686560008201527f7200000000000000000000000000000000000000000000000000000000000000602082015250565b6000616343602183614b28565b915061634e826162e7565b604082019050919050565b6000602082019050818103600083015261637281616336565b9050919050565b7f43726f776473616c653a2053746167652065786365656473207374616765206c60008201527f696d697400000000000000000000000000000000000000000000000000000000602082015250565b60006163d5602483614b28565b91506163e082616379565b604082019050919050565b60006020820190508181036000830152616404816163c8565b9050919050565b600082825260208201905092915050565b600061642782614b1d565b616431818561640b565b9350616441818560208601614b39565b61644a81614815565b840191505092915050565b61645e81614a51565b82525050565b61646d81614a1d565b82525050565b600081519050919050565b600082825260208201905092915050565b6000819050602082019050919050565b6164a8816148d2565b82525050565b60006164ba838361649f565b60208301905092915050565b6000602082019050919050565b60006164de82616473565b6164e8818561647e565b93506164f38361648f565b8060005b8381101561652457815161650b88826164ae565b9750616516836164c6565b9250506001810190506164f7565b5085935050505092915050565b600060e083016000830151848203600086015261654e828261641c565b91505060208301516165636020860182616455565b5060408301516165766040860182616464565b5060608301516165896060860182616464565b50608083015161659c6080860182616464565b5060a083015184820360a08601526165b482826164d3565b91505060c08301516165c960c0860182616464565b508091505092915050565b600060208201905081810360008301526165ee8184616531565b905092915050565b7f526f6c65733a206163636f756e7420646f6573206e6f74206861766520726f6c60008201527f6500000000000000000000000000000000000000000000000000000000000000602082015250565b6000616652602183614b28565b915061665d826165f6565b604082019050919050565b6000602082019050818103600083015261668181616645565b9050919050565b600060ff82169050919050565b61669e81616688565b81146166a957600080fd5b50565b6000815190506166bb81616695565b92915050565b6000602082840312156166d7576166d6614806565b5b60006166e5848285016166ac565b91505092915050565b7f5061757361626c653a206e6f7420706175736564000000000000000000000000600082015250565b6000616724601483614b28565b915061672f826166ee565b602082019050919050565b6000602082019050818103600083015261675381616717565b905091905056fea264697066735822122027e0d16d4aa3ebfaceb026fc95bc1cae2d9e256a4fad27885d852e83e693742264736f6c63430008090033",
  "immutableReferences": {},
  "source": "// SPDX-License-Identifier: MIT\r\npragma solidity ^0.8.9;\r\nimport \"./CrowdsaleBase.sol\";\r\nimport \"./SaferERC20.sol\";\r\nimport \"../node_modules/@openzeppelin/contracts/token/ERC20/ERC20.sol\";\r\n/**\r\n * @title DefaultCrowdsale\r\n * @dev This is an example of a fully fledged crowdsale.\r\n */\r\ncontract DefaultCrowdsalev1 is CrowdsaleBase {\r\n    using SafeMath for uint256;\r\n    using SaferERC20 for ERC20;\r\n\r\n    address[] _supportedStablecoinsList;\r\n    mapping(address => bool) _supportedStablecoins;\r\n    mapping(address => mapping(address => uint256)) _stableCoinBalances;\r\n    uint256 public stableCoinRate;\r\n    uint256[] private stableCoinStageRates;\r\n\r\n    constructor(\r\n        address payable wallet,\r\n        IERC20 token,\r\n        uint256 numberOfStages_,\r\n        uint256 softCapDenominator,\r\n        address[] memory supportedStablecoins\r\n    ) CrowdsaleBase(1, wallet, token, softCapDenominator, numberOfStages_) {\r\n        stableCoinStageRates = new uint256[](numberOfStages_);\r\n        for(uint index = 0; index < supportedStablecoins.length; index++){\r\n            _supportedStablecoins[supportedStablecoins[index]] = true;\r\n        }\r\n        _supportedStablecoinsList = supportedStablecoins;\r\n    }\r\n\r\n    function startNextStage(StageSettings memory settings, uint256 stableCoinRate_) external onlyStageAdmins {\r\n        super._startNextStage(settings);\r\n        stableCoinRate = stableCoinRate_;\r\n        stableCoinStageRates.push(stableCoinRate);\r\n    }\r\n\r\n    /**\r\n     * This function allow exchange erc20 which has added rate is set\r\n     * @param amount Amount of token to exchange\r\n     */\r\n    function exchangeTokens(address paymentToken, uint256 amount) public virtual nonReentrant saleInProgress {\r\n        require(paymentToken != address(0), \"Crowdsale: Payment Token is invalid\");\r\n        require(stableCoinRate > 0, \"Crowdsale: Purchase unavailable\");\r\n        require(_supportedStablecoins[paymentToken] == true, \"Crowdsale: Invalid token allowance\");\r\n        require(IERC20(paymentToken).allowance(_msgSender(), address(this)) >= amount, \"Crowdsale: Invalid token allowance\");\r\n        address beneficiary = _msgSender();\r\n        uint256 paymentCurrencyRate = calculateRate(paymentToken);\r\n        uint256 crowdsaleTokensAmount = amount.div(paymentCurrencyRate).mul(10**18);\r\n        require(_tokensSold.add(crowdsaleTokensAmount) <= hardCap, \"Crowdsale: Hardcap exceeded\");\r\n        _addContributor(beneficiary);\r\n        _preValidatePurchase(beneficiary, amount, crowdsaleTokensAmount);\r\n        uint currentStageIndex = _nextStage - 1;\r\n        // weiRaised is ommitted because token are purchasing by other currency than ether\r\n        _contributions[beneficiary][currentStageIndex] = _contributions[beneficiary][currentStageIndex].add(crowdsaleTokensAmount);\r\n        _tokensRaised[paymentToken] = _tokensRaised[paymentToken].add(amount);\r\n        _stageTokensRaised[currentStageIndex][paymentToken] = _stageTokensRaised[currentStageIndex][paymentToken].add(amount);\r\n        remainStageTokens = remainStageTokens.sub(crowdsaleTokensAmount);\r\n        // Update investor balance - will be used to send tokens after sale end\r\n        _investorTokenBalance[beneficiary] = _investorTokenBalance[beneficiary].add(crowdsaleTokensAmount);\r\n        _tokensSold = _tokensSold.add(crowdsaleTokensAmount);\r\n        // Save how much USDT tokens someone invested\r\n        _stableCoinBalances[_msgSender()][paymentToken] = _stableCoinBalances[_msgSender()][paymentToken].add(amount);\r\n        emit TokensPurchased(beneficiary, beneficiary, amount, crowdsaleTokensAmount);\r\n        ERC20(paymentToken).safeTransferFrom(_msgSender(), amount);\r\n    }\r\n\r\n    function calculateRate(address paymentToken) internal view returns(uint256) {\r\n        uint256 paymentTokenDecimals = uint256(ERC20(paymentToken).safeDecimals());\r\n        require(18 - paymentTokenDecimals >= 0, \"Crowdsale: Invalid decimals\");\r\n        return stableCoinRate.div((10**(18-paymentTokenDecimals)));\r\n    }\r\n    \r\n    function refund() public virtual override saleEnded isContributor(_msgSender()) {\r\n        super.refund();\r\n        // WITHDRAW STABLECOINS\r\n        for(uint index = 0; index < _supportedStablecoinsList.length; index++){\r\n            uint256 stableCoinBalance = _stableCoinBalances[_msgSender()][_supportedStablecoinsList[index]];\r\n            if (stableCoinBalance > 0) {\r\n                ERC20(_supportedStablecoinsList[index]).safeTransfer(_msgSender(), stableCoinBalance);\r\n                emit StableCoinInvestmentsReturn(_supportedStablecoinsList[index], _msgSender(), stableCoinBalance);\r\n            }\r\n        }\r\n    }\r\n\r\n    function withdrawFunds() public virtual override saleEnded softCapReached {\r\n        super.withdrawFunds();\r\n        // WITHDRAW STABLECOINS\r\n        for(uint index = 0; index < _supportedStablecoinsList.length; index++){\r\n            address stableCoinAddress = _supportedStablecoinsList[index];\r\n            uint256 stableCoinBalance = IERC20(stableCoinAddress).balanceOf(address(this));\r\n            if (stableCoinBalance > 0) {\r\n                ERC20(stableCoinAddress).safeTransfer(_wallet, stableCoinBalance);\r\n                emit FundsWithdrawal(_wallet, stableCoinAddress, stableCoinBalance);\r\n            }\r\n        }\r\n    }\r\n}\r\n",
  "sourcePath": "D:\\repositories\\mosaico-reference\\smart_contracts\\contracts\\DefaultCrowdsalev1.sol",
  "compiler": {
    "name": "solc",
    "version": "0.8.9+commit.e5eed63a.Emscripten.clang"
  },
  "schemaVersion": "3.4.3",
  "updatedAt": "2022-04-01T04:17:56.579Z",
  "devdoc": {
    "details": "This is an example of a fully fledged crowdsale.",
    "kind": "dev",
    "methods": {
      "balanceOf(address)": {
        "returns": {
          "_0": "the amount of purchased tokens."
        }
      },
      "exchangeTokens(address,uint256)": {
        "params": {
          "amount": "Amount of token to exchange"
        }
      },
      "getRate()": {
        "returns": {
          "_0": "the number of token units a buyer gets per wei."
        }
      },
      "getToken()": {
        "returns": {
          "_0": "the token being sold."
        }
      },
      "getWallet()": {
        "returns": {
          "_0": "the address where funds are collected."
        }
      },
      "getWeiRaised()": {
        "returns": {
          "_0": "the amount of wei raised."
        }
      },
      "owner()": {
        "details": "Returns the address of the current owner."
      },
      "paused()": {
        "details": "Returns true if the contract is paused, and false otherwise."
      },
      "renounceOwnership()": {
        "details": "Leaves the contract without owner. It will not be possible to call `onlyOwner` functions anymore. Can only be called by the current owner. NOTE: Renouncing ownership will leave the contract without an owner, thereby removing any functionality that is only available to the owner."
      },
      "transferOwnership(address)": {
        "details": "Transfers ownership of the contract to a new account (`newOwner`). Can only be called by the current owner."
      }
    },
    "title": "DefaultCrowdsale",
    "version": 1
  },
  "userdoc": {
    "events": {
      "CrowdsaleFinalized()": {
        "notice": "Event when crowdsale end"
      },
      "TokensPurchased(address,address,uint256,uint256)": {
        "notice": "Event for token purchase logging"
      }
    },
    "kind": "user",
    "methods": {
      "exchangeTokens(address,uint256)": {
        "notice": "This function allow exchange erc20 which has added rate is set"
      }
    },
    "version": 1
  }
}