{
  "contractName": "DefaultCrowdsalev2",
  "abi": [
    {
      "inputs": [
        {
          "internalType": "address payable",
          "name": "wallet",
          "type": "address"
        },
        {
          "internalType": "contract IERC20",
          "name": "token",
          "type": "address"
        },
        {
          "internalType": "uint256",
          "name": "_numberOfStages",
          "type": "uint256"
        }
      ],
      "stateMutability": "nonpayable",
      "type": "constructor"
    },
    {
      "anonymous": false,
      "inputs": [
        {
          "components": [
            {
              "internalType": "string",
              "name": "name",
              "type": "string"
            },
            {
              "internalType": "bool",
              "name": "isPrivate",
              "type": "bool"
            },
            {
              "internalType": "uint256",
              "name": "cap",
              "type": "uint256"
            },
            {
              "internalType": "uint256",
              "name": "minIndividualCap",
              "type": "uint256"
            },
            {
              "internalType": "uint256",
              "name": "maxIndividualCap",
              "type": "uint256"
            },
            {
              "internalType": "address[]",
              "name": "whitelist",
              "type": "address[]"
            },
            {
              "internalType": "uint256",
              "name": "rate",
              "type": "uint256"
            }
          ],
          "indexed": false,
          "internalType": "struct DefaultCrowdsalev2.StageSettings",
          "name": "stage",
          "type": "tuple"
        }
      ],
      "name": "NextStage",
      "type": "event"
    },
    {
      "anonymous": false,
      "inputs": [
        {
          "indexed": true,
          "internalType": "address",
          "name": "previousOwner",
          "type": "address"
        },
        {
          "indexed": true,
          "internalType": "address",
          "name": "newOwner",
          "type": "address"
        }
      ],
      "name": "OwnershipTransferred",
      "type": "event"
    },
    {
      "anonymous": false,
      "inputs": [
        {
          "indexed": false,
          "internalType": "address",
          "name": "account",
          "type": "address"
        }
      ],
      "name": "Paused",
      "type": "event"
    },
    {
      "anonymous": false,
      "inputs": [
        {
          "indexed": true,
          "internalType": "address",
          "name": "account",
          "type": "address"
        }
      ],
      "name": "StageAdminRoleAdded",
      "type": "event"
    },
    {
      "anonymous": false,
      "inputs": [
        {
          "indexed": true,
          "internalType": "address",
          "name": "account",
          "type": "address"
        }
      ],
      "name": "StageAdminRoleRemoved",
      "type": "event"
    },
    {
      "anonymous": false,
      "inputs": [
        {
          "indexed": true,
          "internalType": "address",
          "name": "purchaser",
          "type": "address"
        },
        {
          "indexed": true,
          "internalType": "address",
          "name": "beneficiary",
          "type": "address"
        },
        {
          "indexed": false,
          "internalType": "uint256",
          "name": "value",
          "type": "uint256"
        },
        {
          "indexed": false,
          "internalType": "uint256",
          "name": "amount",
          "type": "uint256"
        }
      ],
      "name": "TokensPurchased",
      "type": "event"
    },
    {
      "anonymous": false,
      "inputs": [
        {
          "indexed": false,
          "internalType": "address",
          "name": "account",
          "type": "address"
        }
      ],
      "name": "Unpaused",
      "type": "event"
    },
    {
      "anonymous": false,
      "inputs": [
        {
          "indexed": true,
          "internalType": "address",
          "name": "account",
          "type": "address"
        }
      ],
      "name": "WhitelistAdminAdded",
      "type": "event"
    },
    {
      "anonymous": false,
      "inputs": [
        {
          "indexed": true,
          "internalType": "address",
          "name": "account",
          "type": "address"
        }
      ],
      "name": "WhitelistAdminRemoved",
      "type": "event"
    },
    {
      "anonymous": false,
      "inputs": [
        {
          "indexed": true,
          "internalType": "address",
          "name": "account",
          "type": "address"
        }
      ],
      "name": "WhitelistedAdded",
      "type": "event"
    },
    {
      "anonymous": false,
      "inputs": [
        {
          "indexed": true,
          "internalType": "address",
          "name": "account",
          "type": "address"
        }
      ],
      "name": "WhitelistedRemoved",
      "type": "event"
    },
    {
      "stateMutability": "payable",
      "type": "fallback"
    },
    {
      "inputs": [],
      "name": "_wallet",
      "outputs": [
        {
          "internalType": "address payable",
          "name": "",
          "type": "address"
        }
      ],
      "stateMutability": "view",
      "type": "function"
    },
    {
      "inputs": [
        {
          "internalType": "address",
          "name": "account",
          "type": "address"
        }
      ],
      "name": "addStageAdmin",
      "outputs": [],
      "stateMutability": "nonpayable",
      "type": "function"
    },
    {
      "inputs": [
        {
          "internalType": "address",
          "name": "account",
          "type": "address"
        }
      ],
      "name": "addWhitelistAdmin",
      "outputs": [],
      "stateMutability": "nonpayable",
      "type": "function"
    },
    {
      "inputs": [
        {
          "internalType": "address[]",
          "name": "accounts",
          "type": "address[]"
        }
      ],
      "name": "addWhitelisted",
      "outputs": [],
      "stateMutability": "nonpayable",
      "type": "function"
    },
    {
      "inputs": [
        {
          "internalType": "address",
          "name": "beneficiary",
          "type": "address"
        }
      ],
      "name": "buyTokens",
      "outputs": [],
      "stateMutability": "payable",
      "type": "function"
    },
    {
      "inputs": [],
      "name": "getRate",
      "outputs": [
        {
          "internalType": "uint256",
          "name": "",
          "type": "uint256"
        }
      ],
      "stateMutability": "view",
      "type": "function"
    },
    {
      "inputs": [],
      "name": "getToken",
      "outputs": [
        {
          "internalType": "contract IERC20",
          "name": "",
          "type": "address"
        }
      ],
      "stateMutability": "view",
      "type": "function"
    },
    {
      "inputs": [],
      "name": "getWallet",
      "outputs": [
        {
          "internalType": "address payable",
          "name": "",
          "type": "address"
        }
      ],
      "stateMutability": "view",
      "type": "function"
    },
    {
      "inputs": [],
      "name": "getWeiRaised",
      "outputs": [
        {
          "internalType": "uint256",
          "name": "",
          "type": "uint256"
        }
      ],
      "stateMutability": "view",
      "type": "function"
    },
    {
      "inputs": [
        {
          "internalType": "address",
          "name": "account",
          "type": "address"
        }
      ],
      "name": "isStageAdmin",
      "outputs": [
        {
          "internalType": "bool",
          "name": "",
          "type": "bool"
        }
      ],
      "stateMutability": "view",
      "type": "function"
    },
    {
      "inputs": [
        {
          "internalType": "address",
          "name": "account",
          "type": "address"
        }
      ],
      "name": "isWhitelistAdmin",
      "outputs": [
        {
          "internalType": "bool",
          "name": "",
          "type": "bool"
        }
      ],
      "stateMutability": "view",
      "type": "function"
    },
    {
      "inputs": [
        {
          "internalType": "address",
          "name": "account",
          "type": "address"
        }
      ],
      "name": "isWhitelisted",
      "outputs": [
        {
          "internalType": "bool",
          "name": "",
          "type": "bool"
        }
      ],
      "stateMutability": "view",
      "type": "function"
    },
    {
      "inputs": [],
      "name": "numberOfStages",
      "outputs": [
        {
          "internalType": "uint256",
          "name": "",
          "type": "uint256"
        }
      ],
      "stateMutability": "view",
      "type": "function"
    },
    {
      "inputs": [],
      "name": "owner",
      "outputs": [
        {
          "internalType": "address",
          "name": "",
          "type": "address"
        }
      ],
      "stateMutability": "view",
      "type": "function"
    },
    {
      "inputs": [],
      "name": "paused",
      "outputs": [
        {
          "internalType": "bool",
          "name": "",
          "type": "bool"
        }
      ],
      "stateMutability": "view",
      "type": "function"
    },
    {
      "inputs": [],
      "name": "remainStageTokens",
      "outputs": [
        {
          "internalType": "uint256",
          "name": "",
          "type": "uint256"
        }
      ],
      "stateMutability": "view",
      "type": "function"
    },
    {
      "inputs": [
        {
          "internalType": "address",
          "name": "account",
          "type": "address"
        }
      ],
      "name": "removeStageAdmin",
      "outputs": [],
      "stateMutability": "nonpayable",
      "type": "function"
    },
    {
      "inputs": [
        {
          "internalType": "address",
          "name": "account",
          "type": "address"
        }
      ],
      "name": "removeWhitelistAdmin",
      "outputs": [],
      "stateMutability": "nonpayable",
      "type": "function"
    },
    {
      "inputs": [
        {
          "internalType": "address",
          "name": "account",
          "type": "address"
        }
      ],
      "name": "removeWhitelisted",
      "outputs": [],
      "stateMutability": "nonpayable",
      "type": "function"
    },
    {
      "inputs": [],
      "name": "renounceOwnership",
      "outputs": [],
      "stateMutability": "nonpayable",
      "type": "function"
    },
    {
      "inputs": [],
      "name": "renounceStageAdmin",
      "outputs": [],
      "stateMutability": "nonpayable",
      "type": "function"
    },
    {
      "inputs": [],
      "name": "renounceWhitelistAdmin",
      "outputs": [],
      "stateMutability": "nonpayable",
      "type": "function"
    },
    {
      "inputs": [],
      "name": "renounceWhitelisted",
      "outputs": [],
      "stateMutability": "nonpayable",
      "type": "function"
    },
    {
      "inputs": [
        {
          "internalType": "address",
          "name": "newOwner",
          "type": "address"
        }
      ],
      "name": "transferOwnership",
      "outputs": [],
      "stateMutability": "nonpayable",
      "type": "function"
    },
    {
      "stateMutability": "payable",
      "type": "receive"
    },
    {
      "inputs": [
        {
          "components": [
            {
              "internalType": "string",
              "name": "name",
              "type": "string"
            },
            {
              "internalType": "bool",
              "name": "isPrivate",
              "type": "bool"
            },
            {
              "internalType": "uint256",
              "name": "cap",
              "type": "uint256"
            },
            {
              "internalType": "uint256",
              "name": "minIndividualCap",
              "type": "uint256"
            },
            {
              "internalType": "uint256",
              "name": "maxIndividualCap",
              "type": "uint256"
            },
            {
              "internalType": "address[]",
              "name": "whitelist",
              "type": "address[]"
            },
            {
              "internalType": "uint256",
              "name": "rate",
              "type": "uint256"
            }
          ],
          "internalType": "struct DefaultCrowdsalev2.StageSettings",
          "name": "settings",
          "type": "tuple"
        },
        {
          "components": [
            {
              "internalType": "address",
              "name": "token",
              "type": "address"
            },
            {
              "internalType": "uint256",
              "name": "rate",
              "type": "uint256"
            }
          ],
          "internalType": "struct DefaultCrowdsalev2.StageExchangeRate[]",
          "name": "exchangeRates_",
          "type": "tuple[]"
        }
      ],
      "name": "startNextStage",
      "outputs": [],
      "stateMutability": "nonpayable",
      "type": "function"
    },
    {
      "inputs": [],
      "name": "pause",
      "outputs": [],
      "stateMutability": "nonpayable",
      "type": "function"
    },
    {
      "inputs": [],
      "name": "stage",
      "outputs": [
        {
          "internalType": "string",
          "name": "",
          "type": "string"
        }
      ],
      "stateMutability": "view",
      "type": "function"
    },
    {
      "inputs": [],
      "name": "cap",
      "outputs": [
        {
          "internalType": "uint256",
          "name": "",
          "type": "uint256"
        }
      ],
      "stateMutability": "view",
      "type": "function"
    },
    {
      "inputs": [
        {
          "internalType": "address",
          "name": "paymentToken",
          "type": "address"
        },
        {
          "internalType": "uint256",
          "name": "amount",
          "type": "uint256"
        },
        {
          "internalType": "address",
          "name": "beneficiary",
          "type": "address"
        }
      ],
      "name": "exchangeTokens",
      "outputs": [],
      "stateMutability": "nonpayable",
      "type": "function"
    },
    {
      "inputs": [
        {
          "internalType": "address",
          "name": "token",
          "type": "address"
        }
      ],
      "name": "findTokenRate",
      "outputs": [
        {
          "internalType": "uint256",
          "name": "",
          "type": "uint256"
        }
      ],
      "stateMutability": "view",
      "type": "function"
    }
  ],
  "bytecode": "0x60806040523480156200001157600080fd5b5060405162004b0a38038062004b0a83398181016040528101906200003791906200069a565b6001838360016000819055506000831162000089576040517f08c379a0000000000000000000000000000000000000000000000000000000008152600401620000809062000757565b60405180910390fd5b600073ffffffffffffffffffffffffffffffffffffffff168273ffffffffffffffffffffffffffffffffffffffff161415620000fc576040517f08c379a0000000000000000000000000000000000000000000000000000000008152600401620000f390620007ef565b60405180910390fd5b600073ffffffffffffffffffffffffffffffffffffffff168173ffffffffffffffffffffffffffffffffffffffff1614156200016f576040517f08c379a0000000000000000000000000000000000000000000000000000000008152600401620001669062000887565b60405180910390fd5b8260038190555081600260006101000a81548173ffffffffffffffffffffffffffffffffffffffff021916908373ffffffffffffffffffffffffffffffffffffffff16021790555080600160006101000a81548173ffffffffffffffffffffffffffffffffffffffff021916908373ffffffffffffffffffffffffffffffffffffffff1602179055505050506200021b6200020f6200028e60201b60201c565b6200029660201b60201c565b6200023b6200022f6200028e60201b60201c565b6200035c60201b60201c565b6200025b6200024f6200028e60201b60201c565b620003bd60201b60201c565b6000600b60006101000a81548160ff0219169083151502179055506000600c8190555080600d81905550505050620009b3565b600033905090565b6000600760009054906101000a900473ffffffffffffffffffffffffffffffffffffffff16905081600760006101000a81548173ffffffffffffffffffffffffffffffffffffffff021916908373ffffffffffffffffffffffffffffffffffffffff1602179055508173ffffffffffffffffffffffffffffffffffffffff168173ffffffffffffffffffffffffffffffffffffffff167f8be0079c531659141344cd1fd0a4f28419497f9722a3daafe3b4186f6b6457e060405160405180910390a35050565b620003778160086200041e60201b620018971790919060201c565b8073ffffffffffffffffffffffffffffffffffffffff167f22380c05984257a1cb900161c713dd71d39e74820f1aea43bd3f1bdd2096129960405160405180910390a250565b620003d881600a6200041e60201b620018971790919060201c565b8073ffffffffffffffffffffffffffffffffffffffff167fa725686d021bc23476b2f5d62f9f0b735a01f83c715ee6193e4177617d2715ba60405160405180910390a250565b620004308282620004d160201b60201c565b1562000473576040517f08c379a00000000000000000000000000000000000000000000000000000000081526004016200046a90620008f9565b60405180910390fd5b60018260000160008373ffffffffffffffffffffffffffffffffffffffff1673ffffffffffffffffffffffffffffffffffffffff16815260200190815260200160002060006101000a81548160ff0219169083151502179055505050565b60008073ffffffffffffffffffffffffffffffffffffffff168273ffffffffffffffffffffffffffffffffffffffff16141562000545576040517f08c379a00000000000000000000000000000000000000000000000000000000081526004016200053c9062000991565b60405180910390fd5b8260000160008373ffffffffffffffffffffffffffffffffffffffff1673ffffffffffffffffffffffffffffffffffffffff16815260200190815260200160002060009054906101000a900460ff16905092915050565b600080fd5b600073ffffffffffffffffffffffffffffffffffffffff82169050919050565b6000620005ce82620005a1565b9050919050565b620005e081620005c1565b8114620005ec57600080fd5b50565b6000815190506200060081620005d5565b92915050565b60006200061382620005a1565b9050919050565b6000620006278262000606565b9050919050565b62000639816200061a565b81146200064557600080fd5b50565b60008151905062000659816200062e565b92915050565b6000819050919050565b62000674816200065f565b81146200068057600080fd5b50565b600081519050620006948162000669565b92915050565b600080600060608486031215620006b657620006b56200059c565b5b6000620006c686828701620005ef565b9350506020620006d98682870162000648565b9250506040620006ec8682870162000683565b9150509250925092565b600082825260208201905092915050565b7f43726f776473616c653a20726174652069732030000000000000000000000000600082015250565b60006200073f601483620006f6565b91506200074c8262000707565b602082019050919050565b60006020820190508181036000830152620007728162000730565b9050919050565b7f43726f776473616c653a2077616c6c657420697320746865207a65726f20616460008201527f6472657373000000000000000000000000000000000000000000000000000000602082015250565b6000620007d7602583620006f6565b9150620007e48262000779565b604082019050919050565b600060208201905081810360008301526200080a81620007c8565b9050919050565b7f43726f776473616c653a20746f6b656e20697320746865207a65726f2061646460008201527f7265737300000000000000000000000000000000000000000000000000000000602082015250565b60006200086f602483620006f6565b91506200087c8262000811565b604082019050919050565b60006020820190508181036000830152620008a28162000860565b9050919050565b7f526f6c65733a206163636f756e7420616c72656164792068617320726f6c6500600082015250565b6000620008e1601f83620006f6565b9150620008ee82620008a9565b602082019050919050565b600060208201905081810360008301526200091481620008d2565b9050919050565b7f526f6c65733a206163636f756e7420697320746865207a65726f20616464726560008201527f7373000000000000000000000000000000000000000000000000000000000000602082015250565b600062000979602283620006f6565b915062000986826200091b565b604082019050919050565b60006020820190508181036000830152620009ac816200096a565b9050919050565b61414780620009c36000396000f3fe6080604052600436106101d15760003560e01c80637362d9c8116100f7578063d5026eba11610095578063ec8ac4d811610064578063ec8ac4d814610642578063ee291ff21461065e578063f2fde38b14610687578063ff62a9e7146106b0576101e8565b8063d5026eba146105ae578063d6cd9473146105d7578063d9b4476b146105ee578063e6b9b01e14610617576101e8565b8063bb5f747b116100d1578063bb5f747b146104de578063c040e6b81461051b578063d13a73c414610546578063d197eb1b14610571576101e8565b80637362d9c8146104735780638456cb591461049c5780638da5cb5b146104b3576101e8565b80634b5471cd1161016f578063679aefce1161013e578063679aefce146103cb5780636897e974146103f6578063715018a61461041f578063731304e014610436576101e8565b80634b5471cd146103355780634c5a628c1461035e5780635c975abb14610375578063610757e4146103a0576101e8565b8063291d9549116101ab578063291d954914610279578063355274ea146102a25780633af32abf146102cd57806340582f131461030a576101e8565b806313299604146101fa57806321df0da714610225578063227275ef14610250576101e8565b366101e8576101e66101e16106c7565b6106cf565b005b6101f86101f36106c7565b6106cf565b005b34801561020657600080fd5b5061020f610800565b60405161021c91906129b1565b60405180910390f35b34801561023157600080fd5b5061023a61082a565b6040516102479190612a2b565b60405180910390f35b34801561025c57600080fd5b5061027760048036038101906102729190612bf1565b610854565b005b34801561028557600080fd5b506102a0600480360381019061029b9190612c3a565b6108af565b005b3480156102ae57600080fd5b506102b761090a565b6040516102c49190612c80565b60405180910390f35b3480156102d957600080fd5b506102f460048036038101906102ef9190612c3a565b610917565b6040516103019190612cb6565b60405180910390f35b34801561031657600080fd5b5061031f610934565b60405161032c9190612c80565b60405180910390f35b34801561034157600080fd5b5061035c60048036038101906103579190612fe7565b61093e565b005b34801561036a57600080fd5b50610373610d4d565b005b34801561038157600080fd5b5061038a610d5f565b6040516103979190612cb6565b60405180910390f35b3480156103ac57600080fd5b506103b5610d76565b6040516103c291906129b1565b60405180910390f35b3480156103d757600080fd5b506103e0610d9c565b6040516103ed9190612c80565b60405180910390f35b34801561040257600080fd5b5061041d60048036038101906104189190612c3a565b610da6565b005b34801561042b57600080fd5b50610434610e2e565b005b34801561044257600080fd5b5061045d60048036038101906104589190612c3a565b610eb6565b60405161046a9190612c80565b60405180910390f35b34801561047f57600080fd5b5061049a60048036038101906104959190612c3a565b610ef2565b005b3480156104a857600080fd5b506104b1610f7a565b005b3480156104bf57600080fd5b506104c861101b565b6040516104d5919061306e565b60405180910390f35b3480156104ea57600080fd5b5061050560048036038101906105009190612c3a565b611045565b6040516105129190612cb6565b60405180910390f35b34801561052757600080fd5b50610530611062565b60405161053d9190613111565b60405180910390f35b34801561055257600080fd5b5061055b6110f7565b6040516105689190612c80565b60405180910390f35b34801561057d57600080fd5b5061059860048036038101906105939190612c3a565b6110fd565b6040516105a59190612cb6565b60405180910390f35b3480156105ba57600080fd5b506105d560048036038101906105d09190613133565b61111a565b005b3480156105e357600080fd5b506105ec6116bf565b005b3480156105fa57600080fd5b5061061560048036038101906106109190612c3a565b6116d1565b005b34801561062357600080fd5b5061062c61172c565b6040516106399190612c80565b60405180910390f35b61065c60048036038101906106579190612c3a565b6106cf565b005b34801561066a57600080fd5b5061068560048036038101906106809190612c3a565b611732565b005b34801561069357600080fd5b506106ae60048036038101906106a99190612c3a565b61178d565b005b3480156106bc57600080fd5b506106c5611885565b005b600033905090565b60026000541415610715576040517f08c379a000000000000000000000000000000000000000000000000000000000815260040161070c906131d2565b60405180910390fd5b60026000819055506000349050600061072d8261193f565b90506107388361195d565b610743838383611a4a565b61075882600554611cf790919063ffffffff16565b6005819055506107688382611d0d565b8273ffffffffffffffffffffffffffffffffffffffff166107876106c7565b73ffffffffffffffffffffffffffffffffffffffff167f6faf93231a456e552dbc9961f58d9713ee4f2e69d15f1975b050ef0911053a7b84846040516107ce9291906131f2565b60405180910390a36107e1838383611d1b565b6107e9611e9e565b6107f38383611f09565b5050600160008190555050565b6000600260009054906101000a900473ffffffffffffffffffffffffffffffffffffffff16905090565b6000600160009054906101000a900473ffffffffffffffffffffffffffffffffffffffff16905090565b61086461085f6106c7565b611045565b6108a3576040517f08c379a000000000000000000000000000000000000000000000000000000000815260040161089a9061328d565b60405180910390fd5b6108ac81611f0d565b50565b6108bf6108ba6106c7565b611045565b6108fe576040517f08c379a00000000000000000000000000000000000000000000000000000000081526004016108f59061328d565b60405180910390fd5b61090781611fbb565b50565b6000600f60020154905090565b600061092d82600961201590919063ffffffff16565b9050919050565b6000600554905090565b61094e6109496106c7565b6110fd565b61098d576040517f08c379a00000000000000000000000000000000000000000000000000000000081526004016109849061331f565b60405180910390fd5b600d54600c5411156109d4576040517f08c379a00000000000000000000000000000000000000000000000000000000081526004016109cb906133b1565b60405180910390fd5b6109e18260c001516120dd565b600e8290806001815401808255809150506001900390600052602060002090600702016000909190919091506000820151816000019080519060200190610a2992919061278c565b5060208201518160010160006101000a81548160ff02191690831515021790555060408201518160020155606082015181600301556080820151816004015560a0820151816005019080519060200190610a84929190612812565b5060c08201518160060155505060186000908060018154018082558091505060019003906000526020600020016000909190919091505581600f6000820151816000019080519060200190610ada92919061278c565b5060208201518160010160006101000a81548160ff02191690831515021790555060408201518160020155606082015181600301556080820151816004015560a0820151816005019080519060200190610b35929190612812565b5060c082015181600601559050506001600c6000828254610b569190613400565b92505081905550610b656120e7565b610b728260a00151610854565b60176000610b80919061289c565b60005b8151811015610cf0576017828281518110610ba157610ba0613456565b5b6020026020010151908060018154018082558091505060019003906000526020600020906002020160009091909190915060008201518160000160006101000a81548173ffffffffffffffffffffffffffffffffffffffff021916908373ffffffffffffffffffffffffffffffffffffffff160217905550602082015181600101555050601660006001600c54610c389190613485565b8152602001908152602001600020828281518110610c5957610c58613456565b5b6020026020010151908060018154018082558091505060019003906000526020600020906002020160009091909190915060008201518160000160006101000a81548173ffffffffffffffffffffffffffffffffffffffff021916908373ffffffffffffffffffffffffffffffffffffffff1602179055506020820151816001015550508080610ce8906134b9565b915050610b83565b508160400151600681905550610d04610d5f565b15610d1257610d116120e9565b5b7f6eb802d1714357dcea5886ae35af662866c3943c00450fd19ac4d7c7d421976f82604051610d4191906136cb565b60405180910390a15050565b610d5d610d586106c7565b61218b565b565b6000600b60009054906101000a900460ff16905090565b600260009054906101000a900473ffffffffffffffffffffffffffffffffffffffff1681565b6000600354905090565b610dae6106c7565b73ffffffffffffffffffffffffffffffffffffffff16610dcc61101b565b73ffffffffffffffffffffffffffffffffffffffff1614610e22576040517f08c379a0000000000000000000000000000000000000000000000000000000008152600401610e1990613739565b60405180910390fd5b610e2b8161218b565b50565b610e366106c7565b73ffffffffffffffffffffffffffffffffffffffff16610e5461101b565b73ffffffffffffffffffffffffffffffffffffffff1614610eaa576040517f08c379a0000000000000000000000000000000000000000000000000000000008152600401610ea190613739565b60405180910390fd5b610eb460006121e5565b565b600080610ec2836122ab565b905060178181548110610ed857610ed7613456565b5b906000526020600020906002020160010154915050919050565b610efa6106c7565b73ffffffffffffffffffffffffffffffffffffffff16610f1861101b565b73ffffffffffffffffffffffffffffffffffffffff1614610f6e576040517f08c379a0000000000000000000000000000000000000000000000000000000008152600401610f6590613739565b60405180910390fd5b610f7781612396565b50565b610f8a610f856106c7565b6110fd565b610fc9576040517f08c379a0000000000000000000000000000000000000000000000000000000008152600401610fc09061331f565b60405180910390fd5b610fd1610d5f565b15611011576040517f08c379a0000000000000000000000000000000000000000000000000000000008152600401611008906137a5565b60405180910390fd5b6110196123f0565b565b6000600760009054906101000a900473ffffffffffffffffffffffffffffffffffffffff16905090565b600061105b82600861201590919063ffffffff16565b9050919050565b6060600f6000018054611074906137f4565b80601f01602080910402602001604051908101604052809291908181526020018280546110a0906137f4565b80156110ed5780601f106110c2576101008083540402835291602001916110ed565b820191906000526020600020905b8154815290600101906020018083116110d057829003601f168201915b5050505050905090565b600d5481565b600061111382600a61201590919063ffffffff16565b9050919050565b60026000541415611160576040517f08c379a0000000000000000000000000000000000000000000000000000000008152600401611157906131d2565b60405180910390fd5b6002600081905550818373ffffffffffffffffffffffffffffffffffffffff1663dd62ed3e61118d6106c7565b306040518363ffffffff1660e01b81526004016111ab929190613826565b60206040518083038186803b1580156111c357600080fd5b505afa1580156111d7573d6000803e3d6000fd5b505050506040513d601f19601f820116820180604052508101906111fb9190613864565b101561123c576040517f08c379a0000000000000000000000000000000000000000000000000000000008152600401611233906138dd565b60405180910390fd5b600061124784610eb6565b9050600061125e828561249390919063ffffffff16565b90506112698361195d565b611274838583611a4a565b60006001600c546112859190613485565b90506112f582600460008773ffffffffffffffffffffffffffffffffffffffff1673ffffffffffffffffffffffffffffffffffffffff16815260200190815260200160002083815481106112dc576112db613456565b5b9060005260206000200154611cf790919063ffffffff16565b600460008673ffffffffffffffffffffffffffffffffffffffff1673ffffffffffffffffffffffffffffffffffffffff168152602001908152602001600020828154811061134657611345613456565b5b90600052602060002001819055506113a685601a60008973ffffffffffffffffffffffffffffffffffffffff1673ffffffffffffffffffffffffffffffffffffffff16815260200190815260200160002054611cf790919063ffffffff16565b601a60008873ffffffffffffffffffffffffffffffffffffffff1673ffffffffffffffffffffffffffffffffffffffff1681526020019081526020016000208190555061144c856019600084815260200190815260200160002060008973ffffffffffffffffffffffffffffffffffffffff1673ffffffffffffffffffffffffffffffffffffffff16815260200190815260200160002054611cf790919063ffffffff16565b6019600083815260200190815260200160002060008873ffffffffffffffffffffffffffffffffffffffff1673ffffffffffffffffffffffffffffffffffffffff168152602001908152602001600020819055506114b5826006546124a990919063ffffffff16565b6006819055508373ffffffffffffffffffffffffffffffffffffffff168473ffffffffffffffffffffffffffffffffffffffff167f6faf93231a456e552dbc9961f58d9713ee4f2e69d15f1975b050ef0911053a7b878560405161151a9291906131f2565b60405180910390a38573ffffffffffffffffffffffffffffffffffffffff166323b872dd6115466106c7565b600260009054906101000a900473ffffffffffffffffffffffffffffffffffffffff16886040518463ffffffff1660e01b81526004016115889392919061391e565b602060405180830381600087803b1580156115a257600080fd5b505af11580156115b6573d6000803e3d6000fd5b505050506040513d601f19601f820116820180604052508101906115da919061396a565b50600160009054906101000a900473ffffffffffffffffffffffffffffffffffffffff1673ffffffffffffffffffffffffffffffffffffffff166323b872dd600260009054906101000a900473ffffffffffffffffffffffffffffffffffffffff1686856040518463ffffffff1660e01b815260040161165c93929190613997565b602060405180830381600087803b15801561167657600080fd5b505af115801561168a573d6000803e3d6000fd5b505050506040513d601f19601f820116820180604052508101906116ae919061396a565b505050506001600081905550505050565b6116cf6116ca6106c7565b611fbb565b565b6116e16116dc6106c7565b611045565b611720576040517f08c379a00000000000000000000000000000000000000000000000000000000081526004016117179061328d565b60405180910390fd5b611729816124bf565b50565b60065481565b61174261173d6106c7565b611045565b611781576040517f08c379a00000000000000000000000000000000000000000000000000000000081526004016117789061328d565b60405180910390fd5b61178a81612396565b50565b6117956106c7565b73ffffffffffffffffffffffffffffffffffffffff166117b361101b565b73ffffffffffffffffffffffffffffffffffffffff1614611809576040517f08c379a000000000000000000000000000000000000000000000000000000000815260040161180090613739565b60405180910390fd5b600073ffffffffffffffffffffffffffffffffffffffff168173ffffffffffffffffffffffffffffffffffffffff161415611879576040517f08c379a000000000000000000000000000000000000000000000000000000000815260040161187090613a40565b60405180910390fd5b611882816121e5565b50565b6118956118906106c7565b6124bf565b565b6118a18282612015565b156118e1576040517f08c379a00000000000000000000000000000000000000000000000000000000081526004016118d890613aac565b60405180910390fd5b60018260000160008373ffffffffffffffffffffffffffffffffffffffff1673ffffffffffffffffffffffffffffffffffffffff16815260200190815260200160002060006101000a81548160ff0219169083151502179055505050565b60006119566003548361251990919063ffffffff16565b9050919050565b6000600460008373ffffffffffffffffffffffffffffffffffffffff1673ffffffffffffffffffffffffffffffffffffffff168152602001908152602001600020805490501415611a4757600d5467ffffffffffffffff8111156119c4576119c3612a70565b5b6040519080825280602002602001820160405280156119f25781602001602082028036833780820191505090505b50600460008373ffffffffffffffffffffffffffffffffffffffff1673ffffffffffffffffffffffffffffffffffffffff1681526020019081526020016000209080519060200190611a459291906128c0565b505b50565b611a52610d5f565b15611a92576040517f08c379a0000000000000000000000000000000000000000000000000000000008152600401611a89906137a5565b60405180910390fd5b611a9d83838361252f565b6000600f6006015410158015611ab557506000600c54115b611af4576040517f08c379a0000000000000000000000000000000000000000000000000000000008152600401611aeb90613b18565b60405180910390fd5b60011515600f60010160009054906101000a900460ff161515141580611b1f5750611b1e83610917565b5b611b5e576040517f08c379a0000000000000000000000000000000000000000000000000000000008152600401611b5590613baa565b60405180910390fd5b600654811115611ba3576040517f08c379a0000000000000000000000000000000000000000000000000000000008152600401611b9a90613c16565b60405180910390fd5b600f60030154611c2582600460008773ffffffffffffffffffffffffffffffffffffffff1673ffffffffffffffffffffffffffffffffffffffff1681526020019081526020016000206001600c54611bfb9190613485565b81548110611c0c57611c0b613456565b5b9060005260206000200154611cf790919063ffffffff16565b10158015611cb35750600f60040154611cb082600460008773ffffffffffffffffffffffffffffffffffffffff1673ffffffffffffffffffffffffffffffffffffffff1681526020019081526020016000206001600c54611c869190613485565b81548110611c9757611c96613456565b5b9060005260206000200154611cf790919063ffffffff16565b11155b611cf2576040517f08c379a0000000000000000000000000000000000000000000000000000000008152600401611ce990613ca8565b60405180910390fd5b505050565b60008183611d059190613400565b905092915050565b611d17828261262c565b5050565b611d268383836126e0565b611da281600460008673ffffffffffffffffffffffffffffffffffffffff1673ffffffffffffffffffffffffffffffffffffffff1681526020019081526020016000206001600c54611d789190613485565b81548110611d8957611d88613456565b5b9060005260206000200154611cf790919063ffffffff16565b600460008573ffffffffffffffffffffffffffffffffffffffff1673ffffffffffffffffffffffffffffffffffffffff1681526020019081526020016000206001600c54611df09190613485565b81548110611e0157611e00613456565b5b9060005260206000200181905550611e4e8260186001600c54611e249190613485565b81548110611e3557611e34613456565b5b9060005260206000200154611cf790919063ffffffff16565b60186001600c54611e5f9190613485565b81548110611e7057611e6f613456565b5b9060005260206000200181905550611e93816006546124a990919063ffffffff16565b600681905550505050565b600260009054906101000a900473ffffffffffffffffffffffffffffffffffffffff1673ffffffffffffffffffffffffffffffffffffffff166108fc349081150290604051600060405180830381858888f19350505050158015611f06573d6000803e3d6000fd5b50565b5050565b60005b8151811015611fb757611f47828281518110611f2f57611f2e613456565b5b6020026020010151600961189790919063ffffffff16565b818181518110611f5a57611f59613456565b5b602002602001015173ffffffffffffffffffffffffffffffffffffffff167fee1504a83b6d4a361f4c1dc78ab59bfa30d6a3b6612c403e86bb01ef2984295f60405160405180910390a28080611faf906134b9565b915050611f10565b5050565b611fcf8160096126e590919063ffffffff16565b8073ffffffffffffffffffffffffffffffffffffffff167f270d9b30cf5b0793bbfd54c9d5b94aeb49462b8148399000265144a8722da6b660405160405180910390a250565b60008073ffffffffffffffffffffffffffffffffffffffff168273ffffffffffffffffffffffffffffffffffffffff161415612086576040517f08c379a000000000000000000000000000000000000000000000000000000000815260040161207d90613d3a565b60405180910390fd5b8260000160008373ffffffffffffffffffffffffffffffffffffffff1673ffffffffffffffffffffffffffffffffffffffff16815260200190815260200160002060009054906101000a900460ff16905092915050565b8060038190555050565b565b6120f1610d5f565b612130576040517f08c379a000000000000000000000000000000000000000000000000000000000815260040161212790613da6565b60405180910390fd5b6000600b60006101000a81548160ff0219169083151502179055507f5db9ee0a495bf2e6ff9c91a7834c1ba4fdd244a5e8aa4e537bd38aeae4b073aa6121746106c7565b604051612181919061306e565b60405180910390a1565b61219f8160086126e590919063ffffffff16565b8073ffffffffffffffffffffffffffffffffffffffff167f0a8eb35e5ca14b3d6f28e4abf2f128dbab231a58b56e89beb5d636115001e16560405160405180910390a250565b6000600760009054906101000a900473ffffffffffffffffffffffffffffffffffffffff16905081600760006101000a81548173ffffffffffffffffffffffffffffffffffffffff021916908373ffffffffffffffffffffffffffffffffffffffff1602179055508173ffffffffffffffffffffffffffffffffffffffff168173ffffffffffffffffffffffffffffffffffffffff167f8be0079c531659141344cd1fd0a4f28419497f9722a3daafe3b4186f6b6457e060405160405180910390a35050565b600080600090505b601780549050811015612355578273ffffffffffffffffffffffffffffffffffffffff16601782815481106122eb576122ea613456565b5b906000526020600020906002020160000160009054906101000a900473ffffffffffffffffffffffffffffffffffffffff1673ffffffffffffffffffffffffffffffffffffffff1614156123425780915050612391565b808061234d906134b9565b9150506122b3565b506040517f08c379a000000000000000000000000000000000000000000000000000000000815260040161238890613e12565b60405180910390fd5b919050565b6123aa81600861189790919063ffffffff16565b8073ffffffffffffffffffffffffffffffffffffffff167f22380c05984257a1cb900161c713dd71d39e74820f1aea43bd3f1bdd2096129960405160405180910390a250565b6123f8610d5f565b15612438576040517f08c379a000000000000000000000000000000000000000000000000000000000815260040161242f906137a5565b60405180910390fd5b6001600b60006101000a81548160ff0219169083151502179055507f62e78cea01bee320cd4e420270b5ea74000d11b0c9f74754ebdbfc544b05a25861247c6106c7565b604051612489919061306e565b60405180910390a1565b600081836124a19190613e61565b905092915050565b600081836124b79190613485565b905092915050565b6124d381600a6126e590919063ffffffff16565b8073ffffffffffffffffffffffffffffffffffffffff167fad6228a09eb1df2086c95460e8f1ac7a7f031d74280f897c659ba312419a1e8960405160405180910390a250565b600081836125279190613e92565b905092915050565b600073ffffffffffffffffffffffffffffffffffffffff168373ffffffffffffffffffffffffffffffffffffffff16141561259f576040517f08c379a000000000000000000000000000000000000000000000000000000000815260040161259690613f5e565b60405180910390fd5b60008214156125e3576040517f08c379a00000000000000000000000000000000000000000000000000000000081526004016125da90613fca565b60405180910390fd5b6000811415612627576040517f08c379a000000000000000000000000000000000000000000000000000000000815260040161261e90614036565b60405180910390fd5b505050565b600160009054906101000a900473ffffffffffffffffffffffffffffffffffffffff1673ffffffffffffffffffffffffffffffffffffffff1663a9059cbb83836040518363ffffffff1660e01b8152600401612689929190614056565b602060405180830381600087803b1580156126a357600080fd5b505af11580156126b7573d6000803e3d6000fd5b505050506040513d601f19601f820116820180604052508101906126db919061396a565b505050565b505050565b6126ef8282612015565b61272e576040517f08c379a0000000000000000000000000000000000000000000000000000000008152600401612725906140f1565b60405180910390fd5b60008260000160008373ffffffffffffffffffffffffffffffffffffffff1673ffffffffffffffffffffffffffffffffffffffff16815260200190815260200160002060006101000a81548160ff0219169083151502179055505050565b828054612798906137f4565b90600052602060002090601f0160209004810192826127ba5760008555612801565b82601f106127d357805160ff1916838001178555612801565b82800160010185558215612801579182015b828111156128005782518255916020019190600101906127e5565b5b50905061280e919061290d565b5090565b82805482825590600052602060002090810192821561288b579160200282015b8281111561288a5782518260006101000a81548173ffffffffffffffffffffffffffffffffffffffff021916908373ffffffffffffffffffffffffffffffffffffffff16021790555091602001919060010190612832565b5b509050612898919061290d565b5090565b50805460008255600202906000526020600020908101906128bd919061292a565b50565b8280548282559060005260206000209081019282156128fc579160200282015b828111156128fb5782518255916020019190600101906128e0565b5b509050612909919061290d565b5090565b5b8082111561292657600081600090555060010161290e565b5090565b5b8082111561296c57600080820160006101000a81549073ffffffffffffffffffffffffffffffffffffffff021916905560018201600090555060020161292b565b5090565b600073ffffffffffffffffffffffffffffffffffffffff82169050919050565b600061299b82612970565b9050919050565b6129ab81612990565b82525050565b60006020820190506129c660008301846129a2565b92915050565b6000819050919050565b60006129f16129ec6129e784612970565b6129cc565b612970565b9050919050565b6000612a03826129d6565b9050919050565b6000612a15826129f8565b9050919050565b612a2581612a0a565b82525050565b6000602082019050612a406000830184612a1c565b92915050565b6000604051905090565b600080fd5b600080fd5b600080fd5b6000601f19601f8301169050919050565b7f4e487b7100000000000000000000000000000000000000000000000000000000600052604160045260246000fd5b612aa882612a5f565b810181811067ffffffffffffffff82111715612ac757612ac6612a70565b5b80604052505050565b6000612ada612a46565b9050612ae68282612a9f565b919050565b600067ffffffffffffffff821115612b0657612b05612a70565b5b602082029050602081019050919050565b600080fd5b6000612b2782612970565b9050919050565b612b3781612b1c565b8114612b4257600080fd5b50565b600081359050612b5481612b2e565b92915050565b6000612b6d612b6884612aeb565b612ad0565b90508083825260208201905060208402830185811115612b9057612b8f612b17565b5b835b81811015612bb95780612ba58882612b45565b845260208401935050602081019050612b92565b5050509392505050565b600082601f830112612bd857612bd7612a5a565b5b8135612be8848260208601612b5a565b91505092915050565b600060208284031215612c0757612c06612a50565b5b600082013567ffffffffffffffff811115612c2557612c24612a55565b5b612c3184828501612bc3565b91505092915050565b600060208284031215612c5057612c4f612a50565b5b6000612c5e84828501612b45565b91505092915050565b6000819050919050565b612c7a81612c67565b82525050565b6000602082019050612c956000830184612c71565b92915050565b60008115159050919050565b612cb081612c9b565b82525050565b6000602082019050612ccb6000830184612ca7565b92915050565b600080fd5b600080fd5b600080fd5b600067ffffffffffffffff821115612cfb57612cfa612a70565b5b612d0482612a5f565b9050602081019050919050565b82818337600083830152505050565b6000612d33612d2e84612ce0565b612ad0565b905082815260208101848484011115612d4f57612d4e612cdb565b5b612d5a848285612d11565b509392505050565b600082601f830112612d7757612d76612a5a565b5b8135612d87848260208601612d20565b91505092915050565b612d9981612c9b565b8114612da457600080fd5b50565b600081359050612db681612d90565b92915050565b612dc581612c67565b8114612dd057600080fd5b50565b600081359050612de281612dbc565b92915050565b600060e08284031215612dfe57612dfd612cd1565b5b612e0860e0612ad0565b9050600082013567ffffffffffffffff811115612e2857612e27612cd6565b5b612e3484828501612d62565b6000830152506020612e4884828501612da7565b6020830152506040612e5c84828501612dd3565b6040830152506060612e7084828501612dd3565b6060830152506080612e8484828501612dd3565b60808301525060a082013567ffffffffffffffff811115612ea857612ea7612cd6565b5b612eb484828501612bc3565b60a08301525060c0612ec884828501612dd3565b60c08301525092915050565b600067ffffffffffffffff821115612eef57612eee612a70565b5b602082029050602081019050919050565b600060408284031215612f1657612f15612cd1565b5b612f206040612ad0565b90506000612f3084828501612b45565b6000830152506020612f4484828501612dd3565b60208301525092915050565b6000612f63612f5e84612ed4565b612ad0565b90508083825260208201905060408402830185811115612f8657612f85612b17565b5b835b81811015612faf5780612f9b8882612f00565b845260208401935050604081019050612f88565b5050509392505050565b600082601f830112612fce57612fcd612a5a565b5b8135612fde848260208601612f50565b91505092915050565b60008060408385031215612ffe57612ffd612a50565b5b600083013567ffffffffffffffff81111561301c5761301b612a55565b5b61302885828601612de8565b925050602083013567ffffffffffffffff81111561304957613048612a55565b5b61305585828601612fb9565b9150509250929050565b61306881612b1c565b82525050565b6000602082019050613083600083018461305f565b92915050565b600081519050919050565b600082825260208201905092915050565b60005b838110156130c35780820151818401526020810190506130a8565b838111156130d2576000848401525b50505050565b60006130e382613089565b6130ed8185613094565b93506130fd8185602086016130a5565b61310681612a5f565b840191505092915050565b6000602082019050818103600083015261312b81846130d8565b905092915050565b60008060006060848603121561314c5761314b612a50565b5b600061315a86828701612b45565b935050602061316b86828701612dd3565b925050604061317c86828701612b45565b9150509250925092565b7f5265656e7472616e637947756172643a207265656e7472616e742063616c6c00600082015250565b60006131bc601f83613094565b91506131c782613186565b602082019050919050565b600060208201905081810360008301526131eb816131af565b9050919050565b60006040820190506132076000830185612c71565b6132146020830184612c71565b9392505050565b7f57686974656c69737441646d696e526f6c653a2063616c6c657220646f65732060008201527f6e6f742068617665207468652057686974656c69737441646d696e20726f6c65602082015250565b6000613277604083613094565b91506132828261321b565b604082019050919050565b600060208201905081810360008301526132a68161326a565b9050919050565b7f537461676541646d696e526f6c653a2063616c6c657220646f6573206e6f742060008201527f686176652074686520537461676541646d696e526f6c6520726f6c6500000000602082015250565b6000613309603c83613094565b9150613314826132ad565b604082019050919050565b60006020820190508181036000830152613338816132fc565b9050919050565b7f43726f776473616c653a2053746167652065786365656473207374616765206c60008201527f696d697400000000000000000000000000000000000000000000000000000000602082015250565b600061339b602483613094565b91506133a68261333f565b604082019050919050565b600060208201905081810360008301526133ca8161338e565b9050919050565b7f4e487b7100000000000000000000000000000000000000000000000000000000600052601160045260246000fd5b600061340b82612c67565b915061341683612c67565b9250827fffffffffffffffffffffffffffffffffffffffffffffffffffffffffffffffff0382111561344b5761344a6133d1565b5b828201905092915050565b7f4e487b7100000000000000000000000000000000000000000000000000000000600052603260045260246000fd5b600061349082612c67565b915061349b83612c67565b9250828210156134ae576134ad6133d1565b5b828203905092915050565b60006134c482612c67565b91507fffffffffffffffffffffffffffffffffffffffffffffffffffffffffffffffff8214156134f7576134f66133d1565b5b600182019050919050565b600082825260208201905092915050565b600061351e82613089565b6135288185613502565b93506135388185602086016130a5565b61354181612a5f565b840191505092915050565b61355581612c9b565b82525050565b61356481612c67565b82525050565b600081519050919050565b600082825260208201905092915050565b6000819050602082019050919050565b61359f81612b1c565b82525050565b60006135b18383613596565b60208301905092915050565b6000602082019050919050565b60006135d58261356a565b6135df8185613575565b93506135ea83613586565b8060005b8381101561361b57815161360288826135a5565b975061360d836135bd565b9250506001810190506135ee565b5085935050505092915050565b600060e08301600083015184820360008601526136458282613513565b915050602083015161365a602086018261354c565b50604083015161366d604086018261355b565b506060830151613680606086018261355b565b506080830151613693608086018261355b565b5060a083015184820360a08601526136ab82826135ca565b91505060c08301516136c060c086018261355b565b508091505092915050565b600060208201905081810360008301526136e58184613628565b905092915050565b7f4f776e61626c653a2063616c6c6572206973206e6f7420746865206f776e6572600082015250565b6000613723602083613094565b915061372e826136ed565b602082019050919050565b6000602082019050818103600083015261375281613716565b9050919050565b7f5061757361626c653a2070617573656400000000000000000000000000000000600082015250565b600061378f601083613094565b915061379a82613759565b602082019050919050565b600060208201905081810360008301526137be81613782565b9050919050565b7f4e487b7100000000000000000000000000000000000000000000000000000000600052602260045260246000fd5b6000600282049050600182168061380c57607f821691505b602082108114156138205761381f6137c5565b5b50919050565b600060408201905061383b600083018561305f565b613848602083018461305f565b9392505050565b60008151905061385e81612dbc565b92915050565b60006020828403121561387a57613879612a50565b5b60006138888482850161384f565b91505092915050565b7f496e76616c696420746f6b656e20616c6c6f77616e6365000000000000000000600082015250565b60006138c7601783613094565b91506138d282613891565b602082019050919050565b600060208201905081810360008301526138f6816138ba565b9050919050565b6000613908826129f8565b9050919050565b613918816138fd565b82525050565b6000606082019050613933600083018661305f565b613940602083018561390f565b61394d6040830184612c71565b949350505050565b60008151905061396481612d90565b92915050565b6000602082840312156139805761397f612a50565b5b600061398e84828501613955565b91505092915050565b60006060820190506139ac600083018661390f565b6139b9602083018561305f565b6139c66040830184612c71565b949350505050565b7f4f776e61626c653a206e6577206f776e657220697320746865207a65726f206160008201527f6464726573730000000000000000000000000000000000000000000000000000602082015250565b6000613a2a602683613094565b9150613a35826139ce565b604082019050919050565b60006020820190508181036000830152613a5981613a1d565b9050919050565b7f526f6c65733a206163636f756e7420616c72656164792068617320726f6c6500600082015250565b6000613a96601f83613094565b9150613aa182613a60565b602082019050919050565b60006020820190508181036000830152613ac581613a89565b9050919050565b7f43726f776473616c653a205374616765206973206e6f74206163746976650000600082015250565b6000613b02601e83613094565b9150613b0d82613acc565b602082019050919050565b60006020820190508181036000830152613b3181613af5565b9050919050565b7f4f6e676f696e6720707269766174652073616c653a2062656e6566656369617260008201527f79206973206e6f74207768697465206c69737465640000000000000000000000602082015250565b6000613b94603583613094565b9150613b9f82613b38565b604082019050919050565b60006020820190508181036000830152613bc381613b87565b9050919050565b7f43617070656443726f776473616c653a20636170206578636565646564000000600082015250565b6000613c00601d83613094565b9150613c0b82613bca565b602082019050919050565b60006020820190508181036000830152613c2f81613bf3565b9050919050565b7f43726f776473616c653a20496e646976696475616c20636170206c696d69742060008201527f776173206e6f74206d6574000000000000000000000000000000000000000000602082015250565b6000613c92602b83613094565b9150613c9d82613c36565b604082019050919050565b60006020820190508181036000830152613cc181613c85565b9050919050565b7f526f6c65733a206163636f756e7420697320746865207a65726f20616464726560008201527f7373000000000000000000000000000000000000000000000000000000000000602082015250565b6000613d24602283613094565b9150613d2f82613cc8565b604082019050919050565b60006020820190508181036000830152613d5381613d17565b9050919050565b7f5061757361626c653a206e6f7420706175736564000000000000000000000000600082015250565b6000613d90601483613094565b9150613d9b82613d5a565b602082019050919050565b60006020820190508181036000830152613dbf81613d83565b9050919050565b7f546f6b656e2072617465206e6f7420666f756e64000000000000000000000000600082015250565b6000613dfc601483613094565b9150613e0782613dc6565b602082019050919050565b60006020820190508181036000830152613e2b81613def565b9050919050565b7f4e487b7100000000000000000000000000000000000000000000000000000000600052601260045260246000fd5b6000613e6c82612c67565b9150613e7783612c67565b925082613e8757613e86613e32565b5b828204905092915050565b6000613e9d82612c67565b9150613ea883612c67565b9250817fffffffffffffffffffffffffffffffffffffffffffffffffffffffffffffffff0483118215151615613ee157613ee06133d1565b5b828202905092915050565b7f43726f776473616c653a2062656e656669636961727920697320746865207a6560008201527f726f206164647265737300000000000000000000000000000000000000000000602082015250565b6000613f48602a83613094565b9150613f5382613eec565b604082019050919050565b60006020820190508181036000830152613f7781613f3b565b9050919050565b7f43726f776473616c653a20776569416d6f756e74206973203000000000000000600082015250565b6000613fb4601983613094565b9150613fbf82613f7e565b602082019050919050565b60006020820190508181036000830152613fe381613fa7565b9050919050565b7f43726f776473616c653a20746f6b656e416d6f756e7420697320300000000000600082015250565b6000614020601b83613094565b915061402b82613fea565b602082019050919050565b6000602082019050818103600083015261404f81614013565b9050919050565b600060408201905061406b600083018561305f565b6140786020830184612c71565b9392505050565b7f526f6c65733a206163636f756e7420646f6573206e6f74206861766520726f6c60008201527f6500000000000000000000000000000000000000000000000000000000000000602082015250565b60006140db602183613094565b91506140e68261407f565b604082019050919050565b6000602082019050818103600083015261410a816140ce565b905091905056fea2646970667358221220be93bde239313fda492af8f34525835276f3bf032beafe7ba76be13de471eb7364736f6c63430008090033",
  "immutableReferences": {},
  "source": "// SPDX-License-Identifier: MIT\r\n// OpenZeppelin Contracts v4.3.2 (utils/DefaultCrowdsalev2.sol)\r\npragma solidity ^0.8.9;\r\nimport \"./CrowdsaleBase.sol\";\r\nimport \"./WhitelistedRole.sol\";\r\nimport \"../node_modules/@openzeppelin/contracts/security/Pausable.sol\";\r\nimport \"../node_modules/@openzeppelin/contracts/utils/math/SafeMath.sol\";\r\nimport \"./StageAdminRole.sol\";\r\n/**\r\n * @title DefaultCrowdsale\r\n * @dev This is an example of a fully fledged crowdsale.\r\n */\r\ncontract DefaultCrowdsalev2 is CrowdsaleBase, StageAdminRole, Pausable {\r\n    using SafeMath for uint256;\r\n\r\n    struct StageExchangeRate {\r\n        address token;\r\n        uint256 rate;\r\n    }\r\n\r\n    struct StageSettings {\r\n        string name;\r\n        bool isPrivate;\r\n        uint256 cap;\r\n        uint256 minIndividualCap;\r\n        uint256 maxIndividualCap;\r\n        address[] whitelist;\r\n        uint256 rate;\r\n    }\r\n\r\n    uint internal _nextStage;\r\n    uint public numberOfStages;\r\n    StageSettings[] stages;\r\n    StageSettings _currentStage;\r\n\r\n    mapping(uint => StageExchangeRate[]) exchangeRates;\r\n    StageExchangeRate[] stageExchangeRates;\r\n\r\n    uint256[] private _stageWeiRaised;\r\n\r\n    mapping(uint => mapping(address => uint256)) _stageTokensRaised;\r\n    mapping(address => uint256) private _tokensRaised;\r\n\r\n    event NextStage(StageSettings stage);\r\n\r\n    constructor(\r\n        address payable wallet,\r\n        IERC20 token,\r\n        uint _numberOfStages\r\n    ) CrowdsaleBase(1, wallet, token) {\r\n        _nextStage = 0;\r\n        numberOfStages = _numberOfStages;\r\n    }\r\n\r\n    /**\r\n    * @dev Change funding to next rate value\r\n    */\r\n    function startNextStage(StageSettings memory settings, StageExchangeRate[] memory exchangeRates_) public onlyStageAdmins virtual {\r\n        require(_nextStage <= numberOfStages, \"Crowdsale: Stage exceeds stage limit\");\r\n        super._updateRate(settings.rate);\r\n        stages.push(settings);\r\n        _stageWeiRaised.push(0);\r\n        _currentStage = settings;\r\n        _nextStage += 1;\r\n        _removeAllWhitelisted();\r\n        addWhitelisted(settings.whitelist);\r\n\r\n        delete stageExchangeRates;\r\n        for (uint i = 0; i < exchangeRates_.length; i++) {\r\n            stageExchangeRates.push(exchangeRates_[i]);\r\n            exchangeRates[_nextStage - 1].push(exchangeRates_[i]);  \r\n        }\r\n\r\n        remainStageTokens = settings.cap;\r\n\r\n        if(super.paused()){\r\n            super._unpause();\r\n        }\r\n        emit NextStage(settings);\r\n    }\r\n\r\n    function pause() public onlyStageAdmins whenNotPaused virtual {\r\n         super._pause();\r\n    }\r\n\r\n    function stage() public view returns (string memory) {\r\n        return _currentStage.name;\r\n    }\r\n\r\n    function cap() public view returns (uint256) {\r\n        return _currentStage.cap;\r\n    }\r\n\r\n    function _addContributor(address beneficiary) virtual internal override {\r\n        if(_contributions[beneficiary].length == 0){\r\n            _contributions[beneficiary] = new uint256[](numberOfStages);\r\n        }\r\n    }\r\n\r\n    /**\r\n     * @dev Extend parent behavior requiring purchase to respect the funding cap.\r\n     * @param beneficiary Token purchaser\r\n     * @param weiAmount Amount of wei contributed\r\n     */\r\n    function _preValidatePurchase(address beneficiary, uint256 weiAmount, uint256 tokenAmount) virtual internal view override whenNotPaused {\r\n        super._preValidatePurchase(beneficiary, weiAmount, tokenAmount);\r\n        require(_currentStage.rate >= 0 && _nextStage > 0, \"Crowdsale: Stage is not active\");\r\n        require(_currentStage.isPrivate != true || isWhitelisted(beneficiary), \"Ongoing private sale: benefeciary is not white listed\");\r\n        require(tokenAmount <= remainStageTokens, \"CappedCrowdsale: cap exceeded\");\r\n        require(_contributions[beneficiary][_nextStage - 1].add(tokenAmount) >= _currentStage.minIndividualCap && _contributions[beneficiary][_nextStage - 1].add(tokenAmount) <= _currentStage.maxIndividualCap,  \"Crowdsale: Individual cap limit was not met\");\r\n    }\r\n\r\n    /**\r\n     * @dev Extend parent behavior to update beneficiary contributions.\r\n     * @param beneficiary Token purchaser\r\n     * @param weiAmount Amount of wei contributed\r\n     */\r\n    function _updatePurchasingState(address beneficiary, uint256 weiAmount, uint256 tokenAmount) internal override {\r\n        super._updatePurchasingState(beneficiary, weiAmount, tokenAmount);\r\n        _contributions[beneficiary][_nextStage - 1] = _contributions[beneficiary][_nextStage - 1].add(tokenAmount);\r\n        _stageWeiRaised[_nextStage - 1] = _stageWeiRaised[_nextStage - 1].add(weiAmount);\r\n        remainStageTokens = remainStageTokens.sub(tokenAmount);\r\n    }\r\n\r\n    /**\r\n     * This function allow exchange erc20 which has added rate is set\r\n     * @param paymentToken Token we want exchange for crowdsale token\r\n     * @param amount Amount of token to exchange\r\n     */\r\n    function exchangeTokens(address paymentToken, uint256 amount, address beneficiary) public nonReentrant {\r\n        require(IERC20(paymentToken).allowance(_msgSender(), address(this)) >= amount, \"Invalid token allowance\");\r\n         \r\n        uint256 exchangeRate = findTokenRate(paymentToken);  \r\n        uint256 crowdsaleTokensAmount = amount.div(exchangeRate);\r\n        \r\n        _addContributor(beneficiary);\r\n       \r\n        _preValidatePurchase(beneficiary, amount, crowdsaleTokensAmount);\r\n\r\n        uint currentStageIndex = _nextStage - 1;\r\n        \r\n        // code copied mostly from _updatePurchasingState\r\n        // weiRaised is ommitted because token are purchasing by other currency than ether\r\n        _contributions[beneficiary][currentStageIndex] = _contributions[beneficiary][currentStageIndex].add(crowdsaleTokensAmount);\r\n        _tokensRaised[paymentToken] = _tokensRaised[paymentToken].add(amount);\r\n        _stageTokensRaised[currentStageIndex][paymentToken] = _stageTokensRaised[currentStageIndex][paymentToken].add(amount);\r\n        remainStageTokens = remainStageTokens.sub(crowdsaleTokensAmount);\r\n\r\n        emit TokensPurchased(beneficiary, beneficiary, amount, crowdsaleTokensAmount);\r\n\r\n        IERC20(paymentToken).transferFrom(_msgSender(), _wallet, amount);\r\n        IERC20(_token).transferFrom(_wallet, beneficiary, crowdsaleTokensAmount);\r\n    }\r\n\r\n    function findTokenRateIndex(address token) private view returns(uint) {\r\n        for (uint i=0; i < stageExchangeRates.length; i++) {\r\n            if (stageExchangeRates[i].token == token) {\r\n                return i;\r\n            }\r\n        }\r\n        revert(\"Token rate not found\");\r\n    }\r\n\r\n    function findTokenRate(address token) public view returns(uint256) {\r\n        uint tokenRateIndex = findTokenRateIndex(token);\r\n        return stageExchangeRates[tokenRateIndex].rate;\r\n    }\r\n\r\n}",
  "sourcePath": "D:\\repositories\\mosaico-reference\\smart_contracts\\contracts\\DefaultCrowdsalev2.sol",
  "compiler": {
    "name": "solc",
    "version": "0.8.9+commit.e5eed63a.Emscripten.clang"
  },
  "schemaVersion": "3.4.3",
  "updatedAt": "2022-02-18T18:42:07.424Z",
  "devdoc": {
    "details": "This is an example of a fully fledged crowdsale.",
    "kind": "dev",
    "methods": {
      "buyTokens(address)": {
        "details": "low level token purchase ***DO NOT OVERRIDE*** This function has a non-reentrancy guard, so it shouldn't be called by another `nonReentrant` function.",
        "params": {
          "beneficiary": "Recipient of the token purchase"
        }
      },
      "exchangeTokens(address,uint256,address)": {
        "params": {
          "amount": "Amount of token to exchange",
          "paymentToken": "Token we want exchange for crowdsale token"
        }
      },
      "getRate()": {
        "returns": {
          "_0": "the number of token units a buyer gets per wei."
        }
      },
      "getToken()": {
        "returns": {
          "_0": "the token being sold."
        }
      },
      "getWallet()": {
        "returns": {
          "_0": "the address where funds are collected."
        }
      },
      "getWeiRaised()": {
        "returns": {
          "_0": "the amount of wei raised."
        }
      },
      "owner()": {
        "details": "Returns the address of the current owner."
      },
      "paused()": {
        "details": "Returns true if the contract is paused, and false otherwise."
      },
      "renounceOwnership()": {
        "details": "Leaves the contract without owner. It will not be possible to call `onlyOwner` functions anymore. Can only be called by the current owner. NOTE: Renouncing ownership will leave the contract without an owner, thereby removing any functionality that is only available to the owner."
      },
      "startNextStage((string,bool,uint256,uint256,uint256,address[],uint256),(address,uint256)[])": {
        "details": "Change funding to next rate value"
      },
      "transferOwnership(address)": {
        "details": "Transfers ownership of the contract to a new account (`newOwner`). Can only be called by the current owner."
      }
    },
    "title": "DefaultCrowdsale",
    "version": 1
  },
  "userdoc": {
    "events": {
      "TokensPurchased(address,address,uint256,uint256)": {
        "notice": "Event for token purchase logging"
      }
    },
    "kind": "user",
    "methods": {
      "exchangeTokens(address,uint256,address)": {
        "notice": "This function allow exchange erc20 which has added rate is set"
      }
    },
    "version": 1
  }
}