{
  "contractName": "MosaicoERC20",
  "abi": [
    {
      "inputs": [
        {
          "components": [
            {
              "internalType": "bool",
              "name": "isMintable",
              "type": "bool"
            },
            {
              "internalType": "bool",
              "name": "isBurnable",
              "type": "bool"
            },
            {
              "internalType": "string",
              "name": "name",
              "type": "string"
            },
            {
              "internalType": "string",
              "name": "symbol",
              "type": "string"
            },
            {
              "internalType": "uint256",
              "name": "initialSupply",
              "type": "uint256"
            }
          ],
          "internalType": "struct MosaicoERC20.Settings",
          "name": "settings",
          "type": "tuple"
        }
      ],
      "stateMutability": "nonpayable",
      "type": "constructor"
    },
    {
      "anonymous": false,
      "inputs": [
        {
          "indexed": true,
          "internalType": "address",
          "name": "owner",
          "type": "address"
        },
        {
          "indexed": true,
          "internalType": "address",
          "name": "spender",
          "type": "address"
        },
        {
          "indexed": false,
          "internalType": "uint256",
          "name": "value",
          "type": "uint256"
        }
      ],
      "name": "Approval",
      "type": "event"
    },
    {
      "anonymous": false,
      "inputs": [
        {
          "indexed": true,
          "internalType": "address",
          "name": "previousOwner",
          "type": "address"
        },
        {
          "indexed": true,
          "internalType": "address",
          "name": "newOwner",
          "type": "address"
        }
      ],
      "name": "OwnershipTransferred",
      "type": "event"
    },
    {
      "anonymous": false,
      "inputs": [
        {
          "indexed": false,
          "internalType": "address",
          "name": "account",
          "type": "address"
        }
      ],
      "name": "Paused",
      "type": "event"
    },
    {
      "anonymous": false,
      "inputs": [
        {
          "indexed": true,
          "internalType": "address",
          "name": "from",
          "type": "address"
        },
        {
          "indexed": true,
          "internalType": "address",
          "name": "to",
          "type": "address"
        },
        {
          "indexed": false,
          "internalType": "uint256",
          "name": "value",
          "type": "uint256"
        }
      ],
      "name": "Transfer",
      "type": "event"
    },
    {
      "anonymous": false,
      "inputs": [
        {
          "indexed": false,
          "internalType": "address",
          "name": "account",
          "type": "address"
        }
      ],
      "name": "Unpaused",
      "type": "event"
    },
    {
      "inputs": [
        {
          "internalType": "address",
          "name": "owner",
          "type": "address"
        },
        {
          "internalType": "address",
          "name": "spender",
          "type": "address"
        }
      ],
      "name": "allowance",
      "outputs": [
        {
          "internalType": "uint256",
          "name": "",
          "type": "uint256"
        }
      ],
      "stateMutability": "view",
      "type": "function"
    },
    {
      "inputs": [
        {
          "internalType": "address",
          "name": "spender",
          "type": "address"
        },
        {
          "internalType": "uint256",
          "name": "amount",
          "type": "uint256"
        }
      ],
      "name": "approve",
      "outputs": [
        {
          "internalType": "bool",
          "name": "",
          "type": "bool"
        }
      ],
      "stateMutability": "nonpayable",
      "type": "function"
    },
    {
      "inputs": [
        {
          "internalType": "address",
          "name": "account",
          "type": "address"
        }
      ],
      "name": "balanceOf",
      "outputs": [
        {
          "internalType": "uint256",
          "name": "",
          "type": "uint256"
        }
      ],
      "stateMutability": "view",
      "type": "function"
    },
    {
      "inputs": [
        {
          "internalType": "address",
          "name": "account",
          "type": "address"
        },
        {
          "internalType": "uint256",
          "name": "amount",
          "type": "uint256"
        }
      ],
      "name": "burnFrom",
      "outputs": [],
      "stateMutability": "nonpayable",
      "type": "function"
    },
    {
      "inputs": [],
      "name": "decimals",
      "outputs": [
        {
          "internalType": "uint8",
          "name": "",
          "type": "uint8"
        }
      ],
      "stateMutability": "view",
      "type": "function"
    },
    {
      "inputs": [
        {
          "internalType": "address",
          "name": "spender",
          "type": "address"
        },
        {
          "internalType": "uint256",
          "name": "subtractedValue",
          "type": "uint256"
        }
      ],
      "name": "decreaseAllowance",
      "outputs": [
        {
          "internalType": "bool",
          "name": "",
          "type": "bool"
        }
      ],
      "stateMutability": "nonpayable",
      "type": "function"
    },
    {
      "inputs": [
        {
          "internalType": "address",
          "name": "spender",
          "type": "address"
        },
        {
          "internalType": "uint256",
          "name": "addedValue",
          "type": "uint256"
        }
      ],
      "name": "increaseAllowance",
      "outputs": [
        {
          "internalType": "bool",
          "name": "",
          "type": "bool"
        }
      ],
      "stateMutability": "nonpayable",
      "type": "function"
    },
    {
      "inputs": [],
      "name": "name",
      "outputs": [
        {
          "internalType": "string",
          "name": "",
          "type": "string"
        }
      ],
      "stateMutability": "view",
      "type": "function"
    },
    {
      "inputs": [],
      "name": "owner",
      "outputs": [
        {
          "internalType": "address",
          "name": "",
          "type": "address"
        }
      ],
      "stateMutability": "view",
      "type": "function"
    },
    {
      "inputs": [],
      "name": "paused",
      "outputs": [
        {
          "internalType": "bool",
          "name": "",
          "type": "bool"
        }
      ],
      "stateMutability": "view",
      "type": "function"
    },
    {
      "inputs": [],
      "name": "renounceOwnership",
      "outputs": [],
      "stateMutability": "nonpayable",
      "type": "function"
    },
    {
      "inputs": [],
      "name": "symbol",
      "outputs": [
        {
          "internalType": "string",
          "name": "",
          "type": "string"
        }
      ],
      "stateMutability": "view",
      "type": "function"
    },
    {
      "inputs": [],
      "name": "totalSupply",
      "outputs": [
        {
          "internalType": "uint256",
          "name": "",
          "type": "uint256"
        }
      ],
      "stateMutability": "view",
      "type": "function"
    },
    {
      "inputs": [
        {
          "internalType": "address",
          "name": "newOwner",
          "type": "address"
        }
      ],
      "name": "transferOwnership",
      "outputs": [],
      "stateMutability": "nonpayable",
      "type": "function"
    },
    {
      "inputs": [
        {
          "internalType": "address",
          "name": "to",
          "type": "address"
        },
        {
          "internalType": "uint256",
          "name": "value",
          "type": "uint256"
        }
      ],
      "name": "transfer",
      "outputs": [
        {
          "internalType": "bool",
          "name": "",
          "type": "bool"
        }
      ],
      "stateMutability": "nonpayable",
      "type": "function"
    },
    {
      "inputs": [
        {
          "internalType": "address",
          "name": "from",
          "type": "address"
        },
        {
          "internalType": "address",
          "name": "to",
          "type": "address"
        },
        {
          "internalType": "uint256",
          "name": "value",
          "type": "uint256"
        }
      ],
      "name": "transferFrom",
      "outputs": [
        {
          "internalType": "bool",
          "name": "",
          "type": "bool"
        }
      ],
      "stateMutability": "nonpayable",
      "type": "function"
    },
    {
      "inputs": [],
      "name": "pause",
      "outputs": [],
      "stateMutability": "nonpayable",
      "type": "function"
    },
    {
      "inputs": [],
      "name": "unpause",
      "outputs": [],
      "stateMutability": "nonpayable",
      "type": "function"
    },
    {
      "inputs": [
        {
          "internalType": "uint256",
          "name": "amount",
          "type": "uint256"
        }
      ],
      "name": "mint",
      "outputs": [
        {
          "internalType": "bool",
          "name": "success",
          "type": "bool"
        }
      ],
      "stateMutability": "nonpayable",
      "type": "function"
    },
    {
      "inputs": [
        {
          "internalType": "uint256",
          "name": "amount",
          "type": "uint256"
        }
      ],
      "name": "burn",
      "outputs": [],
      "stateMutability": "nonpayable",
      "type": "function"
    }
  ],
  "bytecode": "0x60806040523480156200001157600080fd5b5060405162002eb838038062002eb8833981810160405281019062000037919062000755565b80604001518160600151816003908051906020019062000059929190620003ad565b50806004908051906020019062000072929190620003ad565b5050506000600560006101000a81548160ff021916908315150217905550620000b0620000a46200015c60201b60201c565b6200016460201b60201c565b80600660008201518160000160006101000a81548160ff02191690831515021790555060208201518160000160016101000a81548160ff021916908315150217905550604082015181600101908051906020019062000111929190620003ad565b50606082015181600201908051906020019062000130929190620003ad565b506080820151816003015590505062000155336006600301546200022a60201b60201c565b5062000948565b600033905090565b6000600560019054906101000a900473ffffffffffffffffffffffffffffffffffffffff16905081600560016101000a81548173ffffffffffffffffffffffffffffffffffffffff021916908373ffffffffffffffffffffffffffffffffffffffff1602179055508173ffffffffffffffffffffffffffffffffffffffff168173ffffffffffffffffffffffffffffffffffffffff167f8be0079c531659141344cd1fd0a4f28419497f9722a3daafe3b4186f6b6457e060405160405180910390a35050565b600073ffffffffffffffffffffffffffffffffffffffff168273ffffffffffffffffffffffffffffffffffffffff1614156200029d576040517f08c379a0000000000000000000000000000000000000000000000000000000008152600401620002949062000807565b60405180910390fd5b620002b160008383620003a360201b60201c565b8060026000828254620002c5919062000858565b92505081905550806000808473ffffffffffffffffffffffffffffffffffffffff1673ffffffffffffffffffffffffffffffffffffffff16815260200190815260200160002060008282546200031c919062000858565b925050819055508173ffffffffffffffffffffffffffffffffffffffff16600073ffffffffffffffffffffffffffffffffffffffff167fddf252ad1be2c89b69c2b068fc378daa952ba7f163c4a11628f55a4df523b3ef83604051620003839190620008c6565b60405180910390a36200039f60008383620003a860201b60201c565b5050565b505050565b505050565b828054620003bb9062000912565b90600052602060002090601f016020900481019282620003df57600085556200042b565b82601f10620003fa57805160ff19168380011785556200042b565b828001600101855582156200042b579182015b828111156200042a5782518255916020019190600101906200040d565b5b5090506200043a91906200043e565b5090565b5b80821115620004595760008160009055506001016200043f565b5090565b6000604051905090565b600080fd5b600080fd5b600080fd5b6000601f19601f8301169050919050565b7f4e487b7100000000000000000000000000000000000000000000000000000000600052604160045260246000fd5b620004c18262000476565b810181811067ffffffffffffffff82111715620004e357620004e262000487565b5b80604052505050565b6000620004f86200045d565b9050620005068282620004b6565b919050565b600080fd5b60008115159050919050565b620005278162000510565b81146200053357600080fd5b50565b60008151905062000547816200051c565b92915050565b600080fd5b600080fd5b600067ffffffffffffffff82111562000575576200057462000487565b5b620005808262000476565b9050602081019050919050565b60005b83811015620005ad57808201518184015260208101905062000590565b83811115620005bd576000848401525b50505050565b6000620005da620005d48462000557565b620004ec565b905082815260208101848484011115620005f957620005f862000552565b5b620006068482856200058d565b509392505050565b600082601f8301126200062657620006256200054d565b5b815162000638848260208601620005c3565b91505092915050565b6000819050919050565b620006568162000641565b81146200066257600080fd5b50565b60008151905062000676816200064b565b92915050565b600060a0828403121562000695576200069462000471565b5b620006a160a0620004ec565b90506000620006b38482850162000536565b6000830152506020620006c98482850162000536565b602083015250604082015167ffffffffffffffff811115620006f057620006ef6200050b565b5b620006fe848285016200060e565b604083015250606082015167ffffffffffffffff8111156200072557620007246200050b565b5b62000733848285016200060e565b6060830152506080620007498482850162000665565b60808301525092915050565b6000602082840312156200076e576200076d62000467565b5b600082015167ffffffffffffffff8111156200078f576200078e6200046c565b5b6200079d848285016200067c565b91505092915050565b600082825260208201905092915050565b7f45524332303a206d696e7420746f20746865207a65726f206164647265737300600082015250565b6000620007ef601f83620007a6565b9150620007fc82620007b7565b602082019050919050565b600060208201905081810360008301526200082281620007e0565b9050919050565b7f4e487b7100000000000000000000000000000000000000000000000000000000600052601160045260246000fd5b6000620008658262000641565b9150620008728362000641565b9250827fffffffffffffffffffffffffffffffffffffffffffffffffffffffffffffffff03821115620008aa57620008a962000829565b5b828201905092915050565b620008c08162000641565b82525050565b6000602082019050620008dd6000830184620008b5565b92915050565b7f4e487b7100000000000000000000000000000000000000000000000000000000600052602260045260246000fd5b600060028204905060018216806200092b57607f821691505b60208210811415620009425762000941620008e3565b5b50919050565b61256080620009586000396000f3fe608060405234801561001057600080fd5b506004361061012c5760003560e01c8063715018a6116100ad578063a0712d6811610071578063a0712d68146102fb578063a457c2d71461032b578063a9059cbb1461035b578063dd62ed3e1461038b578063f2fde38b146103bb5761012c565b8063715018a61461028f57806379cc6790146102995780638456cb59146102b55780638da5cb5b146102bf57806395d89b41146102dd5761012c565b806339509351116100f457806339509351146101eb5780633f4ba83a1461021b57806342966c68146102255780635c975abb1461024157806370a082311461025f5761012c565b806306fdde0314610131578063095ea7b31461014f57806318160ddd1461017f57806323b872dd1461019d578063313ce567146101cd575b600080fd5b6101396103d7565b604051610146919061184d565b60405180910390f35b61016960048036038101906101649190611908565b610469565b6040516101769190611963565b60405180910390f35b610187610487565b604051610194919061198d565b60405180910390f35b6101b760048036038101906101b291906119a8565b610491565b6040516101c49190611963565b60405180910390f35b6101d56104ef565b6040516101e29190611a17565b60405180910390f35b61020560048036038101906102009190611908565b6104f8565b6040516102129190611963565b60405180910390f35b6102236105a4565b005b61023f600480360381019061023a9190611a32565b61062a565b005b61024961068f565b6040516102569190611963565b60405180910390f35b61027960048036038101906102749190611a5f565b6106a6565b604051610286919061198d565b60405180910390f35b6102976106ee565b005b6102b360048036038101906102ae9190611908565b610776565b005b6102bd6107f1565b005b6102c7610877565b6040516102d49190611a9b565b60405180910390f35b6102e56108a1565b6040516102f2919061184d565b60405180910390f35b61031560048036038101906103109190611a32565b610933565b6040516103229190611963565b60405180910390f35b61034560048036038101906103409190611908565b610a24565b6040516103529190611963565b60405180910390f35b61037560048036038101906103709190611908565b610b0f565b6040516103829190611963565b60405180910390f35b6103a560048036038101906103a09190611ab6565b610b6b565b6040516103b2919061198d565b60405180910390f35b6103d560048036038101906103d09190611a5f565b610bf2565b005b6060600380546103e690611b25565b80601f016020809104026020016040519081016040528092919081815260200182805461041290611b25565b801561045f5780601f106104345761010080835404028352916020019161045f565b820191906000526020600020905b81548152906001019060200180831161044257829003601f168201915b5050505050905090565b600061047d610476610cea565b8484610cf2565b6001905092915050565b6000600254905090565b600061049b61068f565b156104db576040517f08c379a00000000000000000000000000000000000000000000000000000000081526004016104d290611ba3565b60405180910390fd5b6104e6848484610ebd565b90509392505050565b60006012905090565b600061059a610505610cea565b848460016000610513610cea565b73ffffffffffffffffffffffffffffffffffffffff1673ffffffffffffffffffffffffffffffffffffffff16815260200190815260200160002060008873ffffffffffffffffffffffffffffffffffffffff1673ffffffffffffffffffffffffffffffffffffffff168152602001908152602001600020546105959190611bf2565b610cf2565b6001905092915050565b6105ac610cea565b73ffffffffffffffffffffffffffffffffffffffff166105ca610877565b73ffffffffffffffffffffffffffffffffffffffff1614610620576040517f08c379a000000000000000000000000000000000000000000000000000000000815260040161061790611c94565b60405180910390fd5b610628610fb5565b565b60011515600660000160019054906101000a900460ff16151514610683576040517f08c379a000000000000000000000000000000000000000000000000000000000815260040161067a90611d26565b60405180910390fd5b61068c81611057565b50565b6000600560009054906101000a900460ff16905090565b60008060008373ffffffffffffffffffffffffffffffffffffffff1673ffffffffffffffffffffffffffffffffffffffff168152602001908152602001600020549050919050565b6106f6610cea565b73ffffffffffffffffffffffffffffffffffffffff16610714610877565b73ffffffffffffffffffffffffffffffffffffffff161461076a576040517f08c379a000000000000000000000000000000000000000000000000000000000815260040161076190611c94565b60405180910390fd5b610774600061106b565b565b600061078983610784610cea565b610b6b565b9050818110156107ce576040517f08c379a00000000000000000000000000000000000000000000000000000000081526004016107c590611db8565b60405180910390fd5b6107e2836107da610cea565b848403610cf2565b6107ec8383611131565b505050565b6107f9610cea565b73ffffffffffffffffffffffffffffffffffffffff16610817610877565b73ffffffffffffffffffffffffffffffffffffffff161461086d576040517f08c379a000000000000000000000000000000000000000000000000000000000815260040161086490611c94565b60405180910390fd5b610875611308565b565b6000600560019054906101000a900473ffffffffffffffffffffffffffffffffffffffff16905090565b6060600480546108b090611b25565b80601f01602080910402602001604051908101604052809291908181526020018280546108dc90611b25565b80156109295780601f106108fe57610100808354040283529160200191610929565b820191906000526020600020905b81548152906001019060200180831161090c57829003601f168201915b5050505050905090565b600061093d610cea565b73ffffffffffffffffffffffffffffffffffffffff1661095b610877565b73ffffffffffffffffffffffffffffffffffffffff16146109b1576040517f08c379a00000000000000000000000000000000000000000000000000000000081526004016109a890611c94565b60405180910390fd5b60011515600660000160009054906101000a900460ff16151514610a0a576040517f08c379a0000000000000000000000000000000000000000000000000000000008152600401610a0190611e4a565b60405180910390fd5b610a1b610a15610cea565b836113ab565b60019050919050565b60008060016000610a33610cea565b73ffffffffffffffffffffffffffffffffffffffff1673ffffffffffffffffffffffffffffffffffffffff16815260200190815260200160002060008573ffffffffffffffffffffffffffffffffffffffff1673ffffffffffffffffffffffffffffffffffffffff16815260200190815260200160002054905082811015610af0576040517f08c379a0000000000000000000000000000000000000000000000000000000008152600401610ae790611edc565b60405180910390fd5b610b04610afb610cea565b85858403610cf2565b600191505092915050565b6000610b1961068f565b15610b59576040517f08c379a0000000000000000000000000000000000000000000000000000000008152600401610b5090611ba3565b60405180910390fd5b610b63838361150b565b905092915050565b6000600160008473ffffffffffffffffffffffffffffffffffffffff1673ffffffffffffffffffffffffffffffffffffffff16815260200190815260200160002060008373ffffffffffffffffffffffffffffffffffffffff1673ffffffffffffffffffffffffffffffffffffffff16815260200190815260200160002054905092915050565b610bfa610cea565b73ffffffffffffffffffffffffffffffffffffffff16610c18610877565b73ffffffffffffffffffffffffffffffffffffffff1614610c6e576040517f08c379a0000000000000000000000000000000000000000000000000000000008152600401610c6590611c94565b60405180910390fd5b600073ffffffffffffffffffffffffffffffffffffffff168173ffffffffffffffffffffffffffffffffffffffff161415610cde576040517f08c379a0000000000000000000000000000000000000000000000000000000008152600401610cd590611f6e565b60405180910390fd5b610ce78161106b565b50565b600033905090565b600073ffffffffffffffffffffffffffffffffffffffff168373ffffffffffffffffffffffffffffffffffffffff161415610d62576040517f08c379a0000000000000000000000000000000000000000000000000000000008152600401610d5990612000565b60405180910390fd5b600073ffffffffffffffffffffffffffffffffffffffff168273ffffffffffffffffffffffffffffffffffffffff161415610dd2576040517f08c379a0000000000000000000000000000000000000000000000000000000008152600401610dc990612092565b60405180910390fd5b80600160008573ffffffffffffffffffffffffffffffffffffffff1673ffffffffffffffffffffffffffffffffffffffff16815260200190815260200160002060008473ffffffffffffffffffffffffffffffffffffffff1673ffffffffffffffffffffffffffffffffffffffff168152602001908152602001600020819055508173ffffffffffffffffffffffffffffffffffffffff168373ffffffffffffffffffffffffffffffffffffffff167f8c5be1e5ebec7d5bd14f71427d1e84f3dd0314c0f7b2291e5b200ac8c7c3b92583604051610eb0919061198d565b60405180910390a3505050565b6000610eca848484611529565b6000600160008673ffffffffffffffffffffffffffffffffffffffff1673ffffffffffffffffffffffffffffffffffffffff1681526020019081526020016000206000610f15610cea565b73ffffffffffffffffffffffffffffffffffffffff1673ffffffffffffffffffffffffffffffffffffffff16815260200190815260200160002054905082811015610f95576040517f08c379a0000000000000000000000000000000000000000000000000000000008152600401610f8c90612124565b60405180910390fd5b610fa985610fa1610cea565b858403610cf2565b60019150509392505050565b610fbd61068f565b610ffc576040517f08c379a0000000000000000000000000000000000000000000000000000000008152600401610ff390612190565b60405180910390fd5b6000600560006101000a81548160ff0219169083151502179055507f5db9ee0a495bf2e6ff9c91a7834c1ba4fdd244a5e8aa4e537bd38aeae4b073aa611040610cea565b60405161104d9190611a9b565b60405180910390a1565b611068611062610cea565b82611131565b50565b6000600560019054906101000a900473ffffffffffffffffffffffffffffffffffffffff16905081600560016101000a81548173ffffffffffffffffffffffffffffffffffffffff021916908373ffffffffffffffffffffffffffffffffffffffff1602179055508173ffffffffffffffffffffffffffffffffffffffff168173ffffffffffffffffffffffffffffffffffffffff167f8be0079c531659141344cd1fd0a4f28419497f9722a3daafe3b4186f6b6457e060405160405180910390a35050565b600073ffffffffffffffffffffffffffffffffffffffff168273ffffffffffffffffffffffffffffffffffffffff1614156111a1576040517f08c379a000000000000000000000000000000000000000000000000000000000815260040161119890612222565b60405180910390fd5b6111ad826000836117aa565b60008060008473ffffffffffffffffffffffffffffffffffffffff1673ffffffffffffffffffffffffffffffffffffffff16815260200190815260200160002054905081811015611233576040517f08c379a000000000000000000000000000000000000000000000000000000000815260040161122a906122b4565b60405180910390fd5b8181036000808573ffffffffffffffffffffffffffffffffffffffff1673ffffffffffffffffffffffffffffffffffffffff16815260200190815260200160002081905550816002600082825461128a91906122d4565b92505081905550600073ffffffffffffffffffffffffffffffffffffffff168373ffffffffffffffffffffffffffffffffffffffff167fddf252ad1be2c89b69c2b068fc378daa952ba7f163c4a11628f55a4df523b3ef846040516112ef919061198d565b60405180910390a3611303836000846117af565b505050565b61131061068f565b15611350576040517f08c379a000000000000000000000000000000000000000000000000000000000815260040161134790611ba3565b60405180910390fd5b6001600560006101000a81548160ff0219169083151502179055507f62e78cea01bee320cd4e420270b5ea74000d11b0c9f74754ebdbfc544b05a258611394610cea565b6040516113a19190611a9b565b60405180910390a1565b600073ffffffffffffffffffffffffffffffffffffffff168273ffffffffffffffffffffffffffffffffffffffff16141561141b576040517f08c379a000000000000000000000000000000000000000000000000000000000815260040161141290612354565b60405180910390fd5b611427600083836117aa565b80600260008282546114399190611bf2565b92505081905550806000808473ffffffffffffffffffffffffffffffffffffffff1673ffffffffffffffffffffffffffffffffffffffff168152602001908152602001600020600082825461148e9190611bf2565b925050819055508173ffffffffffffffffffffffffffffffffffffffff16600073ffffffffffffffffffffffffffffffffffffffff167fddf252ad1be2c89b69c2b068fc378daa952ba7f163c4a11628f55a4df523b3ef836040516114f3919061198d565b60405180910390a3611507600083836117af565b5050565b600061151f611518610cea565b8484611529565b6001905092915050565b600073ffffffffffffffffffffffffffffffffffffffff168373ffffffffffffffffffffffffffffffffffffffff161415611599576040517f08c379a0000000000000000000000000000000000000000000000000000000008152600401611590906123e6565b60405180910390fd5b600073ffffffffffffffffffffffffffffffffffffffff168273ffffffffffffffffffffffffffffffffffffffff161415611609576040517f08c379a000000000000000000000000000000000000000000000000000000000815260040161160090612478565b60405180910390fd5b6116148383836117aa565b60008060008573ffffffffffffffffffffffffffffffffffffffff1673ffffffffffffffffffffffffffffffffffffffff1681526020019081526020016000205490508181101561169a576040517f08c379a00000000000000000000000000000000000000000000000000000000081526004016116919061250a565b60405180910390fd5b8181036000808673ffffffffffffffffffffffffffffffffffffffff1673ffffffffffffffffffffffffffffffffffffffff16815260200190815260200160002081905550816000808573ffffffffffffffffffffffffffffffffffffffff1673ffffffffffffffffffffffffffffffffffffffff168152602001908152602001600020600082825461172d9190611bf2565b925050819055508273ffffffffffffffffffffffffffffffffffffffff168473ffffffffffffffffffffffffffffffffffffffff167fddf252ad1be2c89b69c2b068fc378daa952ba7f163c4a11628f55a4df523b3ef84604051611791919061198d565b60405180910390a36117a48484846117af565b50505050565b505050565b505050565b600081519050919050565b600082825260208201905092915050565b60005b838110156117ee5780820151818401526020810190506117d3565b838111156117fd576000848401525b50505050565b6000601f19601f8301169050919050565b600061181f826117b4565b61182981856117bf565b93506118398185602086016117d0565b61184281611803565b840191505092915050565b600060208201905081810360008301526118678184611814565b905092915050565b600080fd5b600073ffffffffffffffffffffffffffffffffffffffff82169050919050565b600061189f82611874565b9050919050565b6118af81611894565b81146118ba57600080fd5b50565b6000813590506118cc816118a6565b92915050565b6000819050919050565b6118e5816118d2565b81146118f057600080fd5b50565b600081359050611902816118dc565b92915050565b6000806040838503121561191f5761191e61186f565b5b600061192d858286016118bd565b925050602061193e858286016118f3565b9150509250929050565b60008115159050919050565b61195d81611948565b82525050565b60006020820190506119786000830184611954565b92915050565b611987816118d2565b82525050565b60006020820190506119a2600083018461197e565b92915050565b6000806000606084860312156119c1576119c061186f565b5b60006119cf868287016118bd565b93505060206119e0868287016118bd565b92505060406119f1868287016118f3565b9150509250925092565b600060ff82169050919050565b611a11816119fb565b82525050565b6000602082019050611a2c6000830184611a08565b92915050565b600060208284031215611a4857611a4761186f565b5b6000611a56848285016118f3565b91505092915050565b600060208284031215611a7557611a7461186f565b5b6000611a83848285016118bd565b91505092915050565b611a9581611894565b82525050565b6000602082019050611ab06000830184611a8c565b92915050565b60008060408385031215611acd57611acc61186f565b5b6000611adb858286016118bd565b9250506020611aec858286016118bd565b9150509250929050565b7f4e487b7100000000000000000000000000000000000000000000000000000000600052602260045260246000fd5b60006002820490506001821680611b3d57607f821691505b60208210811415611b5157611b50611af6565b5b50919050565b7f5061757361626c653a2070617573656400000000000000000000000000000000600082015250565b6000611b8d6010836117bf565b9150611b9882611b57565b602082019050919050565b60006020820190508181036000830152611bbc81611b80565b9050919050565b7f4e487b7100000000000000000000000000000000000000000000000000000000600052601160045260246000fd5b6000611bfd826118d2565b9150611c08836118d2565b9250827fffffffffffffffffffffffffffffffffffffffffffffffffffffffffffffffff03821115611c3d57611c3c611bc3565b5b828201905092915050565b7f4f776e61626c653a2063616c6c6572206973206e6f7420746865206f776e6572600082015250565b6000611c7e6020836117bf565b9150611c8982611c48565b602082019050919050565b60006020820190508181036000830152611cad81611c71565b9050919050565b7f436f6e747261637420776173206e6f7420636f6e6669677572656420746f206260008201527f65206275726e61626c6500000000000000000000000000000000000000000000602082015250565b6000611d10602a836117bf565b9150611d1b82611cb4565b604082019050919050565b60006020820190508181036000830152611d3f81611d03565b9050919050565b7f45524332303a206275726e20616d6f756e74206578636565647320616c6c6f7760008201527f616e636500000000000000000000000000000000000000000000000000000000602082015250565b6000611da26024836117bf565b9150611dad82611d46565b604082019050919050565b60006020820190508181036000830152611dd181611d95565b9050919050565b7f436f6e747261637420776173206e6f7420636f6e6669677572656420746f206260008201527f65206d696e7461626c6500000000000000000000000000000000000000000000602082015250565b6000611e34602a836117bf565b9150611e3f82611dd8565b604082019050919050565b60006020820190508181036000830152611e6381611e27565b9050919050565b7f45524332303a2064656372656173656420616c6c6f77616e63652062656c6f7760008201527f207a65726f000000000000000000000000000000000000000000000000000000602082015250565b6000611ec66025836117bf565b9150611ed182611e6a565b604082019050919050565b60006020820190508181036000830152611ef581611eb9565b9050919050565b7f4f776e61626c653a206e6577206f776e657220697320746865207a65726f206160008201527f6464726573730000000000000000000000000000000000000000000000000000602082015250565b6000611f586026836117bf565b9150611f6382611efc565b604082019050919050565b60006020820190508181036000830152611f8781611f4b565b9050919050565b7f45524332303a20617070726f76652066726f6d20746865207a65726f2061646460008201527f7265737300000000000000000000000000000000000000000000000000000000602082015250565b6000611fea6024836117bf565b9150611ff582611f8e565b604082019050919050565b6000602082019050818103600083015261201981611fdd565b9050919050565b7f45524332303a20617070726f766520746f20746865207a65726f20616464726560008201527f7373000000000000000000000000000000000000000000000000000000000000602082015250565b600061207c6022836117bf565b915061208782612020565b604082019050919050565b600060208201905081810360008301526120ab8161206f565b9050919050565b7f45524332303a207472616e7366657220616d6f756e742065786365656473206160008201527f6c6c6f77616e6365000000000000000000000000000000000000000000000000602082015250565b600061210e6028836117bf565b9150612119826120b2565b604082019050919050565b6000602082019050818103600083015261213d81612101565b9050919050565b7f5061757361626c653a206e6f7420706175736564000000000000000000000000600082015250565b600061217a6014836117bf565b915061218582612144565b602082019050919050565b600060208201905081810360008301526121a98161216d565b9050919050565b7f45524332303a206275726e2066726f6d20746865207a65726f2061646472657360008201527f7300000000000000000000000000000000000000000000000000000000000000602082015250565b600061220c6021836117bf565b9150612217826121b0565b604082019050919050565b6000602082019050818103600083015261223b816121ff565b9050919050565b7f45524332303a206275726e20616d6f756e7420657863656564732062616c616e60008201527f6365000000000000000000000000000000000000000000000000000000000000602082015250565b600061229e6022836117bf565b91506122a982612242565b604082019050919050565b600060208201905081810360008301526122cd81612291565b9050919050565b60006122df826118d2565b91506122ea836118d2565b9250828210156122fd576122fc611bc3565b5b828203905092915050565b7f45524332303a206d696e7420746f20746865207a65726f206164647265737300600082015250565b600061233e601f836117bf565b915061234982612308565b602082019050919050565b6000602082019050818103600083015261236d81612331565b9050919050565b7f45524332303a207472616e736665722066726f6d20746865207a65726f20616460008201527f6472657373000000000000000000000000000000000000000000000000000000602082015250565b60006123d06025836117bf565b91506123db82612374565b604082019050919050565b600060208201905081810360008301526123ff816123c3565b9050919050565b7f45524332303a207472616e7366657220746f20746865207a65726f206164647260008201527f6573730000000000000000000000000000000000000000000000000000000000602082015250565b60006124626023836117bf565b915061246d82612406565b604082019050919050565b6000602082019050818103600083015261249181612455565b9050919050565b7f45524332303a207472616e7366657220616d6f756e742065786365656473206260008201527f616c616e63650000000000000000000000000000000000000000000000000000602082015250565b60006124f46026836117bf565b91506124ff82612498565b604082019050919050565b60006020820190508181036000830152612523816124e7565b905091905056fea26469706673582212207c391bce42fd4460901d4995bc05240b29de9e82f0e68e448054da9d213fae6b64736f6c63430008090033",
  "immutableReferences": {},
  "source": "// SPDX-License-Identifier: MIT\r\n// OpenZeppelin Contracts v4.3.2 (utils/MosaicoERC20.sol)\r\npragma solidity ^0.8.9;\r\n\r\nimport \"../node_modules/@openzeppelin/contracts/token/ERC20/ERC20.sol\";\r\nimport \"../node_modules/@openzeppelin/contracts/token/ERC20/extensions/ERC20Burnable.sol\";\r\nimport \"../node_modules/@openzeppelin/contracts/security/Pausable.sol\";\r\nimport \"../node_modules/@openzeppelin/contracts/access/Ownable.sol\";\r\n\r\n//TODO: contract upgrades?\r\ncontract MosaicoERC20 is ERC20, Pausable, Ownable, ERC20Burnable {\r\n    struct Settings {\r\n        bool isMintable;\r\n        bool isBurnable;\r\n        string name;\r\n        string symbol;\r\n        uint256 initialSupply;\r\n    }\r\n    Settings internal _settings;\r\n\r\n    constructor(Settings memory settings) \r\n        ERC20(settings.name, settings.symbol) \r\n        Ownable() \r\n        Pausable() \r\n    {\r\n        _settings = settings;\r\n        _mint(msg.sender, _settings.initialSupply);\r\n    }\r\n\r\n    function transfer(address to, uint256 value) public override whenNotPaused returns (bool) {\r\n        return super.transfer(to, value);\r\n    }\r\n\r\n    function transferFrom(address from, address to, uint256 value) public override whenNotPaused returns (bool) {\r\n        return super.transferFrom(from, to, value);\r\n    }\r\n\r\n    function pause() public onlyOwner {\r\n        super._pause();\r\n    }\r\n\r\n    function unpause() public onlyOwner {\r\n        super._unpause();\r\n    }\r\n\r\n    function mint(uint256 amount) public onlyOwner returns(bool success) {\r\n        require(_settings.isMintable == true, \"Contract was not configured to be mintable\");\r\n        super._mint(_msgSender(), amount);\r\n        return true;\r\n    }\r\n\r\n    function burn(uint256 amount) public virtual override(ERC20Burnable) {\r\n        require(_settings.isBurnable == true, \"Contract was not configured to be burnable\");\r\n        super.burn(amount);\r\n    }\r\n} ",
  "sourcePath": "D:\\repositories\\mosaico-reference\\smart_contracts\\contracts\\MosaicoERC20.v1.sol",
  "compiler": {
    "name": "solc",
    "version": "0.8.9+commit.e5eed63a.Emscripten.clang"
  },
  "schemaVersion": "3.4.3",
  "updatedAt": "2021-11-15T21:12:27.551Z",
  "devdoc": {
    "kind": "dev",
    "methods": {
      "allowance(address,address)": {
        "details": "See {IERC20-allowance}."
      },
      "approve(address,uint256)": {
        "details": "See {IERC20-approve}. Requirements: - `spender` cannot be the zero address."
      },
      "balanceOf(address)": {
        "details": "See {IERC20-balanceOf}."
      },
      "burn(uint256)": {
        "details": "Destroys `amount` tokens from the caller. See {ERC20-_burn}."
      },
      "burnFrom(address,uint256)": {
        "details": "Destroys `amount` tokens from `account`, deducting from the caller's allowance. See {ERC20-_burn} and {ERC20-allowance}. Requirements: - the caller must have allowance for ``accounts``'s tokens of at least `amount`."
      },
      "decimals()": {
        "details": "Returns the number of decimals used to get its user representation. For example, if `decimals` equals `2`, a balance of `505` tokens should be displayed to a user as `5.05` (`505 / 10 ** 2`). Tokens usually opt for a value of 18, imitating the relationship between Ether and Wei. This is the value {ERC20} uses, unless this function is overridden; NOTE: This information is only used for _display_ purposes: it in no way affects any of the arithmetic of the contract, including {IERC20-balanceOf} and {IERC20-transfer}."
      },
      "decreaseAllowance(address,uint256)": {
        "details": "Atomically decreases the allowance granted to `spender` by the caller. This is an alternative to {approve} that can be used as a mitigation for problems described in {IERC20-approve}. Emits an {Approval} event indicating the updated allowance. Requirements: - `spender` cannot be the zero address. - `spender` must have allowance for the caller of at least `subtractedValue`."
      },
      "increaseAllowance(address,uint256)": {
        "details": "Atomically increases the allowance granted to `spender` by the caller. This is an alternative to {approve} that can be used as a mitigation for problems described in {IERC20-approve}. Emits an {Approval} event indicating the updated allowance. Requirements: - `spender` cannot be the zero address."
      },
      "name()": {
        "details": "Returns the name of the token."
      },
      "owner()": {
        "details": "Returns the address of the current owner."
      },
      "paused()": {
        "details": "Returns true if the contract is paused, and false otherwise."
      },
      "renounceOwnership()": {
        "details": "Leaves the contract without owner. It will not be possible to call `onlyOwner` functions anymore. Can only be called by the current owner. NOTE: Renouncing ownership will leave the contract without an owner, thereby removing any functionality that is only available to the owner."
      },
      "symbol()": {
        "details": "Returns the symbol of the token, usually a shorter version of the name."
      },
      "totalSupply()": {
        "details": "See {IERC20-totalSupply}."
      },
      "transferOwnership(address)": {
        "details": "Transfers ownership of the contract to a new account (`newOwner`). Can only be called by the current owner."
      }
    },
    "version": 1
  },
  "userdoc": {
    "kind": "user",
    "methods": {},
    "version": 1
  }
}