{
  "contractName": "MosaicoForwarder",
  "abi": [
    {
      "inputs": [],
      "stateMutability": "nonpayable",
      "type": "constructor"
    },
    {
      "inputs": [
        {
          "internalType": "address",
          "name": "from",
          "type": "address"
        }
      ],
      "name": "getNonce",
      "outputs": [
        {
          "internalType": "uint256",
          "name": "",
          "type": "uint256"
        }
      ],
      "stateMutability": "view",
      "type": "function"
    },
    {
      "inputs": [
        {
          "components": [
            {
              "internalType": "address",
              "name": "from",
              "type": "address"
            },
            {
              "internalType": "address",
              "name": "to",
              "type": "address"
            },
            {
              "internalType": "uint256",
              "name": "value",
              "type": "uint256"
            },
            {
              "internalType": "uint256",
              "name": "gas",
              "type": "uint256"
            },
            {
              "internalType": "uint256",
              "name": "nonce",
              "type": "uint256"
            },
            {
              "internalType": "bytes",
              "name": "data",
              "type": "bytes"
            }
          ],
          "internalType": "struct MosaicoForwarder.ForwardRequest",
          "name": "req",
          "type": "tuple"
        },
        {
          "internalType": "bytes",
          "name": "signature",
          "type": "bytes"
        }
      ],
      "name": "verify",
      "outputs": [
        {
          "internalType": "bool",
          "name": "",
          "type": "bool"
        }
      ],
      "stateMutability": "view",
      "type": "function"
    },
    {
      "inputs": [
        {
          "components": [
            {
              "internalType": "address",
              "name": "from",
              "type": "address"
            },
            {
              "internalType": "address",
              "name": "to",
              "type": "address"
            },
            {
              "internalType": "uint256",
              "name": "value",
              "type": "uint256"
            },
            {
              "internalType": "uint256",
              "name": "gas",
              "type": "uint256"
            },
            {
              "internalType": "uint256",
              "name": "nonce",
              "type": "uint256"
            },
            {
              "internalType": "bytes",
              "name": "data",
              "type": "bytes"
            }
          ],
          "internalType": "struct MosaicoForwarder.ForwardRequest",
          "name": "req",
          "type": "tuple"
        },
        {
          "internalType": "bytes",
          "name": "signature",
          "type": "bytes"
        }
      ],
      "name": "execute",
      "outputs": [
        {
          "internalType": "bool",
          "name": "",
          "type": "bool"
        },
        {
          "internalType": "bytes",
          "name": "",
          "type": "bytes"
        }
      ],
      "stateMutability": "payable",
      "type": "function"
    }
  ],
  "bytecode": "0x6101206040523480156200001257600080fd5b506040518060400160405280601081526020017f4d6f736169636f466f72776172646572000000000000000000000000000000008152506040518060400160405280600181526020017f310000000000000000000000000000000000000000000000000000000000000081525060008280519060200120905060008280519060200120905060007f8b73c3c69bb8fe3d512ecc4cf759cc79239f7b179b0ffacaa9a75d522b39400f90508260c081815250508160e081815250504660a08181525050620000e78184846200010260201b60201c565b60808181525050806101008181525050505050505062000216565b600083838346306040516020016200011f959493929190620001b9565b6040516020818303038152906040528051906020012090509392505050565b6000819050919050565b62000153816200013e565b82525050565b6000819050919050565b6200016e8162000159565b82525050565b600073ffffffffffffffffffffffffffffffffffffffff82169050919050565b6000620001a18262000174565b9050919050565b620001b38162000194565b82525050565b600060a082019050620001d0600083018862000148565b620001df602083018762000148565b620001ee604083018662000148565b620001fd606083018562000163565b6200020c6080830184620001a8565b9695505050505050565b60805160a05160c05160e051610100516113e46200025b60003960006105240152600061056601526000610545015260006104d1015260006104f901526113e46000f3fe6080604052600436106100345760003560e01c80632d0335ab1461003957806347153f8214610076578063bf5d3bdb146100a7575b600080fd5b34801561004557600080fd5b50610060600480360381019061005b9190610a18565b6100e4565b60405161006d9190610a5e565b60405180910390f35b610090600480360381019061008b9190610b02565b61012c565b60405161009e929190610c32565b60405180910390f35b3480156100b357600080fd5b506100ce60048036038101906100c99190610b02565b6102d7565b6040516100db9190610c62565b60405180910390f35b60008060008373ffffffffffffffffffffffffffffffffffffffff1673ffffffffffffffffffffffffffffffffffffffff168152602001908152602001600020549050919050565b6000606061013b8585856102d7565b61017a576040517f08c379a000000000000000000000000000000000000000000000000000000000815260040161017190610d00565b60405180910390fd5b6001856080013561018b9190610d4f565b6000808760000160208101906101a19190610a18565b73ffffffffffffffffffffffffffffffffffffffff1673ffffffffffffffffffffffffffffffffffffffff168152602001908152602001600020819055506000808660200160208101906101f59190610a18565b73ffffffffffffffffffffffffffffffffffffffff1687606001358860400135898060a001906102259190610db4565b8b60000160208101906102389190610a18565b60405160200161024a93929190610e9e565b6040516020818303038152906040526040516102669190610ef9565b600060405180830381858888f193505050503d80600081146102a4576040519150601f19603f3d011682016040523d82523d6000602084013e6102a9565b606091505b5091509150603f87606001356102bf9190610f3f565b5a116102c757fe5b8181935093505050935093915050565b6000806103e084848080601f016020809104026020016040519081016040528093929190818152602001838380828437600081840152601f19601f820116905080830192505050505050506103d27fdd8f4b70b0f4393e889bd39128a30628a78b61816a9eb8199759e7a349657e488860000160208101906103599190610a18565b89602001602081019061036c9190610a18565b8a604001358b606001358c608001358d8060a0019061038b9190610db4565b604051610399929190610f70565b60405180910390206040516020016103b79796959493929190610fb1565b6040516020818303038152906040528051906020012061048c565b6104a690919063ffffffff16565b905084608001356000808760000160208101906103fd9190610a18565b73ffffffffffffffffffffffffffffffffffffffff1673ffffffffffffffffffffffffffffffffffffffff1681526020019081526020016000205414801561048257508460000160208101906104539190610a18565b73ffffffffffffffffffffffffffffffffffffffff168173ffffffffffffffffffffffffffffffffffffffff16145b9150509392505050565b600061049f6104996104cd565b83610590565b9050919050565b60008060006104b585856105c3565b915091506104c281610646565b819250505092915050565b60007f000000000000000000000000000000000000000000000000000000000000000046141561051f577f0000000000000000000000000000000000000000000000000000000000000000905061058d565b61058a7f00000000000000000000000000000000000000000000000000000000000000007f00000000000000000000000000000000000000000000000000000000000000007f000000000000000000000000000000000000000000000000000000000000000061081b565b90505b90565b600082826040516020016105a5929190611098565b60405160208183030381529060405280519060200120905092915050565b6000806041835114156106055760008060006020860151925060408601519150606086015160001a90506105f987828585610855565b9450945050505061063f565b60408351141561063657600080602085015191506040850151905061062b868383610962565b93509350505061063f565b60006002915091505b9250929050565b6000600481111561065a576106596110cf565b5b81600481111561066d5761066c6110cf565b5b141561067857610818565b6001600481111561068c5761068b6110cf565b5b81600481111561069f5761069e6110cf565b5b14156106e0576040517f08c379a00000000000000000000000000000000000000000000000000000000081526004016106d79061114a565b60405180910390fd5b600260048111156106f4576106f36110cf565b5b816004811115610707576107066110cf565b5b1415610748576040517f08c379a000000000000000000000000000000000000000000000000000000000815260040161073f906111b6565b60405180910390fd5b6003600481111561075c5761075b6110cf565b5b81600481111561076f5761076e6110cf565b5b14156107b0576040517f08c379a00000000000000000000000000000000000000000000000000000000081526004016107a790611248565b60405180910390fd5b6004808111156107c3576107c26110cf565b5b8160048111156107d6576107d56110cf565b5b1415610817576040517f08c379a000000000000000000000000000000000000000000000000000000000815260040161080e906112da565b60405180910390fd5b5b50565b600083838346306040516020016108369594939291906112fa565b6040516020818303038152906040528051906020012090509392505050565b6000807f7fffffffffffffffffffffffffffffff5d576e7357a4501ddfe92f46681b20a08360001c1115610890576000600391509150610959565b601b8560ff16141580156108a85750601c8560ff1614155b156108ba576000600491509150610959565b6000600187878787604051600081526020016040526040516108df9493929190611369565b6020604051602081039080840390855afa158015610901573d6000803e3d6000fd5b505050602060405103519050600073ffffffffffffffffffffffffffffffffffffffff168173ffffffffffffffffffffffffffffffffffffffff16141561095057600060019250925050610959565b80600092509250505b94509492505050565b6000806000807f7fffffffffffffffffffffffffffffffffffffffffffffffffffffffffffffff85169150601b8560ff1c0190506109a287828885610855565b935093505050935093915050565b600080fd5b600080fd5b600073ffffffffffffffffffffffffffffffffffffffff82169050919050565b60006109e5826109ba565b9050919050565b6109f5816109da565b8114610a0057600080fd5b50565b600081359050610a12816109ec565b92915050565b600060208284031215610a2e57610a2d6109b0565b5b6000610a3c84828501610a03565b91505092915050565b6000819050919050565b610a5881610a45565b82525050565b6000602082019050610a736000830184610a4f565b92915050565b600080fd5b600060c08284031215610a9457610a93610a79565b5b81905092915050565b600080fd5b600080fd5b600080fd5b60008083601f840112610ac257610ac1610a9d565b5b8235905067ffffffffffffffff811115610adf57610ade610aa2565b5b602083019150836001820283011115610afb57610afa610aa7565b5b9250929050565b600080600060408486031215610b1b57610b1a6109b0565b5b600084013567ffffffffffffffff811115610b3957610b386109b5565b5b610b4586828701610a7e565b935050602084013567ffffffffffffffff811115610b6657610b656109b5565b5b610b7286828701610aac565b92509250509250925092565b60008115159050919050565b610b9381610b7e565b82525050565b600081519050919050565b600082825260208201905092915050565b60005b83811015610bd3578082015181840152602081019050610bb8565b83811115610be2576000848401525b50505050565b6000601f19601f8301169050919050565b6000610c0482610b99565b610c0e8185610ba4565b9350610c1e818560208601610bb5565b610c2781610be8565b840191505092915050565b6000604082019050610c476000830185610b8a565b8181036020830152610c598184610bf9565b90509392505050565b6000602082019050610c776000830184610b8a565b92915050565b600082825260208201905092915050565b7f4d6f736169636f466f727761726465723a207369676e617475726520646f657360008201527f206e6f74206d6174636820726571756573740000000000000000000000000000602082015250565b6000610cea603283610c7d565b9150610cf582610c8e565b604082019050919050565b60006020820190508181036000830152610d1981610cdd565b9050919050565b7f4e487b7100000000000000000000000000000000000000000000000000000000600052601160045260246000fd5b6000610d5a82610a45565b9150610d6583610a45565b9250827fffffffffffffffffffffffffffffffffffffffffffffffffffffffffffffffff03821115610d9a57610d99610d20565b5b828201905092915050565b600080fd5b600080fd5b600080fd5b60008083356001602003843603038112610dd157610dd0610da5565b5b80840192508235915067ffffffffffffffff821115610df357610df2610daa565b5b602083019250600182023603831315610e0f57610e0e610daf565b5b509250929050565b600081905092915050565b82818337600083830152505050565b6000610e3d8385610e17565b9350610e4a838584610e22565b82840190509392505050565b60008160601b9050919050565b6000610e6e82610e56565b9050919050565b6000610e8082610e63565b9050919050565b610e98610e93826109da565b610e75565b82525050565b6000610eab828587610e31565b9150610eb78284610e87565b601482019150819050949350505050565b6000610ed382610b99565b610edd8185610e17565b9350610eed818560208601610bb5565b80840191505092915050565b6000610f058284610ec8565b915081905092915050565b7f4e487b7100000000000000000000000000000000000000000000000000000000600052601260045260246000fd5b6000610f4a82610a45565b9150610f5583610a45565b925082610f6557610f64610f10565b5b828204905092915050565b6000610f7d828486610e31565b91508190509392505050565b6000819050919050565b610f9c81610f89565b82525050565b610fab816109da565b82525050565b600060e082019050610fc6600083018a610f93565b610fd36020830189610fa2565b610fe06040830188610fa2565b610fed6060830187610a4f565b610ffa6080830186610a4f565b61100760a0830185610a4f565b61101460c0830184610f93565b98975050505050505050565b600081905092915050565b7f1901000000000000000000000000000000000000000000000000000000000000600082015250565b6000611061600283611020565b915061106c8261102b565b600282019050919050565b6000819050919050565b61109261108d82610f89565b611077565b82525050565b60006110a382611054565b91506110af8285611081565b6020820191506110bf8284611081565b6020820191508190509392505050565b7f4e487b7100000000000000000000000000000000000000000000000000000000600052602160045260246000fd5b7f45434453413a20696e76616c6964207369676e61747572650000000000000000600082015250565b6000611134601883610c7d565b915061113f826110fe565b602082019050919050565b6000602082019050818103600083015261116381611127565b9050919050565b7f45434453413a20696e76616c6964207369676e6174757265206c656e67746800600082015250565b60006111a0601f83610c7d565b91506111ab8261116a565b602082019050919050565b600060208201905081810360008301526111cf81611193565b9050919050565b7f45434453413a20696e76616c6964207369676e6174757265202773272076616c60008201527f7565000000000000000000000000000000000000000000000000000000000000602082015250565b6000611232602283610c7d565b915061123d826111d6565b604082019050919050565b6000602082019050818103600083015261126181611225565b9050919050565b7f45434453413a20696e76616c6964207369676e6174757265202776272076616c60008201527f7565000000000000000000000000000000000000000000000000000000000000602082015250565b60006112c4602283610c7d565b91506112cf82611268565b604082019050919050565b600060208201905081810360008301526112f3816112b7565b9050919050565b600060a08201905061130f6000830188610f93565b61131c6020830187610f93565b6113296040830186610f93565b6113366060830185610a4f565b6113436080830184610fa2565b9695505050505050565b600060ff82169050919050565b6113638161134d565b82525050565b600060808201905061137e6000830187610f93565b61138b602083018661135a565b6113986040830185610f93565b6113a56060830184610f93565b9594505050505056fea264697066735822122095a2f30760e4e715f7f384f9fb739b12510cc2c621de15144e02a78b7ace462264736f6c63430008090033",
  "immutableReferences": {
    "11345": [
      {
        "length": 32,
        "start": 1273
      }
    ],
    "11347": [
      {
        "length": 32,
        "start": 1233
      }
    ],
    "11349": [
      {
        "length": 32,
        "start": 1349
      }
    ],
    "11351": [
      {
        "length": 32,
        "start": 1382
      }
    ],
    "11353": [
      {
        "length": 32,
        "start": 1316
      }
    ]
  },
  "source": "// SPDX-License-Identifier: MIT\r\n// OpenZeppelin Contracts v4.3.2 (utils/MosaicoERC20.sol)\r\npragma solidity ^0.8.9;\r\n\r\nimport \"../node_modules/@openzeppelin/contracts/utils/cryptography/ECDSA.sol\";\r\nimport \"../node_modules/@openzeppelin/contracts/utils/cryptography/draft-EIP712.sol\";\r\n\r\n/**\r\n * @dev Simple minimal forwarder to be used together with an ERC2771 compatible contract. See {ERC2771Context}.\r\n */\r\ncontract MosaicoForwarder is EIP712 {\r\n    using ECDSA for bytes32;\r\n\r\n    struct ForwardRequest {\r\n        address from;\r\n        address to;\r\n        uint256 value;\r\n        uint256 gas;\r\n        uint256 nonce;\r\n        bytes data;\r\n    }\r\n\r\n    bytes32 private constant _TYPEHASH =\r\n        keccak256(\"ForwardRequest(address from,address to,uint256 value,uint256 gas,uint256 nonce,bytes data)\");\r\n\r\n    mapping(address => uint256) private _nonces;\r\n\r\n    constructor() EIP712(\"MosaicoForwarder\", \"1\") {}\r\n\r\n    function getNonce(address from) public view returns (uint256) {\r\n        return _nonces[from];\r\n    }\r\n\r\n    function verify(ForwardRequest calldata req, bytes calldata signature) public view returns (bool) {\r\n        address signer = _hashTypedDataV4(\r\n            keccak256(abi.encode(_TYPEHASH, req.from, req.to, req.value, req.gas, req.nonce, keccak256(req.data)))\r\n        ).recover(signature);\r\n        return _nonces[req.from] == req.nonce && signer == req.from;\r\n    }\r\n\r\n    function execute(ForwardRequest calldata req, bytes calldata signature)\r\n        public\r\n        payable\r\n        returns (bool, bytes memory)\r\n    {\r\n        require(verify(req, signature), \"MosaicoForwarder: signature does not match request\");\r\n        _nonces[req.from] = req.nonce + 1;\r\n\r\n        (bool success, bytes memory returndata) = req.to.call{gas: req.gas, value: req.value}(\r\n            abi.encodePacked(req.data, req.from)\r\n        );\r\n\r\n        // Validate that the relayer has sent enough gas for the call.\r\n        // See https://ronan.eth.link/blog/ethereum-gas-dangers/\r\n        if (gasleft() <= req.gas / 63) {\r\n            // We explicitly trigger invalid opcode to consume all gas and bubble-up the effects, since\r\n            // neither revert or assert consume all gas since Solidity 0.8.0\r\n            // https://docs.soliditylang.org/en/v0.8.0/control-structures.html#panic-via-assert-and-error-via-require\r\n            assembly {\r\n                invalid()\r\n            }\r\n        }\r\n\r\n        return (success, returndata);\r\n    }\r\n}",
  "sourcePath": "D:\\repositories\\mosaico-reference\\smart_contracts\\contracts\\MosaicoForwarder.sol",
  "compiler": {
    "name": "solc",
    "version": "0.8.9+commit.e5eed63a.Emscripten.clang"
  },
  "schemaVersion": "3.4.3",
  "updatedAt": "2022-04-01T04:17:56.619Z",
  "devdoc": {
    "details": "Simple minimal forwarder to be used together with an ERC2771 compatible contract. See {ERC2771Context}.",
    "kind": "dev",
    "methods": {},
    "version": 1
  },
  "userdoc": {
    "kind": "user",
    "methods": {},
    "version": 1
  }
}