{
  "contractName": "MosaicoERC20v1",
  "abi": [
    {
      "inputs": [
        {
          "components": [
            {
              "internalType": "bool",
              "name": "isMintable",
              "type": "bool"
            },
            {
              "internalType": "bool",
              "name": "isBurnable",
              "type": "bool"
            },
            {
              "internalType": "string",
              "name": "name",
              "type": "string"
            },
            {
              "internalType": "string",
              "name": "symbol",
              "type": "string"
            },
            {
              "internalType": "uint256",
              "name": "initialSupply",
              "type": "uint256"
            },
            {
              "internalType": "address",
              "name": "walletAddress",
              "type": "address"
            },
            {
              "internalType": "bool",
              "name": "isGovernance",
              "type": "bool"
            }
          ],
          "internalType": "struct MosaicoStructs.ERC20Settings",
          "name": "settings",
          "type": "tuple"
        }
      ],
      "stateMutability": "nonpayable",
      "type": "constructor"
    },
    {
      "anonymous": false,
      "inputs": [
        {
          "indexed": true,
          "internalType": "address",
          "name": "owner",
          "type": "address"
        },
        {
          "indexed": true,
          "internalType": "address",
          "name": "spender",
          "type": "address"
        },
        {
          "indexed": false,
          "internalType": "uint256",
          "name": "value",
          "type": "uint256"
        }
      ],
      "name": "Approval",
      "type": "event"
    },
    {
      "anonymous": false,
      "inputs": [
        {
          "indexed": true,
          "internalType": "address",
          "name": "newOwner",
          "type": "address"
        }
      ],
      "name": "OwnerAdded",
      "type": "event"
    },
    {
      "anonymous": false,
      "inputs": [
        {
          "indexed": true,
          "internalType": "address",
          "name": "oldOwner",
          "type": "address"
        }
      ],
      "name": "OwnerRemoved",
      "type": "event"
    },
    {
      "anonymous": false,
      "inputs": [
        {
          "indexed": false,
          "internalType": "address",
          "name": "account",
          "type": "address"
        }
      ],
      "name": "Paused",
      "type": "event"
    },
    {
      "anonymous": false,
      "inputs": [
        {
          "indexed": true,
          "internalType": "address",
          "name": "from",
          "type": "address"
        },
        {
          "indexed": true,
          "internalType": "address",
          "name": "to",
          "type": "address"
        },
        {
          "indexed": false,
          "internalType": "uint256",
          "name": "value",
          "type": "uint256"
        }
      ],
      "name": "Transfer",
      "type": "event"
    },
    {
      "anonymous": false,
      "inputs": [
        {
          "indexed": false,
          "internalType": "address",
          "name": "account",
          "type": "address"
        }
      ],
      "name": "Unpaused",
      "type": "event"
    },
    {
      "inputs": [],
      "name": "DOMAIN_SEPARATOR",
      "outputs": [
        {
          "internalType": "bytes32",
          "name": "",
          "type": "bytes32"
        }
      ],
      "stateMutability": "view",
      "type": "function"
    },
    {
      "inputs": [
        {
          "internalType": "uint256",
          "name": "",
          "type": "uint256"
        }
      ],
      "name": "_owners",
      "outputs": [
        {
          "internalType": "address",
          "name": "",
          "type": "address"
        }
      ],
      "stateMutability": "view",
      "type": "function"
    },
    {
      "inputs": [
        {
          "internalType": "address",
          "name": "owner",
          "type": "address"
        },
        {
          "internalType": "address",
          "name": "spender",
          "type": "address"
        }
      ],
      "name": "allowance",
      "outputs": [
        {
          "internalType": "uint256",
          "name": "",
          "type": "uint256"
        }
      ],
      "stateMutability": "view",
      "type": "function"
    },
    {
      "inputs": [
        {
          "internalType": "address",
          "name": "spender",
          "type": "address"
        },
        {
          "internalType": "uint256",
          "name": "amount",
          "type": "uint256"
        }
      ],
      "name": "approve",
      "outputs": [
        {
          "internalType": "bool",
          "name": "",
          "type": "bool"
        }
      ],
      "stateMutability": "nonpayable",
      "type": "function"
    },
    {
      "inputs": [
        {
          "internalType": "address",
          "name": "account",
          "type": "address"
        }
      ],
      "name": "balanceOf",
      "outputs": [
        {
          "internalType": "uint256",
          "name": "",
          "type": "uint256"
        }
      ],
      "stateMutability": "view",
      "type": "function"
    },
    {
      "inputs": [
        {
          "internalType": "address",
          "name": "account",
          "type": "address"
        },
        {
          "internalType": "uint256",
          "name": "amount",
          "type": "uint256"
        }
      ],
      "name": "burnFrom",
      "outputs": [],
      "stateMutability": "nonpayable",
      "type": "function"
    },
    {
      "inputs": [],
      "name": "decimals",
      "outputs": [
        {
          "internalType": "uint8",
          "name": "",
          "type": "uint8"
        }
      ],
      "stateMutability": "view",
      "type": "function"
    },
    {
      "inputs": [
        {
          "internalType": "address",
          "name": "spender",
          "type": "address"
        },
        {
          "internalType": "uint256",
          "name": "subtractedValue",
          "type": "uint256"
        }
      ],
      "name": "decreaseAllowance",
      "outputs": [
        {
          "internalType": "bool",
          "name": "",
          "type": "bool"
        }
      ],
      "stateMutability": "nonpayable",
      "type": "function"
    },
    {
      "inputs": [],
      "name": "getOwners",
      "outputs": [
        {
          "internalType": "address[]",
          "name": "",
          "type": "address[]"
        }
      ],
      "stateMutability": "view",
      "type": "function"
    },
    {
      "inputs": [
        {
          "internalType": "address",
          "name": "spender",
          "type": "address"
        },
        {
          "internalType": "uint256",
          "name": "addedValue",
          "type": "uint256"
        }
      ],
      "name": "increaseAllowance",
      "outputs": [
        {
          "internalType": "bool",
          "name": "",
          "type": "bool"
        }
      ],
      "stateMutability": "nonpayable",
      "type": "function"
    },
    {
      "inputs": [
        {
          "internalType": "address",
          "name": "account",
          "type": "address"
        }
      ],
      "name": "isOwner",
      "outputs": [
        {
          "internalType": "bool",
          "name": "",
          "type": "bool"
        }
      ],
      "stateMutability": "view",
      "type": "function"
    },
    {
      "inputs": [],
      "name": "name",
      "outputs": [
        {
          "internalType": "string",
          "name": "",
          "type": "string"
        }
      ],
      "stateMutability": "view",
      "type": "function"
    },
    {
      "inputs": [
        {
          "internalType": "address",
          "name": "owner",
          "type": "address"
        }
      ],
      "name": "nonces",
      "outputs": [
        {
          "internalType": "uint256",
          "name": "",
          "type": "uint256"
        }
      ],
      "stateMutability": "view",
      "type": "function"
    },
    {
      "inputs": [],
      "name": "paused",
      "outputs": [
        {
          "internalType": "bool",
          "name": "",
          "type": "bool"
        }
      ],
      "stateMutability": "view",
      "type": "function"
    },
    {
      "inputs": [
        {
          "internalType": "address",
          "name": "owner",
          "type": "address"
        },
        {
          "internalType": "address",
          "name": "spender",
          "type": "address"
        },
        {
          "internalType": "uint256",
          "name": "value",
          "type": "uint256"
        },
        {
          "internalType": "uint256",
          "name": "deadline",
          "type": "uint256"
        },
        {
          "internalType": "uint8",
          "name": "v",
          "type": "uint8"
        },
        {
          "internalType": "bytes32",
          "name": "r",
          "type": "bytes32"
        },
        {
          "internalType": "bytes32",
          "name": "s",
          "type": "bytes32"
        }
      ],
      "name": "permit",
      "outputs": [],
      "stateMutability": "nonpayable",
      "type": "function"
    },
    {
      "inputs": [],
      "name": "requiredApprovals",
      "outputs": [
        {
          "internalType": "uint256",
          "name": "",
          "type": "uint256"
        }
      ],
      "stateMutability": "view",
      "type": "function"
    },
    {
      "inputs": [],
      "name": "symbol",
      "outputs": [
        {
          "internalType": "string",
          "name": "",
          "type": "string"
        }
      ],
      "stateMutability": "view",
      "type": "function"
    },
    {
      "inputs": [],
      "name": "totalSupply",
      "outputs": [
        {
          "internalType": "uint256",
          "name": "",
          "type": "uint256"
        }
      ],
      "stateMutability": "view",
      "type": "function"
    },
    {
      "inputs": [
        {
          "internalType": "address",
          "name": "to",
          "type": "address"
        },
        {
          "internalType": "uint256",
          "name": "value",
          "type": "uint256"
        }
      ],
      "name": "transfer",
      "outputs": [
        {
          "internalType": "bool",
          "name": "",
          "type": "bool"
        }
      ],
      "stateMutability": "nonpayable",
      "type": "function"
    },
    {
      "inputs": [
        {
          "internalType": "address",
          "name": "from",
          "type": "address"
        },
        {
          "internalType": "address",
          "name": "to",
          "type": "address"
        },
        {
          "internalType": "uint256",
          "name": "value",
          "type": "uint256"
        }
      ],
      "name": "transferFrom",
      "outputs": [
        {
          "internalType": "bool",
          "name": "",
          "type": "bool"
        }
      ],
      "stateMutability": "nonpayable",
      "type": "function"
    },
    {
      "inputs": [],
      "name": "pause",
      "outputs": [],
      "stateMutability": "nonpayable",
      "type": "function"
    },
    {
      "inputs": [],
      "name": "unpause",
      "outputs": [],
      "stateMutability": "nonpayable",
      "type": "function"
    },
    {
      "inputs": [
        {
          "internalType": "uint256",
          "name": "amount",
          "type": "uint256"
        },
        {
          "internalType": "address",
          "name": "walletAddress",
          "type": "address"
        }
      ],
      "name": "mint",
      "outputs": [
        {
          "internalType": "bool",
          "name": "success",
          "type": "bool"
        }
      ],
      "stateMutability": "nonpayable",
      "type": "function"
    },
    {
      "inputs": [
        {
          "internalType": "uint256",
          "name": "amount",
          "type": "uint256"
        }
      ],
      "name": "burn",
      "outputs": [],
      "stateMutability": "nonpayable",
      "type": "function"
    },
    {
      "inputs": [
        {
          "internalType": "address",
          "name": "from",
          "type": "address"
        },
        {
          "internalType": "address[]",
          "name": "recipients",
          "type": "address[]"
        },
        {
          "internalType": "uint256[]",
          "name": "amounts",
          "type": "uint256[]"
        }
      ],
      "name": "batchTransferFrom",
      "outputs": [],
      "stateMutability": "nonpayable",
      "type": "function"
    }
  ],
  "bytecode": "0x6101406040527f6e71edae12b1b97f4d1f60370fef10105fa2faae0126114a169c64845d6126c9610120908152506000600955620000426200047f60201b60201c565b600a60006101000a81548173ffffffffffffffffffffffffffffffffffffffff021916908373ffffffffffffffffffffffffffffffffffffffff1602179055503480156200008f57600080fd5b5060405162004aba38038062004aba8339818101604052810190620000b5919062000cb3565b620000c56200047f60201b60201c565b8160400151806040518060400160405280600181526020017f3100000000000000000000000000000000000000000000000000000000000000815250846040015185606001518160039080519060200190620001239291906200087a565b5080600490805190602001906200013c9291906200087a565b50505060008280519060200120905060008280519060200120905060007f8b73c3c69bb8fe3d512ecc4cf759cc79239f7b179b0ffacaa9a75d522b39400f90508260c081815250508160e081815250504660a08181525050620001a78184846200048760201b60201c565b608081815250508061010081815250505050505050506000600660006101000a81548160ff021916908315150217905550620001e981620004c360201b60201c565b5080600b60008201518160000160006101000a81548160ff02191690831515021790555060208201518160000160016101000a81548160ff02191690831515021790555060408201518160010190805190602001906200024b9291906200087a565b5060608201518160020190805190602001906200026a9291906200087a565b506080820151816003015560a08201518160040160006101000a81548173ffffffffffffffffffffffffffffffffffffffff021916908373ffffffffffffffffffffffffffffffffffffffff16021790555060c08201518160040160146101000a81548160ff021916908315150217905550905050600073ffffffffffffffffffffffffffffffffffffffff16600b60040160009054906101000a900473ffffffffffffffffffffffffffffffffffffffff1673ffffffffffffffffffffffffffffffffffffffff16146200043f57600b60040160009054906101000a900473ffffffffffffffffffffffffffffffffffffffff16600a60006101000a81548173ffffffffffffffffffffffffffffffffffffffff021916908373ffffffffffffffffffffffffffffffffffffffff160217905550620003af6200047f60201b60201c565b73ffffffffffffffffffffffffffffffffffffffff16600b60040160009054906101000a900473ffffffffffffffffffffffffffffffffffffffff1673ffffffffffffffffffffffffffffffffffffffff16146200043e576200043d600b60040160009054906101000a900473ffffffffffffffffffffffffffffffffffffffff16620004c360201b60201c565b5b5b62000478600a60009054906101000a900473ffffffffffffffffffffffffffffffffffffffff16600b600301546200066a60201b60201c565b5062001040565b600033905090565b60008383834630604051602001620004a495949392919062000d41565b6040516020818303038152906040528051906020012090509392505050565b60001515600760008373ffffffffffffffffffffffffffffffffffffffff1673ffffffffffffffffffffffffffffffffffffffff16815260200190815260200160002060009054906101000a900460ff1615151462000559576040517f08c379a0000000000000000000000000000000000000000000000000000000008152600401620005509062000dff565b60405180910390fd5b6001600760008373ffffffffffffffffffffffffffffffffffffffff1673ffffffffffffffffffffffffffffffffffffffff16815260200190815260200160002060006101000a81548160ff0219169083151502179055506008819080600181540180825580915050600190039060005260206000200160009091909190916101000a81548173ffffffffffffffffffffffffffffffffffffffff021916908373ffffffffffffffffffffffffffffffffffffffff16021790555062000624620007e360201b60201c565b8073ffffffffffffffffffffffffffffffffffffffff167f994a936646fe87ffe4f1e469d3d6aa417d6b855598397f323de5b449f765f0c360405160405180910390a250565b600073ffffffffffffffffffffffffffffffffffffffff168273ffffffffffffffffffffffffffffffffffffffff161415620006dd576040517f08c379a0000000000000000000000000000000000000000000000000000000008152600401620006d49062000e71565b60405180910390fd5b620006f1600083836200082960201b60201c565b806002600082825462000705919062000ec2565b92505081905550806000808473ffffffffffffffffffffffffffffffffffffffff1673ffffffffffffffffffffffffffffffffffffffff16815260200190815260200160002060008282546200075c919062000ec2565b925050819055508173ffffffffffffffffffffffffffffffffffffffff16600073ffffffffffffffffffffffffffffffffffffffff167fddf252ad1be2c89b69c2b068fc378daa952ba7f163c4a11628f55a4df523b3ef83604051620007c3919062000f1f565b60405180910390a3620007df600083836200082e60201b60201c565b5050565b600260088054905011620008035760088054905060098190555062000827565b6200082060088054905060026200083360201b620010df1760201c565b6009819055505b565b505050565b505050565b600080828462000844919062000f6b565b146200085257600162000855565b60005b60ff16828462000866919062000fa3565b62000872919062000ec2565b905092915050565b82805462000888906200100a565b90600052602060002090601f016020900481019282620008ac5760008555620008f8565b82601f10620008c757805160ff1916838001178555620008f8565b82800160010185558215620008f8579182015b82811115620008f7578251825591602001919060010190620008da565b5b5090506200090791906200090b565b5090565b5b80821115620009265760008160009055506001016200090c565b5090565b6000604051905090565b600080fd5b600080fd5b600080fd5b6000601f19601f8301169050919050565b7f4e487b7100000000000000000000000000000000000000000000000000000000600052604160045260246000fd5b6200098e8262000943565b810181811067ffffffffffffffff82111715620009b057620009af62000954565b5b80604052505050565b6000620009c56200092a565b9050620009d3828262000983565b919050565b600080fd5b60008115159050919050565b620009f481620009dd565b811462000a0057600080fd5b50565b60008151905062000a1481620009e9565b92915050565b600080fd5b600080fd5b600067ffffffffffffffff82111562000a425762000a4162000954565b5b62000a4d8262000943565b9050602081019050919050565b60005b8381101562000a7a57808201518184015260208101905062000a5d565b8381111562000a8a576000848401525b50505050565b600062000aa762000aa18462000a24565b620009b9565b90508281526020810184848401111562000ac65762000ac562000a1f565b5b62000ad384828562000a5a565b509392505050565b600082601f83011262000af35762000af262000a1a565b5b815162000b0584826020860162000a90565b91505092915050565b6000819050919050565b62000b238162000b0e565b811462000b2f57600080fd5b50565b60008151905062000b438162000b18565b92915050565b600073ffffffffffffffffffffffffffffffffffffffff82169050919050565b600062000b768262000b49565b9050919050565b62000b888162000b69565b811462000b9457600080fd5b50565b60008151905062000ba88162000b7d565b92915050565b600060e0828403121562000bc75762000bc66200093e565b5b62000bd360e0620009b9565b9050600062000be58482850162000a03565b600083015250602062000bfb8482850162000a03565b602083015250604082015167ffffffffffffffff81111562000c225762000c21620009d8565b5b62000c308482850162000adb565b604083015250606082015167ffffffffffffffff81111562000c575762000c56620009d8565b5b62000c658482850162000adb565b606083015250608062000c7b8482850162000b32565b60808301525060a062000c918482850162000b97565b60a08301525060c062000ca78482850162000a03565b60c08301525092915050565b60006020828403121562000ccc5762000ccb62000934565b5b600082015167ffffffffffffffff81111562000ced5762000cec62000939565b5b62000cfb8482850162000bae565b91505092915050565b6000819050919050565b62000d198162000d04565b82525050565b62000d2a8162000b0e565b82525050565b62000d3b8162000b69565b82525050565b600060a08201905062000d58600083018862000d0e565b62000d67602083018762000d0e565b62000d76604083018662000d0e565b62000d85606083018562000d1f565b62000d94608083018462000d30565b9695505050505050565b600082825260208201905092915050565b7f4d756c74694f776e61626c653a20616c726561647920616e206f776e65720000600082015250565b600062000de7601e8362000d9e565b915062000df48262000daf565b602082019050919050565b6000602082019050818103600083015262000e1a8162000dd8565b9050919050565b7f45524332303a206d696e7420746f20746865207a65726f206164647265737300600082015250565b600062000e59601f8362000d9e565b915062000e668262000e21565b602082019050919050565b6000602082019050818103600083015262000e8c8162000e4a565b9050919050565b7f4e487b7100000000000000000000000000000000000000000000000000000000600052601160045260246000fd5b600062000ecf8262000b0e565b915062000edc8362000b0e565b9250827fffffffffffffffffffffffffffffffffffffffffffffffffffffffffffffffff0382111562000f145762000f1362000e93565b5b828201905092915050565b600060208201905062000f36600083018462000d1f565b92915050565b7f4e487b7100000000000000000000000000000000000000000000000000000000600052601260045260246000fd5b600062000f788262000b0e565b915062000f858362000b0e565b92508262000f985762000f9762000f3c565b5b828206905092915050565b600062000fb08262000b0e565b915062000fbd8362000b0e565b92508262000fd05762000fcf62000f3c565b5b828204905092915050565b7f4e487b7100000000000000000000000000000000000000000000000000000000600052602260045260246000fd5b600060028204905060018216806200102357607f821691505b602082108114156200103a576200103962000fdb565b5b50919050565b60805160a05160c05160e0516101005161012051613a2a620010906000396000610f5d015260006114400152600061148201526000611461015260006113ed015260006114150152613a2a6000f3fe608060405234801561001057600080fd5b50600436106101735760003560e01c806370a08231116100de578063992924a611610097578063a457c2d711610071578063a457c2d714610450578063a9059cbb14610480578063d505accf146104b0578063dd62ed3e146104cc57610173565b8063992924a6146103e457806399c1aadc14610414578063a0e67e2b1461043257610173565b806370a082311461031057806379cc6790146103405780637ecebe001461035c5780638456cb591461038c57806394bf804d1461039657806395d89b41146103c657610173565b80633644e515116101305780633644e5151461026257806339509351146102805780633f4ba83a146102b057806342966c68146102ba5780634885b254146102d65780635c975abb146102f257610173565b806306fdde0314610178578063095ea7b31461019657806318160ddd146101c657806323b872dd146101e45780632f54bf6e14610214578063313ce56714610244575b600080fd5b6101806104fc565b60405161018d9190612094565b60405180910390f35b6101b060048036038101906101ab919061215e565b61058e565b6040516101bd91906121b9565b60405180910390f35b6101ce6105ac565b6040516101db91906121e3565b60405180910390f35b6101fe60048036038101906101f991906121fe565b6105b6565b60405161020b91906121b9565b60405180910390f35b61022e60048036038101906102299190612251565b610614565b60405161023b91906121b9565b60405180910390f35b61024c610671565b604051610259919061229a565b60405180910390f35b61026a61067a565b60405161027791906122ce565b60405180910390f35b61029a6004803603810190610295919061215e565b610689565b6040516102a791906121b9565b60405180910390f35b6102b8610735565b005b6102d460048036038101906102cf91906122e9565b61078e565b005b6102f060048036038101906102eb9190612521565b6107f3565b005b6102fa6109b5565b60405161030791906121b9565b60405180910390f35b61032a60048036038101906103259190612251565b6109cc565b60405161033791906121e3565b60405180910390f35b61035a6004803603810190610355919061215e565b610a14565b005b61037660048036038101906103719190612251565b610a8f565b60405161038391906121e3565b60405180910390f35b610394610adf565b005b6103b060048036038101906103ab91906125ac565b610b38565b6040516103bd91906121b9565b60405180910390f35b6103ce610c66565b6040516103db9190612094565b60405180910390f35b6103fe60048036038101906103f991906122e9565b610cf8565b60405161040b91906125fb565b60405180910390f35b61041c610d37565b60405161042991906121e3565b60405180910390f35b61043a610d41565b60405161044791906126d4565b60405180910390f35b61046a6004803603810190610465919061215e565b610dcf565b60405161047791906121b9565b60405180910390f35b61049a6004803603810190610495919061215e565b610eba565b6040516104a791906121b9565b60405180910390f35b6104ca60048036038101906104c5919061274e565b610f16565b005b6104e660048036038101906104e191906127f0565b611058565b6040516104f391906121e3565b60405180910390f35b60606003805461050b9061285f565b80601f01602080910402602001604051908101604052809291908181526020018280546105379061285f565b80156105845780601f1061055957610100808354040283529160200191610584565b820191906000526020600020905b81548152906001019060200180831161056757829003601f168201915b5050505050905090565b60006105a261059b61111e565b8484611126565b6001905092915050565b6000600254905090565b60006105c06109b5565b15610600576040517f08c379a00000000000000000000000000000000000000000000000000000000081526004016105f7906128dd565b60405180910390fd5b61060b8484846112f1565b90509392505050565b600060011515600760008473ffffffffffffffffffffffffffffffffffffffff1673ffffffffffffffffffffffffffffffffffffffff16815260200190815260200160002060009054906101000a900460ff161515149050919050565b60006012905090565b60006106846113e9565b905090565b600061072b61069661111e565b8484600160006106a461111e565b73ffffffffffffffffffffffffffffffffffffffff1673ffffffffffffffffffffffffffffffffffffffff16815260200190815260200160002060008873ffffffffffffffffffffffffffffffffffffffff1673ffffffffffffffffffffffffffffffffffffffff16815260200190815260200160002054610726919061292c565b611126565b6001905092915050565b61074561074061111e565b610614565b610784576040517f08c379a000000000000000000000000000000000000000000000000000000000815260040161077b906129f4565b60405180910390fd5b61078c6114ac565b565b60011515600b60000160019054906101000a900460ff161515146107e7576040517f08c379a00000000000000000000000000000000000000000000000000000000081526004016107de90612a86565b60405180910390fd5b6107f08161154e565b50565b6108036107fe61111e565b610614565b610842576040517f08c379a0000000000000000000000000000000000000000000000000000000008152600401610839906129f4565b60405180910390fd5b8051825114610886576040517f08c379a000000000000000000000000000000000000000000000000000000000815260040161087d90612b18565b60405180910390fd5b600073ffffffffffffffffffffffffffffffffffffffff168373ffffffffffffffffffffffffffffffffffffffff1614156108f6576040517f08c379a00000000000000000000000000000000000000000000000000000000081526004016108ed90612baa565b60405180910390fd5b60005b82518110156109af57600083828151811061091757610916612bca565b5b60200260200101519050600083838151811061093657610935612bca565b5b60200260200101519050600061094b876109cc565b905081811015610990576040517f08c379a000000000000000000000000000000000000000000000000000000000815260040161098790612c6b565b60405180910390fd5b61099b878484611562565b505050806109a890612c8b565b90506108f9565b50505050565b6000600660009054906101000a900460ff16905090565b60008060008373ffffffffffffffffffffffffffffffffffffffff1673ffffffffffffffffffffffffffffffffffffffff168152602001908152602001600020549050919050565b6000610a2783610a2261111e565b611058565b905081811015610a6c576040517f08c379a0000000000000000000000000000000000000000000000000000000008152600401610a6390612d46565b60405180910390fd5b610a8083610a7861111e565b848403611126565b610a8a83836117e3565b505050565b6000610ad8600560008473ffffffffffffffffffffffffffffffffffffffff1673ffffffffffffffffffffffffffffffffffffffff1681526020019081526020016000206119ba565b9050919050565b610aef610aea61111e565b610614565b610b2e576040517f08c379a0000000000000000000000000000000000000000000000000000000008152600401610b25906129f4565b60405180910390fd5b610b366119c8565b565b6000610b4a610b4561111e565b610614565b610b89576040517f08c379a0000000000000000000000000000000000000000000000000000000008152600401610b80906129f4565b60405180910390fd5b60011515600b60000160009054906101000a900460ff16151514610be2576040517f08c379a0000000000000000000000000000000000000000000000000000000008152600401610bd990612dd8565b60405180910390fd5b600073ffffffffffffffffffffffffffffffffffffffff168273ffffffffffffffffffffffffffffffffffffffff161415610c52576040517f08c379a0000000000000000000000000000000000000000000000000000000008152600401610c4990612e6a565b60405180910390fd5b610c5c8284611a6b565b6001905092915050565b606060048054610c759061285f565b80601f0160208091040260200160405190810160405280929190818152602001828054610ca19061285f565b8015610cee5780601f10610cc357610100808354040283529160200191610cee565b820191906000526020600020905b815481529060010190602001808311610cd157829003601f168201915b5050505050905090565b60088181548110610d0857600080fd5b906000526020600020016000915054906101000a900473ffffffffffffffffffffffffffffffffffffffff1681565b6000600954905090565b60606008805480602002602001604051908101604052809291908181526020018280548015610dc557602002820191906000526020600020905b8160009054906101000a900473ffffffffffffffffffffffffffffffffffffffff1673ffffffffffffffffffffffffffffffffffffffff1681526020019060010190808311610d7b575b5050505050905090565b60008060016000610dde61111e565b73ffffffffffffffffffffffffffffffffffffffff1673ffffffffffffffffffffffffffffffffffffffff16815260200190815260200160002060008573ffffffffffffffffffffffffffffffffffffffff1673ffffffffffffffffffffffffffffffffffffffff16815260200190815260200160002054905082811015610e9b576040517f08c379a0000000000000000000000000000000000000000000000000000000008152600401610e9290612efc565b60405180910390fd5b610eaf610ea661111e565b85858403611126565b600191505092915050565b6000610ec46109b5565b15610f04576040517f08c379a0000000000000000000000000000000000000000000000000000000008152600401610efb906128dd565b60405180910390fd5b610f0e8383611bcb565b905092915050565b83421115610f59576040517f08c379a0000000000000000000000000000000000000000000000000000000008152600401610f5090612f68565b60405180910390fd5b60007f0000000000000000000000000000000000000000000000000000000000000000888888610f888c611be9565b89604051602001610f9e96959493929190612f88565b6040516020818303038152906040528051906020012090506000610fc182611c47565b90506000610fd182878787611c61565b90508973ffffffffffffffffffffffffffffffffffffffff168173ffffffffffffffffffffffffffffffffffffffff1614611041576040517f08c379a000000000000000000000000000000000000000000000000000000000815260040161103890613035565b60405180910390fd5b61104c8a8a8a611126565b50505050505050505050565b6000600160008473ffffffffffffffffffffffffffffffffffffffff1673ffffffffffffffffffffffffffffffffffffffff16815260200190815260200160002060008373ffffffffffffffffffffffffffffffffffffffff1673ffffffffffffffffffffffffffffffffffffffff16815260200190815260200160002054905092915050565b60008082846110ee9190613084565b146110fa5760016110fd565b60005b60ff16828461110c91906130b5565b611116919061292c565b905092915050565b600033905090565b600073ffffffffffffffffffffffffffffffffffffffff168373ffffffffffffffffffffffffffffffffffffffff161415611196576040517f08c379a000000000000000000000000000000000000000000000000000000000815260040161118d90613158565b60405180910390fd5b600073ffffffffffffffffffffffffffffffffffffffff168273ffffffffffffffffffffffffffffffffffffffff161415611206576040517f08c379a00000000000000000000000000000000000000000000000000000000081526004016111fd906131ea565b60405180910390fd5b80600160008573ffffffffffffffffffffffffffffffffffffffff1673ffffffffffffffffffffffffffffffffffffffff16815260200190815260200160002060008473ffffffffffffffffffffffffffffffffffffffff1673ffffffffffffffffffffffffffffffffffffffff168152602001908152602001600020819055508173ffffffffffffffffffffffffffffffffffffffff168373ffffffffffffffffffffffffffffffffffffffff167f8c5be1e5ebec7d5bd14f71427d1e84f3dd0314c0f7b2291e5b200ac8c7c3b925836040516112e491906121e3565b60405180910390a3505050565b60006112fe848484611562565b6000600160008673ffffffffffffffffffffffffffffffffffffffff1673ffffffffffffffffffffffffffffffffffffffff168152602001908152602001600020600061134961111e565b73ffffffffffffffffffffffffffffffffffffffff1673ffffffffffffffffffffffffffffffffffffffff168152602001908152602001600020549050828110156113c9576040517f08c379a00000000000000000000000000000000000000000000000000000000081526004016113c09061327c565b60405180910390fd5b6113dd856113d561111e565b858403611126565b60019150509392505050565b60007f000000000000000000000000000000000000000000000000000000000000000046141561143b577f000000000000000000000000000000000000000000000000000000000000000090506114a9565b6114a67f00000000000000000000000000000000000000000000000000000000000000007f00000000000000000000000000000000000000000000000000000000000000007f0000000000000000000000000000000000000000000000000000000000000000611c8c565b90505b90565b6114b46109b5565b6114f3576040517f08c379a00000000000000000000000000000000000000000000000000000000081526004016114ea906132e8565b60405180910390fd5b6000600660006101000a81548160ff0219169083151502179055507f5db9ee0a495bf2e6ff9c91a7834c1ba4fdd244a5e8aa4e537bd38aeae4b073aa61153761111e565b60405161154491906125fb565b60405180910390a1565b61155f61155961111e565b826117e3565b50565b600073ffffffffffffffffffffffffffffffffffffffff168373ffffffffffffffffffffffffffffffffffffffff1614156115d2576040517f08c379a00000000000000000000000000000000000000000000000000000000081526004016115c99061337a565b60405180910390fd5b600073ffffffffffffffffffffffffffffffffffffffff168273ffffffffffffffffffffffffffffffffffffffff161415611642576040517f08c379a00000000000000000000000000000000000000000000000000000000081526004016116399061340c565b60405180910390fd5b61164d838383611cc6565b60008060008573ffffffffffffffffffffffffffffffffffffffff1673ffffffffffffffffffffffffffffffffffffffff168152602001908152602001600020549050818110156116d3576040517f08c379a00000000000000000000000000000000000000000000000000000000081526004016116ca9061349e565b60405180910390fd5b8181036000808673ffffffffffffffffffffffffffffffffffffffff1673ffffffffffffffffffffffffffffffffffffffff16815260200190815260200160002081905550816000808573ffffffffffffffffffffffffffffffffffffffff1673ffffffffffffffffffffffffffffffffffffffff1681526020019081526020016000206000828254611766919061292c565b925050819055508273ffffffffffffffffffffffffffffffffffffffff168473ffffffffffffffffffffffffffffffffffffffff167fddf252ad1be2c89b69c2b068fc378daa952ba7f163c4a11628f55a4df523b3ef846040516117ca91906121e3565b60405180910390a36117dd848484611ccb565b50505050565b600073ffffffffffffffffffffffffffffffffffffffff168273ffffffffffffffffffffffffffffffffffffffff161415611853576040517f08c379a000000000000000000000000000000000000000000000000000000000815260040161184a90613530565b60405180910390fd5b61185f82600083611cc6565b60008060008473ffffffffffffffffffffffffffffffffffffffff1673ffffffffffffffffffffffffffffffffffffffff168152602001908152602001600020549050818110156118e5576040517f08c379a00000000000000000000000000000000000000000000000000000000081526004016118dc906135c2565b60405180910390fd5b8181036000808573ffffffffffffffffffffffffffffffffffffffff1673ffffffffffffffffffffffffffffffffffffffff16815260200190815260200160002081905550816002600082825461193c91906135e2565b92505081905550600073ffffffffffffffffffffffffffffffffffffffff168373ffffffffffffffffffffffffffffffffffffffff167fddf252ad1be2c89b69c2b068fc378daa952ba7f163c4a11628f55a4df523b3ef846040516119a191906121e3565b60405180910390a36119b583600084611ccb565b505050565b600081600001549050919050565b6119d06109b5565b15611a10576040517f08c379a0000000000000000000000000000000000000000000000000000000008152600401611a07906128dd565b60405180910390fd5b6001600660006101000a81548160ff0219169083151502179055507f62e78cea01bee320cd4e420270b5ea74000d11b0c9f74754ebdbfc544b05a258611a5461111e565b604051611a6191906125fb565b60405180910390a1565b600073ffffffffffffffffffffffffffffffffffffffff168273ffffffffffffffffffffffffffffffffffffffff161415611adb576040517f08c379a0000000000000000000000000000000000000000000000000000000008152600401611ad290613662565b60405180910390fd5b611ae760008383611cc6565b8060026000828254611af9919061292c565b92505081905550806000808473ffffffffffffffffffffffffffffffffffffffff1673ffffffffffffffffffffffffffffffffffffffff1681526020019081526020016000206000828254611b4e919061292c565b925050819055508173ffffffffffffffffffffffffffffffffffffffff16600073ffffffffffffffffffffffffffffffffffffffff167fddf252ad1be2c89b69c2b068fc378daa952ba7f163c4a11628f55a4df523b3ef83604051611bb391906121e3565b60405180910390a3611bc760008383611ccb565b5050565b6000611bdf611bd861111e565b8484611562565b6001905092915050565b600080600560008473ffffffffffffffffffffffffffffffffffffffff1673ffffffffffffffffffffffffffffffffffffffff1681526020019081526020016000209050611c36816119ba565b9150611c4181611cd0565b50919050565b6000611c5a611c546113e9565b83611ce6565b9050919050565b6000806000611c7287878787611d19565b91509150611c7f81611e26565b8192505050949350505050565b60008383834630604051602001611ca7959493929190613682565b6040516020818303038152906040528051906020012090509392505050565b505050565b505050565b6001816000016000828254019250508190555050565b60008282604051602001611cfb92919061374d565b60405160208183030381529060405280519060200120905092915050565b6000807f7fffffffffffffffffffffffffffffff5d576e7357a4501ddfe92f46681b20a08360001c1115611d54576000600391509150611e1d565b601b8560ff1614158015611d6c5750601c8560ff1614155b15611d7e576000600491509150611e1d565b600060018787878760405160008152602001604052604051611da39493929190613784565b6020604051602081039080840390855afa158015611dc5573d6000803e3d6000fd5b505050602060405103519050600073ffffffffffffffffffffffffffffffffffffffff168173ffffffffffffffffffffffffffffffffffffffff161415611e1457600060019250925050611e1d565b80600092509250505b94509492505050565b60006004811115611e3a57611e396137c9565b5b816004811115611e4d57611e4c6137c9565b5b1415611e5857611ff8565b60016004811115611e6c57611e6b6137c9565b5b816004811115611e7f57611e7e6137c9565b5b1415611ec0576040517f08c379a0000000000000000000000000000000000000000000000000000000008152600401611eb790613844565b60405180910390fd5b60026004811115611ed457611ed36137c9565b5b816004811115611ee757611ee66137c9565b5b1415611f28576040517f08c379a0000000000000000000000000000000000000000000000000000000008152600401611f1f906138b0565b60405180910390fd5b60036004811115611f3c57611f3b6137c9565b5b816004811115611f4f57611f4e6137c9565b5b1415611f90576040517f08c379a0000000000000000000000000000000000000000000000000000000008152600401611f8790613942565b60405180910390fd5b600480811115611fa357611fa26137c9565b5b816004811115611fb657611fb56137c9565b5b1415611ff7576040517f08c379a0000000000000000000000000000000000000000000000000000000008152600401611fee906139d4565b60405180910390fd5b5b50565b600081519050919050565b600082825260208201905092915050565b60005b8381101561203557808201518184015260208101905061201a565b83811115612044576000848401525b50505050565b6000601f19601f8301169050919050565b600061206682611ffb565b6120708185612006565b9350612080818560208601612017565b6120898161204a565b840191505092915050565b600060208201905081810360008301526120ae818461205b565b905092915050565b6000604051905090565b600080fd5b600080fd5b600073ffffffffffffffffffffffffffffffffffffffff82169050919050565b60006120f5826120ca565b9050919050565b612105816120ea565b811461211057600080fd5b50565b600081359050612122816120fc565b92915050565b6000819050919050565b61213b81612128565b811461214657600080fd5b50565b60008135905061215881612132565b92915050565b60008060408385031215612175576121746120c0565b5b600061218385828601612113565b925050602061219485828601612149565b9150509250929050565b60008115159050919050565b6121b38161219e565b82525050565b60006020820190506121ce60008301846121aa565b92915050565b6121dd81612128565b82525050565b60006020820190506121f860008301846121d4565b92915050565b600080600060608486031215612217576122166120c0565b5b600061222586828701612113565b935050602061223686828701612113565b925050604061224786828701612149565b9150509250925092565b600060208284031215612267576122666120c0565b5b600061227584828501612113565b91505092915050565b600060ff82169050919050565b6122948161227e565b82525050565b60006020820190506122af600083018461228b565b92915050565b6000819050919050565b6122c8816122b5565b82525050565b60006020820190506122e360008301846122bf565b92915050565b6000602082840312156122ff576122fe6120c0565b5b600061230d84828501612149565b91505092915050565b600080fd5b7f4e487b7100000000000000000000000000000000000000000000000000000000600052604160045260246000fd5b6123538261204a565b810181811067ffffffffffffffff821117156123725761237161231b565b5b80604052505050565b60006123856120b6565b9050612391828261234a565b919050565b600067ffffffffffffffff8211156123b1576123b061231b565b5b602082029050602081019050919050565b600080fd5b60006123da6123d584612396565b61237b565b905080838252602082019050602084028301858111156123fd576123fc6123c2565b5b835b8181101561242657806124128882612113565b8452602084019350506020810190506123ff565b5050509392505050565b600082601f83011261244557612444612316565b5b81356124558482602086016123c7565b91505092915050565b600067ffffffffffffffff8211156124795761247861231b565b5b602082029050602081019050919050565b600061249d6124988461245e565b61237b565b905080838252602082019050602084028301858111156124c0576124bf6123c2565b5b835b818110156124e957806124d58882612149565b8452602084019350506020810190506124c2565b5050509392505050565b600082601f83011261250857612507612316565b5b813561251884826020860161248a565b91505092915050565b60008060006060848603121561253a576125396120c0565b5b600061254886828701612113565b935050602084013567ffffffffffffffff811115612569576125686120c5565b5b61257586828701612430565b925050604084013567ffffffffffffffff811115612596576125956120c5565b5b6125a2868287016124f3565b9150509250925092565b600080604083850312156125c3576125c26120c0565b5b60006125d185828601612149565b92505060206125e285828601612113565b9150509250929050565b6125f5816120ea565b82525050565b600060208201905061261060008301846125ec565b92915050565b600081519050919050565b600082825260208201905092915050565b6000819050602082019050919050565b61264b816120ea565b82525050565b600061265d8383612642565b60208301905092915050565b6000602082019050919050565b600061268182612616565b61268b8185612621565b935061269683612632565b8060005b838110156126c75781516126ae8882612651565b97506126b983612669565b92505060018101905061269a565b5085935050505092915050565b600060208201905081810360008301526126ee8184612676565b905092915050565b6126ff8161227e565b811461270a57600080fd5b50565b60008135905061271c816126f6565b92915050565b61272b816122b5565b811461273657600080fd5b50565b60008135905061274881612722565b92915050565b600080600080600080600060e0888a03121561276d5761276c6120c0565b5b600061277b8a828b01612113565b975050602061278c8a828b01612113565b965050604061279d8a828b01612149565b95505060606127ae8a828b01612149565b94505060806127bf8a828b0161270d565b93505060a06127d08a828b01612739565b92505060c06127e18a828b01612739565b91505092959891949750929550565b60008060408385031215612807576128066120c0565b5b600061281585828601612113565b925050602061282685828601612113565b9150509250929050565b7f4e487b7100000000000000000000000000000000000000000000000000000000600052602260045260246000fd5b6000600282049050600182168061287757607f821691505b6020821081141561288b5761288a612830565b5b50919050565b7f5061757361626c653a2070617573656400000000000000000000000000000000600082015250565b60006128c7601083612006565b91506128d282612891565b602082019050919050565b600060208201905081810360008301526128f6816128ba565b9050919050565b7f4e487b7100000000000000000000000000000000000000000000000000000000600052601160045260246000fd5b600061293782612128565b915061294283612128565b9250827fffffffffffffffffffffffffffffffffffffffffffffffffffffffffffffffff03821115612977576129766128fd565b5b828201905092915050565b7f4d756c74694f776e61626c653a2063616c6c6572206973206e6f74207468652060008201527f6f776e6572000000000000000000000000000000000000000000000000000000602082015250565b60006129de602583612006565b91506129e982612982565b604082019050919050565b60006020820190508181036000830152612a0d816129d1565b9050919050565b7f436f6e747261637420776173206e6f7420636f6e6669677572656420746f206260008201527f65206275726e61626c6500000000000000000000000000000000000000000000602082015250565b6000612a70602a83612006565b9150612a7b82612a14565b604082019050919050565b60006020820190508181036000830152612a9f81612a63565b9050919050565b7f455243313135353a20746f20616e6420616d6f756e7473206c656e677468206d60008201527f69736d6174636800000000000000000000000000000000000000000000000000602082015250565b6000612b02602783612006565b9150612b0d82612aa6565b604082019050919050565b60006020820190508181036000830152612b3181612af5565b9050919050565b7f455243313135353a207472616e7366657220746f20746865207a65726f20616460008201527f6472657373000000000000000000000000000000000000000000000000000000602082015250565b6000612b94602583612006565b9150612b9f82612b38565b604082019050919050565b60006020820190508181036000830152612bc381612b87565b9050919050565b7f4e487b7100000000000000000000000000000000000000000000000000000000600052603260045260246000fd5b7f455243313135353a20696e73756666696369656e742062616c616e636520666f60008201527f72207472616e7366657200000000000000000000000000000000000000000000602082015250565b6000612c55602a83612006565b9150612c6082612bf9565b604082019050919050565b60006020820190508181036000830152612c8481612c48565b9050919050565b6000612c9682612128565b91507fffffffffffffffffffffffffffffffffffffffffffffffffffffffffffffffff821415612cc957612cc86128fd565b5b600182019050919050565b7f45524332303a206275726e20616d6f756e74206578636565647320616c6c6f7760008201527f616e636500000000000000000000000000000000000000000000000000000000602082015250565b6000612d30602483612006565b9150612d3b82612cd4565b604082019050919050565b60006020820190508181036000830152612d5f81612d23565b9050919050565b7f436f6e747261637420776173206e6f7420636f6e6669677572656420746f206260008201527f65206d696e7461626c6500000000000000000000000000000000000000000000602082015250565b6000612dc2602a83612006565b9150612dcd82612d66565b604082019050919050565b60006020820190508181036000830152612df181612db5565b9050919050565b7f57616c6c65742061646472657373206861736e2774206265656e2070726f706560008201527f726c7920636f6e66696775726564000000000000000000000000000000000000602082015250565b6000612e54602e83612006565b9150612e5f82612df8565b604082019050919050565b60006020820190508181036000830152612e8381612e47565b9050919050565b7f45524332303a2064656372656173656420616c6c6f77616e63652062656c6f7760008201527f207a65726f000000000000000000000000000000000000000000000000000000602082015250565b6000612ee6602583612006565b9150612ef182612e8a565b604082019050919050565b60006020820190508181036000830152612f1581612ed9565b9050919050565b7f45524332305065726d69743a206578706972656420646561646c696e65000000600082015250565b6000612f52601d83612006565b9150612f5d82612f1c565b602082019050919050565b60006020820190508181036000830152612f8181612f45565b9050919050565b600060c082019050612f9d60008301896122bf565b612faa60208301886125ec565b612fb760408301876125ec565b612fc460608301866121d4565b612fd160808301856121d4565b612fde60a08301846121d4565b979650505050505050565b7f45524332305065726d69743a20696e76616c6964207369676e61747572650000600082015250565b600061301f601e83612006565b915061302a82612fe9565b602082019050919050565b6000602082019050818103600083015261304e81613012565b9050919050565b7f4e487b7100000000000000000000000000000000000000000000000000000000600052601260045260246000fd5b600061308f82612128565b915061309a83612128565b9250826130aa576130a9613055565b5b828206905092915050565b60006130c082612128565b91506130cb83612128565b9250826130db576130da613055565b5b828204905092915050565b7f45524332303a20617070726f76652066726f6d20746865207a65726f2061646460008201527f7265737300000000000000000000000000000000000000000000000000000000602082015250565b6000613142602483612006565b915061314d826130e6565b604082019050919050565b6000602082019050818103600083015261317181613135565b9050919050565b7f45524332303a20617070726f766520746f20746865207a65726f20616464726560008201527f7373000000000000000000000000000000000000000000000000000000000000602082015250565b60006131d4602283612006565b91506131df82613178565b604082019050919050565b60006020820190508181036000830152613203816131c7565b9050919050565b7f45524332303a207472616e7366657220616d6f756e742065786365656473206160008201527f6c6c6f77616e6365000000000000000000000000000000000000000000000000602082015250565b6000613266602883612006565b91506132718261320a565b604082019050919050565b6000602082019050818103600083015261329581613259565b9050919050565b7f5061757361626c653a206e6f7420706175736564000000000000000000000000600082015250565b60006132d2601483612006565b91506132dd8261329c565b602082019050919050565b60006020820190508181036000830152613301816132c5565b9050919050565b7f45524332303a207472616e736665722066726f6d20746865207a65726f20616460008201527f6472657373000000000000000000000000000000000000000000000000000000602082015250565b6000613364602583612006565b915061336f82613308565b604082019050919050565b6000602082019050818103600083015261339381613357565b9050919050565b7f45524332303a207472616e7366657220746f20746865207a65726f206164647260008201527f6573730000000000000000000000000000000000000000000000000000000000602082015250565b60006133f6602383612006565b91506134018261339a565b604082019050919050565b60006020820190508181036000830152613425816133e9565b9050919050565b7f45524332303a207472616e7366657220616d6f756e742065786365656473206260008201527f616c616e63650000000000000000000000000000000000000000000000000000602082015250565b6000613488602683612006565b91506134938261342c565b604082019050919050565b600060208201905081810360008301526134b78161347b565b9050919050565b7f45524332303a206275726e2066726f6d20746865207a65726f2061646472657360008201527f7300000000000000000000000000000000000000000000000000000000000000602082015250565b600061351a602183612006565b9150613525826134be565b604082019050919050565b600060208201905081810360008301526135498161350d565b9050919050565b7f45524332303a206275726e20616d6f756e7420657863656564732062616c616e60008201527f6365000000000000000000000000000000000000000000000000000000000000602082015250565b60006135ac602283612006565b91506135b782613550565b604082019050919050565b600060208201905081810360008301526135db8161359f565b9050919050565b60006135ed82612128565b91506135f883612128565b92508282101561360b5761360a6128fd565b5b828203905092915050565b7f45524332303a206d696e7420746f20746865207a65726f206164647265737300600082015250565b600061364c601f83612006565b915061365782613616565b602082019050919050565b6000602082019050818103600083015261367b8161363f565b9050919050565b600060a08201905061369760008301886122bf565b6136a460208301876122bf565b6136b160408301866122bf565b6136be60608301856121d4565b6136cb60808301846125ec565b9695505050505050565b600081905092915050565b7f1901000000000000000000000000000000000000000000000000000000000000600082015250565b60006137166002836136d5565b9150613721826136e0565b600282019050919050565b6000819050919050565b613747613742826122b5565b61372c565b82525050565b600061375882613709565b91506137648285613736565b6020820191506137748284613736565b6020820191508190509392505050565b600060808201905061379960008301876122bf565b6137a6602083018661228b565b6137b360408301856122bf565b6137c060608301846122bf565b95945050505050565b7f4e487b7100000000000000000000000000000000000000000000000000000000600052602160045260246000fd5b7f45434453413a20696e76616c6964207369676e61747572650000000000000000600082015250565b600061382e601883612006565b9150613839826137f8565b602082019050919050565b6000602082019050818103600083015261385d81613821565b9050919050565b7f45434453413a20696e76616c6964207369676e6174757265206c656e67746800600082015250565b600061389a601f83612006565b91506138a582613864565b602082019050919050565b600060208201905081810360008301526138c98161388d565b9050919050565b7f45434453413a20696e76616c6964207369676e6174757265202773272076616c60008201527f7565000000000000000000000000000000000000000000000000000000000000602082015250565b600061392c602283612006565b9150613937826138d0565b604082019050919050565b6000602082019050818103600083015261395b8161391f565b9050919050565b7f45434453413a20696e76616c6964207369676e6174757265202776272076616c60008201527f7565000000000000000000000000000000000000000000000000000000000000602082015250565b60006139be602283612006565b91506139c982613962565b604082019050919050565b600060208201905081810360008301526139ed816139b1565b905091905056fea26469706673582212209e1ea070a120b78f6d58663c58dd03e200a7f168bec04ec54cc4b983c1e0682064736f6c63430008090033",
  "immutableReferences": {
    "9964": [
      {
        "length": 32,
        "start": 3933
      }
    ],
    "11345": [
      {
        "length": 32,
        "start": 5141
      }
    ],
    "11347": [
      {
        "length": 32,
        "start": 5101
      }
    ],
    "11349": [
      {
        "length": 32,
        "start": 5217
      }
    ],
    "11351": [
      {
        "length": 32,
        "start": 5250
      }
    ],
    "11353": [
      {
        "length": 32,
        "start": 5184
      }
    ]
  },
  "source": "// SPDX-License-Identifier: MIT\r\n// OpenZeppelin Contracts v4.3.2 (utils/MosaicoERC20.sol)\r\npragma solidity ^0.8.9;\r\n\r\nimport \"../node_modules/@openzeppelin/contracts/token/ERC20/ERC20.sol\";\r\nimport \"../node_modules/@openzeppelin/contracts/token/ERC20/extensions/ERC20Burnable.sol\";\r\nimport \"../node_modules/@openzeppelin/contracts/security/Pausable.sol\";\r\nimport \"../node_modules/@openzeppelin/contracts/access/Ownable.sol\";\r\nimport \"../node_modules/@openzeppelin/contracts/token/ERC1155/ERC1155.sol\";\r\nimport \"../node_modules/@openzeppelin/contracts/token/ERC20/extensions/draft-ERC20Permit.sol\";\r\nimport \"./MultiOwnable.sol\";\r\nimport \"./Library.sol\";\r\n\r\ncontract MosaicoERC20v1 is ERC20, ERC20Permit, Pausable, MultiOwnable, ERC20Burnable {\r\n    address internal _minter = _msgSender();\r\n    MosaicoStructs.ERC20Settings internal _settings;\r\n\r\n    constructor(MosaicoStructs.ERC20Settings memory settings) \r\n        ERC20(settings.name, settings.symbol) \r\n        MultiOwnable(_msgSender())\r\n        Pausable()\r\n        ERC20Permit(settings.name)\r\n    {\r\n        _settings = settings;\r\n\r\n        if(_settings.walletAddress != address(0)){\r\n            _minter = _settings.walletAddress;\r\n            if(_settings.walletAddress != _msgSender()){\r\n                _setOwner(_settings.walletAddress);\r\n            }\r\n        }\r\n\r\n        _mint(_minter, _settings.initialSupply);\r\n    }\r\n\r\n    function transfer(address to, uint256 value) public override whenNotPaused returns (bool) {\r\n        return super.transfer(to, value);\r\n    }\r\n\r\n    function transferFrom(address from, address to, uint256 value) public override whenNotPaused returns (bool) {\r\n        return super.transferFrom(from, to, value);\r\n    }\r\n\r\n    function pause() public onlyOwner {\r\n        super._pause();\r\n    }\r\n\r\n    function unpause() public onlyOwner {\r\n        super._unpause();\r\n    }\r\n\r\n    function mint(uint256 amount, address walletAddress) public onlyOwner returns(bool success) {\r\n        require(_settings.isMintable == true, \"Contract was not configured to be mintable\");\r\n        require(walletAddress != address(0), \"Wallet address hasn't been properly configured\");\r\n        super._mint(walletAddress, amount);\r\n        return true;\r\n    }\r\n\r\n    function burn(uint256 amount) public virtual override {\r\n        require(_settings.isBurnable == true, \"Contract was not configured to be burnable\");\r\n        super.burn(amount);\r\n    }\r\n\r\n    function batchTransferFrom(address from, address[] memory recipients, uint256[] memory amounts) public onlyOwner {\r\n        require(recipients.length == amounts.length, \"ERC1155: to and amounts length mismatch\");\r\n        require(from != address(0), \"ERC1155: transfer to the zero address\");\r\n\r\n        for (uint256 i = 0; i < recipients.length; ++i) {\r\n            address to = recipients[i];\r\n            uint256 amount = amounts[i];\r\n            uint256 fromBalance = balanceOf(from);\r\n            require(fromBalance >= amount, \"ERC1155: insufficient balance for transfer\");\r\n            _transfer(from, to, amount);\r\n        }\r\n    }\r\n} ",
  "sourcePath": "D:\\repositories\\mosaico-reference\\smart_contracts\\contracts\\MosaicoERC20v1.sol",
  "compiler": {
    "name": "solc",
    "version": "0.8.9+commit.e5eed63a.Emscripten.clang"
  },
  "schemaVersion": "3.4.3",
  "updatedAt": "2022-04-01T04:17:56.607Z",
  "devdoc": {
    "kind": "dev",
    "methods": {
      "DOMAIN_SEPARATOR()": {
        "details": "See {IERC20Permit-DOMAIN_SEPARATOR}."
      },
      "allowance(address,address)": {
        "details": "See {IERC20-allowance}."
      },
      "approve(address,uint256)": {
        "details": "See {IERC20-approve}. Requirements: - `spender` cannot be the zero address."
      },
      "balanceOf(address)": {
        "details": "See {IERC20-balanceOf}."
      },
      "burn(uint256)": {
        "details": "Destroys `amount` tokens from the caller. See {ERC20-_burn}."
      },
      "burnFrom(address,uint256)": {
        "details": "Destroys `amount` tokens from `account`, deducting from the caller's allowance. See {ERC20-_burn} and {ERC20-allowance}. Requirements: - the caller must have allowance for ``accounts``'s tokens of at least `amount`."
      },
      "decimals()": {
        "details": "Returns the number of decimals used to get its user representation. For example, if `decimals` equals `2`, a balance of `505` tokens should be displayed to a user as `5.05` (`505 / 10 ** 2`). Tokens usually opt for a value of 18, imitating the relationship between Ether and Wei. This is the value {ERC20} uses, unless this function is overridden; NOTE: This information is only used for _display_ purposes: it in no way affects any of the arithmetic of the contract, including {IERC20-balanceOf} and {IERC20-transfer}."
      },
      "decreaseAllowance(address,uint256)": {
        "details": "Atomically decreases the allowance granted to `spender` by the caller. This is an alternative to {approve} that can be used as a mitigation for problems described in {IERC20-approve}. Emits an {Approval} event indicating the updated allowance. Requirements: - `spender` cannot be the zero address. - `spender` must have allowance for the caller of at least `subtractedValue`."
      },
      "increaseAllowance(address,uint256)": {
        "details": "Atomically increases the allowance granted to `spender` by the caller. This is an alternative to {approve} that can be used as a mitigation for problems described in {IERC20-approve}. Emits an {Approval} event indicating the updated allowance. Requirements: - `spender` cannot be the zero address."
      },
      "isOwner(address)": {
        "details": "Returns the address of the current owner."
      },
      "name()": {
        "details": "Returns the name of the token."
      },
      "nonces(address)": {
        "details": "See {IERC20Permit-nonces}."
      },
      "paused()": {
        "details": "Returns true if the contract is paused, and false otherwise."
      },
      "permit(address,address,uint256,uint256,uint8,bytes32,bytes32)": {
        "details": "See {IERC20Permit-permit}."
      },
      "symbol()": {
        "details": "Returns the symbol of the token, usually a shorter version of the name."
      },
      "totalSupply()": {
        "details": "See {IERC20-totalSupply}."
      }
    },
    "version": 1
  },
  "userdoc": {
    "kind": "user",
    "methods": {},
    "version": 1
  }
}