{
  "contractName": "Stakingv2",
  "abi": [
    {
      "inputs": [
        {
          "components": [
            {
              "internalType": "uint256",
              "name": "maxRewardPerStaker",
              "type": "uint256"
            },
            {
              "internalType": "uint256",
              "name": "rewardCycle",
              "type": "uint256"
            },
            {
              "internalType": "address",
              "name": "stakingToken",
              "type": "address"
            },
            {
              "internalType": "address",
              "name": "rewardToken",
              "type": "address"
            },
            {
              "internalType": "uint256",
              "name": "minimumStakingAmount",
              "type": "uint256"
            },
            {
              "internalType": "uint256",
              "name": "withdrawThreshold",
              "type": "uint256"
            },
            {
              "internalType": "address",
              "name": "platformWallet",
              "type": "address"
            }
          ],
          "internalType": "struct Stakingv2.StakingSettings",
          "name": "settings",
          "type": "tuple"
        }
      ],
      "stateMutability": "nonpayable",
      "type": "constructor"
    },
    {
      "anonymous": false,
      "inputs": [
        {
          "indexed": false,
          "internalType": "uint256",
          "name": "amount",
          "type": "uint256"
        },
        {
          "indexed": false,
          "internalType": "uint256",
          "name": "stakeholderCount",
          "type": "uint256"
        }
      ],
      "name": "Distributed",
      "type": "event"
    },
    {
      "anonymous": false,
      "inputs": [
        {
          "indexed": true,
          "internalType": "address",
          "name": "newOwner",
          "type": "address"
        }
      ],
      "name": "OwnerAdded",
      "type": "event"
    },
    {
      "anonymous": false,
      "inputs": [
        {
          "indexed": true,
          "internalType": "address",
          "name": "oldOwner",
          "type": "address"
        }
      ],
      "name": "OwnerRemoved",
      "type": "event"
    },
    {
      "anonymous": false,
      "inputs": [
        {
          "indexed": false,
          "internalType": "address",
          "name": "account",
          "type": "address"
        }
      ],
      "name": "Paused",
      "type": "event"
    },
    {
      "anonymous": false,
      "inputs": [
        {
          "indexed": true,
          "internalType": "address",
          "name": "staker",
          "type": "address"
        },
        {
          "indexed": false,
          "internalType": "uint256",
          "name": "amount",
          "type": "uint256"
        },
        {
          "indexed": false,
          "internalType": "uint256",
          "name": "index",
          "type": "uint256"
        },
        {
          "indexed": false,
          "internalType": "uint256",
          "name": "timestamp",
          "type": "uint256"
        }
      ],
      "name": "Staked",
      "type": "event"
    },
    {
      "anonymous": false,
      "inputs": [
        {
          "indexed": false,
          "internalType": "address",
          "name": "account",
          "type": "address"
        }
      ],
      "name": "Unpaused",
      "type": "event"
    },
    {
      "inputs": [
        {
          "internalType": "uint256",
          "name": "",
          "type": "uint256"
        }
      ],
      "name": "_owners",
      "outputs": [
        {
          "internalType": "address",
          "name": "",
          "type": "address"
        }
      ],
      "stateMutability": "view",
      "type": "function"
    },
    {
      "inputs": [],
      "name": "getOwners",
      "outputs": [
        {
          "internalType": "address[]",
          "name": "",
          "type": "address[]"
        }
      ],
      "stateMutability": "view",
      "type": "function"
    },
    {
      "inputs": [
        {
          "internalType": "address",
          "name": "account",
          "type": "address"
        }
      ],
      "name": "isOwner",
      "outputs": [
        {
          "internalType": "bool",
          "name": "",
          "type": "bool"
        }
      ],
      "stateMutability": "view",
      "type": "function"
    },
    {
      "inputs": [],
      "name": "paused",
      "outputs": [
        {
          "internalType": "bool",
          "name": "",
          "type": "bool"
        }
      ],
      "stateMutability": "view",
      "type": "function"
    },
    {
      "inputs": [],
      "name": "requiredApprovals",
      "outputs": [
        {
          "internalType": "uint256",
          "name": "",
          "type": "uint256"
        }
      ],
      "stateMutability": "view",
      "type": "function"
    },
    {
      "inputs": [
        {
          "internalType": "uint256",
          "name": "reward",
          "type": "uint256"
        }
      ],
      "name": "setMaxReward",
      "outputs": [],
      "stateMutability": "nonpayable",
      "type": "function"
    },
    {
      "inputs": [
        {
          "internalType": "address",
          "name": "token",
          "type": "address"
        }
      ],
      "name": "setRewardToken",
      "outputs": [],
      "stateMutability": "nonpayable",
      "type": "function"
    },
    {
      "inputs": [
        {
          "internalType": "uint256",
          "name": "cycle",
          "type": "uint256"
        }
      ],
      "name": "setRewardCycle",
      "outputs": [],
      "stateMutability": "nonpayable",
      "type": "function"
    },
    {
      "inputs": [
        {
          "internalType": "uint256",
          "name": "amount",
          "type": "uint256"
        }
      ],
      "name": "setMinimumStakingAmount",
      "outputs": [],
      "stateMutability": "nonpayable",
      "type": "function"
    },
    {
      "inputs": [],
      "name": "minimumStakingAmount",
      "outputs": [
        {
          "internalType": "uint256",
          "name": "",
          "type": "uint256"
        }
      ],
      "stateMutability": "view",
      "type": "function"
    },
    {
      "inputs": [],
      "name": "totalStaked",
      "outputs": [
        {
          "internalType": "uint256",
          "name": "",
          "type": "uint256"
        }
      ],
      "stateMutability": "view",
      "type": "function"
    },
    {
      "inputs": [],
      "name": "totalReward",
      "outputs": [
        {
          "internalType": "uint256",
          "name": "",
          "type": "uint256"
        }
      ],
      "stateMutability": "view",
      "type": "function"
    },
    {
      "inputs": [],
      "name": "rewardCycle",
      "outputs": [
        {
          "internalType": "uint256",
          "name": "",
          "type": "uint256"
        }
      ],
      "stateMutability": "view",
      "type": "function"
    },
    {
      "inputs": [
        {
          "internalType": "uint256",
          "name": "_amount",
          "type": "uint256"
        }
      ],
      "name": "stake",
      "outputs": [],
      "stateMutability": "nonpayable",
      "type": "function"
    },
    {
      "inputs": [],
      "name": "canClaim",
      "outputs": [
        {
          "internalType": "bool",
          "name": "",
          "type": "bool"
        }
      ],
      "stateMutability": "view",
      "type": "function"
    },
    {
      "inputs": [
        {
          "internalType": "uint256",
          "name": "amount",
          "type": "uint256"
        }
      ],
      "name": "distribute",
      "outputs": [
        {
          "internalType": "uint256",
          "name": "",
          "type": "uint256"
        }
      ],
      "stateMutability": "nonpayable",
      "type": "function"
    },
    {
      "inputs": [
        {
          "internalType": "uint256",
          "name": "amount",
          "type": "uint256"
        }
      ],
      "name": "claimReward",
      "outputs": [
        {
          "internalType": "uint256",
          "name": "",
          "type": "uint256"
        }
      ],
      "stateMutability": "nonpayable",
      "type": "function"
    },
    {
      "inputs": [],
      "name": "withdraw",
      "outputs": [
        {
          "internalType": "uint256",
          "name": "",
          "type": "uint256"
        }
      ],
      "stateMutability": "nonpayable",
      "type": "function"
    },
    {
      "inputs": [
        {
          "internalType": "address",
          "name": "_staker",
          "type": "address"
        }
      ],
      "name": "balanceOf",
      "outputs": [
        {
          "internalType": "uint256",
          "name": "",
          "type": "uint256"
        }
      ],
      "stateMutability": "view",
      "type": "function"
    },
    {
      "inputs": [
        {
          "internalType": "address",
          "name": "_staker",
          "type": "address"
        }
      ],
      "name": "stakedValueOf",
      "outputs": [
        {
          "internalType": "uint256",
          "name": "",
          "type": "uint256"
        }
      ],
      "stateMutability": "view",
      "type": "function"
    },
    {
      "inputs": [
        {
          "internalType": "uint256",
          "name": "amount",
          "type": "uint256"
        }
      ],
      "name": "refund",
      "outputs": [
        {
          "internalType": "uint256",
          "name": "",
          "type": "uint256"
        }
      ],
      "stateMutability": "nonpayable",
      "type": "function"
    }
  ],
  "bytecode": "0x608060405260006003553480156200001657600080fd5b506040516200336c3803806200336c83398181016040528101906200003c9190620005f2565b6200004c620001a860201b60201c565b60008060006101000a81548160ff0219169083151502179055506200007781620001b060201b60201c565b50600160048190555080600b600082015181600001556020820151816001015560408201518160020160006101000a81548173ffffffffffffffffffffffffffffffffffffffff021916908373ffffffffffffffffffffffffffffffffffffffff16021790555060608201518160030160006101000a81548173ffffffffffffffffffffffffffffffffffffffff021916908373ffffffffffffffffffffffffffffffffffffffff1602179055506080820151816004015560a0820151816005015560c08201518160060160006101000a81548173ffffffffffffffffffffffffffffffffffffffff021916908373ffffffffffffffffffffffffffffffffffffffff16021790555090505060076001816001815401808255809150500390600052602060002090505050620007d2565b600033905090565b60001515600160008373ffffffffffffffffffffffffffffffffffffffff1673ffffffffffffffffffffffffffffffffffffffff16815260200190815260200160002060009054906101000a900460ff1615151462000246576040517f08c379a00000000000000000000000000000000000000000000000000000000081526004016200023d9062000685565b60405180910390fd5b60018060008373ffffffffffffffffffffffffffffffffffffffff1673ffffffffffffffffffffffffffffffffffffffff16815260200190815260200160002060006101000a81548160ff0219169083151502179055506002819080600181540180825580915050600190039060005260206000200160009091909190916101000a81548173ffffffffffffffffffffffffffffffffffffffff021916908373ffffffffffffffffffffffffffffffffffffffff160217905550620003106200035660201b60201c565b8073ffffffffffffffffffffffffffffffffffffffff167f994a936646fe87ffe4f1e469d3d6aa417d6b855598397f323de5b449f765f0c360405160405180910390a250565b6002808054905011620003755760028054905060038190555062000399565b6200039260028054905060026200039b60201b620019ed1760201c565b6003819055505b565b6000808284620003ac9190620006d6565b14620003ba576001620003bd565b60005b60ff168284620003ce91906200073d565b620003da919062000775565b905092915050565b6000604051905090565b600080fd5b600080fd5b6000601f19601f8301169050919050565b7f4e487b7100000000000000000000000000000000000000000000000000000000600052604160045260246000fd5b6200044182620003f6565b810181811067ffffffffffffffff8211171562000463576200046262000407565b5b80604052505050565b600062000478620003e2565b905062000486828262000436565b919050565b6000819050919050565b620004a0816200048b565b8114620004ac57600080fd5b50565b600081519050620004c08162000495565b92915050565b600073ffffffffffffffffffffffffffffffffffffffff82169050919050565b6000620004f382620004c6565b9050919050565b6200050581620004e6565b81146200051157600080fd5b50565b6000815190506200052581620004fa565b92915050565b600060e08284031215620005445762000543620003f1565b5b6200055060e06200046c565b905060006200056284828501620004af565b60008301525060206200057884828501620004af565b60208301525060406200058e8482850162000514565b6040830152506060620005a48482850162000514565b6060830152506080620005ba84828501620004af565b60808301525060a0620005d084828501620004af565b60a08301525060c0620005e68482850162000514565b60c08301525092915050565b600060e082840312156200060b576200060a620003ec565b5b60006200061b848285016200052b565b91505092915050565b600082825260208201905092915050565b7f4d756c74694f776e61626c653a20616c726561647920616e206f776e65720000600082015250565b60006200066d601e8362000624565b91506200067a8262000635565b602082019050919050565b60006020820190508181036000830152620006a0816200065e565b9050919050565b7f4e487b7100000000000000000000000000000000000000000000000000000000600052601260045260246000fd5b6000620006e3826200048b565b9150620006f0836200048b565b925082620007035762000702620006a7565b5b828206905092915050565b7f4e487b7100000000000000000000000000000000000000000000000000000000600052601160045260246000fd5b60006200074a826200048b565b915062000757836200048b565b9250826200076a5762000769620006a7565b5b828204905092915050565b600062000782826200048b565b91506200078f836200048b565b9250827fffffffffffffffffffffffffffffffffffffffffffffffffffffffffffffffff03821115620007c757620007c66200070e565b5b828201905092915050565b612b8a80620007e26000396000f3fe608060405234801561001057600080fd5b50600436106101375760003560e01c806370a08231116100b8578063992924a61161007c578063992924a61461035057806399c1aadc14610380578063a0e67e2b1461039e578063a694fc3a146103bc578063ae169a50146103d8578063b0d2d0111461040857610137565b806370a0823114610298578063750142e6146102c8578063817b1cd2146102e65780638aee81271461030457806391c05b0b1461032057610137565b80632fc6bd87116100ff5780632fc6bd87146102045780633ccfd60b146102205780635c975abb1461023e5780636dc7a6271461025c5780636ee010ae1461027a57610137565b8063040acc451461013c57806322c280111461016c57806325c33e1314610188578063278ecde1146101a45780632f54bf6e146101d4575b600080fd5b610156600480360381019061015191906120f6565b610426565b604051610163919061213c565b60405180910390f35b61018660048036038101906101819190612183565b610519565b005b6101a2600480360381019061019d9190612183565b610575565b005b6101be60048036038101906101b99190612183565b6105d1565b6040516101cb919061213c565b60405180910390f35b6101ee60048036038101906101e991906120f6565b6107f3565b6040516101fb91906121cb565b60405180910390f35b61021e60048036038101906102199190612183565b610850565b005b6102286108ac565b604051610235919061213c565b60405180910390f35b610246610b23565b60405161025391906121cb565b60405180910390f35b610264610b39565b60405161027191906121cb565b60405180910390f35b610282610be2565b60405161028f919061213c565b60405180910390f35b6102b260048036038101906102ad91906120f6565b610bef565b6040516102bf919061213c565b60405180910390f35b6102d0610c38565b6040516102dd919061213c565b60405180910390f35b6102ee610c42565b6040516102fb919061213c565b60405180910390f35b61031e600480360381019061031991906120f6565b610c4c565b005b61033a60048036038101906103359190612183565b610ce2565b604051610347919061213c565b60405180910390f35b61036a60048036038101906103659190612183565b611390565b60405161037791906121f5565b60405180910390f35b6103886113cf565b604051610395919061213c565b60405180910390f35b6103a66113d9565b6040516103b391906122ce565b60405180910390f35b6103d660048036038101906103d19190612183565b611467565b005b6103f260048036038101906103ed9190612183565b611703565b6040516103ff919061213c565b60405180910390f35b6104106119e0565b60405161041d919061213c565b60405180910390f35b600080600090506000600a60008573ffffffffffffffffffffffffffffffffffffffff1673ffffffffffffffffffffffffffffffffffffffff16815260200190815260200160002054905060005b60078281548110610488576104876122f0565b5b90600052602060002090600302016002018054905081101561050e57600782815481106104b8576104b76122f0565b5b906000526020600020906003020160020181815481106104db576104da6122f0565b5b906000526020600020906003020160010154836104f8919061234e565b9250600181610507919061234e565b9050610474565b508192505050919050565b610529610524611a2c565b6107f3565b610568576040517f08c379a000000000000000000000000000000000000000000000000000000000815260040161055f90612427565b60405180910390fd5b80600b6001018190555050565b610585610580611a2c565b6107f3565b6105c4576040517f08c379a00000000000000000000000000000000000000000000000000000000081526004016105bb90612427565b60405180910390fd5b80600b6000018190555050565b60006105e36105de611a2c565b6107f3565b610622576040517f08c379a000000000000000000000000000000000000000000000000000000000815260040161061990612427565b60405180910390fd5b60026004541415610668576040517f08c379a000000000000000000000000000000000000000000000000000000000815260040161065f90612493565b60405180910390fd5b6002600481905550600073ffffffffffffffffffffffffffffffffffffffff16600b60060160009054906101000a900473ffffffffffffffffffffffffffffffffffffffff1673ffffffffffffffffffffffffffffffffffffffff161415610705576040517f08c379a00000000000000000000000000000000000000000000000000000000081526004016106fc90612525565b60405180910390fd5b6000600b60020160009054906101000a900473ffffffffffffffffffffffffffffffffffffffff1690508073ffffffffffffffffffffffffffffffffffffffff1663a9059cbb600b60060160009054906101000a900473ffffffffffffffffffffffffffffffffffffffff16856040518363ffffffff1660e01b815260040161078f929190612545565b602060405180830381600087803b1580156107a957600080fd5b505af11580156107bd573d6000803e3d6000fd5b505050506040513d601f19601f820116820180604052508101906107e1919061259a565b50829150506001600481905550919050565b600060011515600160008473ffffffffffffffffffffffffffffffffffffffff1673ffffffffffffffffffffffffffffffffffffffff16815260200190815260200160002060009054906101000a900460ff161515149050919050565b61086061085b611a2c565b6107f3565b61089f576040517f08c379a000000000000000000000000000000000000000000000000000000000815260040161089690612427565b60405180910390fd5b80600b6004018190555050565b6000600260045414156108f4576040517f08c379a00000000000000000000000000000000000000000000000000000000081526004016108eb90612493565b60405180910390fd5b6002600481905550600080600a600061090b611a2c565b73ffffffffffffffffffffffffffffffffffffffff1673ffffffffffffffffffffffffffffffffffffffff16815260200190815260200160002054905060005b6007828154811061095f5761095e6122f0565b5b9060005260206000209060030201600201805490508110156109e5576007828154811061098f5761098e6122f0565b5b906000526020600020906003020160020181815481106109b2576109b16122f0565b5b906000526020600020906003020160010154836109cf919061234e565b92506001816109de919061234e565b905061094b565b5060008211610a29576040517f08c379a0000000000000000000000000000000000000000000000000000000008152600401610a2090612613565b60405180910390fd5b6000600b60020160009054906101000a900473ffffffffffffffffffffffffffffffffffffffff1690508073ffffffffffffffffffffffffffffffffffffffff1663a9059cbb610a77611a2c565b856040518363ffffffff1660e01b8152600401610a95929190612545565b602060405180830381600087803b158015610aaf57600080fd5b505af1158015610ac3573d6000803e3d6000fd5b505050506040513d601f19601f82011682018060405250810190610ae7919061259a565b508260056000828254610afa9190612633565b92505081905550610b11610b0c611a2c565b611a34565b50829350505050600160048190555090565b60008060009054906101000a900460ff16905090565b6000600b600501546018603c806007600a6000610b54611a2c565b73ffffffffffffffffffffffffffffffffffffffff1673ffffffffffffffffffffffffffffffffffffffff1681526020019081526020016000205481548110610ba057610b9f6122f0565b5b90600052602060002090600302016001015442610bbd9190612633565b610bc79190612696565b610bd19190612696565b610bdb9190612696565b1015905090565b6000600b60010154905090565b6000600860008373ffffffffffffffffffffffffffffffffffffffff1673ffffffffffffffffffffffffffffffffffffffff168152602001908152602001600020549050919050565b6000600654905090565b6000600554905090565b610c5c610c57611a2c565b6107f3565b610c9b576040517f08c379a0000000000000000000000000000000000000000000000000000000008152600401610c9290612427565b60405180910390fd5b80600b60030160006101000a81548173ffffffffffffffffffffffffffffffffffffffff021916908373ffffffffffffffffffffffffffffffffffffffff16021790555050565b600060026004541415610d2a576040517f08c379a0000000000000000000000000000000000000000000000000000000008152600401610d2190612493565b60405180910390fd5b6002600481905550610d42610d3d611a2c565b6107f3565b610d81576040517f08c379a0000000000000000000000000000000000000000000000000000000008152600401610d7890612427565b60405180910390fd5b600b60010154610d8f611c34565b1015610dd0576040517f08c379a0000000000000000000000000000000000000000000000000000000008152600401610dc790612739565b60405180910390fd5b6000600b60030160009054906101000a900473ffffffffffffffffffffffffffffffffffffffff169050828173ffffffffffffffffffffffffffffffffffffffff166370a08231306040518263ffffffff1660e01b8152600401610e3491906121f5565b60206040518083038186803b158015610e4c57600080fd5b505afa158015610e60573d6000803e3d6000fd5b505050506040513d601f19601f82011682018060405250810190610e84919061276e565b1015610ec5576040517f08c379a0000000000000000000000000000000000000000000000000000000008152600401610ebc906127e7565b60405180910390fd5b60006005549050600060078054905067ffffffffffffffff811115610eed57610eec612807565b5b604051908082528060200260200182016040528015610f2657816020015b610f13611ff1565b815260200190600190039081610f0b5790505b50905060005b60078054905081101561122157600073ffffffffffffffffffffffffffffffffffffffff1660078281548110610f6557610f646122f0565b5b906000526020600020906003020160000160009054906101000a900473ffffffffffffffffffffffffffffffffffffffff1673ffffffffffffffffffffffffffffffffffffffff161461120d576000805b60078381548110610fca57610fc96122f0565b5b90600052602060002090600302016002018054905081101561117c5760006110aa60078581548110610fff57610ffe6122f0565b5b90600052602060002090600302016002018381548110611022576110216122f0565b5b90600052602060002090600302016040518060600160405290816000820160009054906101000a900473ffffffffffffffffffffffffffffffffffffffff1673ffffffffffffffffffffffffffffffffffffffff1673ffffffffffffffffffffffffffffffffffffffff16815260200160018201548152602001600282015481525050611c6c565b9050600181111561111057600784815481106110c9576110c86122f0565b5b906000526020600020906003020160020182815481106110ec576110eb6122f0565b5b90600052602060002090600302016001015483611109919061234e565b9250611167565b60078481548110611124576111236122f0565b5b90600052602060002090600302016002018281548110611147576111466122f0565b5b906000526020600020906003020160010154866111649190612633565b95505b50600181611175919061234e565b9050610fb6565b5060405180604001604052806007848154811061119c5761119b6122f0565b5b906000526020600020906003020160000160009054906101000a900473ffffffffffffffffffffffffffffffffffffffff1673ffffffffffffffffffffffffffffffffffffffff16815260200182815250838381518110611200576111ff6122f0565b5b6020026020010181905250505b60018161121a919061234e565b9050610f2c565b50600082111561133c5760005b815181101561133a57600073ffffffffffffffffffffffffffffffffffffffff16828281518110611262576112616122f0565b5b60200260200101516000015173ffffffffffffffffffffffffffffffffffffffff1614611326576112b282828151811061129f5761129e6122f0565b5b6020026020010151602001518488611ca8565b600860008484815181106112c9576112c86122f0565b5b60200260200101516000015173ffffffffffffffffffffffffffffffffffffffff1673ffffffffffffffffffffffffffffffffffffffff168152602001908152602001600020600082825461131e919061234e565b925050819055505b600181611333919061234e565b905061122e565b505b426009819055507f97791d3ac1343e05805a2f905fa80b249c2ca58cf9fef455d4fa7ec13ce58321858251604051611375929190612836565b60405180910390a18493505050506001600481905550919050565b600281815481106113a057600080fd5b906000526020600020016000915054906101000a900473ffffffffffffffffffffffffffffffffffffffff1681565b6000600354905090565b6060600280548060200260200160405190810160405280929190818152602001828054801561145d57602002820191906000526020600020905b8160009054906101000a900473ffffffffffffffffffffffffffffffffffffffff1673ffffffffffffffffffffffffffffffffffffffff1681526020019060010190808311611413575b5050505050905090565b600260045414156114ad576040517f08c379a00000000000000000000000000000000000000000000000000000000081526004016114a490612493565b60405180910390fd5b60026004819055506000600b60020160009054906101000a900473ffffffffffffffffffffffffffffffffffffffff1690508073ffffffffffffffffffffffffffffffffffffffff166370a08231611503611a2c565b6040518263ffffffff1660e01b815260040161151f91906121f5565b60206040518083038186803b15801561153757600080fd5b505afa15801561154b573d6000803e3d6000fd5b505050506040513d601f19601f8201168201806040525081019061156f919061276e565b8211156115b1576040517f08c379a00000000000000000000000000000000000000000000000000000000081526004016115a8906128d1565b60405180910390fd5b600b600401548210156115f9576040517f08c379a00000000000000000000000000000000000000000000000000000000081526004016115f090612963565b60405180910390fd5b8073ffffffffffffffffffffffffffffffffffffffff166323b872dd61161d611a2c565b30856040518463ffffffff1660e01b815260040161163d93929190612983565b602060405180830381600087803b15801561165757600080fd5b505af115801561166b573d6000803e3d6000fd5b505050506040513d601f19601f8201168201806040525081019061168f919061259a565b50600061169b83611ceb565b90506116a5611a2c565b73ffffffffffffffffffffffffffffffffffffffff167fb4caaf29adda3eefee3ad552a8e85058589bf834c7466cae4ee58787f70589ed8483426040516116ee939291906129ba565b60405180910390a25050600160048190555050565b60006002600454141561174b576040517f08c379a000000000000000000000000000000000000000000000000000000000815260040161174290612493565b60405180910390fd5b60026004819055508160086000611760611a2c565b73ffffffffffffffffffffffffffffffffffffffff1673ffffffffffffffffffffffffffffffffffffffff1681526020019081526020016000205410156117dc576040517f08c379a00000000000000000000000000000000000000000000000000000000081526004016117d3906127e7565b60405180910390fd5b600115156117e8610b39565b15151461182a576040517f08c379a000000000000000000000000000000000000000000000000000000000815260040161182190612a3d565b60405180910390fd5b426007600a6000611839611a2c565b73ffffffffffffffffffffffffffffffffffffffff1673ffffffffffffffffffffffffffffffffffffffff1681526020019081526020016000205481548110611885576118846122f0565b5b9060005260206000209060030201600101819055506000600b60030160009054906101000a900473ffffffffffffffffffffffffffffffffffffffff1690508073ffffffffffffffffffffffffffffffffffffffff1663a9059cbb6118e8611a2c565b856040518363ffffffff1660e01b8152600401611906929190612545565b602060405180830381600087803b15801561192057600080fd5b505af1158015611934573d6000803e3d6000fd5b505050506040513d601f19601f82011682018060405250810190611958919061259a565b50826006600082825461196b919061234e565b92505081905550826008600061197f611a2c565b73ffffffffffffffffffffffffffffffffffffffff1673ffffffffffffffffffffffffffffffffffffffff16815260200190815260200160002060008282546119c89190612633565b92505081905550829150506001600481905550919050565b6000600b60040154905090565b60008082846119fc9190612a5d565b14611a08576001611a0b565b60005b60ff168284611a1a9190612696565b611a24919061234e565b905092915050565b600033905090565b600080600a60008473ffffffffffffffffffffffffffffffffffffffff1673ffffffffffffffffffffffffffffffffffffffff16815260200190815260200160002054905060005b60078281548110611a9057611a8f6122f0565b5b906000526020600020906003020160020180549050811015611b3f5760078281548110611ac057611abf6122f0565b5b90600052602060002090600302016002018181548110611ae357611ae26122f0565b5b9060005260206000209060030201600080820160006101000a81549073ffffffffffffffffffffffffffffffffffffffff0219169055600182016000905560028201600090555050600181611b38919061234e565b9050611a7c565b5060078181548110611b5457611b536122f0565b5b9060005260206000209060030201600080820160006101000a81549073ffffffffffffffffffffffffffffffffffffffff02191690556001820160009055600282016000611ba29190612021565b5050600a60008473ffffffffffffffffffffffffffffffffffffffff1673ffffffffffffffffffffffffffffffffffffffff16815260200190815260200160002060009055600860008473ffffffffffffffffffffffffffffffffffffffff1673ffffffffffffffffffffffffffffffffffffffff168152602001908152602001600020600090556001915050919050565b60006018603c8060095442611c499190612633565b611c539190612696565b611c5d9190612696565b611c679190612696565b905090565b60006018603c80846040015142611c839190612633565b611c8d9190612696565b611c979190612696565b611ca19190612696565b9050919050565b6000808385611cb79190612696565b83611cc29190612a8e565b9050600b60000154811115611cdf57600b60000154915050611ce4565b809150505b9392505050565b6000808211611d2f576040517f08c379a0000000000000000000000000000000000000000000000000000000008152600401611d2690612b34565b60405180910390fd5b6000600a6000611d3d611a2c565b73ffffffffffffffffffffffffffffffffffffffff1673ffffffffffffffffffffffffffffffffffffffff1681526020019081526020016000205490506000811415611d9657611d93611d8e611a2c565b611ec5565b90505b4260078281548110611dab57611daa6122f0565b5b90600052602060002090600302016001018190555060078181548110611dd457611dd36122f0565b5b90600052602060002090600302016002016040518060600160405280611df8611a2c565b73ffffffffffffffffffffffffffffffffffffffff16815260200185815260200142815250908060018154018082558091505060019003906000526020600020906003020160009091909190915060008201518160000160006101000a81548173ffffffffffffffffffffffffffffffffffffffff021916908373ffffffffffffffffffffffffffffffffffffffff160217905550602082015181600101556040820151816002015550508260056000828254611eb5919061234e565b9250508190555080915050919050565b600060076001816001815401808255809150500390600052602060002090505060006001600780549050611ef99190612633565b90508260078281548110611f1057611f0f6122f0565b5b906000526020600020906003020160000160006101000a81548173ffffffffffffffffffffffffffffffffffffffff021916908373ffffffffffffffffffffffffffffffffffffffff16021790555080600a60008573ffffffffffffffffffffffffffffffffffffffff1673ffffffffffffffffffffffffffffffffffffffff168152602001908152602001600020819055506000600860008573ffffffffffffffffffffffffffffffffffffffff1673ffffffffffffffffffffffffffffffffffffffff1681526020019081526020016000208190555080915050919050565b6040518060400160405280600073ffffffffffffffffffffffffffffffffffffffff168152602001600081525090565b50805460008255600302906000526020600020908101906120429190612045565b50565b5b8082111561208f57600080820160006101000a81549073ffffffffffffffffffffffffffffffffffffffff02191690556001820160009055600282016000905550600301612046565b5090565b600080fd5b600073ffffffffffffffffffffffffffffffffffffffff82169050919050565b60006120c382612098565b9050919050565b6120d3816120b8565b81146120de57600080fd5b50565b6000813590506120f0816120ca565b92915050565b60006020828403121561210c5761210b612093565b5b600061211a848285016120e1565b91505092915050565b6000819050919050565b61213681612123565b82525050565b6000602082019050612151600083018461212d565b92915050565b61216081612123565b811461216b57600080fd5b50565b60008135905061217d81612157565b92915050565b60006020828403121561219957612198612093565b5b60006121a78482850161216e565b91505092915050565b60008115159050919050565b6121c5816121b0565b82525050565b60006020820190506121e060008301846121bc565b92915050565b6121ef816120b8565b82525050565b600060208201905061220a60008301846121e6565b92915050565b600081519050919050565b600082825260208201905092915050565b6000819050602082019050919050565b612245816120b8565b82525050565b6000612257838361223c565b60208301905092915050565b6000602082019050919050565b600061227b82612210565b612285818561221b565b93506122908361222c565b8060005b838110156122c15781516122a8888261224b565b97506122b383612263565b925050600181019050612294565b5085935050505092915050565b600060208201905081810360008301526122e88184612270565b905092915050565b7f4e487b7100000000000000000000000000000000000000000000000000000000600052603260045260246000fd5b7f4e487b7100000000000000000000000000000000000000000000000000000000600052601160045260246000fd5b600061235982612123565b915061236483612123565b9250827fffffffffffffffffffffffffffffffffffffffffffffffffffffffffffffffff038211156123995761239861231f565b5b828201905092915050565b600082825260208201905092915050565b7f4d756c74694f776e61626c653a2063616c6c6572206973206e6f74207468652060008201527f6f776e6572000000000000000000000000000000000000000000000000000000602082015250565b60006124116025836123a4565b915061241c826123b5565b604082019050919050565b6000602082019050818103600083015261244081612404565b9050919050565b7f5265656e7472616e637947756172643a207265656e7472616e742063616c6c00600082015250565b600061247d601f836123a4565b915061248882612447565b602082019050919050565b600060208201905081810360008301526124ac81612470565b9050919050565b7f5374616b696e673a20506c6174666f726d2077616c6c657420697320756e617660008201527f61696c61626c6500000000000000000000000000000000000000000000000000602082015250565b600061250f6027836123a4565b915061251a826124b3565b604082019050919050565b6000602082019050818103600083015261253e81612502565b9050919050565b600060408201905061255a60008301856121e6565b612567602083018461212d565b9392505050565b612577816121b0565b811461258257600080fd5b50565b6000815190506125948161256e565b92915050565b6000602082840312156125b0576125af612093565b5b60006125be84828501612585565b91505092915050565b7f5374616b696e673a204e6f7468696e6720746f20776974686472617700000000600082015250565b60006125fd601c836123a4565b9150612608826125c7565b602082019050919050565b6000602082019050818103600083015261262c816125f0565b9050919050565b600061263e82612123565b915061264983612123565b92508282101561265c5761265b61231f565b5b828203905092915050565b7f4e487b7100000000000000000000000000000000000000000000000000000000600052601260045260246000fd5b60006126a182612123565b91506126ac83612123565b9250826126bc576126bb612667565b5b828204905092915050565b7f5374616b696e673a20526577617264206379636c65206e6f742066696e69736860008201527f6564207965740000000000000000000000000000000000000000000000000000602082015250565b60006127236026836123a4565b915061272e826126c7565b604082019050919050565b6000602082019050818103600083015261275281612716565b9050919050565b60008151905061276881612157565b92915050565b60006020828403121561278457612783612093565b5b600061279284828501612759565b91505092915050565b7f5374616b696e673a20496e73756666696369656e742066756e64730000000000600082015250565b60006127d1601b836123a4565b91506127dc8261279b565b602082019050919050565b60006020820190508181036000830152612800816127c4565b9050919050565b7f4e487b7100000000000000000000000000000000000000000000000000000000600052604160045260246000fd5b600060408201905061284b600083018561212d565b612858602083018461212d565b9392505050565b7f5374616b696e673a2043616e6e6f74207374616b65206d6f7265207468616e2060008201527f796f75206f776e00000000000000000000000000000000000000000000000000602082015250565b60006128bb6027836123a4565b91506128c68261285f565b604082019050919050565b600060208201905081810360008301526128ea816128ae565b9050919050565b7f5374616b696e673a2043616e6e6f74207374616b65206c657373207468616e2060008201527f746865206d696e696d756d20616d6f756e740000000000000000000000000000602082015250565b600061294d6032836123a4565b9150612958826128f1565b604082019050919050565b6000602082019050818103600083015261297c81612940565b9050919050565b600060608201905061299860008301866121e6565b6129a560208301856121e6565b6129b2604083018461212d565b949350505050565b60006060820190506129cf600083018661212d565b6129dc602083018561212d565b6129e9604083018461212d565b949350505050565b7f5374616b696e673a2043616e6e6f7420776974686472617720746f6461790000600082015250565b6000612a27601e836123a4565b9150612a32826129f1565b602082019050919050565b60006020820190508181036000830152612a5681612a1a565b9050919050565b6000612a6882612123565b9150612a7383612123565b925082612a8357612a82612667565b5b828206905092915050565b6000612a9982612123565b9150612aa483612123565b9250817fffffffffffffffffffffffffffffffffffffffffffffffffffffffffffffffff0483118215151615612add57612adc61231f565b5b828202905092915050565b7f5374616b696e673a2043616e6e6f74207374616b65206e6f7468696e67000000600082015250565b6000612b1e601d836123a4565b9150612b2982612ae8565b602082019050919050565b60006020820190508181036000830152612b4d81612b11565b905091905056fea26469706673582212209aa4522099ead4499d734d9eba7b7cbc3983cb07bfe508fe492bc442e70fd49f64736f6c63430008090033",
  "immutableReferences": {},
  "source": "// SPDX-License-Identifier: MIT\r\npragma solidity ^0.8.9;\r\n\r\nimport \"../node_modules/@openzeppelin/contracts/token/ERC20/IERC20.sol\";\r\nimport \"../node_modules/@openzeppelin/contracts/utils/math/SafeMath.sol\";\r\nimport \"../node_modules/@openzeppelin/contracts/utils/Context.sol\";\r\nimport \"../node_modules/@openzeppelin/contracts/security/Pausable.sol\";\r\nimport \"./MultiOwnable.sol\";\r\nimport \"../node_modules/@openzeppelin/contracts/security/ReentrancyGuard.sol\";\r\n\r\ncontract Stakingv2 is Context, Pausable, MultiOwnable, ReentrancyGuard {\r\n    using SafeMath for uint256;\r\n\r\n    struct StakingSettings {\r\n        // in tokens, max amount of tokens staker can receive in one cycle\r\n        uint256 maxRewardPerStaker;\r\n        // In DAYS, how often the reward is generated\r\n        uint rewardCycle;\r\n        // address of the smart contract which is staked\r\n        address stakingToken;\r\n        // address of the smart contract which is rewarded\r\n        address rewardToken;\r\n        // in tokens, how many tokens minimum user can stake\r\n        uint256 minimumStakingAmount;\r\n        // in days, how many days user should wait till he can withdraw\r\n        uint256 withdrawThreshold;\r\n        // platform wallet where money will be sent\r\n        address platformWallet;\r\n    }\r\n\r\n    struct Stake {\r\n        address staker;\r\n        uint256 amount;\r\n        uint256 since;\r\n    }\r\n\r\n    struct Stakeholder {\r\n        address staker;\r\n        uint256 lastClaim;\r\n        Stake[] stakes;\r\n    }\r\n\r\n    struct StakeholderBalance {\r\n        address staker;\r\n        uint256 balance;\r\n    }\r\n\r\n    event Staked(address indexed staker, uint256 amount, uint256 index, uint256 timestamp);\r\n    event Distributed(uint256 amount, uint256 stakeholderCount);\r\n    uint256 internal _totalStaked;\r\n    uint256 internal _totalReward;\r\n    Stakeholder[] internal stakeholders;\r\n    mapping(address => uint256) internal _balances;\r\n    uint256 internal _lastRewardPayment;\r\n    /**\r\n    * @notice \r\n    * stakes is used to keep track of the INDEX for the stakers in the stakes array\r\n     */\r\n    mapping(address => uint256) internal stakes;\r\n\r\n    StakingSettings internal _settings;\r\n\r\n    constructor(StakingSettings memory settings) MultiOwnable(_msgSender()) {\r\n        _settings = settings;\r\n        stakeholders.push(); // empty first array value for not make misunderstading in checking if index exist \r\n    }\r\n\r\n    function _addStakeholder(address staker) internal returns (uint256){\r\n        stakeholders.push();\r\n        uint256 userIndex = stakeholders.length - 1;\r\n        stakeholders[userIndex].staker = staker;\r\n        stakes[staker] = userIndex;\r\n        _balances[staker] = 0;\r\n        return userIndex; \r\n    }\r\n\r\n    /**\r\n    * @notice\r\n    * _Stake is used to make a stake for an sender. It will remove the amount staked from the stakers account and place those tokens inside a stake container\r\n    * StakeID \r\n    */\r\n    function _stake(uint256 _amount) internal returns(uint256) {\r\n        // Simple check so that user does not stake 0 \r\n        require(_amount > 0, \"Staking: Cannot stake nothing\");\r\n        // Mappings in solidity creates all values, but empty, so we can just check the address\r\n        uint256 index = stakes[_msgSender()];\r\n        // See if the staker already has a staked index or if its the first time\r\n        if(index == 0){\r\n            // This stakeholder stakes for the first time\r\n            // We need to add him to the stakeHolders and also map it into the Index of the stakes\r\n            // The index returned will be the index of the stakeholder in the stakeholders array\r\n            index = _addStakeholder(_msgSender());\r\n        }\r\n\r\n        // Use the index to push a new Stake\r\n        // push a newly created Stake with the current block timestamp.\r\n        // block.timestamp = timestamp of the current block in seconds since the epoch\r\n        stakeholders[index].lastClaim = block.timestamp;\r\n        stakeholders[index].stakes.push(Stake(_msgSender(), _amount, block.timestamp));\r\n        _totalStaked += _amount;\r\n        return index;\r\n    }\r\n\r\n    function setMaxReward(uint256 reward) public onlyOwner { \r\n        _settings.maxRewardPerStaker = reward;\r\n    }\r\n\r\n    function setRewardToken(address token) public onlyOwner {\r\n        _settings.rewardToken = token;\r\n    }\r\n\r\n    function setRewardCycle(uint256 cycle) public onlyOwner {\r\n        _settings.rewardCycle = cycle;\r\n    }\r\n\r\n    function setMinimumStakingAmount(uint256 amount) public onlyOwner {\r\n        _settings.minimumStakingAmount = amount;\r\n    }\r\n\r\n    function minimumStakingAmount() public view returns (uint256) {\r\n        return _settings.minimumStakingAmount;\r\n    }\r\n\r\n    function totalStaked() public view returns (uint256){\r\n        return _totalStaked;\r\n    }\r\n\r\n    function totalReward() public view returns (uint256){\r\n        return _totalReward;\r\n    }\r\n\r\n    function rewardCycle() public view returns (uint256){\r\n        return _settings.rewardCycle;\r\n    }\r\n\r\n    function stake(uint256 _amount) external nonReentrant {\r\n      IERC20 token = IERC20(_settings.stakingToken);\r\n      require(_amount <= token.balanceOf(_msgSender()), \"Staking: Cannot stake more than you own\");\r\n      require(_amount >= _settings.minimumStakingAmount, \"Staking: Cannot stake less than the minimum amount\");\r\n      token.transferFrom(_msgSender(), address(this), _amount);\r\n      uint256 stakerIndex = _stake(_amount);\r\n      emit Staked(_msgSender(), _amount, stakerIndex, block.timestamp);\r\n    }\r\n    \r\n    /**\r\n    * @notice checks if user can withdraw reward today\r\n     */\r\n    function canClaim() public view returns (bool) {\r\n        return ((block.timestamp - stakeholders[stakes[_msgSender()]].lastClaim) / 60 / 60 / 24) >= _settings.withdrawThreshold;\r\n    }\r\n\r\n    function _estimateReward(uint256 stakedAmount, uint256 totalStakedAmount, uint256 totalPool) internal view returns (uint256){ \r\n        uint256 reward = totalPool * (stakedAmount / totalStakedAmount);\r\n        if(reward > _settings.maxRewardPerStaker){\r\n            return _settings.maxRewardPerStaker;\r\n        }\r\n        return reward;\r\n    }\r\n\r\n    function distribute(uint256 amount) public nonReentrant onlyOwner returns(uint256) \r\n    {\r\n        require(_getDaysSinceLastPayment() >= _settings.rewardCycle, \"Staking: Reward cycle not finished yet\");\r\n        IERC20 token = IERC20(_settings.rewardToken);\r\n        require(token.balanceOf(address(this)) >= amount, \"Staking: Insufficient funds\");\r\n        uint256 totalValidStake = _totalStaked;\r\n        StakeholderBalance[] memory sts = new StakeholderBalance[](stakeholders.length);\r\n        for (uint256 s = 0; s < stakeholders.length; s += 1){\r\n            if(stakeholders[s].staker != address(0)){\r\n                uint256 stakedValue = 0;\r\n                for (uint256 si = 0; si < stakeholders[s].stakes.length; si += 1){\r\n                    uint256 stakedDays = _getStakedDays(stakeholders[s].stakes[si]);\r\n                    if(stakedDays > 1) {\r\n                        stakedValue += stakeholders[s].stakes[si].amount;\r\n                    }\r\n                    else {\r\n                        totalValidStake -= stakeholders[s].stakes[si].amount;\r\n                    }\r\n                }\r\n                sts[s] = StakeholderBalance(stakeholders[s].staker, stakedValue);\r\n            }\r\n        }\r\n        if(totalValidStake > 0) {\r\n            for (uint256 s = 0; s < sts.length; s += 1){\r\n                if(sts[s].staker != address(0)) {\r\n                    _balances[sts[s].staker] += _estimateReward(sts[s].balance, totalValidStake, amount);\r\n                }\r\n            }\r\n        }\r\n        _lastRewardPayment = block.timestamp;\r\n        emit Distributed(amount, sts.length);\r\n        return amount;\r\n    }\r\n\r\n    /**\r\n    * @notice withdrawStake is used to withdraw stakes from the account holder\r\n     */\r\n    function claimReward(uint256 amount) public nonReentrant returns(uint256) {\r\n        require(_balances[_msgSender()] >= amount, \"Staking: Insufficient funds\");\r\n        require(canClaim() == true, \"Staking: Cannot withdraw today\");\r\n        stakeholders[stakes[_msgSender()]].lastClaim = block.timestamp;\r\n        IERC20 token = IERC20(_settings.rewardToken);\r\n        // Return staked tokens to user\r\n        token.transfer(_msgSender(), amount);\r\n        _totalReward += amount;\r\n        _balances[_msgSender()] -= amount;\r\n        return amount;\r\n    }\r\n\r\n     /**\r\n    * @notice\r\n    * withdraw\r\n    */\r\n    function withdraw() public nonReentrant returns(uint256) {\r\n        uint256 withdrawAmount = 0;\r\n        uint256 user_index = stakes[_msgSender()];\r\n        for (uint256 s = 0; s < stakeholders[user_index].stakes.length; s += 1){\r\n            withdrawAmount += stakeholders[user_index].stakes[s].amount;\r\n        }\r\n        require(withdrawAmount > 0, \"Staking: Nothing to withdraw\");\r\n        IERC20 token = IERC20(_settings.stakingToken);\r\n        token.transfer(_msgSender(), withdrawAmount);\r\n        _totalStaked -= withdrawAmount;\r\n        _removeStakeholder(_msgSender());\r\n        return withdrawAmount;\r\n    }\r\n\r\n    function _removeStakeholder(address stakeholder) internal returns(bool) {\r\n        uint256 user_index = stakes[stakeholder];\r\n        for (uint256 s = 0; s < stakeholders[user_index].stakes.length; s += 1){\r\n            delete stakeholders[user_index].stakes[s];\r\n        }\r\n        delete stakeholders[user_index];\r\n        delete stakes[stakeholder];\r\n        delete _balances[stakeholder];\r\n        return true;\r\n    }\r\n\r\n    /**\r\n    * @notice\r\n    * returns amount of days stake exists\r\n    */\r\n    function _getStakedDays(Stake memory st) internal view returns(uint256) {\r\n        return (block.timestamp - st.since) / 60 / 60 / 24;\r\n    }\r\n\r\n    function _getDaysSinceLastPayment() internal view returns(uint256) {\r\n        return (block.timestamp - _lastRewardPayment) / 60 / 60 / 24;\r\n    }\r\n\r\n    function balanceOf(address _staker) public view returns(uint256){\r\n        return _balances[_staker];\r\n    }\r\n\r\n    function stakedValueOf(address _staker) public view returns(uint256) {\r\n        uint256 balance = 0;\r\n        uint256 user_index = stakes[_staker];\r\n        for (uint256 si = 0; si < stakeholders[user_index].stakes.length; si += 1){\r\n            balance += stakeholders[user_index].stakes[si].amount;\r\n        }\r\n        return balance;\r\n    }\r\n\r\n    function refund(uint256 amount) public onlyOwner nonReentrant returns(uint256) {\r\n        require(_settings.platformWallet != address(0), \"Staking: Platform wallet is unavailable\");\r\n        IERC20 token = IERC20(_settings.stakingToken);\r\n        token.transfer(_settings.platformWallet, amount);\r\n        return amount;\r\n    }\r\n    \r\n}",
  "sourcePath": "D:\\repositories\\mosaico-reference\\smart_contracts\\contracts\\Stakingv2.sol",
  "compiler": {
    "name": "solc",
    "version": "0.8.9+commit.e5eed63a.Emscripten.clang"
  },
  "schemaVersion": "3.4.3",
  "updatedAt": "2022-04-01T04:17:56.670Z",
  "devdoc": {
    "kind": "dev",
    "methods": {
      "isOwner(address)": {
        "details": "Returns the address of the current owner."
      },
      "paused()": {
        "details": "Returns true if the contract is paused, and false otherwise."
      }
    },
    "version": 1
  },
  "userdoc": {
    "kind": "user",
    "methods": {
      "canClaim()": {
        "notice": "checks if user can withdraw reward today"
      },
      "claimReward(uint256)": {
        "notice": "withdrawStake is used to withdraw stakes from the account holder"
      },
      "withdraw()": {
        "notice": "withdraw"
      }
    },
    "version": 1
  }
}