{
  "contractName": "Staking",
  "abi": [
    {
      "inputs": [
        {
          "internalType": "contract IERC20",
          "name": "token",
          "type": "address"
        },
        {
          "internalType": "uint256",
          "name": "_reward",
          "type": "uint256"
        },
        {
          "internalType": "uint256",
          "name": "_rewardPeriodInDays",
          "type": "uint256"
        }
      ],
      "stateMutability": "nonpayable",
      "type": "constructor"
    },
    {
      "anonymous": false,
      "inputs": [
        {
          "indexed": true,
          "internalType": "address",
          "name": "staker",
          "type": "address"
        },
        {
          "indexed": false,
          "internalType": "uint256",
          "name": "amount",
          "type": "uint256"
        },
        {
          "indexed": false,
          "internalType": "uint256",
          "name": "index",
          "type": "uint256"
        },
        {
          "indexed": false,
          "internalType": "uint256",
          "name": "timestamp",
          "type": "uint256"
        }
      ],
      "name": "Staked",
      "type": "event"
    },
    {
      "inputs": [],
      "name": "reward",
      "outputs": [
        {
          "internalType": "uint256",
          "name": "",
          "type": "uint256"
        }
      ],
      "stateMutability": "view",
      "type": "function"
    },
    {
      "inputs": [],
      "name": "rewardPeriodInDays",
      "outputs": [
        {
          "internalType": "uint256",
          "name": "",
          "type": "uint256"
        }
      ],
      "stateMutability": "view",
      "type": "function"
    },
    {
      "inputs": [
        {
          "internalType": "uint256",
          "name": "_amount",
          "type": "uint256"
        }
      ],
      "name": "stake",
      "outputs": [],
      "stateMutability": "nonpayable",
      "type": "function"
    },
    {
      "inputs": [
        {
          "internalType": "uint256",
          "name": "amount",
          "type": "uint256"
        },
        {
          "internalType": "uint256",
          "name": "stake_index",
          "type": "uint256"
        }
      ],
      "name": "withdrawStake",
      "outputs": [],
      "stateMutability": "nonpayable",
      "type": "function"
    },
    {
      "inputs": [],
      "name": "withdrawAllStake",
      "outputs": [
        {
          "internalType": "uint256",
          "name": "amount",
          "type": "uint256"
        }
      ],
      "stateMutability": "nonpayable",
      "type": "function"
    },
    {
      "inputs": [
        {
          "internalType": "address",
          "name": "_staker",
          "type": "address"
        }
      ],
      "name": "hasStake",
      "outputs": [
        {
          "components": [
            {
              "internalType": "uint256",
              "name": "total_amount",
              "type": "uint256"
            },
            {
              "components": [
                {
                  "internalType": "address",
                  "name": "staker",
                  "type": "address"
                },
                {
                  "internalType": "uint256",
                  "name": "amount",
                  "type": "uint256"
                },
                {
                  "internalType": "uint256",
                  "name": "since",
                  "type": "uint256"
                },
                {
                  "internalType": "uint256",
                  "name": "claimable",
                  "type": "uint256"
                }
              ],
              "internalType": "struct Staking.Stake[]",
              "name": "stakes",
              "type": "tuple[]"
            }
          ],
          "internalType": "struct Staking.StakingSummary",
          "name": "",
          "type": "tuple"
        }
      ],
      "stateMutability": "view",
      "type": "function"
    }
  ],
  "bytecode": "0x60806040523480156200001157600080fd5b506040516200168838038062001688833981810160405281019062000037919062000164565b826000806101000a81548173ffffffffffffffffffffffffffffffffffffffff021916908373ffffffffffffffffffffffffffffffffffffffff16021790555081600481905550806003819055506001808160018154018082558091505003906000526020600020905050505050620001c0565b600080fd5b600073ffffffffffffffffffffffffffffffffffffffff82169050919050565b6000620000dd82620000b0565b9050919050565b6000620000f182620000d0565b9050919050565b6200010381620000e4565b81146200010f57600080fd5b50565b6000815190506200012381620000f8565b92915050565b6000819050919050565b6200013e8162000129565b81146200014a57600080fd5b50565b6000815190506200015e8162000133565b92915050565b60008060006060848603121562000180576200017f620000ab565b5b6000620001908682870162000112565b9350506020620001a3868287016200014d565b9250506040620001b6868287016200014d565b9150509250925092565b6114b880620001d06000396000f3fe608060405234801561001057600080fd5b50600436106100625760003560e01c8063228cb73314610067578063a694fc3a14610085578063cf49dab4146100a1578063e481c639146100bf578063e73e14bf146100dd578063f1fdf4691461010d575b600080fd5b61006f610129565b60405161007c9190610d2a565b60405180910390f35b61009f600480360381019061009a9190610d76565b61012f565b005b6100a961033d565b6040516100b69190610d2a565b60405180910390f35b6100c7610343565b6040516100d49190610d2a565b60405180910390f35b6100f760048036038101906100f29190610e01565b610489565b6040516101049190610f8d565b60405180910390f35b61012760048036038101906101229190610faf565b610696565b005b60045481565b60008054906101000a900473ffffffffffffffffffffffffffffffffffffffff1673ffffffffffffffffffffffffffffffffffffffff1663dd62ed3e61017361075e565b306040518363ffffffff1660e01b8152600401610191929190610ffe565b60206040518083038186803b1580156101a957600080fd5b505afa1580156101bd573d6000803e3d6000fd5b505050506040513d601f19601f820116820180604052508101906101e1919061103c565b811115610223576040517f08c379a000000000000000000000000000000000000000000000000000000000815260040161021a906110c6565b60405180910390fd5b600061022e82610766565b905060008054906101000a900473ffffffffffffffffffffffffffffffffffffffff1673ffffffffffffffffffffffffffffffffffffffff166323b872dd61027461075e565b30856040518463ffffffff1660e01b8152600401610294939291906110e6565b602060405180830381600087803b1580156102ae57600080fd5b505af11580156102c2573d6000803e3d6000fd5b505050506040513d601f19601f820116820180604052508101906102e69190611155565b503373ffffffffffffffffffffffffffffffffffffffff167fb4caaf29adda3eefee3ad552a8e85058589bf834c7466cae4ee58787f70589ed83834260405161033193929190611182565b60405180910390a25050565b60035481565b60008061035661035161075e565b610489565b90506000805b8260200151518110156103b65761039583602001518281518110610383576103826111b9565b5b602002602001015160200151826108f9565b826103a09190611217565b91506001816103af9190611217565b905061035c565b50600081111561047f5760008054906101000a900473ffffffffffffffffffffffffffffffffffffffff1673ffffffffffffffffffffffffffffffffffffffff1663a9059cbb61040461075e565b836040518363ffffffff1660e01b815260040161042292919061126d565b602060405180830381600087803b15801561043c57600080fd5b505af1158015610450573d6000803e3d6000fd5b505050506040513d601f19601f820116820180604052508101906104749190611155565b508092505050610486565b6000925050505b90565b610491610cf7565b6000806040518060400160405280600081526020016001600260008873ffffffffffffffffffffffffffffffffffffffff1673ffffffffffffffffffffffffffffffffffffffff16815260200190815260200160002054815481106104f9576104f86111b9565b5b9060005260206000209060020201600101805480602002602001604051908101604052809291908181526020016000905b828210156105d057838290600052602060002090600402016040518060800160405290816000820160009054906101000a900473ffffffffffffffffffffffffffffffffffffffff1673ffffffffffffffffffffffffffffffffffffffff1673ffffffffffffffffffffffffffffffffffffffff16815260200160018201548152602001600282015481526020016003820154815250508152602001906001019061052a565b50505050815250905060005b81602001515181101561068157600061061283602001518381518110610605576106046111b9565b5b6020026020010151610bc2565b9050808360200151838151811061062c5761062b6111b9565b5b6020026020010151606001818152505082602001518281518110610653576106526111b9565b5b6020026020010151602001518461066a9190611217565b93505060018161067a9190611217565b90506105dc565b50818160000181815250508092505050919050565b60006106a283836108f9565b905060008054906101000a900473ffffffffffffffffffffffffffffffffffffffff1673ffffffffffffffffffffffffffffffffffffffff1663a9059cbb6106e861075e565b836040518363ffffffff1660e01b815260040161070692919061126d565b602060405180830381600087803b15801561072057600080fd5b505af1158015610734573d6000803e3d6000fd5b505050506040513d601f19601f820116820180604052508101906107589190611155565b50505050565b600033905090565b60008082116107aa576040517f08c379a00000000000000000000000000000000000000000000000000000000081526004016107a1906112e2565b60405180910390fd5b6000600260003373ffffffffffffffffffffffffffffffffffffffff1673ffffffffffffffffffffffffffffffffffffffff16815260200190815260200160002054905060008114156108035761080033610c12565b90505b60018181548110610817576108166111b9565b5b906000526020600020906002020160010160405180608001604052803373ffffffffffffffffffffffffffffffffffffffff1681526020018581526020014281526020016000815250908060018154018082558091505060019003906000526020600020906004020160009091909190915060008201518160000160006101000a81548173ffffffffffffffffffffffffffffffffffffffff021916908373ffffffffffffffffffffffffffffffffffffffff160217905550602082015181600101556040820151816002015560608201518160030155505080915050919050565b600080600260003373ffffffffffffffffffffffffffffffffffffffff1673ffffffffffffffffffffffffffffffffffffffff168152602001908152602001600020549050600060018281548110610954576109536111b9565b5b90600052602060002090600202016001018481548110610977576109766111b9565b5b90600052602060002090600402016040518060800160405290816000820160009054906101000a900473ffffffffffffffffffffffffffffffffffffffff1673ffffffffffffffffffffffffffffffffffffffff1673ffffffffffffffffffffffffffffffffffffffff168152602001600182015481526020016002820154815260200160038201548152505090508481602001511015610a4d576040517f08c379a0000000000000000000000000000000000000000000000000000000008152600401610a4490611374565b60405180910390fd5b6000610a5882610bc2565b9050858260200151610a6a9190611394565b826020018181525050600082602001511415610b0c5760018381548110610a9457610a936111b9565b5b90600052602060002090600202016001018581548110610ab757610ab66111b9565b5b9060005260206000209060040201600080820160006101000a81549073ffffffffffffffffffffffffffffffffffffffff02191690556001820160009055600282016000905560038201600090555050610bab565b816020015160018481548110610b2557610b246111b9565b5b90600052602060002090600202016001018681548110610b4857610b476111b9565b5b9060005260206000209060040201600101819055504260018481548110610b7257610b716111b9565b5b90600052602060002090600202016001018681548110610b9557610b946111b9565b5b9060005260206000209060040201600201819055505b8086610bb79190611217565b935050505092915050565b6000600454826020015162015180600354610bdd91906113c8565b846040015142610bed9190611394565b610bf79190611451565b610c0191906113c8565b610c0b9190611451565b9050919050565b60006001808160018154018082558091505003906000526020600020905050600060018080549050610c449190611394565b90508260018281548110610c5b57610c5a6111b9565b5b906000526020600020906002020160000160006101000a81548173ffffffffffffffffffffffffffffffffffffffff021916908373ffffffffffffffffffffffffffffffffffffffff16021790555080600260008573ffffffffffffffffffffffffffffffffffffffff1673ffffffffffffffffffffffffffffffffffffffff1681526020019081526020016000208190555080915050919050565b604051806040016040528060008152602001606081525090565b6000819050919050565b610d2481610d11565b82525050565b6000602082019050610d3f6000830184610d1b565b92915050565b600080fd5b610d5381610d11565b8114610d5e57600080fd5b50565b600081359050610d7081610d4a565b92915050565b600060208284031215610d8c57610d8b610d45565b5b6000610d9a84828501610d61565b91505092915050565b600073ffffffffffffffffffffffffffffffffffffffff82169050919050565b6000610dce82610da3565b9050919050565b610dde81610dc3565b8114610de957600080fd5b50565b600081359050610dfb81610dd5565b92915050565b600060208284031215610e1757610e16610d45565b5b6000610e2584828501610dec565b91505092915050565b610e3781610d11565b82525050565b600081519050919050565b600082825260208201905092915050565b6000819050602082019050919050565b610e7281610dc3565b82525050565b608082016000820151610e8e6000850182610e69565b506020820151610ea16020850182610e2e565b506040820151610eb46040850182610e2e565b506060820151610ec76060850182610e2e565b50505050565b6000610ed98383610e78565b60808301905092915050565b6000602082019050919050565b6000610efd82610e3d565b610f078185610e48565b9350610f1283610e59565b8060005b83811015610f43578151610f2a8882610ecd565b9750610f3583610ee5565b925050600181019050610f16565b5085935050505092915050565b6000604083016000830151610f686000860182610e2e565b5060208301518482036020860152610f808282610ef2565b9150508091505092915050565b60006020820190508181036000830152610fa78184610f50565b905092915050565b60008060408385031215610fc657610fc5610d45565b5b6000610fd485828601610d61565b9250506020610fe585828601610d61565b9150509250929050565b610ff881610dc3565b82525050565b60006040820190506110136000830185610fef565b6110206020830184610fef565b9392505050565b60008151905061103681610d4a565b92915050565b60006020828403121561105257611051610d45565b5b600061106084828501611027565b91505092915050565b600082825260208201905092915050565b7f43616e6e6f74207374616b65206d6f7265207468616e20796f75206f776e0000600082015250565b60006110b0601e83611069565b91506110bb8261107a565b602082019050919050565b600060208201905081810360008301526110df816110a3565b9050919050565b60006060820190506110fb6000830186610fef565b6111086020830185610fef565b6111156040830184610d1b565b949350505050565b60008115159050919050565b6111328161111d565b811461113d57600080fd5b50565b60008151905061114f81611129565b92915050565b60006020828403121561116b5761116a610d45565b5b600061117984828501611140565b91505092915050565b60006060820190506111976000830186610d1b565b6111a46020830185610d1b565b6111b16040830184610d1b565b949350505050565b7f4e487b7100000000000000000000000000000000000000000000000000000000600052603260045260246000fd5b7f4e487b7100000000000000000000000000000000000000000000000000000000600052601160045260246000fd5b600061122282610d11565b915061122d83610d11565b9250827fffffffffffffffffffffffffffffffffffffffffffffffffffffffffffffffff03821115611262576112616111e8565b5b828201905092915050565b60006040820190506112826000830185610fef565b61128f6020830184610d1b565b9392505050565b7f43616e6e6f74207374616b65206e6f7468696e67000000000000000000000000600082015250565b60006112cc601483611069565b91506112d782611296565b602082019050919050565b600060208201905081810360008301526112fb816112bf565b9050919050565b7f5374616b696e673a2043616e6e6f74207769746864726177206d6f726520746860008201527f616e20796f752068617665207374616b65640000000000000000000000000000602082015250565b600061135e603283611069565b915061136982611302565b604082019050919050565b6000602082019050818103600083015261138d81611351565b9050919050565b600061139f82610d11565b91506113aa83610d11565b9250828210156113bd576113bc6111e8565b5b828203905092915050565b60006113d382610d11565b91506113de83610d11565b9250817fffffffffffffffffffffffffffffffffffffffffffffffffffffffffffffffff0483118215151615611417576114166111e8565b5b828202905092915050565b7f4e487b7100000000000000000000000000000000000000000000000000000000600052601260045260246000fd5b600061145c82610d11565b915061146783610d11565b92508261147757611476611422565b5b82820490509291505056fea2646970667358221220cb6085c6b94600bda24518f67589cf01f714afb19a2f6b486cec1a2674e1057c64736f6c63430008090033",
  "immutableReferences": {},
  "source": "// SPDX-License-Identifier: MIT\npragma solidity ^0.8.9;\n\nimport \"../node_modules/@openzeppelin/contracts/token/ERC20/IERC20.sol\";\nimport \"../node_modules/@openzeppelin/contracts/utils/math/SafeMath.sol\";\nimport \"../node_modules/@openzeppelin/contracts/utils/Context.sol\";\n\ncontract Staking is Context {\n    using SafeMath for uint256;\n    IERC20 private _token;\n    \n    struct Stake {\n        address staker;\n        uint256 amount;\n        uint256 since;\n        uint256 claimable;\n    }\n\n    struct Stakeholder {\n        address staker;\n        Stake[] stakes;\n    }\n\n    struct StakingSummary {\n        uint256 total_amount;\n        Stake[] stakes;\n    }\n\n    event Staked(address indexed staker, uint256 amount, uint256 index, uint256 timestamp);\n\n    Stakeholder[] internal stakeholders;\n\n    /**\n    * @notice \n    * stakes is used to keep track of the INDEX for the stakers in the stakes array\n     */\n    mapping(address => uint256) internal stakes;\n\n    uint public rewardPeriodInDays;\n\n    uint256 public reward;\n\n    constructor(IERC20 token, uint256 _reward, uint _rewardPeriodInDays) {\n        _token = token;\n        reward = _reward;\n        rewardPeriodInDays = _rewardPeriodInDays;\n        stakeholders.push(); // empty first array value for not make misunderstading in checking if index exist \n    }\n\n    function _addStakeholder(address staker) internal returns (uint256){\n        stakeholders.push();\n        uint256 userIndex = stakeholders.length - 1;\n        stakeholders[userIndex].staker = staker;\n        stakes[staker] = userIndex;\n        return userIndex; \n    }\n\n    /**\n    * @notice\n    * _Stake is used to make a stake for an sender. It will remove the amount staked from the stakers account and place those tokens inside a stake container\n    * StakeID \n    */\n    function _stake(uint256 _amount) internal returns(uint256) {\n        // Simple check so that user does not stake 0 \n        require(_amount > 0, \"Cannot stake nothing\");\n        \n        // Mappings in solidity creates all values, but empty, so we can just check the address\n        uint256 index = stakes[msg.sender];\n        // See if the staker already has a staked index or if its the first time\n        if(index == 0){\n            // This stakeholder stakes for the first time\n            // We need to add him to the stakeHolders and also map it into the Index of the stakes\n            // The index returned will be the index of the stakeholder in the stakeholders array\n            index = _addStakeholder(msg.sender);\n        }\n\n        // Use the index to push a new Stake\n        // push a newly created Stake with the current block timestamp.\n        // block.timestamp = timestamp of the current block in seconds since the epoch\n        stakeholders[index].stakes.push(Stake(msg.sender, _amount, block.timestamp, 0));\n        return index;\n    }\n\n    function stake(uint256 _amount) external {\n      require(_amount <= _token.allowance(_msgSender(), address(this)), \"Cannot stake more than you own\");\n\n      uint256 stakerIndex = _stake(_amount);\n      _token.transferFrom(_msgSender(), address(this), _amount);\n      emit Staked(msg.sender, _amount, stakerIndex, block.timestamp);\n    }\n\n    /**\n    * @notice\n    * calculateStakeReward is used to calculate how much a user should be rewarded for their stakes\n    * and the duration the stake has been active\n    */\n    function calculateStakeReward(Stake memory _current_stake) internal view returns(uint256){\n        // First calculate how long the stake has been active\n        // Use current seconds since epoch - the seconds since epoch the stake was made\n        // The output will be duration in SECONDS ,\n        // We will reward the user 0.1% per Hour So thats 0.1% per 3600 seconds\n        // the alghoritm is  seconds = block.timestamp - stake seconds (block.timestap - _stake.since)\n        // hours = Seconds / 3600 (seconds /3600) 3600 is an variable in Solidity names hours\n        // we then multiply each token by the hours staked , then divide by the rewardPerHour rate \n        return (((block.timestamp - _current_stake.since) / (rewardPeriodInDays * 1 days)) * _current_stake.amount) / reward;\n    }\n\n    /**\n    * @notice\n    * withdrawStake takes in an amount and a index of the stake and will remove tokens from that stake\n    * Notice index of the stake is the users stake counter, starting at 0 for the first stake\n    * Will return the amount to MINT onto the acount\n    * Will also calculateStakeReward and reset timer\n    */\n    function _withdrawStake(uint256 amount, uint256 index) internal returns(uint256){\n        // Grab user_index which is the index to use to grab the Stake[]\n        uint256 user_index = stakes[msg.sender];\n        Stake memory current_stake = stakeholders[user_index].stakes[index];\n        require(current_stake.amount >= amount, \"Staking: Cannot withdraw more than you have staked\");\n\n        // Calculate available Reward first before we start modifying data\n        uint256 stakerReward = calculateStakeReward(current_stake);\n        // Remove by subtracting the money unstaked \n        current_stake.amount = current_stake.amount - amount;\n        // If stake is empty, 0, then remove it from the array of stakes\n        if(current_stake.amount == 0){\n            delete stakeholders[user_index].stakes[index];\n        } else {\n            // If not empty then replace the value of it\n            stakeholders[user_index].stakes[index].amount = current_stake.amount;\n            // Reset timer of stake\n            stakeholders[user_index].stakes[index].since = block.timestamp;    \n        }\n\n        return amount+stakerReward;\n    }\n\n    /**\n    * @notice withdrawStake is used to withdraw stakes from the account holder\n     */\n    function withdrawStake(uint256 amount, uint256 stake_index) public {\n        uint256 amount_to_transfer = _withdrawStake(amount, stake_index);\n        // Return staked tokens to user\n        _token.transfer(_msgSender(), amount_to_transfer);\n    }\n\n    /**\n    * @notice withdrawStake is used to withdraw stakes from the account holder\n     */\n    function withdrawAllStake() public returns(uint256 amount) {\n        StakingSummary memory summary = hasStake(_msgSender());\n        uint256 withdrawAmount = 0;\n\n        for (uint256 s = 0; s < summary.stakes.length; s += 1){\n            withdrawAmount += _withdrawStake(summary.stakes[s].amount, s);\n        }\n\n        if (withdrawAmount > 0) {\n            // Return staked tokens to user\n            _token.transfer(_msgSender(), withdrawAmount);\n            return withdrawAmount;\n        }\n\n        return 0;\n    }\n\n    /**\n    * @notice\n    * hasStake is used to check if a account has stakes and the total amount along with all the seperate stakes\n    */\n    function hasStake(address _staker) public view returns(StakingSummary memory){\n        // totalStakeAmount is used to count total staked amount of the address\n        uint256 totalStakeAmount; \n        // Keep a summary in memory since we need to calculate this\n        StakingSummary memory summary = StakingSummary(0, stakeholders[stakes[_staker]].stakes);\n        // Itterate all stakes and grab amount of stakes\n        for (uint256 s = 0; s < summary.stakes.length; s += 1){\n            uint256 availableReward = calculateStakeReward(summary.stakes[s]);\n            summary.stakes[s].claimable = availableReward;\n            totalStakeAmount = totalStakeAmount+summary.stakes[s].amount;\n        }\n        // Assign calculate amount to summary\n        summary.total_amount = totalStakeAmount;\n        return summary;\n    }\n    \n}",
  "sourcePath": "D:\\repositories\\mosaico-reference\\smart_contracts\\contracts\\Staking_v1.sol",
  "compiler": {
    "name": "solc",
    "version": "0.8.9+commit.e5eed63a.Emscripten.clang"
  },
  "schemaVersion": "3.4.3",
  "updatedAt": "2022-03-15T11:32:10.510Z",
  "devdoc": {
    "kind": "dev",
    "methods": {},
    "version": 1
  },
  "userdoc": {
    "kind": "user",
    "methods": {
      "hasStake(address)": {
        "notice": "hasStake is used to check if a account has stakes and the total amount along with all the seperate stakes"
      },
      "withdrawAllStake()": {
        "notice": "withdrawStake is used to withdraw stakes from the account holder"
      },
      "withdrawStake(uint256,uint256)": {
        "notice": "withdrawStake is used to withdraw stakes from the account holder"
      }
    },
    "version": 1
  }
}