{
  "contractName": "Stakingv1",
  "abi": [
    {
      "inputs": [
        {
          "components": [
            {
              "internalType": "uint256",
              "name": "rewardPerToken",
              "type": "uint256"
            },
            {
              "internalType": "uint256",
              "name": "rewardPeriodInDays",
              "type": "uint256"
            },
            {
              "internalType": "address",
              "name": "stakingToken",
              "type": "address"
            },
            {
              "internalType": "address",
              "name": "rewardToken",
              "type": "address"
            },
            {
              "internalType": "uint256",
              "name": "minimumStakingAmount",
              "type": "uint256"
            },
            {
              "internalType": "bool",
              "name": "userShouldDeclarePeriod",
              "type": "bool"
            },
            {
              "internalType": "uint256",
              "name": "punishmentFee",
              "type": "uint256"
            },
            {
              "internalType": "address",
              "name": "platformWallet",
              "type": "address"
            },
            {
              "internalType": "uint256",
              "name": "withdrawThreshold",
              "type": "uint256"
            }
          ],
          "internalType": "struct Stakingv1.StakingSettings",
          "name": "settings",
          "type": "tuple"
        }
      ],
      "stateMutability": "nonpayable",
      "type": "constructor"
    },
    {
      "anonymous": false,
      "inputs": [
        {
          "indexed": true,
          "internalType": "address",
          "name": "newOwner",
          "type": "address"
        }
      ],
      "name": "OwnerAdded",
      "type": "event"
    },
    {
      "anonymous": false,
      "inputs": [
        {
          "indexed": true,
          "internalType": "address",
          "name": "oldOwner",
          "type": "address"
        }
      ],
      "name": "OwnerRemoved",
      "type": "event"
    },
    {
      "anonymous": false,
      "inputs": [
        {
          "indexed": false,
          "internalType": "address",
          "name": "account",
          "type": "address"
        }
      ],
      "name": "Paused",
      "type": "event"
    },
    {
      "anonymous": false,
      "inputs": [
        {
          "indexed": true,
          "internalType": "address",
          "name": "staker",
          "type": "address"
        },
        {
          "indexed": false,
          "internalType": "uint256",
          "name": "amount",
          "type": "uint256"
        },
        {
          "indexed": false,
          "internalType": "uint256",
          "name": "index",
          "type": "uint256"
        },
        {
          "indexed": false,
          "internalType": "uint256",
          "name": "timestamp",
          "type": "uint256"
        }
      ],
      "name": "Staked",
      "type": "event"
    },
    {
      "anonymous": false,
      "inputs": [
        {
          "indexed": false,
          "internalType": "address",
          "name": "account",
          "type": "address"
        }
      ],
      "name": "Unpaused",
      "type": "event"
    },
    {
      "inputs": [
        {
          "internalType": "uint256",
          "name": "",
          "type": "uint256"
        }
      ],
      "name": "_owners",
      "outputs": [
        {
          "internalType": "address",
          "name": "",
          "type": "address"
        }
      ],
      "stateMutability": "view",
      "type": "function"
    },
    {
      "inputs": [],
      "name": "getOwners",
      "outputs": [
        {
          "internalType": "address[]",
          "name": "",
          "type": "address[]"
        }
      ],
      "stateMutability": "view",
      "type": "function"
    },
    {
      "inputs": [
        {
          "internalType": "address",
          "name": "account",
          "type": "address"
        }
      ],
      "name": "isOwner",
      "outputs": [
        {
          "internalType": "bool",
          "name": "",
          "type": "bool"
        }
      ],
      "stateMutability": "view",
      "type": "function"
    },
    {
      "inputs": [],
      "name": "paused",
      "outputs": [
        {
          "internalType": "bool",
          "name": "",
          "type": "bool"
        }
      ],
      "stateMutability": "view",
      "type": "function"
    },
    {
      "inputs": [],
      "name": "requiredApprovals",
      "outputs": [
        {
          "internalType": "uint256",
          "name": "",
          "type": "uint256"
        }
      ],
      "stateMutability": "view",
      "type": "function"
    },
    {
      "inputs": [
        {
          "internalType": "uint256",
          "name": "reward",
          "type": "uint256"
        }
      ],
      "name": "setDailyReward",
      "outputs": [],
      "stateMutability": "nonpayable",
      "type": "function"
    },
    {
      "inputs": [
        {
          "internalType": "address",
          "name": "token",
          "type": "address"
        }
      ],
      "name": "setRewardToken",
      "outputs": [],
      "stateMutability": "nonpayable",
      "type": "function"
    },
    {
      "inputs": [
        {
          "internalType": "uint256",
          "name": "amount",
          "type": "uint256"
        }
      ],
      "name": "setMinimumStakingAmount",
      "outputs": [],
      "stateMutability": "nonpayable",
      "type": "function"
    },
    {
      "inputs": [],
      "name": "minimumStakingAmount",
      "outputs": [
        {
          "internalType": "uint256",
          "name": "",
          "type": "uint256"
        }
      ],
      "stateMutability": "view",
      "type": "function"
    },
    {
      "inputs": [],
      "name": "totalStaked",
      "outputs": [
        {
          "internalType": "uint256",
          "name": "",
          "type": "uint256"
        }
      ],
      "stateMutability": "view",
      "type": "function"
    },
    {
      "inputs": [],
      "name": "totalReward",
      "outputs": [
        {
          "internalType": "uint256",
          "name": "",
          "type": "uint256"
        }
      ],
      "stateMutability": "view",
      "type": "function"
    },
    {
      "inputs": [
        {
          "internalType": "uint256",
          "name": "_amount",
          "type": "uint256"
        },
        {
          "internalType": "uint256",
          "name": "period",
          "type": "uint256"
        }
      ],
      "name": "stake",
      "outputs": [],
      "stateMutability": "nonpayable",
      "type": "function"
    },
    {
      "inputs": [],
      "name": "canClaim",
      "outputs": [
        {
          "internalType": "bool",
          "name": "",
          "type": "bool"
        }
      ],
      "stateMutability": "view",
      "type": "function"
    },
    {
      "inputs": [],
      "name": "claimReward",
      "outputs": [
        {
          "internalType": "uint256",
          "name": "amount",
          "type": "uint256"
        }
      ],
      "stateMutability": "nonpayable",
      "type": "function"
    },
    {
      "inputs": [],
      "name": "withdraw",
      "outputs": [],
      "stateMutability": "nonpayable",
      "type": "function"
    },
    {
      "inputs": [
        {
          "internalType": "address",
          "name": "_staker",
          "type": "address"
        }
      ],
      "name": "hasStake",
      "outputs": [
        {
          "components": [
            {
              "internalType": "uint256",
              "name": "total_amount",
              "type": "uint256"
            },
            {
              "internalType": "uint256",
              "name": "total_reward_amount",
              "type": "uint256"
            },
            {
              "internalType": "uint256",
              "name": "total_punishment",
              "type": "uint256"
            },
            {
              "components": [
                {
                  "internalType": "address",
                  "name": "staker",
                  "type": "address"
                },
                {
                  "internalType": "uint256",
                  "name": "amount",
                  "type": "uint256"
                },
                {
                  "internalType": "uint256",
                  "name": "since",
                  "type": "uint256"
                },
                {
                  "internalType": "uint256",
                  "name": "declaredPeriod",
                  "type": "uint256"
                }
              ],
              "internalType": "struct Stakingv1.Stake[]",
              "name": "stakes",
              "type": "tuple[]"
            }
          ],
          "internalType": "struct Stakingv1.StakingSummary",
          "name": "",
          "type": "tuple"
        }
      ],
      "stateMutability": "view",
      "type": "function"
    }
  ],
  "bytecode": "0x608060405260006003553480156200001657600080fd5b5060405162002d8a38038062002d8a83398181016040528101906200003c9190620006e9565b6200004c6200023260201b60201c565b60008060006101000a81548160ff02191690831515021790555062000077816200023a60201b60201c565b506001600481905550806009600082015181600001556020820151816001015560408201518160020160006101000a81548173ffffffffffffffffffffffffffffffffffffffff021916908373ffffffffffffffffffffffffffffffffffffffff16021790555060608201518160030160006101000a81548173ffffffffffffffffffffffffffffffffffffffff021916908373ffffffffffffffffffffffffffffffffffffffff1602179055506080820151816004015560a08201518160050160006101000a81548160ff02191690831515021790555060c0820151816006015560e08201518160070160006101000a81548173ffffffffffffffffffffffffffffffffffffffff021916908373ffffffffffffffffffffffffffffffffffffffff1602179055506101008201518160080155905050600060096006015410158015620001cb5750600160096006015411155b6200020d576040517f08c379a00000000000000000000000000000000000000000000000000000000081526004016200020490620007a3565b60405180910390fd5b6007600181600181540180825580915050039060005260206000209050505062000962565b600033905090565b60001515600160008373ffffffffffffffffffffffffffffffffffffffff1673ffffffffffffffffffffffffffffffffffffffff16815260200190815260200160002060009054906101000a900460ff16151514620002d0576040517f08c379a0000000000000000000000000000000000000000000000000000000008152600401620002c79062000815565b60405180910390fd5b60018060008373ffffffffffffffffffffffffffffffffffffffff1673ffffffffffffffffffffffffffffffffffffffff16815260200190815260200160002060006101000a81548160ff0219169083151502179055506002819080600181540180825580915050600190039060005260206000200160009091909190916101000a81548173ffffffffffffffffffffffffffffffffffffffff021916908373ffffffffffffffffffffffffffffffffffffffff1602179055506200039a620003e060201b60201c565b8073ffffffffffffffffffffffffffffffffffffffff167f994a936646fe87ffe4f1e469d3d6aa417d6b855598397f323de5b449f765f0c360405160405180910390a250565b6002808054905011620003ff5760028054905060038190555062000423565b6200041c60028054905060026200042560201b620011981760201c565b6003819055505b565b600080828462000436919062000866565b146200044457600162000447565b60005b60ff168284620004589190620008cd565b62000464919062000905565b905092915050565b6000604051905090565b600080fd5b600080fd5b6000601f19601f8301169050919050565b7f4e487b7100000000000000000000000000000000000000000000000000000000600052604160045260246000fd5b620004cb8262000480565b810181811067ffffffffffffffff82111715620004ed57620004ec62000491565b5b80604052505050565b6000620005026200046c565b9050620005108282620004c0565b919050565b6000819050919050565b6200052a8162000515565b81146200053657600080fd5b50565b6000815190506200054a816200051f565b92915050565b600073ffffffffffffffffffffffffffffffffffffffff82169050919050565b60006200057d8262000550565b9050919050565b6200058f8162000570565b81146200059b57600080fd5b50565b600081519050620005af8162000584565b92915050565b60008115159050919050565b620005cc81620005b5565b8114620005d857600080fd5b50565b600081519050620005ec81620005c1565b92915050565b600061012082840312156200060c576200060b6200047b565b5b62000619610120620004f6565b905060006200062b8482850162000539565b6000830152506020620006418482850162000539565b602083015250604062000657848285016200059e565b60408301525060606200066d848285016200059e565b6060830152506080620006838482850162000539565b60808301525060a06200069984828501620005db565b60a08301525060c0620006af8482850162000539565b60c08301525060e0620006c5848285016200059e565b60e083015250610100620006dc8482850162000539565b6101008301525092915050565b6000610120828403121562000703576200070262000476565b5b60006200071384828501620005f2565b91505092915050565b600082825260208201905092915050565b7f5374616b696e673a20496e76616c69642070756e6973686d656e74206665652e60008201527f2053686f756c64206265206265747765656e203020616e642031000000000000602082015250565b60006200078b603a836200071c565b915062000798826200072d565b604082019050919050565b60006020820190508181036000830152620007be816200077c565b9050919050565b7f4d756c74694f776e61626c653a20616c726561647920616e206f776e65720000600082015250565b6000620007fd601e836200071c565b91506200080a82620007c5565b602082019050919050565b600060208201905081810360008301526200083081620007ee565b9050919050565b7f4e487b7100000000000000000000000000000000000000000000000000000000600052601260045260246000fd5b6000620008738262000515565b9150620008808362000515565b92508262000893576200089262000837565b5b828206905092915050565b7f4e487b7100000000000000000000000000000000000000000000000000000000600052601160045260246000fd5b6000620008da8262000515565b9150620008e78362000515565b925082620008fa57620008f962000837565b5b828204905092915050565b6000620009128262000515565b91506200091f8362000515565b9250827fffffffffffffffffffffffffffffffffffffffffffffffffffffffffffffffff038211156200095757620009566200089e565b5b828201905092915050565b61241880620009726000396000f3fe608060405234801561001057600080fd5b50600436106101005760003560e01c8063817b1cd211610097578063a0e67e2b11610066578063a0e67e2b14610275578063b0d2d01114610293578063b88a802f146102b1578063e73e14bf146102cf57610100565b8063817b1cd2146101ed5780638aee81271461020b578063992924a61461022757806399c1aadc1461025757610100565b80635c975abb116100d35780635c975abb146101775780636dc7a62714610195578063750142e6146101b35780637b0472f0146101d157610100565b80630aa43533146101055780632f54bf6e146101215780632fc6bd87146101515780633ccfd60b1461016d575b600080fd5b61011f600480360381019061011a91906117dc565b6102ff565b005b61013b60048036038101906101369190611867565b61035b565b60405161014891906118af565b60405180910390f35b61016b600480360381019061016691906117dc565b6103b8565b005b610175610414565b005b61017f61066e565b60405161018c91906118af565b60405180910390f35b61019d610684565b6040516101aa91906118af565b60405180910390f35b6101bb61072d565b6040516101c891906118d9565b60405180910390f35b6101eb60048036038101906101e691906118f4565b610737565b005b6101f56109d5565b60405161020291906118d9565b60405180910390f35b61022560048036038101906102209190611867565b6109df565b005b610241600480360381019061023c91906117dc565b610a75565b60405161024e9190611943565b60405180910390f35b61025f610ab4565b60405161026c91906118d9565b60405180910390f35b61027d610abe565b60405161028a9190611a1c565b60405180910390f35b61029b610b4c565b6040516102a891906118d9565b60405180910390f35b6102b9610b59565b6040516102c691906118d9565b60405180910390f35b6102e960048036038101906102e49190611867565b610f8e565b6040516102f69190611bb4565b60405180910390f35b61030f61030a6111d7565b61035b565b61034e576040517f08c379a000000000000000000000000000000000000000000000000000000000815260040161034590611c59565b60405180910390fd5b8060096000018190555050565b600060011515600160008473ffffffffffffffffffffffffffffffffffffffff1673ffffffffffffffffffffffffffffffffffffffff16815260200190815260200160002060009054906101000a900460ff161515149050919050565b6103c86103c36111d7565b61035b565b610407576040517f08c379a00000000000000000000000000000000000000000000000000000000081526004016103fe90611c59565b60405180910390fd5b8060096004018190555050565b60006104266104216111d7565b610f8e565b9050600081600001511161046f576040517f08c379a000000000000000000000000000000000000000000000000000000000815260040161046690611cc5565b60405180910390fd5b6000600960020160009054906101000a900473ffffffffffffffffffffffffffffffffffffffff1690508073ffffffffffffffffffffffffffffffffffffffff1663a9059cbb6104bd6111d7565b84600001516040518363ffffffff1660e01b81526004016104df929190611ce5565b602060405180830381600087803b1580156104f957600080fd5b505af115801561050d573d6000803e3d6000fd5b505050506040513d601f19601f820116820180604052508101906105319190611d3a565b506000600860006105406111d7565b73ffffffffffffffffffffffffffffffffffffffff1673ffffffffffffffffffffffffffffffffffffffff16815260200190815260200160002054905060005b6007828154811061059457610593611d67565b5b90600052602060002090600302016002018054905081101561064b57600782815481106105c4576105c3611d67565b5b906000526020600020906003020160020181815481106105e7576105e6611d67565b5b9060005260206000209060040201600080820160006101000a81549073ffffffffffffffffffffffffffffffffffffffff021916905560018201600090556002820160009055600382016000905550506001816106449190611dc5565b9050610580565b508260000151600560008282546106629190611e1b565b92505081905550505050565b60008060009054906101000a900460ff16905090565b60006009600801546018603c8060076008600061069f6111d7565b73ffffffffffffffffffffffffffffffffffffffff1673ffffffffffffffffffffffffffffffffffffffff16815260200190815260200160002054815481106106eb576106ea611d67565b5b906000526020600020906003020160010154426107089190611e1b565b6107129190611e7e565b61071c9190611e7e565b6107269190611e7e565b1015905090565b6000600654905090565b6002600454141561077d576040517f08c379a000000000000000000000000000000000000000000000000000000000815260040161077490611efb565b60405180910390fd5b60026004819055506000600960020160009054906101000a900473ffffffffffffffffffffffffffffffffffffffff1690508073ffffffffffffffffffffffffffffffffffffffff166370a082316107d36111d7565b6040518263ffffffff1660e01b81526004016107ef9190611943565b60206040518083038186803b15801561080757600080fd5b505afa15801561081b573d6000803e3d6000fd5b505050506040513d601f19601f8201168201806040525081019061083f9190611f30565b831115610881576040517f08c379a000000000000000000000000000000000000000000000000000000000815260040161087890611fcf565b60405180910390fd5b6009600401548310156108c9576040517f08c379a00000000000000000000000000000000000000000000000000000000081526004016108c090612061565b60405180910390fd5b8073ffffffffffffffffffffffffffffffffffffffff166323b872dd6108ed6111d7565b30866040518463ffffffff1660e01b815260040161090d93929190612081565b602060405180830381600087803b15801561092757600080fd5b505af115801561093b573d6000803e3d6000fd5b505050506040513d601f19601f8201168201806040525081019061095f9190611d3a565b50600061096c84846111df565b90506109766111d7565b73ffffffffffffffffffffffffffffffffffffffff167fb4caaf29adda3eefee3ad552a8e85058589bf834c7466cae4ee58787f70589ed8583426040516109bf939291906120b8565b60405180910390a2505060016004819055505050565b6000600554905090565b6109ef6109ea6111d7565b61035b565b610a2e576040517f08c379a0000000000000000000000000000000000000000000000000000000008152600401610a2590611c59565b60405180910390fd5b80600960030160006101000a81548173ffffffffffffffffffffffffffffffffffffffff021916908373ffffffffffffffffffffffffffffffffffffffff16021790555050565b60028181548110610a8557600080fd5b906000526020600020016000915054906101000a900473ffffffffffffffffffffffffffffffffffffffff1681565b6000600354905090565b60606002805480602002602001604051908101604052809291908181526020018280548015610b4257602002820191906000526020600020905b8160009054906101000a900473ffffffffffffffffffffffffffffffffffffffff1673ffffffffffffffffffffffffffffffffffffffff1681526020019060010190808311610af8575b5050505050905090565b6000600960040154905090565b600060026004541415610ba1576040517f08c379a0000000000000000000000000000000000000000000000000000000008152600401610b9890611efb565b60405180910390fd5b600260048190555060011515610bb5610684565b151514610bf7576040517f08c379a0000000000000000000000000000000000000000000000000000000008152600401610bee9061213b565b60405180910390fd5b6000610c09610c046111d7565b610f8e565b9050600080600060086000610c1c6111d7565b73ffffffffffffffffffffffffffffffffffffffff1673ffffffffffffffffffffffffffffffffffffffff16815260200190815260200160002054905060005b846060015151811015610d3257600080610c758361142e565b915091508186610c859190611dc5565b95508085610c939190611dc5565b945060078481548110610ca957610ca8611d67565b5b90600052602060002090600302016002018381548110610ccc57610ccb611d67565b5b9060005260206000209060040201600080820160006101000a81549073ffffffffffffffffffffffffffffffffffffffff021916905560018201600090556002820160009055600382016000905550505050600181610d2b9190611dc5565b9050610c5c565b5060008311610d76576040517f08c379a0000000000000000000000000000000000000000000000000000000008152600401610d6d906121a7565b60405180910390fd5b42600760086000610d856111d7565b73ffffffffffffffffffffffffffffffffffffffff1673ffffffffffffffffffffffffffffffffffffffff1681526020019081526020016000205481548110610dd157610dd0611d67565b5b9060005260206000209060030201600101819055506000600960030160009054906101000a900473ffffffffffffffffffffffffffffffffffffffff1690508073ffffffffffffffffffffffffffffffffffffffff1663a9059cbb610e346111d7565b866040518363ffffffff1660e01b8152600401610e52929190611ce5565b602060405180830381600087803b158015610e6c57600080fd5b505af1158015610e80573d6000803e3d6000fd5b505050506040513d601f19601f82011682018060405250810190610ea49190611d3a565b506000831115610f62578073ffffffffffffffffffffffffffffffffffffffff1663a9059cbb600960070160009054906101000a900473ffffffffffffffffffffffffffffffffffffffff16856040518363ffffffff1660e01b8152600401610f0e929190611ce5565b602060405180830381600087803b158015610f2857600080fd5b505af1158015610f3c573d6000803e3d6000fd5b505050506040513d601f19601f82011682018060405250810190610f609190611d3a565b505b8360066000828254610f749190611dc5565b925050819055508395505050505050600160048190555090565b610f96611779565b600060405180608001604052806000815260200160008152602001600081526020016007600860008773ffffffffffffffffffffffffffffffffffffffff1673ffffffffffffffffffffffffffffffffffffffff168152602001908152602001600020548154811061100b5761100a611d67565b5b9060005260206000209060030201600201805480602002602001604051908101604052809291908181526020016000905b828210156110e257838290600052602060002090600402016040518060800160405290816000820160009054906101000a900473ffffffffffffffffffffffffffffffffffffffff1673ffffffffffffffffffffffffffffffffffffffff1673ffffffffffffffffffffffffffffffffffffffff16815260200160018201548152602001600282015481526020016003820154815250508152602001906001019061103c565b50505050815250905060005b81606001515181101561118e576000806111078361142e565b91509150818460200181815161111d9190611dc5565b915081815250508360600151838151811061113b5761113a611d67565b5b602002602001015160200151846000018181516111589190611dc5565b9150818152505080846040018181516111719190611dc5565b9150818152505050506001816111879190611dc5565b90506110ee565b5080915050919050565b60008082846111a791906121c7565b146111b35760016111b6565b60005b60ff1682846111c59190611e7e565b6111cf9190611dc5565b905092915050565b600033905090565b6000808311611223576040517f08c379a000000000000000000000000000000000000000000000000000000000815260040161121a90612244565b60405180910390fd5b6000821180611248575060001515600960050160009054906101000a900460ff161515145b611287576040517f08c379a000000000000000000000000000000000000000000000000000000000815260040161127e906122d6565b60405180910390fd5b6000600860006112956111d7565b73ffffffffffffffffffffffffffffffffffffffff1673ffffffffffffffffffffffffffffffffffffffff16815260200190815260200160002054905060008114156112ee576112eb6112e66111d7565b61161c565b90505b426007828154811061130357611302611d67565b5b9060005260206000209060030201600101819055506007818154811061132c5761132b611d67565b5b906000526020600020906003020160020160405180608001604052806113506111d7565b73ffffffffffffffffffffffffffffffffffffffff16815260200186815260200142815260200185815250908060018154018082558091505060019003906000526020600020906004020160009091909190915060008201518160000160006101000a81548173ffffffffffffffffffffffffffffffffffffffff021916908373ffffffffffffffffffffffffffffffffffffffff1602179055506020820151816001015560408201518160020155606082015181600301555050836005600082825461141d9190611dc5565b925050819055508091505092915050565b60008060006008600061143f6111d7565b73ffffffffffffffffffffffffffffffffffffffff1673ffffffffffffffffffffffffffffffffffffffff16815260200190815260200160002054905060006007828154811061149257611491611d67565b5b906000526020600020906003020160020185815481106114b5576114b4611d67565b5b90600052602060002090600402016040518060800160405290816000820160009054906101000a900473ffffffffffffffffffffffffffffffffffffffff1673ffffffffffffffffffffffffffffffffffffffff1673ffffffffffffffffffffffffffffffffffffffff16815260200160018201548152602001600282015481526020016003820154815250509050600061154f82611703565b9050600061155d838361173f565b905060008110156115a3576040517f08c379a000000000000000000000000000000000000000000000000000000000815260040161159a90612368565b60405180910390fd5b60011515600960050160009054906101000a900460ff1615151480156115cc5750818360600151115b1561160b57600960060154816115e29190612388565b816115ed9190611e1b565b600960060154826115fe9190612388565b9550955050505050611617565b80600095509550505050505b915091565b6000600760018160018154018082558091505003906000526020600020905050600060016007805490506116509190611e1b565b9050826007828154811061166757611666611d67565b5b906000526020600020906003020160000160006101000a81548173ffffffffffffffffffffffffffffffffffffffff021916908373ffffffffffffffffffffffffffffffffffffffff16021790555080600860008573ffffffffffffffffffffffffffffffffffffffff1673ffffffffffffffffffffffffffffffffffffffff1681526020019081526020016000208190555080915050919050565b60006018603c8084604001514261171a9190611e1b565b6117249190611e7e565b61172e9190611e7e565b6117389190611e7e565b9050919050565b600060096000015483602001516009600101548461175d9190611e7e565b6117679190612388565b6117719190612388565b905092915050565b6040518060800160405280600081526020016000815260200160008152602001606081525090565b600080fd5b6000819050919050565b6117b9816117a6565b81146117c457600080fd5b50565b6000813590506117d6816117b0565b92915050565b6000602082840312156117f2576117f16117a1565b5b6000611800848285016117c7565b91505092915050565b600073ffffffffffffffffffffffffffffffffffffffff82169050919050565b600061183482611809565b9050919050565b61184481611829565b811461184f57600080fd5b50565b6000813590506118618161183b565b92915050565b60006020828403121561187d5761187c6117a1565b5b600061188b84828501611852565b91505092915050565b60008115159050919050565b6118a981611894565b82525050565b60006020820190506118c460008301846118a0565b92915050565b6118d3816117a6565b82525050565b60006020820190506118ee60008301846118ca565b92915050565b6000806040838503121561190b5761190a6117a1565b5b6000611919858286016117c7565b925050602061192a858286016117c7565b9150509250929050565b61193d81611829565b82525050565b60006020820190506119586000830184611934565b92915050565b600081519050919050565b600082825260208201905092915050565b6000819050602082019050919050565b61199381611829565b82525050565b60006119a5838361198a565b60208301905092915050565b6000602082019050919050565b60006119c98261195e565b6119d38185611969565b93506119de8361197a565b8060005b83811015611a0f5781516119f68882611999565b9750611a01836119b1565b9250506001810190506119e2565b5085935050505092915050565b60006020820190508181036000830152611a3681846119be565b905092915050565b611a47816117a6565b82525050565b600081519050919050565b600082825260208201905092915050565b6000819050602082019050919050565b608082016000820151611a8f600085018261198a565b506020820151611aa26020850182611a3e565b506040820151611ab56040850182611a3e565b506060820151611ac86060850182611a3e565b50505050565b6000611ada8383611a79565b60808301905092915050565b6000602082019050919050565b6000611afe82611a4d565b611b088185611a58565b9350611b1383611a69565b8060005b83811015611b44578151611b2b8882611ace565b9750611b3683611ae6565b925050600181019050611b17565b5085935050505092915050565b6000608083016000830151611b696000860182611a3e565b506020830151611b7c6020860182611a3e565b506040830151611b8f6040860182611a3e565b5060608301518482036060860152611ba78282611af3565b9150508091505092915050565b60006020820190508181036000830152611bce8184611b51565b905092915050565b600082825260208201905092915050565b7f4d756c74694f776e61626c653a2063616c6c6572206973206e6f74207468652060008201527f6f776e6572000000000000000000000000000000000000000000000000000000602082015250565b6000611c43602583611bd6565b9150611c4e82611be7565b604082019050919050565b60006020820190508181036000830152611c7281611c36565b9050919050565b7f5374616b696e673a204e6f7468696e6720746f20776974686472617700000000600082015250565b6000611caf601c83611bd6565b9150611cba82611c79565b602082019050919050565b60006020820190508181036000830152611cde81611ca2565b9050919050565b6000604082019050611cfa6000830185611934565b611d0760208301846118ca565b9392505050565b611d1781611894565b8114611d2257600080fd5b50565b600081519050611d3481611d0e565b92915050565b600060208284031215611d5057611d4f6117a1565b5b6000611d5e84828501611d25565b91505092915050565b7f4e487b7100000000000000000000000000000000000000000000000000000000600052603260045260246000fd5b7f4e487b7100000000000000000000000000000000000000000000000000000000600052601160045260246000fd5b6000611dd0826117a6565b9150611ddb836117a6565b9250827fffffffffffffffffffffffffffffffffffffffffffffffffffffffffffffffff03821115611e1057611e0f611d96565b5b828201905092915050565b6000611e26826117a6565b9150611e31836117a6565b925082821015611e4457611e43611d96565b5b828203905092915050565b7f4e487b7100000000000000000000000000000000000000000000000000000000600052601260045260246000fd5b6000611e89826117a6565b9150611e94836117a6565b925082611ea457611ea3611e4f565b5b828204905092915050565b7f5265656e7472616e637947756172643a207265656e7472616e742063616c6c00600082015250565b6000611ee5601f83611bd6565b9150611ef082611eaf565b602082019050919050565b60006020820190508181036000830152611f1481611ed8565b9050919050565b600081519050611f2a816117b0565b92915050565b600060208284031215611f4657611f456117a1565b5b6000611f5484828501611f1b565b91505092915050565b7f5374616b696e673a2043616e6e6f74207374616b65206d6f7265207468616e2060008201527f796f75206f776e00000000000000000000000000000000000000000000000000602082015250565b6000611fb9602783611bd6565b9150611fc482611f5d565b604082019050919050565b60006020820190508181036000830152611fe881611fac565b9050919050565b7f5374616b696e673a2043616e6e6f74207374616b65206c657373207468616e2060008201527f746865206d696e696d756d20616d6f756e740000000000000000000000000000602082015250565b600061204b603283611bd6565b915061205682611fef565b604082019050919050565b6000602082019050818103600083015261207a8161203e565b9050919050565b60006060820190506120966000830186611934565b6120a36020830185611934565b6120b060408301846118ca565b949350505050565b60006060820190506120cd60008301866118ca565b6120da60208301856118ca565b6120e760408301846118ca565b949350505050565b7f5374616b696e673a2043616e6e6f7420776974686472617720746f6461790000600082015250565b6000612125601e83611bd6565b9150612130826120ef565b602082019050919050565b6000602082019050818103600083015261215481612118565b9050919050565b7f5374616b696e673a204e6f7468696e6720746f20636c61696d00000000000000600082015250565b6000612191601983611bd6565b915061219c8261215b565b602082019050919050565b600060208201905081810360008301526121c081612184565b9050919050565b60006121d2826117a6565b91506121dd836117a6565b9250826121ed576121ec611e4f565b5b828206905092915050565b7f5374616b696e673a2043616e6e6f74207374616b65206e6f7468696e67000000600082015250565b600061222e601d83611bd6565b9150612239826121f8565b602082019050919050565b6000602082019050818103600083015261225d81612221565b9050919050565b7f5374616b696e673a2053686f756c64206465636c617265207374616b696e672060008201527f706572696f640000000000000000000000000000000000000000000000000000602082015250565b60006122c0602683611bd6565b91506122cb82612264565b604082019050919050565b600060208201905081810360008301526122ef816122b3565b9050919050565b7f5374616b696e673a2043616e6e6f74207769746864726177206d6f726520746860008201527f616e20796f752068617665206561726e65640000000000000000000000000000602082015250565b6000612352603283611bd6565b915061235d826122f6565b604082019050919050565b6000602082019050818103600083015261238181612345565b9050919050565b6000612393826117a6565b915061239e836117a6565b9250817fffffffffffffffffffffffffffffffffffffffffffffffffffffffffffffffff04831182151516156123d7576123d6611d96565b5b82820290509291505056fea2646970667358221220fe4ef1ef54b6bf5c8b54ce2e9a977448c510cfbcebbca074aed25c07f2b5e76c64736f6c63430008090033",
  "immutableReferences": {},
  "source": "// SPDX-License-Identifier: MIT\r\npragma solidity ^0.8.9;\r\n\r\nimport \"../node_modules/@openzeppelin/contracts/token/ERC20/IERC20.sol\";\r\nimport \"../node_modules/@openzeppelin/contracts/utils/math/SafeMath.sol\";\r\nimport \"../node_modules/@openzeppelin/contracts/utils/Context.sol\";\r\nimport \"../node_modules/@openzeppelin/contracts/security/Pausable.sol\";\r\nimport \"./MultiOwnable.sol\";\r\nimport \"../node_modules/@openzeppelin/contracts/security/ReentrancyGuard.sol\";\r\n\r\ncontract Stakingv1 is Context, Pausable, MultiOwnable, ReentrancyGuard {\r\n    using SafeMath for uint256;\r\n\r\n    struct StakingSettings {\r\n        uint256 rewardPerToken;\r\n        uint rewardPeriodInDays;\r\n        address stakingToken;\r\n        address rewardToken;\r\n        uint256 minimumStakingAmount;\r\n        bool userShouldDeclarePeriod;\r\n        uint256 punishmentFee;\r\n        address platformWallet;\r\n        uint256 withdrawThreshold;\r\n    }\r\n\r\n    struct Stake {\r\n        address staker;\r\n        uint256 amount;\r\n        uint256 since;\r\n        uint256 declaredPeriod;\r\n    }\r\n\r\n    struct Stakeholder {\r\n        address staker;\r\n        uint256 lastClaim;\r\n        Stake[] stakes;\r\n    }\r\n\r\n    struct StakingSummary {\r\n        uint256 total_amount;\r\n        uint256 total_reward_amount;\r\n        uint256 total_punishment;\r\n        Stake[] stakes;\r\n    }\r\n\r\n    event Staked(address indexed staker, uint256 amount, uint256 index, uint256 timestamp);\r\n    uint256 internal _totalStaked;\r\n    uint256 internal _totalReward;\r\n    Stakeholder[] internal stakeholders;\r\n\r\n    /**\r\n    * @notice \r\n    * stakes is used to keep track of the INDEX for the stakers in the stakes array\r\n     */\r\n    mapping(address => uint256) internal stakes;\r\n\r\n    StakingSettings internal _settings;\r\n\r\n    constructor(StakingSettings memory settings) MultiOwnable(_msgSender()) {\r\n        _settings = settings;\r\n        require(_settings.punishmentFee >= 0 && _settings.punishmentFee <= 1, \"Staking: Invalid punishment fee. Should be between 0 and 1\");\r\n        stakeholders.push(); // empty first array value for not make misunderstading in checking if index exist \r\n    }\r\n\r\n    function _addStakeholder(address staker) internal returns (uint256){\r\n        stakeholders.push();\r\n        uint256 userIndex = stakeholders.length - 1;\r\n        stakeholders[userIndex].staker = staker;\r\n        stakes[staker] = userIndex;\r\n        return userIndex; \r\n    }\r\n\r\n    /**\r\n    * @notice\r\n    * _Stake is used to make a stake for an sender. It will remove the amount staked from the stakers account and place those tokens inside a stake container\r\n    * StakeID \r\n    */\r\n    function _stake(uint256 _amount, uint256 period) internal returns(uint256) {\r\n        // Simple check so that user does not stake 0 \r\n        require(_amount > 0, \"Staking: Cannot stake nothing\");\r\n        require(period > 0 || _settings.userShouldDeclarePeriod == false, \"Staking: Should declare staking period\");\r\n        // Mappings in solidity creates all values, but empty, so we can just check the address\r\n        uint256 index = stakes[_msgSender()];\r\n        // See if the staker already has a staked index or if its the first time\r\n        if(index == 0){\r\n            // This stakeholder stakes for the first time\r\n            // We need to add him to the stakeHolders and also map it into the Index of the stakes\r\n            // The index returned will be the index of the stakeholder in the stakeholders array\r\n            index = _addStakeholder(_msgSender());\r\n        }\r\n\r\n        // Use the index to push a new Stake\r\n        // push a newly created Stake with the current block timestamp.\r\n        // block.timestamp = timestamp of the current block in seconds since the epoch\r\n        stakeholders[index].lastClaim = block.timestamp;\r\n        stakeholders[index].stakes.push(Stake(_msgSender(), _amount, block.timestamp, period));\r\n        _totalStaked += _amount;\r\n        return index;\r\n    }\r\n\r\n    function setDailyReward(uint256 reward) public onlyOwner { \r\n        _settings.rewardPerToken = reward;\r\n    }\r\n\r\n    function setRewardToken(address token) public onlyOwner {\r\n        _settings.rewardToken = token;\r\n    }\r\n\r\n    function setMinimumStakingAmount(uint256 amount) public onlyOwner {\r\n        _settings.minimumStakingAmount = amount;\r\n    }\r\n\r\n    function minimumStakingAmount() public view returns (uint256) {\r\n        return _settings.minimumStakingAmount;\r\n    }\r\n\r\n    function totalStaked() public view returns (uint256){\r\n        return _totalStaked;\r\n    }\r\n\r\n    function totalReward() public view returns (uint256){\r\n        return _totalReward;\r\n    }\r\n\r\n    function stake(uint256 _amount, uint256 period) external nonReentrant {\r\n      IERC20 token = IERC20(_settings.stakingToken);\r\n      require(_amount <= token.balanceOf(_msgSender()), \"Staking: Cannot stake more than you own\");\r\n      require(_amount >= _settings.minimumStakingAmount, \"Staking: Cannot stake less than the minimum amount\");\r\n      token.transferFrom(_msgSender(), address(this), _amount);\r\n      uint256 stakerIndex = _stake(_amount, period);\r\n      emit Staked(_msgSender(), _amount, stakerIndex, block.timestamp);\r\n    }\r\n\r\n    /**\r\n    * @notice\r\n    * calculateStakeReward is used to calculate how much a user should be rewarded for their stakes\r\n    * and the duration the stake has been active\r\n    */\r\n    function _calculateStakeReward(Stake memory _current_stake, uint256 daysStaked) internal view returns(uint256){\r\n        // First calculate how long the stake has been active\r\n        // Use current seconds since epoch - the seconds since epoch the stake was made\r\n        // The output will be duration in SECONDS ,\r\n        // We will reward the user 0.1% per Hour So thats 0.1% per 3600 seconds\r\n        // the alghoritm is  seconds = block.timestamp - stake seconds (block.timestap - _stake.since)\r\n        // hours = Seconds / 3600 (seconds /3600) 3600 is an variable in Solidity names hours\r\n        // we then multiply each token by the hours staked , then divide by the rewardPerHour rate\r\n         // amount of days person staked tokens\r\n        return (daysStaked / _settings.rewardPeriodInDays) * _current_stake.amount * _settings.rewardPerToken;\r\n    }\r\n\r\n    /**\r\n    * @notice\r\n    * withdrawStake takes in an amount and a index of the stake and will remove tokens from that stake\r\n    * Notice index of the stake is the users stake counter, starting at 0 for the first stake\r\n    * Will return the amount to MINT onto the acount\r\n    * Will also calculateStakeReward and reset timer\r\n    */\r\n    function _estimateRewards(uint256 index) internal view returns(uint256, uint256){\r\n        // Grab user_index which is the index to use to grab the Stake[]\r\n        uint256 user_index = stakes[_msgSender()];\r\n        Stake memory current_stake = stakeholders[user_index].stakes[index];\r\n        // Calculate available Reward first before we start modifying data\r\n        uint256 daysStaked = _getStakedDays(current_stake);\r\n        uint256 stakerReward = _calculateStakeReward(current_stake, daysStaked);\r\n        require(stakerReward >= 0, \"Staking: Cannot withdraw more than you have earned\");\r\n        if(_settings.userShouldDeclarePeriod == true && current_stake.declaredPeriod > daysStaked) {\r\n            return (stakerReward - (stakerReward * _settings.punishmentFee), stakerReward * _settings.punishmentFee);\r\n        }\r\n        return (stakerReward, 0);\r\n    }\r\n    \r\n    /**\r\n    * @notice checks if user can withdraw reward today\r\n     */\r\n    function canClaim() public view returns (bool) {\r\n        return ((block.timestamp - stakeholders[stakes[_msgSender()]].lastClaim) / 60 / 60 / 24) >= _settings.withdrawThreshold;\r\n    }\r\n\r\n    /**\r\n    * @notice withdrawStake is used to withdraw stakes from the account holder\r\n     */\r\n    function claimReward() public nonReentrant returns(uint256 amount) {\r\n        require(canClaim() == true, \"Staking: Cannot withdraw today\");\r\n\r\n        StakingSummary memory summary = hasStake(_msgSender());\r\n        uint256 withdrawAmount = 0;\r\n        uint256 feeAmount = 0;\r\n        uint256 user_index = stakes[_msgSender()];\r\n\r\n        for (uint256 s = 0; s < summary.stakes.length; s += 1){\r\n            (uint256 reward, uint256 punishmentFee) = _estimateRewards(s);\r\n            withdrawAmount += reward;\r\n            feeAmount += punishmentFee;\r\n            delete stakeholders[user_index].stakes[s];\r\n        }\r\n\r\n        require(withdrawAmount > 0, \"Staking: Nothing to claim\");\r\n\r\n        stakeholders[stakes[_msgSender()]].lastClaim = block.timestamp;\r\n        IERC20 token = IERC20(_settings.rewardToken);\r\n        // Return staked tokens to user\r\n        token.transfer(_msgSender(), withdrawAmount);\r\n        // pay punishment fee if withdraw earlier\r\n        if(feeAmount > 0) {\r\n            token.transfer(_settings.platformWallet, feeAmount);\r\n        }\r\n        _totalReward += withdrawAmount;\r\n        return withdrawAmount;\r\n    }\r\n\r\n     /**\r\n    * @notice\r\n    * withdraw\r\n    */\r\n    function withdraw() public {\r\n        StakingSummary memory summary = hasStake(_msgSender());\r\n        require(summary.total_amount > 0, \"Staking: Nothing to withdraw\");\r\n        IERC20 token = IERC20(_settings.stakingToken);\r\n        token.transfer(_msgSender(), summary.total_amount);\r\n        uint256 user_index = stakes[_msgSender()];\r\n        for (uint256 s = 0; s < stakeholders[user_index].stakes.length; s += 1){\r\n            delete stakeholders[user_index].stakes[s];\r\n        }\r\n        _totalStaked -= summary.total_amount;\r\n    }\r\n\r\n    /**\r\n    * @notice\r\n    * returns amount of days stake exists\r\n    */\r\n    function _getStakedDays(Stake memory st) internal view returns(uint256) {\r\n        return (block.timestamp - st.since) / 60 / 60 / 24;\r\n    }\r\n\r\n    /**\r\n    * @notice\r\n    * hasStake is used to check if a account has stakes and the total amount along with all the seperate stakes\r\n    */\r\n    function hasStake(address _staker) public view returns(StakingSummary memory){\r\n        // Keep a summary in memory since we need to calculate this\r\n        StakingSummary memory summary = StakingSummary(0, 0, 0, stakeholders[stakes[_staker]].stakes);\r\n        // Itterate all stakes and grab amount of stakes\r\n        for (uint256 s = 0; s < summary.stakes.length; s += 1) {\r\n            (uint256 reward, uint256 punishmentFee) = _estimateRewards(s);\r\n            summary.total_reward_amount += reward;\r\n            summary.total_amount += summary.stakes[s].amount;\r\n            summary.total_punishment += punishmentFee;\r\n        }\r\n        return summary;\r\n    }\r\n    \r\n}",
  "sourcePath": "D:\\repositories\\mosaico-reference\\smart_contracts\\contracts\\Stakingv1.sol",
  "compiler": {
    "name": "solc",
    "version": "0.8.9+commit.e5eed63a.Emscripten.clang"
  },
  "schemaVersion": "3.4.3",
  "updatedAt": "2022-04-01T04:17:56.642Z",
  "devdoc": {
    "kind": "dev",
    "methods": {
      "isOwner(address)": {
        "details": "Returns the address of the current owner."
      },
      "paused()": {
        "details": "Returns true if the contract is paused, and false otherwise."
      }
    },
    "version": 1
  },
  "userdoc": {
    "kind": "user",
    "methods": {
      "canClaim()": {
        "notice": "checks if user can withdraw reward today"
      },
      "claimReward()": {
        "notice": "withdrawStake is used to withdraw stakes from the account holder"
      },
      "hasStake(address)": {
        "notice": "hasStake is used to check if a account has stakes and the total amount along with all the seperate stakes"
      },
      "withdraw()": {
        "notice": "withdraw"
      }
    },
    "version": 1
  }
}