{
  "contractName": "TetherToken",
  "abi": [
    {
      "inputs": [
        {
          "internalType": "uint256",
          "name": "_initialSupply",
          "type": "uint256"
        },
        {
          "internalType": "string",
          "name": "_name",
          "type": "string"
        },
        {
          "internalType": "string",
          "name": "_symbol",
          "type": "string"
        },
        {
          "internalType": "uint256",
          "name": "_decimals",
          "type": "uint256"
        }
      ],
      "stateMutability": "nonpayable",
      "type": "constructor"
    },
    {
      "anonymous": false,
      "inputs": [
        {
          "indexed": false,
          "internalType": "address",
          "name": "_user",
          "type": "address"
        }
      ],
      "name": "AddedBlackList",
      "type": "event"
    },
    {
      "anonymous": false,
      "inputs": [
        {
          "indexed": true,
          "internalType": "address",
          "name": "owner",
          "type": "address"
        },
        {
          "indexed": true,
          "internalType": "address",
          "name": "spender",
          "type": "address"
        },
        {
          "indexed": false,
          "internalType": "uint256",
          "name": "value",
          "type": "uint256"
        }
      ],
      "name": "Approval",
      "type": "event"
    },
    {
      "anonymous": false,
      "inputs": [
        {
          "indexed": false,
          "internalType": "address",
          "name": "newAddress",
          "type": "address"
        }
      ],
      "name": "Deprecate",
      "type": "event"
    },
    {
      "anonymous": false,
      "inputs": [
        {
          "indexed": false,
          "internalType": "address",
          "name": "_blackListedUser",
          "type": "address"
        },
        {
          "indexed": false,
          "internalType": "uint256",
          "name": "_balance",
          "type": "uint256"
        }
      ],
      "name": "DestroyedBlackFunds",
      "type": "event"
    },
    {
      "anonymous": false,
      "inputs": [
        {
          "indexed": false,
          "internalType": "uint256",
          "name": "amount",
          "type": "uint256"
        }
      ],
      "name": "Issue",
      "type": "event"
    },
    {
      "anonymous": false,
      "inputs": [
        {
          "indexed": false,
          "internalType": "uint256",
          "name": "feeBasisPoints",
          "type": "uint256"
        },
        {
          "indexed": false,
          "internalType": "uint256",
          "name": "maxFee",
          "type": "uint256"
        }
      ],
      "name": "Params",
      "type": "event"
    },
    {
      "anonymous": false,
      "inputs": [],
      "name": "Pause",
      "type": "event"
    },
    {
      "anonymous": false,
      "inputs": [
        {
          "indexed": false,
          "internalType": "uint256",
          "name": "amount",
          "type": "uint256"
        }
      ],
      "name": "Redeem",
      "type": "event"
    },
    {
      "anonymous": false,
      "inputs": [
        {
          "indexed": false,
          "internalType": "address",
          "name": "_user",
          "type": "address"
        }
      ],
      "name": "RemovedBlackList",
      "type": "event"
    },
    {
      "anonymous": false,
      "inputs": [
        {
          "indexed": true,
          "internalType": "address",
          "name": "from",
          "type": "address"
        },
        {
          "indexed": true,
          "internalType": "address",
          "name": "to",
          "type": "address"
        },
        {
          "indexed": false,
          "internalType": "uint256",
          "name": "value",
          "type": "uint256"
        }
      ],
      "name": "Transfer",
      "type": "event"
    },
    {
      "anonymous": false,
      "inputs": [],
      "name": "Unpause",
      "type": "event"
    },
    {
      "inputs": [],
      "name": "MAX_UINT",
      "outputs": [
        {
          "internalType": "uint256",
          "name": "",
          "type": "uint256"
        }
      ],
      "stateMutability": "view",
      "type": "function"
    },
    {
      "inputs": [],
      "name": "_totalSupply",
      "outputs": [
        {
          "internalType": "uint256",
          "name": "",
          "type": "uint256"
        }
      ],
      "stateMutability": "view",
      "type": "function"
    },
    {
      "inputs": [
        {
          "internalType": "address",
          "name": "_evilUser",
          "type": "address"
        }
      ],
      "name": "addBlackList",
      "outputs": [],
      "stateMutability": "nonpayable",
      "type": "function"
    },
    {
      "inputs": [
        {
          "internalType": "address",
          "name": "",
          "type": "address"
        },
        {
          "internalType": "address",
          "name": "",
          "type": "address"
        }
      ],
      "name": "allowed",
      "outputs": [
        {
          "internalType": "uint256",
          "name": "",
          "type": "uint256"
        }
      ],
      "stateMutability": "view",
      "type": "function"
    },
    {
      "inputs": [
        {
          "internalType": "address",
          "name": "",
          "type": "address"
        }
      ],
      "name": "balances",
      "outputs": [
        {
          "internalType": "uint256",
          "name": "",
          "type": "uint256"
        }
      ],
      "stateMutability": "view",
      "type": "function"
    },
    {
      "inputs": [],
      "name": "basisPointsRate",
      "outputs": [
        {
          "internalType": "uint256",
          "name": "",
          "type": "uint256"
        }
      ],
      "stateMutability": "view",
      "type": "function"
    },
    {
      "inputs": [],
      "name": "decimals",
      "outputs": [
        {
          "internalType": "uint256",
          "name": "",
          "type": "uint256"
        }
      ],
      "stateMutability": "view",
      "type": "function"
    },
    {
      "inputs": [],
      "name": "deprecated",
      "outputs": [
        {
          "internalType": "bool",
          "name": "",
          "type": "bool"
        }
      ],
      "stateMutability": "view",
      "type": "function"
    },
    {
      "inputs": [
        {
          "internalType": "address",
          "name": "_blackListedUser",
          "type": "address"
        }
      ],
      "name": "destroyBlackFunds",
      "outputs": [],
      "stateMutability": "nonpayable",
      "type": "function"
    },
    {
      "inputs": [
        {
          "internalType": "address",
          "name": "_maker",
          "type": "address"
        }
      ],
      "name": "getBlackListStatus",
      "outputs": [
        {
          "internalType": "bool",
          "name": "",
          "type": "bool"
        }
      ],
      "stateMutability": "view",
      "type": "function"
    },
    {
      "inputs": [],
      "name": "getOwner",
      "outputs": [
        {
          "internalType": "address",
          "name": "",
          "type": "address"
        }
      ],
      "stateMutability": "view",
      "type": "function"
    },
    {
      "inputs": [
        {
          "internalType": "address",
          "name": "",
          "type": "address"
        }
      ],
      "name": "isBlackListed",
      "outputs": [
        {
          "internalType": "bool",
          "name": "",
          "type": "bool"
        }
      ],
      "stateMutability": "view",
      "type": "function"
    },
    {
      "inputs": [],
      "name": "maximumFee",
      "outputs": [
        {
          "internalType": "uint256",
          "name": "",
          "type": "uint256"
        }
      ],
      "stateMutability": "view",
      "type": "function"
    },
    {
      "inputs": [],
      "name": "name",
      "outputs": [
        {
          "internalType": "string",
          "name": "",
          "type": "string"
        }
      ],
      "stateMutability": "view",
      "type": "function"
    },
    {
      "inputs": [],
      "name": "owner",
      "outputs": [
        {
          "internalType": "address",
          "name": "",
          "type": "address"
        }
      ],
      "stateMutability": "view",
      "type": "function"
    },
    {
      "inputs": [],
      "name": "pause",
      "outputs": [],
      "stateMutability": "nonpayable",
      "type": "function"
    },
    {
      "inputs": [],
      "name": "paused",
      "outputs": [
        {
          "internalType": "bool",
          "name": "",
          "type": "bool"
        }
      ],
      "stateMutability": "view",
      "type": "function"
    },
    {
      "inputs": [
        {
          "internalType": "address",
          "name": "_clearedUser",
          "type": "address"
        }
      ],
      "name": "removeBlackList",
      "outputs": [],
      "stateMutability": "nonpayable",
      "type": "function"
    },
    {
      "inputs": [],
      "name": "symbol",
      "outputs": [
        {
          "internalType": "string",
          "name": "",
          "type": "string"
        }
      ],
      "stateMutability": "view",
      "type": "function"
    },
    {
      "inputs": [
        {
          "internalType": "address",
          "name": "newOwner",
          "type": "address"
        }
      ],
      "name": "transferOwnership",
      "outputs": [],
      "stateMutability": "nonpayable",
      "type": "function"
    },
    {
      "inputs": [],
      "name": "unpause",
      "outputs": [],
      "stateMutability": "nonpayable",
      "type": "function"
    },
    {
      "inputs": [],
      "name": "upgradedAddress",
      "outputs": [
        {
          "internalType": "address",
          "name": "",
          "type": "address"
        }
      ],
      "stateMutability": "view",
      "type": "function"
    },
    {
      "inputs": [
        {
          "internalType": "address",
          "name": "_to",
          "type": "address"
        },
        {
          "internalType": "uint256",
          "name": "_value",
          "type": "uint256"
        }
      ],
      "name": "transfer",
      "outputs": [],
      "stateMutability": "nonpayable",
      "type": "function"
    },
    {
      "inputs": [
        {
          "internalType": "address",
          "name": "_from",
          "type": "address"
        },
        {
          "internalType": "address",
          "name": "_to",
          "type": "address"
        },
        {
          "internalType": "uint256",
          "name": "_value",
          "type": "uint256"
        }
      ],
      "name": "transferFrom",
      "outputs": [],
      "stateMutability": "nonpayable",
      "type": "function"
    },
    {
      "inputs": [
        {
          "internalType": "address",
          "name": "who",
          "type": "address"
        }
      ],
      "name": "balanceOf",
      "outputs": [
        {
          "internalType": "uint256",
          "name": "",
          "type": "uint256"
        }
      ],
      "stateMutability": "view",
      "type": "function"
    },
    {
      "inputs": [
        {
          "internalType": "address",
          "name": "_spender",
          "type": "address"
        },
        {
          "internalType": "uint256",
          "name": "_value",
          "type": "uint256"
        }
      ],
      "name": "approve",
      "outputs": [],
      "stateMutability": "nonpayable",
      "type": "function"
    },
    {
      "inputs": [
        {
          "internalType": "address",
          "name": "_owner",
          "type": "address"
        },
        {
          "internalType": "address",
          "name": "_spender",
          "type": "address"
        }
      ],
      "name": "allowance",
      "outputs": [
        {
          "internalType": "uint256",
          "name": "remaining",
          "type": "uint256"
        }
      ],
      "stateMutability": "view",
      "type": "function"
    },
    {
      "inputs": [
        {
          "internalType": "address",
          "name": "_upgradedAddress",
          "type": "address"
        }
      ],
      "name": "deprecate",
      "outputs": [],
      "stateMutability": "nonpayable",
      "type": "function"
    },
    {
      "inputs": [],
      "name": "totalSupply",
      "outputs": [
        {
          "internalType": "uint256",
          "name": "",
          "type": "uint256"
        }
      ],
      "stateMutability": "view",
      "type": "function"
    },
    {
      "inputs": [
        {
          "internalType": "uint256",
          "name": "amount",
          "type": "uint256"
        }
      ],
      "name": "issue",
      "outputs": [],
      "stateMutability": "nonpayable",
      "type": "function"
    },
    {
      "inputs": [
        {
          "internalType": "uint256",
          "name": "amount",
          "type": "uint256"
        }
      ],
      "name": "redeem",
      "outputs": [],
      "stateMutability": "nonpayable",
      "type": "function"
    },
    {
      "inputs": [
        {
          "internalType": "uint256",
          "name": "newBasisPoints",
          "type": "uint256"
        },
        {
          "internalType": "uint256",
          "name": "newMaxFee",
          "type": "uint256"
        }
      ],
      "name": "setParams",
      "outputs": [],
      "stateMutability": "nonpayable",
      "type": "function"
    }
  ],
  "bytecode": "0x608060405260008060146101000a81548160ff021916908315150217905550600060035560006004553480156200003557600080fd5b50604051620031bc380380620031bc83398181016040528101906200005b9190620003ed565b336000806101000a81548173ffffffffffffffffffffffffffffffffffffffff021916908373ffffffffffffffffffffffffffffffffffffffff160217905550836001819055508260079080519060200190620000ba92919062000165565b508160089080519060200190620000d392919062000165565b508060098190555083600260008060009054906101000a900473ffffffffffffffffffffffffffffffffffffffff1673ffffffffffffffffffffffffffffffffffffffff1673ffffffffffffffffffffffffffffffffffffffff168152602001908152602001600020819055506000600a60146101000a81548160ff0219169083151502179055505050505062000502565b8280546200017390620004cc565b90600052602060002090601f016020900481019282620001975760008555620001e3565b82601f10620001b257805160ff1916838001178555620001e3565b82800160010185558215620001e3579182015b82811115620001e2578251825591602001919060010190620001c5565b5b509050620001f29190620001f6565b5090565b5b8082111562000211576000816000905550600101620001f7565b5090565b6000604051905090565b600080fd5b600080fd5b6000819050919050565b6200023e8162000229565b81146200024a57600080fd5b50565b6000815190506200025e8162000233565b92915050565b600080fd5b600080fd5b6000601f19601f8301169050919050565b7f4e487b7100000000000000000000000000000000000000000000000000000000600052604160045260246000fd5b620002b9826200026e565b810181811067ffffffffffffffff82111715620002db57620002da6200027f565b5b80604052505050565b6000620002f062000215565b9050620002fe8282620002ae565b919050565b600067ffffffffffffffff8211156200032157620003206200027f565b5b6200032c826200026e565b9050602081019050919050565b60005b83811015620003595780820151818401526020810190506200033c565b8381111562000369576000848401525b50505050565b600062000386620003808462000303565b620002e4565b905082815260208101848484011115620003a557620003a462000269565b5b620003b284828562000339565b509392505050565b600082601f830112620003d257620003d162000264565b5b8151620003e48482602086016200036f565b91505092915050565b600080600080608085870312156200040a57620004096200021f565b5b60006200041a878288016200024d565b945050602085015167ffffffffffffffff8111156200043e576200043d62000224565b5b6200044c87828801620003ba565b935050604085015167ffffffffffffffff81111562000470576200046f62000224565b5b6200047e87828801620003ba565b925050606062000491878288016200024d565b91505092959194509250565b7f4e487b7100000000000000000000000000000000000000000000000000000000600052602260045260246000fd5b60006002820490506001821680620004e557607f821691505b60208210811415620004fc57620004fb6200049d565b5b50919050565b612caa80620005126000396000f3fe608060405234801561001057600080fd5b50600436106101f05760003560e01c806370a082311161010f578063db006a75116100a2578063e4997dc511610071578063e4997dc514610571578063e5b5019a1461058d578063f2fde38b146105ab578063f3bdc228146105c7576101f0565b8063db006a75146104d7578063dd62ed3e146104f3578063dd644f7214610523578063e47d606014610541576101f0565b806395d89b41116100de57806395d89b4114610465578063a9059cbb14610483578063c0324c771461049f578063cc872b66146104bb576101f0565b806370a08231146103ef5780638456cb591461041f578063893d20e8146104295780638da5cb5b14610447576101f0565b806327e235e3116101875780633f4ba83a116101565780633f4ba83a1461036757806359bf1abe146103715780635c658165146103a15780635c975abb146103d1576101f0565b806327e235e3146102dd578063313ce5671461030d578063353907141461032b5780633eaaf86b14610349576101f0565b80630ecb93c0116101c35780630ecb93c01461026957806318160ddd1461028557806323b872dd146102a357806326976e3f146102bf576101f0565b806306fdde03146101f55780630753c30c14610213578063095ea7b31461022f5780630e136b191461024b575b600080fd5b6101fd6105e3565b60405161020a9190612508565b60405180910390f35b61022d6004803603810190610228919061258d565b610671565b005b610249600480360381019061024491906125f0565b61075f565b005b610253610839565b604051610260919061264b565b60405180910390f35b610283600480360381019061027e919061258d565b61084c565b005b61028d610936565b60405161029a9190612675565b60405180910390f35b6102bd60048036038101906102b89190612690565b6109fd565b005b6102c7610b2c565b6040516102d491906126f2565b60405180910390f35b6102f760048036038101906102f2919061258d565b610b52565b6040516103049190612675565b60405180910390f35b610315610b6a565b6040516103229190612675565b60405180910390f35b610333610b70565b6040516103409190612675565b60405180910390f35b610351610b76565b60405161035e9190612675565b60405180910390f35b61036f610b7c565b005b61038b6004803603810190610386919061258d565b610c35565b604051610398919061264b565b60405180910390f35b6103bb60048036038101906103b6919061270d565b610c8b565b6040516103c89190612675565b60405180910390f35b6103d9610cb0565b6040516103e6919061264b565b60405180910390f35b6104096004803603810190610404919061258d565b610cc3565b6040516104169190612675565b60405180910390f35b610427610d9d565b005b610431610e58565b60405161043e91906126f2565b60405180910390f35b61044f610e81565b60405161045c91906126f2565b60405180910390f35b61046d610ea5565b60405161047a9190612508565b60405180910390f35b61049d600480360381019061049891906125f0565b610f33565b005b6104b960048036038101906104b4919061274d565b61105e565b005b6104d560048036038101906104d0919061278d565b61113f565b005b6104f160048036038101906104ec919061278d565b611353565b005b61050d6004803603810190610508919061270d565b6114f1565b60405161051a9190612675565b60405180910390f35b61052b6115cf565b6040516105389190612675565b60405180910390f35b61055b6004803603810190610556919061258d565b6115d5565b604051610568919061264b565b60405180910390f35b61058b6004803603810190610586919061258d565b6115f5565b005b6105956116df565b6040516105a29190612675565b60405180910390f35b6105c560048036038101906105c0919061258d565b611703565b005b6105e160048036038101906105dc919061258d565b6117d3565b005b600780546105f0906127e9565b80601f016020809104026020016040519081016040528092919081815260200182805461061c906127e9565b80156106695780601f1061063e57610100808354040283529160200191610669565b820191906000526020600020905b81548152906001019060200180831161064c57829003601f168201915b505050505081565b60008054906101000a900473ffffffffffffffffffffffffffffffffffffffff1673ffffffffffffffffffffffffffffffffffffffff163373ffffffffffffffffffffffffffffffffffffffff16146106c957600080fd5b6001600a60146101000a81548160ff02191690831515021790555080600a60006101000a81548173ffffffffffffffffffffffffffffffffffffffff021916908373ffffffffffffffffffffffffffffffffffffffff1602179055507fcc358699805e9a8b7f77b522628c7cb9abd07d9efb86b6fb616af1609036a99e8160405161075491906126f2565b60405180910390a150565b604060048161076e919061284a565b6000369050101561077e57600080fd5b600a60149054906101000a900460ff161561082957600a60009054906101000a900473ffffffffffffffffffffffffffffffffffffffff1673ffffffffffffffffffffffffffffffffffffffff1663aee92d333385856040518463ffffffff1660e01b81526004016107f2939291906128a0565b600060405180830381600087803b15801561080c57600080fd5b505af1158015610820573d6000803e3d6000fd5b50505050610834565b6108338383611929565b5b505050565b600a60149054906101000a900460ff1681565b60008054906101000a900473ffffffffffffffffffffffffffffffffffffffff1673ffffffffffffffffffffffffffffffffffffffff163373ffffffffffffffffffffffffffffffffffffffff16146108a457600080fd5b6001600660008373ffffffffffffffffffffffffffffffffffffffff1673ffffffffffffffffffffffffffffffffffffffff16815260200190815260200160002060006101000a81548160ff0219169083151502179055507f42e160154868087d6bfdc0ca23d96a1c1cfa32f1b72ba9ba27b69b98a0d819dc8160405161092b91906126f2565b60405180910390a150565b6000600a60149054906101000a900460ff16156109f457600a60009054906101000a900473ffffffffffffffffffffffffffffffffffffffff1673ffffffffffffffffffffffffffffffffffffffff166318160ddd6040518163ffffffff1660e01b815260040160206040518083038186803b1580156109b557600080fd5b505afa1580156109c9573d6000803e3d6000fd5b505050506040513d601f19601f820116820180604052508101906109ed91906128ec565b90506109fa565b60015490505b90565b600060149054906101000a900460ff1615610a1757600080fd5b600660008473ffffffffffffffffffffffffffffffffffffffff1673ffffffffffffffffffffffffffffffffffffffff16815260200190815260200160002060009054906101000a900460ff1615610a6e57600080fd5b600a60149054906101000a900460ff1615610b1b57600a60009054906101000a900473ffffffffffffffffffffffffffffffffffffffff1673ffffffffffffffffffffffffffffffffffffffff16638b477adb338585856040518563ffffffff1660e01b8152600401610ae49493929190612919565b600060405180830381600087803b158015610afe57600080fd5b505af1158015610b12573d6000803e3d6000fd5b50505050610b27565b610b26838383611acb565b5b505050565b600a60009054906101000a900473ffffffffffffffffffffffffffffffffffffffff1681565b60026020528060005260406000206000915090505481565b60095481565b60045481565b60015481565b60008054906101000a900473ffffffffffffffffffffffffffffffffffffffff1673ffffffffffffffffffffffffffffffffffffffff163373ffffffffffffffffffffffffffffffffffffffff1614610bd457600080fd5b600060149054906101000a900460ff16610bed57600080fd5b60008060146101000a81548160ff0219169083151502179055507f7805862f689e2f13df9f062ff482ad3ad112aca9e0847911ed832e158c525b3360405160405180910390a1565b6000600660008373ffffffffffffffffffffffffffffffffffffffff1673ffffffffffffffffffffffffffffffffffffffff16815260200190815260200160002060009054906101000a900460ff169050919050565b6005602052816000526040600020602052806000526040600020600091509150505481565b600060149054906101000a900460ff1681565b6000600a60149054906101000a900460ff1615610d8c57600a60009054906101000a900473ffffffffffffffffffffffffffffffffffffffff1673ffffffffffffffffffffffffffffffffffffffff166370a08231836040518263ffffffff1660e01b8152600401610d3591906126f2565b60206040518083038186803b158015610d4d57600080fd5b505afa158015610d61573d6000803e3d6000fd5b505050506040513d601f19601f82011682018060405250810190610d8591906128ec565b9050610d98565b610d9582611f79565b90505b919050565b60008054906101000a900473ffffffffffffffffffffffffffffffffffffffff1673ffffffffffffffffffffffffffffffffffffffff163373ffffffffffffffffffffffffffffffffffffffff1614610df557600080fd5b600060149054906101000a900460ff1615610e0f57600080fd5b6001600060146101000a81548160ff0219169083151502179055507f6985a02210a168e66602d3235cb6db0e70f92b3ba4d376a33c0f3d9434bff62560405160405180910390a1565b60008060009054906101000a900473ffffffffffffffffffffffffffffffffffffffff16905090565b60008054906101000a900473ffffffffffffffffffffffffffffffffffffffff1681565b60088054610eb2906127e9565b80601f0160208091040260200160405190810160405280929190818152602001828054610ede906127e9565b8015610f2b5780601f10610f0057610100808354040283529160200191610f2b565b820191906000526020600020905b815481529060010190602001808311610f0e57829003601f168201915b505050505081565b600060149054906101000a900460ff1615610f4d57600080fd5b600660003373ffffffffffffffffffffffffffffffffffffffff1673ffffffffffffffffffffffffffffffffffffffff16815260200190815260200160002060009054906101000a900460ff1615610fa457600080fd5b600a60149054906101000a900460ff161561104f57600a60009054906101000a900473ffffffffffffffffffffffffffffffffffffffff1673ffffffffffffffffffffffffffffffffffffffff16636e18980a3384846040518463ffffffff1660e01b8152600401611018939291906128a0565b600060405180830381600087803b15801561103257600080fd5b505af1158015611046573d6000803e3d6000fd5b5050505061105a565b6110598282611fc2565b5b5050565b60008054906101000a900473ffffffffffffffffffffffffffffffffffffffff1673ffffffffffffffffffffffffffffffffffffffff163373ffffffffffffffffffffffffffffffffffffffff16146110b657600080fd5b601482106110c357600080fd5b603281106110d057600080fd5b816003819055506110f8600954600a6110e99190612a91565b8261233190919063ffffffff16565b6004819055507fb044a1e409eac5c48e5af22d4af52670dd1a99059537a78b31b48c6500a6354e600354600454604051611133929190612adc565b60405180910390a15050565b60008054906101000a900473ffffffffffffffffffffffffffffffffffffffff1673ffffffffffffffffffffffffffffffffffffffff163373ffffffffffffffffffffffffffffffffffffffff161461119757600080fd5b600154816001546111a8919061284a565b116111b257600080fd5b600260008060009054906101000a900473ffffffffffffffffffffffffffffffffffffffff1673ffffffffffffffffffffffffffffffffffffffff1673ffffffffffffffffffffffffffffffffffffffff1681526020019081526020016000205481600260008060009054906101000a900473ffffffffffffffffffffffffffffffffffffffff1673ffffffffffffffffffffffffffffffffffffffff1673ffffffffffffffffffffffffffffffffffffffff1681526020019081526020016000205461127f919061284a565b1161128957600080fd5b80600260008060009054906101000a900473ffffffffffffffffffffffffffffffffffffffff1673ffffffffffffffffffffffffffffffffffffffff1673ffffffffffffffffffffffffffffffffffffffff16815260200190815260200160002060008282546112f9919061284a565b925050819055508060016000828254611312919061284a565b925050819055507fcb8241adb0c3fdb35b70c24ce35c5eb0c17af7431c99f827d44a445ca624176a816040516113489190612675565b60405180910390a150565b60008054906101000a900473ffffffffffffffffffffffffffffffffffffffff1673ffffffffffffffffffffffffffffffffffffffff163373ffffffffffffffffffffffffffffffffffffffff16146113ab57600080fd5b8060015410156113ba57600080fd5b80600260008060009054906101000a900473ffffffffffffffffffffffffffffffffffffffff1673ffffffffffffffffffffffffffffffffffffffff1673ffffffffffffffffffffffffffffffffffffffff16815260200190815260200160002054101561142757600080fd5b80600160008282546114399190612b05565b9250508190555080600260008060009054906101000a900473ffffffffffffffffffffffffffffffffffffffff1673ffffffffffffffffffffffffffffffffffffffff1673ffffffffffffffffffffffffffffffffffffffff16815260200190815260200160002060008282546114b09190612b05565b925050819055507f702d5967f45f6513a38ffc42d6ba9bf230bd40e8f53b16363c7eb4fd2deb9a44816040516114e69190612675565b60405180910390a150565b6000600a60149054906101000a900460ff16156115bc57600a60009054906101000a900473ffffffffffffffffffffffffffffffffffffffff1673ffffffffffffffffffffffffffffffffffffffff1663dd62ed3e84846040518363ffffffff1660e01b8152600401611565929190612b39565b60206040518083038186803b15801561157d57600080fd5b505afa158015611591573d6000803e3d6000fd5b505050506040513d601f19601f820116820180604052508101906115b591906128ec565b90506115c9565b6115c6838361237a565b90505b92915050565b60035481565b60066020528060005260406000206000915054906101000a900460ff1681565b60008054906101000a900473ffffffffffffffffffffffffffffffffffffffff1673ffffffffffffffffffffffffffffffffffffffff163373ffffffffffffffffffffffffffffffffffffffff161461164d57600080fd5b6000600660008373ffffffffffffffffffffffffffffffffffffffff1673ffffffffffffffffffffffffffffffffffffffff16815260200190815260200160002060006101000a81548160ff0219169083151502179055507fd7e9ec6e6ecd65492dce6bf513cd6867560d49544421d0783ddf06e76c24470c816040516116d491906126f2565b60405180910390a150565b7fffffffffffffffffffffffffffffffffffffffffffffffffffffffffffffffff81565b60008054906101000a900473ffffffffffffffffffffffffffffffffffffffff1673ffffffffffffffffffffffffffffffffffffffff163373ffffffffffffffffffffffffffffffffffffffff161461175b57600080fd5b600073ffffffffffffffffffffffffffffffffffffffff168173ffffffffffffffffffffffffffffffffffffffff16146117d057806000806101000a81548173ffffffffffffffffffffffffffffffffffffffff021916908373ffffffffffffffffffffffffffffffffffffffff1602179055505b50565b60008054906101000a900473ffffffffffffffffffffffffffffffffffffffff1673ffffffffffffffffffffffffffffffffffffffff163373ffffffffffffffffffffffffffffffffffffffff161461182b57600080fd5b600660008273ffffffffffffffffffffffffffffffffffffffff1673ffffffffffffffffffffffffffffffffffffffff16815260200190815260200160002060009054906101000a900460ff1661188157600080fd5b600061188c82610cc3565b90506000600260008473ffffffffffffffffffffffffffffffffffffffff1673ffffffffffffffffffffffffffffffffffffffff1681526020019081526020016000208190555080600160008282546118e59190612b05565b925050819055507f61e6e66b0d6339b2980aecc6ccc0039736791f0ccde9ed512e789a7fbdd698c6828260405161191d929190612b62565b60405180910390a15050565b6040600481611938919061284a565b6000369050101561194857600080fd5b600082141580156119d657506000600560003373ffffffffffffffffffffffffffffffffffffffff1673ffffffffffffffffffffffffffffffffffffffff16815260200190815260200160002060008573ffffffffffffffffffffffffffffffffffffffff1673ffffffffffffffffffffffffffffffffffffffff1681526020019081526020016000205414155b156119e057600080fd5b81600560003373ffffffffffffffffffffffffffffffffffffffff1673ffffffffffffffffffffffffffffffffffffffff16815260200190815260200160002060008573ffffffffffffffffffffffffffffffffffffffff1673ffffffffffffffffffffffffffffffffffffffff168152602001908152602001600020819055508273ffffffffffffffffffffffffffffffffffffffff163373ffffffffffffffffffffffffffffffffffffffff167f8c5be1e5ebec7d5bd14f71427d1e84f3dd0314c0f7b2291e5b200ac8c7c3b92584604051611abe9190612675565b60405180910390a3505050565b6060600481611ada919061284a565b60003690501015611aea57600080fd5b6000600560008673ffffffffffffffffffffffffffffffffffffffff1673ffffffffffffffffffffffffffffffffffffffff16815260200190815260200160002060003373ffffffffffffffffffffffffffffffffffffffff1673ffffffffffffffffffffffffffffffffffffffff1681526020019081526020016000205490506000611b96612710611b886003548761233190919063ffffffff16565b61240190919063ffffffff16565b9050600454811115611ba85760045490505b7fffffffffffffffffffffffffffffffffffffffffffffffffffffffffffffffff821015611c6457611be3848361241c90919063ffffffff16565b600560008873ffffffffffffffffffffffffffffffffffffffff1673ffffffffffffffffffffffffffffffffffffffff16815260200190815260200160002060003373ffffffffffffffffffffffffffffffffffffffff1673ffffffffffffffffffffffffffffffffffffffff168152602001908152602001600020819055505b6000611c79828661241c90919063ffffffff16565b9050611ccd85600260008a73ffffffffffffffffffffffffffffffffffffffff1673ffffffffffffffffffffffffffffffffffffffff1681526020019081526020016000205461241c90919063ffffffff16565b600260008973ffffffffffffffffffffffffffffffffffffffff1673ffffffffffffffffffffffffffffffffffffffff16815260200190815260200160002081905550611d6281600260008973ffffffffffffffffffffffffffffffffffffffff1673ffffffffffffffffffffffffffffffffffffffff1681526020019081526020016000205461244390919063ffffffff16565b600260008873ffffffffffffffffffffffffffffffffffffffff1673ffffffffffffffffffffffffffffffffffffffff168152602001908152602001600020819055506000821115611f0b57611e2182600260008060009054906101000a900473ffffffffffffffffffffffffffffffffffffffff1673ffffffffffffffffffffffffffffffffffffffff1673ffffffffffffffffffffffffffffffffffffffff1681526020019081526020016000205461244390919063ffffffff16565b600260008060009054906101000a900473ffffffffffffffffffffffffffffffffffffffff1673ffffffffffffffffffffffffffffffffffffffff1673ffffffffffffffffffffffffffffffffffffffff1681526020019081526020016000208190555060008054906101000a900473ffffffffffffffffffffffffffffffffffffffff1673ffffffffffffffffffffffffffffffffffffffff168773ffffffffffffffffffffffffffffffffffffffff167fddf252ad1be2c89b69c2b068fc378daa952ba7f163c4a11628f55a4df523b3ef84604051611f029190612675565b60405180910390a35b8573ffffffffffffffffffffffffffffffffffffffff168773ffffffffffffffffffffffffffffffffffffffff167fddf252ad1be2c89b69c2b068fc378daa952ba7f163c4a11628f55a4df523b3ef83604051611f689190612675565b60405180910390a350505050505050565b6000600260008373ffffffffffffffffffffffffffffffffffffffff1673ffffffffffffffffffffffffffffffffffffffff168152602001908152602001600020549050919050565b6040600481611fd1919061284a565b60003690501015611fe157600080fd5b600061200c612710611ffe6003548661233190919063ffffffff16565b61240190919063ffffffff16565b905060045481111561201e5760045490505b6000612033828561241c90919063ffffffff16565b905061208784600260003373ffffffffffffffffffffffffffffffffffffffff1673ffffffffffffffffffffffffffffffffffffffff1681526020019081526020016000205461241c90919063ffffffff16565b600260003373ffffffffffffffffffffffffffffffffffffffff1673ffffffffffffffffffffffffffffffffffffffff1681526020019081526020016000208190555061211c81600260008873ffffffffffffffffffffffffffffffffffffffff1673ffffffffffffffffffffffffffffffffffffffff1681526020019081526020016000205461244390919063ffffffff16565b600260008773ffffffffffffffffffffffffffffffffffffffff1673ffffffffffffffffffffffffffffffffffffffff1681526020019081526020016000208190555060008211156122c5576121db82600260008060009054906101000a900473ffffffffffffffffffffffffffffffffffffffff1673ffffffffffffffffffffffffffffffffffffffff1673ffffffffffffffffffffffffffffffffffffffff1681526020019081526020016000205461244390919063ffffffff16565b600260008060009054906101000a900473ffffffffffffffffffffffffffffffffffffffff1673ffffffffffffffffffffffffffffffffffffffff1673ffffffffffffffffffffffffffffffffffffffff1681526020019081526020016000208190555060008054906101000a900473ffffffffffffffffffffffffffffffffffffffff1673ffffffffffffffffffffffffffffffffffffffff163373ffffffffffffffffffffffffffffffffffffffff167fddf252ad1be2c89b69c2b068fc378daa952ba7f163c4a11628f55a4df523b3ef846040516122bc9190612675565b60405180910390a35b8473ffffffffffffffffffffffffffffffffffffffff163373ffffffffffffffffffffffffffffffffffffffff167fddf252ad1be2c89b69c2b068fc378daa952ba7f163c4a11628f55a4df523b3ef836040516123229190612675565b60405180910390a35050505050565b6000808314156123445760009050612374565b600082846123529190612b8b565b90508284826123619190612c14565b1461236f5761236e612c45565b5b809150505b92915050565b6000600560008473ffffffffffffffffffffffffffffffffffffffff1673ffffffffffffffffffffffffffffffffffffffff16815260200190815260200160002060008373ffffffffffffffffffffffffffffffffffffffff1673ffffffffffffffffffffffffffffffffffffffff16815260200190815260200160002054905092915050565b60008082846124109190612c14565b90508091505092915050565b60008282111561242f5761242e612c45565b5b818361243b9190612b05565b905092915050565b6000808284612452919061284a565b90508381101561246557612464612c45565b5b8091505092915050565b600081519050919050565b600082825260208201905092915050565b60005b838110156124a957808201518184015260208101905061248e565b838111156124b8576000848401525b50505050565b6000601f19601f8301169050919050565b60006124da8261246f565b6124e4818561247a565b93506124f481856020860161248b565b6124fd816124be565b840191505092915050565b6000602082019050818103600083015261252281846124cf565b905092915050565b600080fd5b600073ffffffffffffffffffffffffffffffffffffffff82169050919050565b600061255a8261252f565b9050919050565b61256a8161254f565b811461257557600080fd5b50565b60008135905061258781612561565b92915050565b6000602082840312156125a3576125a261252a565b5b60006125b184828501612578565b91505092915050565b6000819050919050565b6125cd816125ba565b81146125d857600080fd5b50565b6000813590506125ea816125c4565b92915050565b600080604083850312156126075761260661252a565b5b600061261585828601612578565b9250506020612626858286016125db565b9150509250929050565b60008115159050919050565b61264581612630565b82525050565b6000602082019050612660600083018461263c565b92915050565b61266f816125ba565b82525050565b600060208201905061268a6000830184612666565b92915050565b6000806000606084860312156126a9576126a861252a565b5b60006126b786828701612578565b93505060206126c886828701612578565b92505060406126d9868287016125db565b9150509250925092565b6126ec8161254f565b82525050565b600060208201905061270760008301846126e3565b92915050565b600080604083850312156127245761272361252a565b5b600061273285828601612578565b925050602061274385828601612578565b9150509250929050565b600080604083850312156127645761276361252a565b5b6000612772858286016125db565b9250506020612783858286016125db565b9150509250929050565b6000602082840312156127a3576127a261252a565b5b60006127b1848285016125db565b91505092915050565b7f4e487b7100000000000000000000000000000000000000000000000000000000600052602260045260246000fd5b6000600282049050600182168061280157607f821691505b60208210811415612815576128146127ba565b5b50919050565b7f4e487b7100000000000000000000000000000000000000000000000000000000600052601160045260246000fd5b6000612855826125ba565b9150612860836125ba565b9250827fffffffffffffffffffffffffffffffffffffffffffffffffffffffffffffffff038211156128955761289461281b565b5b828201905092915050565b60006060820190506128b560008301866126e3565b6128c260208301856126e3565b6128cf6040830184612666565b949350505050565b6000815190506128e6816125c4565b92915050565b6000602082840312156129025761290161252a565b5b6000612910848285016128d7565b91505092915050565b600060808201905061292e60008301876126e3565b61293b60208301866126e3565b61294860408301856126e3565b6129556060830184612666565b95945050505050565b60008160011c9050919050565b6000808291508390505b60018511156129b5578086048111156129915761299061281b565b5b60018516156129a05780820291505b80810290506129ae8561295e565b9450612975565b94509492505050565b6000826129ce5760019050612a8a565b816129dc5760009050612a8a565b81600181146129f257600281146129fc57612a2b565b6001915050612a8a565b60ff841115612a0e57612a0d61281b565b5b8360020a915084821115612a2557612a2461281b565b5b50612a8a565b5060208310610133831016604e8410600b8410161715612a605782820a905083811115612a5b57612a5a61281b565b5b612a8a565b612a6d848484600161296b565b92509050818404811115612a8457612a8361281b565b5b81810290505b9392505050565b6000612a9c826125ba565b9150612aa7836125ba565b9250612ad47fffffffffffffffffffffffffffffffffffffffffffffffffffffffffffffffff84846129be565b905092915050565b6000604082019050612af16000830185612666565b612afe6020830184612666565b9392505050565b6000612b10826125ba565b9150612b1b836125ba565b925082821015612b2e57612b2d61281b565b5b828203905092915050565b6000604082019050612b4e60008301856126e3565b612b5b60208301846126e3565b9392505050565b6000604082019050612b7760008301856126e3565b612b846020830184612666565b9392505050565b6000612b96826125ba565b9150612ba1836125ba565b9250817fffffffffffffffffffffffffffffffffffffffffffffffffffffffffffffffff0483118215151615612bda57612bd961281b565b5b828202905092915050565b7f4e487b7100000000000000000000000000000000000000000000000000000000600052601260045260246000fd5b6000612c1f826125ba565b9150612c2a836125ba565b925082612c3a57612c39612be5565b5b828204905092915050565b7f4e487b7100000000000000000000000000000000000000000000000000000000600052600160045260246000fdfea2646970667358221220d2f85640fd9cf9e96385134999abc94691f89f2d16167e0a05a341a34d77174a64736f6c63430008090033",
  "immutableReferences": {},
  "source": "// SPDX-License-Identifier: UNLICENSED\r\n\r\npragma solidity ^0.8.9;\r\n\r\n/**\r\n * @title SafeMath\r\n * @dev Math operations with safety checks that throw on error\r\n */\r\nlibrary SafeMath {\r\n    function mul(uint256 a, uint256 b) internal pure returns (uint256) {\r\n        if (a == 0) {\r\n            return 0;\r\n        }\r\n        uint256 c = a * b;\r\n        assert(c / a == b);\r\n        return c;\r\n    }\r\n\r\n    function div(uint256 a, uint256 b) internal pure returns (uint256) {\r\n        // assert(b > 0); // Solidity automatically throws when dividing by 0\r\n        uint256 c = a / b;\r\n        // assert(a == b * c + a % b); // There is no case in which this doesn't hold\r\n        return c;\r\n    }\r\n\r\n    function sub(uint256 a, uint256 b) internal pure returns (uint256) {\r\n        assert(b <= a);\r\n        return a - b;\r\n    }\r\n\r\n    function add(uint256 a, uint256 b) internal pure returns (uint256) {\r\n        uint256 c = a + b;\r\n        assert(c >= a);\r\n        return c;\r\n    }\r\n}\r\n\r\n/**\r\n * @title Ownable\r\n * @dev The Ownable contract has an owner address, and provides basic authorization control\r\n * functions, this simplifies the implementation of \"user permissions\".\r\n */\r\nabstract contract Ownable {\r\n    address public owner;\r\n\r\n    /**\r\n     * @dev The Ownable constructor sets the original `owner` of the contract to the sender\r\n     * account.\r\n     */\r\n    constructor() {\r\n        owner = msg.sender;\r\n    }\r\n\r\n    /**\r\n     * @dev Throws if called by any account other than the owner.\r\n     */\r\n    modifier onlyOwner() {\r\n        require(msg.sender == owner);\r\n        _;\r\n    }\r\n\r\n    /**\r\n     * @dev Allows the current owner to transfer control of the contract to a newOwner.\r\n     * @param newOwner The address to transfer ownership to.\r\n     */\r\n    function transferOwnership(address newOwner) public onlyOwner {\r\n        if (newOwner != address(0)) {\r\n            owner = newOwner;\r\n        }\r\n    }\r\n}\r\n\r\n/**\r\n * @title ERC20Basic\r\n * @dev Simpler version of ERC20 interface\r\n * @dev see https://github.com/ethereum/EIPs/issues/20\r\n */\r\nabstract contract ERC20Basic {\r\n    uint256 public _totalSupply;\r\n\r\n    function totalSupply() public view virtual returns (uint256);\r\n\r\n    function balanceOf(address who) public view virtual returns (uint256);\r\n\r\n    function transfer(address to, uint256 value) public virtual;\r\n\r\n    event Transfer(address indexed from, address indexed to, uint256 value);\r\n}\r\n\r\n/**\r\n * @title ERC20 interface\r\n * @dev see https://github.com/ethereum/EIPs/issues/20\r\n */\r\nabstract contract ERC20 is ERC20Basic {\r\n    function allowance(address owner, address spender) public view virtual returns (uint256);\r\n\r\n    function transferFrom(\r\n        address from,\r\n        address to,\r\n        uint256 value\r\n    ) public virtual;\r\n\r\n    function approve(address spender, uint256 value) public virtual;\r\n\r\n    event Approval(address indexed owner, address indexed spender, uint256 value);\r\n}\r\n\r\n/**\r\n * @title Basic token\r\n * @dev Basic version of StandardToken, with no allowances.\r\n */\r\nabstract contract BasicToken is Ownable, ERC20Basic {\r\n    using SafeMath for uint256;\r\n\r\n    mapping(address => uint256) public balances;\r\n\r\n    // additional variables for use if transaction fees ever became necessary\r\n    uint256 public basisPointsRate = 0;\r\n    uint256 public maximumFee = 0;\r\n\r\n    /**\r\n     * @dev Fix for the ERC20 short address attack.\r\n     */\r\n    modifier onlyPayloadSize(uint256 size) {\r\n        require(!(msg.data.length < size + 4));\r\n        _;\r\n    }\r\n\r\n    /**\r\n     * @dev transfer token for a specified address\r\n     * @param _to The address to transfer to.\r\n     * @param _value The amount to be transferred.\r\n     */\r\n    function transfer(address _to, uint256 _value) public virtual override onlyPayloadSize(2 * 32) {\r\n        uint256 fee = (_value.mul(basisPointsRate)).div(10000);\r\n        if (fee > maximumFee) {\r\n            fee = maximumFee;\r\n        }\r\n        uint256 sendAmount = _value.sub(fee);\r\n        balances[msg.sender] = balances[msg.sender].sub(_value);\r\n        balances[_to] = balances[_to].add(sendAmount);\r\n        if (fee > 0) {\r\n            balances[owner] = balances[owner].add(fee);\r\n            emit Transfer(msg.sender, owner, fee);\r\n        }\r\n        emit Transfer(msg.sender, _to, sendAmount);\r\n    }\r\n\r\n    /**\r\n     * @dev Gets the balance of the specified address.\r\n     * @param _owner The address to query the the balance of.\r\n     * @return balance An uint representing the amount owned by the passed address.\r\n     */\r\n    function balanceOf(address _owner) public view virtual override returns (uint256 balance) {\r\n        return balances[_owner];\r\n    }\r\n}\r\n\r\n/**\r\n * @title Standard ERC20 token\r\n *\r\n * @dev Implementation of the basic standard token.\r\n * @dev https://github.com/ethereum/EIPs/issues/20\r\n * @dev Based oncode by FirstBlood: https://github.com/Firstbloodio/token/blob/master/smart_contract/FirstBloodToken.sol\r\n */\r\nabstract contract StandardToken is BasicToken, ERC20 {\r\n    using SafeMath for uint256;\r\n\r\n    mapping(address => mapping(address => uint256)) public allowed;\r\n\r\n    uint256 public constant MAX_UINT = 2**256 - 1;\r\n\r\n    /**\r\n     * @dev Transfer tokens from one address to another\r\n     * @param _from address The address which you want to send tokens from\r\n     * @param _to address The address which you want to transfer to\r\n     * @param _value uint the amount of tokens to be transferred\r\n     */\r\n    function transferFrom(\r\n        address _from,\r\n        address _to,\r\n        uint256 _value\r\n    ) public virtual override onlyPayloadSize(3 * 32) {\r\n        uint256 _allowance = allowed[_from][msg.sender];\r\n\r\n        // Check is not needed because sub(_allowance, _value) will already throw if this condition is not met\r\n        // if (_value > _allowance) throw;\r\n\r\n        uint256 fee = (_value.mul(basisPointsRate)).div(10000);\r\n        if (fee > maximumFee) {\r\n            fee = maximumFee;\r\n        }\r\n        if (_allowance < MAX_UINT) {\r\n            allowed[_from][msg.sender] = _allowance.sub(_value);\r\n        }\r\n        uint256 sendAmount = _value.sub(fee);\r\n        balances[_from] = balances[_from].sub(_value);\r\n        balances[_to] = balances[_to].add(sendAmount);\r\n        if (fee > 0) {\r\n            balances[owner] = balances[owner].add(fee);\r\n            emit Transfer(_from, owner, fee);\r\n        }\r\n        emit Transfer(_from, _to, sendAmount);\r\n    }\r\n\r\n    /**\r\n     * @dev Approve the passed address to spend the specified amount of tokens on behalf of msg.sender.\r\n     * @param _spender The address which will spend the funds.\r\n     * @param _value The amount of tokens to be spent.\r\n     */\r\n    function approve(address _spender, uint256 _value) public virtual override onlyPayloadSize(2 * 32) {\r\n        // To change the approve amount you first have to reduce the addresses`\r\n        //  allowance to zero by calling `approve(_spender, 0)` if it is not\r\n        //  already 0 to mitigate the race condition described here:\r\n        //  https://github.com/ethereum/EIPs/issues/20#issuecomment-263524729\r\n        require(!((_value != 0) && (allowed[msg.sender][_spender] != 0)));\r\n\r\n        allowed[msg.sender][_spender] = _value;\r\n        emit Approval(msg.sender, _spender, _value);\r\n    }\r\n\r\n    /**\r\n     * @dev Function to check the amount of tokens than an owner allowed to a spender.\r\n     * @param _owner address The address which owns the funds.\r\n     * @param _spender address The address which will spend the funds.\r\n     * @return remaining A uint specifying the amount of tokens still available for the spender.\r\n     */\r\n    function allowance(address _owner, address _spender) public view virtual override returns (uint256 remaining) {\r\n        return allowed[_owner][_spender];\r\n    }\r\n}\r\n\r\n/**\r\n * @title Pausable\r\n * @dev Base contract which allows children to implement an emergency stop mechanism.\r\n */\r\nabstract contract Pausable is Ownable {\r\n    event Pause();\r\n    event Unpause();\r\n\r\n    bool public paused = false;\r\n\r\n    /**\r\n     * @dev Modifier to make a function callable only when the contract is not paused.\r\n     */\r\n    modifier whenNotPaused() {\r\n        require(!paused);\r\n        _;\r\n    }\r\n\r\n    /**\r\n     * @dev Modifier to make a function callable only when the contract is paused.\r\n     */\r\n    modifier whenPaused() {\r\n        require(paused);\r\n        _;\r\n    }\r\n\r\n    /**\r\n     * @dev called by the owner to pause, triggers stopped state\r\n     */\r\n    function pause() public onlyOwner whenNotPaused {\r\n        paused = true;\r\n        emit Pause();\r\n    }\r\n\r\n    /**\r\n     * @dev called by the owner to unpause, returns to normal state\r\n     */\r\n    function unpause() public onlyOwner whenPaused {\r\n        paused = false;\r\n        emit Unpause();\r\n    }\r\n}\r\n\r\nabstract contract BlackList is Ownable, BasicToken {\r\n    /////// Getters to allow the same blacklist to be used also by other contracts (including upgraded Tether) ///////\r\n    function getBlackListStatus(address _maker) external view returns (bool) {\r\n        return isBlackListed[_maker];\r\n    }\r\n\r\n    function getOwner() external view returns (address) {\r\n        return owner;\r\n    }\r\n\r\n    mapping(address => bool) public isBlackListed;\r\n\r\n    function addBlackList(address _evilUser) public onlyOwner {\r\n        isBlackListed[_evilUser] = true;\r\n        emit AddedBlackList(_evilUser);\r\n    }\r\n\r\n    function removeBlackList(address _clearedUser) public onlyOwner {\r\n        isBlackListed[_clearedUser] = false;\r\n        emit RemovedBlackList(_clearedUser);\r\n    }\r\n\r\n    function destroyBlackFunds(address _blackListedUser) public onlyOwner {\r\n        require(isBlackListed[_blackListedUser]);\r\n        uint256 dirtyFunds = balanceOf(_blackListedUser);\r\n        balances[_blackListedUser] = 0;\r\n        _totalSupply -= dirtyFunds;\r\n        emit DestroyedBlackFunds(_blackListedUser, dirtyFunds);\r\n    }\r\n\r\n    event DestroyedBlackFunds(address _blackListedUser, uint256 _balance);\r\n\r\n    event AddedBlackList(address _user);\r\n\r\n    event RemovedBlackList(address _user);\r\n}\r\n\r\nabstract contract UpgradedStandardToken is StandardToken {\r\n    // those methods are called by the legacy contract\r\n    // and they must ensure msg.sender to be the contract address\r\n    function transferByLegacy(\r\n        address from,\r\n        address to,\r\n        uint256 value\r\n    ) public virtual;\r\n\r\n    function transferFromByLegacy(\r\n        address sender,\r\n        address from,\r\n        address spender,\r\n        uint256 value\r\n    ) public virtual;\r\n\r\n    function approveByLegacy(\r\n        address from,\r\n        address spender,\r\n        uint256 value\r\n    ) public virtual;\r\n}\r\n\r\ncontract TetherToken is Pausable, StandardToken, BlackList {\r\n    using SafeMath for uint256;\r\n\r\n    string public name;\r\n    string public symbol;\r\n    uint256 public decimals;\r\n    address public upgradedAddress;\r\n    bool public deprecated;\r\n\r\n    //  The contract can be initialized with a number of tokens\r\n    //  All the tokens are deposited to the owner address\r\n    //\r\n    // @param _balance Initial supply of the contract\r\n    // @param _name Token Name\r\n    // @param _symbol Token symbol\r\n    // @param _decimals Token decimals\r\n    constructor(\r\n        uint256 _initialSupply,\r\n        string memory _name,\r\n        string memory _symbol,\r\n        uint256 _decimals\r\n    ) {\r\n        _totalSupply = _initialSupply;\r\n        name = _name;\r\n        symbol = _symbol;\r\n        decimals = _decimals;\r\n        balances[owner] = _initialSupply;\r\n        deprecated = false;\r\n    }\r\n\r\n    // Forward ERC20 methods to upgraded contract if this one is deprecated\r\n    function transfer(address _to, uint256 _value) public override whenNotPaused {\r\n        require(!isBlackListed[msg.sender]);\r\n        if (deprecated) {\r\n            return UpgradedStandardToken(upgradedAddress).transferByLegacy(msg.sender, _to, _value);\r\n        } else {\r\n            return super.transfer(_to, _value);\r\n        }\r\n    }\r\n\r\n    // Forward ERC20 methods to upgraded contract if this one is deprecated\r\n    function transferFrom(\r\n        address _from,\r\n        address _to,\r\n        uint256 _value\r\n    ) public override whenNotPaused {\r\n        require(!isBlackListed[_from]);\r\n        if (deprecated) {\r\n            return UpgradedStandardToken(upgradedAddress).transferFromByLegacy(msg.sender, _from, _to, _value);\r\n        } else {\r\n            return super.transferFrom(_from, _to, _value);\r\n        }\r\n    }\r\n\r\n    // Forward ERC20 methods to upgraded contract if this one is deprecated\r\n    function balanceOf(address who) public view override returns (uint256) {\r\n        if (deprecated) {\r\n            return UpgradedStandardToken(upgradedAddress).balanceOf(who);\r\n        } else {\r\n            return super.balanceOf(who);\r\n        }\r\n    }\r\n\r\n    // Forward ERC20 methods to upgraded contract if this one is deprecated\r\n    function approve(address _spender, uint256 _value) public override onlyPayloadSize(2 * 32) {\r\n        if (deprecated) {\r\n            return UpgradedStandardToken(upgradedAddress).approveByLegacy(msg.sender, _spender, _value);\r\n        } else {\r\n            return super.approve(_spender, _value);\r\n        }\r\n    }\r\n\r\n    // Forward ERC20 methods to upgraded contract if this one is deprecated\r\n    function allowance(address _owner, address _spender) public view override returns (uint256 remaining) {\r\n        if (deprecated) {\r\n            return StandardToken(upgradedAddress).allowance(_owner, _spender);\r\n        } else {\r\n            return super.allowance(_owner, _spender);\r\n        }\r\n    }\r\n\r\n    // deprecate current contract in favour of a new one\r\n    function deprecate(address _upgradedAddress) public onlyOwner {\r\n        deprecated = true;\r\n        upgradedAddress = _upgradedAddress;\r\n        emit Deprecate(_upgradedAddress);\r\n    }\r\n\r\n    // deprecate current contract if favour of a new one\r\n    function totalSupply() public view override returns (uint256) {\r\n        if (deprecated) {\r\n            return StandardToken(upgradedAddress).totalSupply();\r\n        } else {\r\n            return _totalSupply;\r\n        }\r\n    }\r\n\r\n    // Issue a new amount of tokens\r\n    // these tokens are deposited into the owner address\r\n    //\r\n    // @param _amount Number of tokens to be issued\r\n    function issue(uint256 amount) public onlyOwner {\r\n        require(_totalSupply + amount > _totalSupply);\r\n        require(balances[owner] + amount > balances[owner]);\r\n\r\n        balances[owner] += amount;\r\n        _totalSupply += amount;\r\n        emit Issue(amount);\r\n    }\r\n\r\n    // Redeem tokens.\r\n    // These tokens are withdrawn from the owner address\r\n    // if the balance must be enough to cover the redeem\r\n    // or the call will fail.\r\n    // @param _amount Number of tokens to be issued\r\n    function redeem(uint256 amount) public onlyOwner {\r\n        require(_totalSupply >= amount);\r\n        require(balances[owner] >= amount);\r\n\r\n        _totalSupply -= amount;\r\n        balances[owner] -= amount;\r\n        emit Redeem(amount);\r\n    }\r\n\r\n    function setParams(uint256 newBasisPoints, uint256 newMaxFee) public onlyOwner {\r\n        // Ensure transparency by hardcoding limit beyond which fees can never be added\r\n        require(newBasisPoints < 20);\r\n        require(newMaxFee < 50);\r\n\r\n        basisPointsRate = newBasisPoints;\r\n        maximumFee = newMaxFee.mul(10**decimals);\r\n\r\n        emit Params(basisPointsRate, maximumFee);\r\n    }\r\n\r\n    // Called when new token are issued\r\n    event Issue(uint256 amount);\r\n\r\n    // Called when tokens are redeemed\r\n    event Redeem(uint256 amount);\r\n\r\n    // Called when contract is deprecated\r\n    event Deprecate(address newAddress);\r\n\r\n    // Called if contract ever adds fees\r\n    event Params(uint256 feeBasisPoints, uint256 maxFee);\r\n}\r\n",
  "sourcePath": "D:\\repositories\\mosaico-reference\\smart_contracts\\contracts\\TetherToken.sol",
  "compiler": {
    "name": "solc",
    "version": "0.8.9+commit.e5eed63a.Emscripten.clang"
  },
  "schemaVersion": "3.4.3",
  "updatedAt": "2022-04-01T04:17:56.816Z",
  "devdoc": {
    "kind": "dev",
    "methods": {
      "allowance(address,address)": {
        "details": "Function to check the amount of tokens than an owner allowed to a spender.",
        "params": {
          "_owner": "address The address which owns the funds.",
          "_spender": "address The address which will spend the funds."
        },
        "returns": {
          "remaining": "A uint specifying the amount of tokens still available for the spender."
        }
      },
      "approve(address,uint256)": {
        "details": "Approve the passed address to spend the specified amount of tokens on behalf of msg.sender.",
        "params": {
          "_spender": "The address which will spend the funds.",
          "_value": "The amount of tokens to be spent."
        }
      },
      "pause()": {
        "details": "called by the owner to pause, triggers stopped state"
      },
      "transfer(address,uint256)": {
        "details": "transfer token for a specified address",
        "params": {
          "_to": "The address to transfer to.",
          "_value": "The amount to be transferred."
        }
      },
      "transferFrom(address,address,uint256)": {
        "details": "Transfer tokens from one address to another",
        "params": {
          "_from": "address The address which you want to send tokens from",
          "_to": "address The address which you want to transfer to",
          "_value": "uint the amount of tokens to be transferred"
        }
      },
      "transferOwnership(address)": {
        "details": "Allows the current owner to transfer control of the contract to a newOwner.",
        "params": {
          "newOwner": "The address to transfer ownership to."
        }
      },
      "unpause()": {
        "details": "called by the owner to unpause, returns to normal state"
      }
    },
    "version": 1
  },
  "userdoc": {
    "kind": "user",
    "methods": {},
    "version": 1
  }
}