{
  "contractName": "VestingCrowdsale",
  "abi": [
    {
      "inputs": [
        {
          "internalType": "address payable",
          "name": "wallet",
          "type": "address"
        },
        {
          "internalType": "contract IERC20",
          "name": "token",
          "type": "address"
        },
        {
          "internalType": "string[]",
          "name": "names",
          "type": "string[]"
        },
        {
          "internalType": "uint256[]",
          "name": "rates",
          "type": "uint256[]"
        },
        {
          "internalType": "uint256[]",
          "name": "caps",
          "type": "uint256[]"
        },
        {
          "internalType": "bool[]",
          "name": "privateSales",
          "type": "bool[]"
        }
      ],
      "stateMutability": "nonpayable",
      "type": "constructor"
    },
    {
      "anonymous": false,
      "inputs": [
        {
          "indexed": true,
          "internalType": "address",
          "name": "previousOwner",
          "type": "address"
        },
        {
          "indexed": true,
          "internalType": "address",
          "name": "newOwner",
          "type": "address"
        }
      ],
      "name": "OwnershipTransferred",
      "type": "event"
    },
    {
      "anonymous": false,
      "inputs": [
        {
          "indexed": true,
          "internalType": "address",
          "name": "purchaser",
          "type": "address"
        },
        {
          "indexed": true,
          "internalType": "address",
          "name": "beneficiary",
          "type": "address"
        },
        {
          "indexed": false,
          "internalType": "uint256",
          "name": "value",
          "type": "uint256"
        },
        {
          "indexed": false,
          "internalType": "uint256",
          "name": "amount",
          "type": "uint256"
        }
      ],
      "name": "TokensPurchased",
      "type": "event"
    },
    {
      "stateMutability": "payable",
      "type": "fallback"
    },
    {
      "inputs": [
        {
          "internalType": "address",
          "name": "beneficiary",
          "type": "address"
        }
      ],
      "name": "buyTokens",
      "outputs": [],
      "stateMutability": "payable",
      "type": "function"
    },
    {
      "inputs": [],
      "name": "getRate",
      "outputs": [
        {
          "internalType": "uint256",
          "name": "",
          "type": "uint256"
        }
      ],
      "stateMutability": "view",
      "type": "function"
    },
    {
      "inputs": [],
      "name": "getToken",
      "outputs": [
        {
          "internalType": "contract IERC20",
          "name": "",
          "type": "address"
        }
      ],
      "stateMutability": "view",
      "type": "function"
    },
    {
      "inputs": [],
      "name": "getWallet",
      "outputs": [
        {
          "internalType": "address payable",
          "name": "",
          "type": "address"
        }
      ],
      "stateMutability": "view",
      "type": "function"
    },
    {
      "inputs": [],
      "name": "getWeiRaised",
      "outputs": [
        {
          "internalType": "uint256",
          "name": "",
          "type": "uint256"
        }
      ],
      "stateMutability": "view",
      "type": "function"
    },
    {
      "inputs": [],
      "name": "owner",
      "outputs": [
        {
          "internalType": "address",
          "name": "",
          "type": "address"
        }
      ],
      "stateMutability": "view",
      "type": "function"
    },
    {
      "inputs": [],
      "name": "renounceOwnership",
      "outputs": [],
      "stateMutability": "nonpayable",
      "type": "function"
    },
    {
      "inputs": [
        {
          "internalType": "address",
          "name": "newOwner",
          "type": "address"
        }
      ],
      "name": "transferOwnership",
      "outputs": [],
      "stateMutability": "nonpayable",
      "type": "function"
    },
    {
      "stateMutability": "payable",
      "type": "receive"
    },
    {
      "inputs": [],
      "name": "setNextRate",
      "outputs": [
        {
          "internalType": "bool",
          "name": "success",
          "type": "bool"
        }
      ],
      "stateMutability": "nonpayable",
      "type": "function"
    },
    {
      "inputs": [],
      "name": "stage",
      "outputs": [
        {
          "internalType": "string",
          "name": "",
          "type": "string"
        }
      ],
      "stateMutability": "view",
      "type": "function"
    },
    {
      "inputs": [],
      "name": "cap",
      "outputs": [
        {
          "internalType": "uint256",
          "name": "",
          "type": "uint256"
        }
      ],
      "stateMutability": "view",
      "type": "function"
    }
  ],
  "bytecode": "0x60806040523480156200001157600080fd5b50604051620020bc380380620020bc833981810160405281019062000037919062000b7d565b826000815181106200004e576200004d62000c95565b5b60200260200101518686600160008190555060008311620000a6576040517f08c379a00000000000000000000000000000000000000000000000000000000081526004016200009d9062000d25565b60405180910390fd5b600073ffffffffffffffffffffffffffffffffffffffff168273ffffffffffffffffffffffffffffffffffffffff16141562000119576040517f08c379a0000000000000000000000000000000000000000000000000000000008152600401620001109062000dbd565b60405180910390fd5b600073ffffffffffffffffffffffffffffffffffffffff168173ffffffffffffffffffffffffffffffffffffffff1614156200018c576040517f08c379a0000000000000000000000000000000000000000000000000000000008152600401620001839062000e55565b60405180910390fd5b8260038190555081600260006101000a81548173ffffffffffffffffffffffffffffffffffffffff021916908373ffffffffffffffffffffffffffffffffffffffff16021790555080600160006101000a81548173ffffffffffffffffffffffffffffffffffffffff021916908373ffffffffffffffffffffffffffffffffffffffff160217905550505050620002386200022c620002b060201b60201c565b620002b860201b60201c565b600060068190555080600b9080519060200190620002589291906200037e565b5081600a9080519060200190620002719291906200042b565b5083600890805190602001906200028a9291906200047d565b508260099080519060200190620002a39291906200042b565b5050505050505062000edc565b600033905090565b6000600560009054906101000a900473ffffffffffffffffffffffffffffffffffffffff16905081600560006101000a81548173ffffffffffffffffffffffffffffffffffffffff021916908373ffffffffffffffffffffffffffffffffffffffff1602179055508173ffffffffffffffffffffffffffffffffffffffff168173ffffffffffffffffffffffffffffffffffffffff167f8be0079c531659141344cd1fd0a4f28419497f9722a3daafe3b4186f6b6457e060405160405180910390a35050565b82805482825590600052602060002090601f01602090048101928215620004185791602002820160005b83821115620003e757835183826101000a81548160ff0219169083151502179055509260200192600101602081600001049283019260010302620003a8565b8015620004165782816101000a81549060ff0219169055600101602081600001049283019260010302620003e7565b505b509050620004279190620004e4565b5090565b8280548282559060005260206000209081019282156200046a579160200282015b82811115620004695782518255916020019190600101906200044c565b5b509050620004799190620004e4565b5090565b828054828255906000526020600020908101928215620004d1579160200282015b82811115620004d0578251829080519060200190620004bf92919062000503565b50916020019190600101906200049e565b5b509050620004e0919062000594565b5090565b5b80821115620004ff576000816000905550600101620004e5565b5090565b828054620005119062000ea6565b90600052602060002090601f01602090048101928262000535576000855562000581565b82601f106200055057805160ff191683800117855562000581565b8280016001018555821562000581579182015b828111156200058057825182559160200191906001019062000563565b5b509050620005909190620004e4565b5090565b5b80821115620005b85760008181620005ae9190620005bc565b5060010162000595565b5090565b508054620005ca9062000ea6565b6000825580601f10620005de5750620005ff565b601f016020900490600052602060002090810190620005fe9190620004e4565b5b50565b6000604051905090565b600080fd5b600080fd5b600073ffffffffffffffffffffffffffffffffffffffff82169050919050565b6000620006438262000616565b9050919050565b620006558162000636565b81146200066157600080fd5b50565b60008151905062000675816200064a565b92915050565b6000620006888262000616565b9050919050565b60006200069c826200067b565b9050919050565b620006ae816200068f565b8114620006ba57600080fd5b50565b600081519050620006ce81620006a3565b92915050565b600080fd5b6000601f19601f8301169050919050565b7f4e487b7100000000000000000000000000000000000000000000000000000000600052604160045260246000fd5b6200072482620006d9565b810181811067ffffffffffffffff82111715620007465762000745620006ea565b5b80604052505050565b60006200075b62000602565b905062000769828262000719565b919050565b600067ffffffffffffffff8211156200078c576200078b620006ea565b5b602082029050602081019050919050565b600080fd5b600080fd5b600067ffffffffffffffff821115620007c557620007c4620006ea565b5b620007d082620006d9565b9050602081019050919050565b60005b83811015620007fd578082015181840152602081019050620007e0565b838111156200080d576000848401525b50505050565b60006200082a6200082484620007a7565b6200074f565b905082815260208101848484011115620008495762000848620007a2565b5b62000856848285620007dd565b509392505050565b600082601f830112620008765762000875620006d4565b5b81516200088884826020860162000813565b91505092915050565b6000620008a8620008a2846200076e565b6200074f565b90508083825260208201905060208402830185811115620008ce57620008cd6200079d565b5b835b818110156200091c57805167ffffffffffffffff811115620008f757620008f6620006d4565b5b8086016200090689826200085e565b85526020850194505050602081019050620008d0565b5050509392505050565b600082601f8301126200093e576200093d620006d4565b5b81516200095084826020860162000891565b91505092915050565b600067ffffffffffffffff821115620009775762000976620006ea565b5b602082029050602081019050919050565b6000819050919050565b6200099d8162000988565b8114620009a957600080fd5b50565b600081519050620009bd8162000992565b92915050565b6000620009da620009d48462000959565b6200074f565b9050808382526020820190506020840283018581111562000a0057620009ff6200079d565b5b835b8181101562000a2d578062000a188882620009ac565b84526020840193505060208101905062000a02565b5050509392505050565b600082601f83011262000a4f5762000a4e620006d4565b5b815162000a61848260208601620009c3565b91505092915050565b600067ffffffffffffffff82111562000a885762000a87620006ea565b5b602082029050602081019050919050565b60008115159050919050565b62000ab08162000a99565b811462000abc57600080fd5b50565b60008151905062000ad08162000aa5565b92915050565b600062000aed62000ae78462000a6a565b6200074f565b9050808382526020820190506020840283018581111562000b135762000b126200079d565b5b835b8181101562000b40578062000b2b888262000abf565b84526020840193505060208101905062000b15565b5050509392505050565b600082601f83011262000b625762000b61620006d4565b5b815162000b7484826020860162000ad6565b91505092915050565b60008060008060008060c0878903121562000b9d5762000b9c6200060c565b5b600062000bad89828a0162000664565b965050602062000bc089828a01620006bd565b955050604087015167ffffffffffffffff81111562000be45762000be362000611565b5b62000bf289828a0162000926565b945050606087015167ffffffffffffffff81111562000c165762000c1562000611565b5b62000c2489828a0162000a37565b935050608087015167ffffffffffffffff81111562000c485762000c4762000611565b5b62000c5689828a0162000a37565b92505060a087015167ffffffffffffffff81111562000c7a5762000c7962000611565b5b62000c8889828a0162000b4a565b9150509295509295509295565b7f4e487b7100000000000000000000000000000000000000000000000000000000600052603260045260246000fd5b600082825260208201905092915050565b7f43726f776473616c653a20726174652069732030000000000000000000000000600082015250565b600062000d0d60148362000cc4565b915062000d1a8262000cd5565b602082019050919050565b6000602082019050818103600083015262000d408162000cfe565b9050919050565b7f43726f776473616c653a2077616c6c657420697320746865207a65726f20616460008201527f6472657373000000000000000000000000000000000000000000000000000000602082015250565b600062000da560258362000cc4565b915062000db28262000d47565b604082019050919050565b6000602082019050818103600083015262000dd88162000d96565b9050919050565b7f43726f776473616c653a20746f6b656e20697320746865207a65726f2061646460008201527f7265737300000000000000000000000000000000000000000000000000000000602082015250565b600062000e3d60248362000cc4565b915062000e4a8262000ddf565b604082019050919050565b6000602082019050818103600083015262000e708162000e2e565b9050919050565b7f4e487b7100000000000000000000000000000000000000000000000000000000600052602260045260246000fd5b6000600282049050600182168062000ebf57607f821691505b6020821081141562000ed65762000ed562000e77565b5b50919050565b6111d08062000eec6000396000f3fe6080604052600436106100a05760003560e01c8063715018a611610064578063715018a6146101a05780638da5cb5b146101b7578063c040e6b8146101e2578063cfdb5f591461020d578063ec8ac4d814610238578063f2fde38b14610254576100b7565b806313299604146100c957806321df0da7146100f4578063355274ea1461011f57806340582f131461014a578063679aefce14610175576100b7565b366100b7576100b56100b061027d565b610285565b005b6100c76100c261027d565b610285565b005b3480156100d557600080fd5b506100de6103ab565b6040516100eb9190610ac4565b60405180910390f35b34801561010057600080fd5b506101096103d5565b6040516101169190610b3e565b60405180910390f35b34801561012b57600080fd5b506101346103ff565b6040516101419190610b72565b60405180910390f35b34801561015657600080fd5b5061015f610427565b60405161016c9190610b72565b60405180910390f35b34801561018157600080fd5b5061018a610431565b6040516101979190610b72565b60405180910390f35b3480156101ac57600080fd5b506101b561043b565b005b3480156101c357600080fd5b506101cc6104c3565b6040516101d99190610bae565b60405180910390f35b3480156101ee57600080fd5b506101f76104ed565b6040516102049190610c62565b60405180910390f35b34801561021957600080fd5b5061022261059d565b60405161022f9190610c9f565b60405180910390f35b610252600480360381019061024d9190610ceb565b610285565b005b34801561026057600080fd5b5061027b60048036038101906102769190610ceb565b610684565b005b600033905090565b600260005414156102cb576040517f08c379a00000000000000000000000000000000000000000000000000000000081526004016102c290610d64565b60405180910390fd5b600260008190555060003490506102e2828261077c565b60006102ed82610834565b90506103048260045461085290919063ffffffff16565b6004819055506103148382610868565b8273ffffffffffffffffffffffffffffffffffffffff1661033361027d565b73ffffffffffffffffffffffffffffffffffffffff167f6faf93231a456e552dbc9961f58d9713ee4f2e69d15f1975b050ef0911053a7b848460405161037a929190610d84565b60405180910390a361038c8383610876565b61039461087a565b61039e83836108e5565b5050600160008190555050565b6000600260009054906101000a900473ffffffffffffffffffffffffffffffffffffffff16905090565b6000600160009054906101000a900473ffffffffffffffffffffffffffffffffffffffff16905090565b6000600a6006548154811061041757610416610dad565b5b9060005260206000200154905090565b6000600454905090565b6000600354905090565b61044361027d565b73ffffffffffffffffffffffffffffffffffffffff166104616104c3565b73ffffffffffffffffffffffffffffffffffffffff16146104b7576040517f08c379a00000000000000000000000000000000000000000000000000000000081526004016104ae90610e28565b60405180910390fd5b6104c160006108e9565b565b6000600560009054906101000a900473ffffffffffffffffffffffffffffffffffffffff16905090565b606060086006548154811061050557610504610dad565b5b90600052602060002001805461051a90610e77565b80601f016020809104026020016040519081016040528092919081815260200182805461054690610e77565b80156105935780601f1061056857610100808354040283529160200191610593565b820191906000526020600020905b81548152906001019060200180831161057657829003601f168201915b5050505050905090565b60006105a761027d565b73ffffffffffffffffffffffffffffffffffffffff166105c56104c3565b73ffffffffffffffffffffffffffffffffffffffff161461061b576040517f08c379a000000000000000000000000000000000000000000000000000000000815260040161061290610e28565b60405180910390fd5b60098054905060016006546106309190610ed8565b1061063a57600080fd5b60016006600082825461064d9190610ed8565b9250508190555061067d60096006548154811061066d5761066c610dad565b5b90600052602060002001546109af565b6001905090565b61068c61027d565b73ffffffffffffffffffffffffffffffffffffffff166106aa6104c3565b73ffffffffffffffffffffffffffffffffffffffff1614610700576040517f08c379a00000000000000000000000000000000000000000000000000000000081526004016106f790610e28565b60405180910390fd5b600073ffffffffffffffffffffffffffffffffffffffff168173ffffffffffffffffffffffffffffffffffffffff161415610770576040517f08c379a000000000000000000000000000000000000000000000000000000000815260040161076790610fa0565b60405180910390fd5b610779816108e9565b50565b600073ffffffffffffffffffffffffffffffffffffffff168273ffffffffffffffffffffffffffffffffffffffff1614156107ec576040517f08c379a00000000000000000000000000000000000000000000000000000000081526004016107e390611032565b60405180910390fd5b6000811415610830576040517f08c379a00000000000000000000000000000000000000000000000000000000081526004016108279061109e565b60405180910390fd5b5050565b600061084b600354836109b990919063ffffffff16565b9050919050565b600081836108609190610ed8565b905092915050565b61087282826109cf565b5050565b5050565b600260009054906101000a900473ffffffffffffffffffffffffffffffffffffffff1673ffffffffffffffffffffffffffffffffffffffff166108fc349081150290604051600060405180830381858888f193505050501580156108e2573d6000803e3d6000fd5b50565b5050565b6000600560009054906101000a900473ffffffffffffffffffffffffffffffffffffffff16905081600560006101000a81548173ffffffffffffffffffffffffffffffffffffffff021916908373ffffffffffffffffffffffffffffffffffffffff1602179055508173ffffffffffffffffffffffffffffffffffffffff168173ffffffffffffffffffffffffffffffffffffffff167f8be0079c531659141344cd1fd0a4f28419497f9722a3daafe3b4186f6b6457e060405160405180910390a35050565b8060038190555050565b600081836109c791906110be565b905092915050565b600160009054906101000a900473ffffffffffffffffffffffffffffffffffffffff1673ffffffffffffffffffffffffffffffffffffffff1663a9059cbb83836040518363ffffffff1660e01b8152600401610a2c929190611118565b602060405180830381600087803b158015610a4657600080fd5b505af1158015610a5a573d6000803e3d6000fd5b505050506040513d601f19601f82011682018060405250810190610a7e919061116d565b505050565b600073ffffffffffffffffffffffffffffffffffffffff82169050919050565b6000610aae82610a83565b9050919050565b610abe81610aa3565b82525050565b6000602082019050610ad96000830184610ab5565b92915050565b6000819050919050565b6000610b04610aff610afa84610a83565b610adf565b610a83565b9050919050565b6000610b1682610ae9565b9050919050565b6000610b2882610b0b565b9050919050565b610b3881610b1d565b82525050565b6000602082019050610b536000830184610b2f565b92915050565b6000819050919050565b610b6c81610b59565b82525050565b6000602082019050610b876000830184610b63565b92915050565b6000610b9882610a83565b9050919050565b610ba881610b8d565b82525050565b6000602082019050610bc36000830184610b9f565b92915050565b600081519050919050565b600082825260208201905092915050565b60005b83811015610c03578082015181840152602081019050610be8565b83811115610c12576000848401525b50505050565b6000601f19601f8301169050919050565b6000610c3482610bc9565b610c3e8185610bd4565b9350610c4e818560208601610be5565b610c5781610c18565b840191505092915050565b60006020820190508181036000830152610c7c8184610c29565b905092915050565b60008115159050919050565b610c9981610c84565b82525050565b6000602082019050610cb46000830184610c90565b92915050565b600080fd5b610cc881610b8d565b8114610cd357600080fd5b50565b600081359050610ce581610cbf565b92915050565b600060208284031215610d0157610d00610cba565b5b6000610d0f84828501610cd6565b91505092915050565b7f5265656e7472616e637947756172643a207265656e7472616e742063616c6c00600082015250565b6000610d4e601f83610bd4565b9150610d5982610d18565b602082019050919050565b60006020820190508181036000830152610d7d81610d41565b9050919050565b6000604082019050610d996000830185610b63565b610da66020830184610b63565b9392505050565b7f4e487b7100000000000000000000000000000000000000000000000000000000600052603260045260246000fd5b7f4f776e61626c653a2063616c6c6572206973206e6f7420746865206f776e6572600082015250565b6000610e12602083610bd4565b9150610e1d82610ddc565b602082019050919050565b60006020820190508181036000830152610e4181610e05565b9050919050565b7f4e487b7100000000000000000000000000000000000000000000000000000000600052602260045260246000fd5b60006002820490506001821680610e8f57607f821691505b60208210811415610ea357610ea2610e48565b5b50919050565b7f4e487b7100000000000000000000000000000000000000000000000000000000600052601160045260246000fd5b6000610ee382610b59565b9150610eee83610b59565b9250827fffffffffffffffffffffffffffffffffffffffffffffffffffffffffffffffff03821115610f2357610f22610ea9565b5b828201905092915050565b7f4f776e61626c653a206e6577206f776e657220697320746865207a65726f206160008201527f6464726573730000000000000000000000000000000000000000000000000000602082015250565b6000610f8a602683610bd4565b9150610f9582610f2e565b604082019050919050565b60006020820190508181036000830152610fb981610f7d565b9050919050565b7f43726f776473616c653a2062656e656669636961727920697320746865207a6560008201527f726f206164647265737300000000000000000000000000000000000000000000602082015250565b600061101c602a83610bd4565b915061102782610fc0565b604082019050919050565b6000602082019050818103600083015261104b8161100f565b9050919050565b7f43726f776473616c653a20776569416d6f756e74206973203000000000000000600082015250565b6000611088601983610bd4565b915061109382611052565b602082019050919050565b600060208201905081810360008301526110b78161107b565b9050919050565b60006110c982610b59565b91506110d483610b59565b9250817fffffffffffffffffffffffffffffffffffffffffffffffffffffffffffffffff048311821515161561110d5761110c610ea9565b5b828202905092915050565b600060408201905061112d6000830185610b9f565b61113a6020830184610b63565b9392505050565b61114a81610c84565b811461115557600080fd5b50565b60008151905061116781611141565b92915050565b60006020828403121561118357611182610cba565b5b600061119184828501611158565b9150509291505056fea2646970667358221220a6dbfbf506d1c444beccdc2e12ff946204fd723e220d1dc301e8007a951eba4364736f6c63430008090033",
  "immutableReferences": {},
  "source": "// SPDX-License-Identifier: MIT\r\n// OpenZeppelin Contracts v4.3.2 (utils/DefaultCrowdsale.sol)\r\npragma solidity ^0.8.9;\r\nimport \"./CrowdsaleBase.sol\";\r\nimport \"../node_modules/@openzeppelin/contracts/access/Ownable.sol\";\r\n\r\n/**\r\n * @title DefaultCrowdsale\r\n * @dev This is an example of a fully fledged crowdsale.\r\n */\r\ncontract VestingCrowdsale is CrowdsaleBase, Ownable {\r\n    uint internal _currentRateIndex;\r\n    string internal _currentStage;\r\n    string[] internal _names;\r\n    uint256[] internal _rates;\r\n    uint256[] internal _caps;\r\n    bool[] internal _privateSales;\r\n    \r\n\r\n    constructor(\r\n        address payable wallet,\r\n        IERC20 token,\r\n        string[] memory names, \r\n        uint256[] memory rates,\r\n        uint256[] memory caps, \r\n        bool[] memory privateSales\r\n    ) CrowdsaleBase(rates[0], wallet, token) {\r\n        _currentRateIndex = 0;\r\n        _privateSales = privateSales;\r\n        _caps = caps;\r\n        _names = names;\r\n        _rates = rates;\r\n    }\r\n\r\n     /**\r\n    * @dev Change funding to next rate value\r\n    */\r\n    function setNextRate() public onlyOwner returns (bool success) {\r\n        require(_currentRateIndex + 1 < _rates.length);\r\n        _currentRateIndex += 1;\r\n        super._updateRate(_rates[_currentRateIndex]);\r\n        return true;\r\n    }\r\n\r\n    function stage() public view returns (string memory) {\r\n        return _names[_currentRateIndex];\r\n    }\r\n\r\n    function cap() public view returns (uint256) {\r\n        return _caps[_currentRateIndex];\r\n    }\r\n\r\n}",
  "sourcePath": "D:\\repositories\\mosaico-reference\\smart_contracts\\contracts\\VestingCrowdsale.sol",
  "compiler": {
    "name": "solc",
    "version": "0.8.9+commit.e5eed63a.Emscripten.clang"
  },
  "schemaVersion": "3.4.3",
  "updatedAt": "2021-11-15T21:12:27.559Z",
  "devdoc": {
    "details": "This is an example of a fully fledged crowdsale.",
    "kind": "dev",
    "methods": {
      "buyTokens(address)": {
        "details": "low level token purchase ***DO NOT OVERRIDE*** This function has a non-reentrancy guard, so it shouldn't be called by another `nonReentrant` function.",
        "params": {
          "beneficiary": "Recipient of the token purchase"
        }
      },
      "getRate()": {
        "returns": {
          "_0": "the number of token units a buyer gets per wei."
        }
      },
      "getToken()": {
        "returns": {
          "_0": "the token being sold."
        }
      },
      "getWallet()": {
        "returns": {
          "_0": "the address where funds are collected."
        }
      },
      "getWeiRaised()": {
        "returns": {
          "_0": "the amount of wei raised."
        }
      },
      "owner()": {
        "details": "Returns the address of the current owner."
      },
      "renounceOwnership()": {
        "details": "Leaves the contract without owner. It will not be possible to call `onlyOwner` functions anymore. Can only be called by the current owner. NOTE: Renouncing ownership will leave the contract without an owner, thereby removing any functionality that is only available to the owner."
      },
      "setNextRate()": {
        "details": "Change funding to next rate value"
      },
      "transferOwnership(address)": {
        "details": "Transfers ownership of the contract to a new account (`newOwner`). Can only be called by the current owner."
      }
    },
    "title": "DefaultCrowdsale",
    "version": 1
  },
  "userdoc": {
    "events": {
      "TokensPurchased(address,address,uint256,uint256)": {
        "notice": "Event for token purchase logging"
      }
    },
    "kind": "user",
    "methods": {},
    "version": 1
  }
}