{
  "contractName": "VestingCrowdsalev1",
  "abi": [
    {
      "inputs": [
        {
          "internalType": "address payable",
          "name": "wallet",
          "type": "address"
        },
        {
          "internalType": "contract IERC20",
          "name": "token",
          "type": "address"
        },
        {
          "internalType": "string[]",
          "name": "names",
          "type": "string[]"
        },
        {
          "internalType": "uint256[]",
          "name": "rates",
          "type": "uint256[]"
        },
        {
          "internalType": "uint256[]",
          "name": "caps",
          "type": "uint256[]"
        },
        {
          "internalType": "bool[]",
          "name": "privateSales",
          "type": "bool[]"
        },
        {
          "internalType": "address[]",
          "name": "whitelist",
          "type": "address[]"
        },
        {
          "internalType": "uint256[]",
          "name": "minIndividualCaps",
          "type": "uint256[]"
        },
        {
          "internalType": "uint256[]",
          "name": "maxIndividualCaps",
          "type": "uint256[]"
        },
        {
          "internalType": "address[]",
          "name": "fundWallets",
          "type": "address[]"
        },
        {
          "internalType": "uint256[]",
          "name": "releaseTimes",
          "type": "uint256[]"
        }
      ],
      "stateMutability": "nonpayable",
      "type": "constructor"
    },
    {
      "anonymous": false,
      "inputs": [
        {
          "indexed": true,
          "internalType": "address",
          "name": "previousOwner",
          "type": "address"
        },
        {
          "indexed": true,
          "internalType": "address",
          "name": "newOwner",
          "type": "address"
        }
      ],
      "name": "OwnershipTransferred",
      "type": "event"
    },
    {
      "anonymous": false,
      "inputs": [
        {
          "indexed": false,
          "internalType": "address",
          "name": "account",
          "type": "address"
        }
      ],
      "name": "Paused",
      "type": "event"
    },
    {
      "anonymous": false,
      "inputs": [
        {
          "indexed": true,
          "internalType": "address",
          "name": "purchaser",
          "type": "address"
        },
        {
          "indexed": true,
          "internalType": "address",
          "name": "beneficiary",
          "type": "address"
        },
        {
          "indexed": false,
          "internalType": "uint256",
          "name": "value",
          "type": "uint256"
        },
        {
          "indexed": false,
          "internalType": "uint256",
          "name": "amount",
          "type": "uint256"
        }
      ],
      "name": "TokensPurchased",
      "type": "event"
    },
    {
      "anonymous": false,
      "inputs": [
        {
          "indexed": false,
          "internalType": "address",
          "name": "account",
          "type": "address"
        }
      ],
      "name": "Unpaused",
      "type": "event"
    },
    {
      "anonymous": false,
      "inputs": [
        {
          "indexed": true,
          "internalType": "address",
          "name": "account",
          "type": "address"
        }
      ],
      "name": "WhitelistAdminAdded",
      "type": "event"
    },
    {
      "anonymous": false,
      "inputs": [
        {
          "indexed": true,
          "internalType": "address",
          "name": "account",
          "type": "address"
        }
      ],
      "name": "WhitelistAdminRemoved",
      "type": "event"
    },
    {
      "anonymous": false,
      "inputs": [
        {
          "indexed": true,
          "internalType": "address",
          "name": "account",
          "type": "address"
        }
      ],
      "name": "WhitelistedAdded",
      "type": "event"
    },
    {
      "anonymous": false,
      "inputs": [
        {
          "indexed": true,
          "internalType": "address",
          "name": "account",
          "type": "address"
        }
      ],
      "name": "WhitelistedRemoved",
      "type": "event"
    },
    {
      "stateMutability": "payable",
      "type": "fallback"
    },
    {
      "inputs": [
        {
          "internalType": "address",
          "name": "account",
          "type": "address"
        }
      ],
      "name": "addWhitelistAdmin",
      "outputs": [],
      "stateMutability": "nonpayable",
      "type": "function"
    },
    {
      "inputs": [
        {
          "internalType": "address[]",
          "name": "accounts",
          "type": "address[]"
        }
      ],
      "name": "addWhitelisted",
      "outputs": [],
      "stateMutability": "nonpayable",
      "type": "function"
    },
    {
      "inputs": [
        {
          "internalType": "address",
          "name": "beneficiary",
          "type": "address"
        }
      ],
      "name": "buyTokens",
      "outputs": [],
      "stateMutability": "payable",
      "type": "function"
    },
    {
      "inputs": [],
      "name": "cap",
      "outputs": [
        {
          "internalType": "uint256",
          "name": "",
          "type": "uint256"
        }
      ],
      "stateMutability": "view",
      "type": "function"
    },
    {
      "inputs": [],
      "name": "capReached",
      "outputs": [
        {
          "internalType": "bool",
          "name": "",
          "type": "bool"
        }
      ],
      "stateMutability": "view",
      "type": "function"
    },
    {
      "inputs": [
        {
          "internalType": "address",
          "name": "",
          "type": "address"
        }
      ],
      "name": "contributions",
      "outputs": [
        {
          "internalType": "uint256",
          "name": "",
          "type": "uint256"
        }
      ],
      "stateMutability": "view",
      "type": "function"
    },
    {
      "inputs": [],
      "name": "getRate",
      "outputs": [
        {
          "internalType": "uint256",
          "name": "",
          "type": "uint256"
        }
      ],
      "stateMutability": "view",
      "type": "function"
    },
    {
      "inputs": [],
      "name": "getToken",
      "outputs": [
        {
          "internalType": "contract IERC20",
          "name": "",
          "type": "address"
        }
      ],
      "stateMutability": "view",
      "type": "function"
    },
    {
      "inputs": [],
      "name": "getWallet",
      "outputs": [
        {
          "internalType": "address payable",
          "name": "",
          "type": "address"
        }
      ],
      "stateMutability": "view",
      "type": "function"
    },
    {
      "inputs": [],
      "name": "getWeiRaised",
      "outputs": [
        {
          "internalType": "uint256",
          "name": "",
          "type": "uint256"
        }
      ],
      "stateMutability": "view",
      "type": "function"
    },
    {
      "inputs": [
        {
          "internalType": "address",
          "name": "account",
          "type": "address"
        }
      ],
      "name": "isWhitelistAdmin",
      "outputs": [
        {
          "internalType": "bool",
          "name": "",
          "type": "bool"
        }
      ],
      "stateMutability": "view",
      "type": "function"
    },
    {
      "inputs": [
        {
          "internalType": "address",
          "name": "account",
          "type": "address"
        }
      ],
      "name": "isWhitelisted",
      "outputs": [
        {
          "internalType": "bool",
          "name": "",
          "type": "bool"
        }
      ],
      "stateMutability": "view",
      "type": "function"
    },
    {
      "inputs": [],
      "name": "owner",
      "outputs": [
        {
          "internalType": "address",
          "name": "",
          "type": "address"
        }
      ],
      "stateMutability": "view",
      "type": "function"
    },
    {
      "inputs": [],
      "name": "pause",
      "outputs": [],
      "stateMutability": "nonpayable",
      "type": "function"
    },
    {
      "inputs": [],
      "name": "paused",
      "outputs": [
        {
          "internalType": "bool",
          "name": "",
          "type": "bool"
        }
      ],
      "stateMutability": "view",
      "type": "function"
    },
    {
      "inputs": [],
      "name": "privateSaleTimeLock",
      "outputs": [
        {
          "internalType": "address",
          "name": "",
          "type": "address"
        }
      ],
      "stateMutability": "view",
      "type": "function"
    },
    {
      "inputs": [
        {
          "internalType": "address",
          "name": "account",
          "type": "address"
        }
      ],
      "name": "removeWhitelisted",
      "outputs": [],
      "stateMutability": "nonpayable",
      "type": "function"
    },
    {
      "inputs": [],
      "name": "renounceOwnership",
      "outputs": [],
      "stateMutability": "nonpayable",
      "type": "function"
    },
    {
      "inputs": [],
      "name": "renounceWhitelistAdmin",
      "outputs": [],
      "stateMutability": "nonpayable",
      "type": "function"
    },
    {
      "inputs": [],
      "name": "renounceWhitelisted",
      "outputs": [],
      "stateMutability": "nonpayable",
      "type": "function"
    },
    {
      "inputs": [],
      "name": "setNextStage",
      "outputs": [],
      "stateMutability": "nonpayable",
      "type": "function"
    },
    {
      "inputs": [],
      "name": "stage",
      "outputs": [
        {
          "internalType": "string",
          "name": "",
          "type": "string"
        }
      ],
      "stateMutability": "view",
      "type": "function"
    },
    {
      "inputs": [
        {
          "internalType": "address",
          "name": "newOwner",
          "type": "address"
        }
      ],
      "name": "transferOwnership",
      "outputs": [],
      "stateMutability": "nonpayable",
      "type": "function"
    },
    {
      "stateMutability": "payable",
      "type": "receive"
    }
  ],
  "bytecode": "0x60806040523480156200001157600080fd5b5060405162003c8338038062003c83833981810160405281019062000037919062001112565b8a8a8a8a8a8a8a8a8a8560008151811062000057576200005662001336565b5b60200260200101518989600160008190555060008311620000af576040517f08c379a0000000000000000000000000000000000000000000000000000000008152600401620000a690620013c6565b60405180910390fd5b600073ffffffffffffffffffffffffffffffffffffffff168273ffffffffffffffffffffffffffffffffffffffff16141562000122576040517f08c379a000000000000000000000000000000000000000000000000000000000815260040162000119906200145e565b60405180910390fd5b600073ffffffffffffffffffffffffffffffffffffffff168173ffffffffffffffffffffffffffffffffffffffff16141562000195576040517f08c379a00000000000000000000000000000000000000000000000000000000081526004016200018c90620014f6565b60405180910390fd5b8260038190555081600260006101000a81548173ffffffffffffffffffffffffffffffffffffffff021916908373ffffffffffffffffffffffffffffffffffffffff16021790555080600160006101000a81548173ffffffffffffffffffffffffffffffffffffffff021916908373ffffffffffffffffffffffffffffffffffffffff16021790555050505062000241620002356200037760201b60201c565b6200037f60201b60201c565b62000261620002556200037760201b60201c565b620003e060201b60201c565b6000600760146101000a81548160ff021916908315150217905550600060088190555083600d90805190602001906200029c9291906200077d565b5084600c9080519060200190620002b59291906200082a565b5086600a9080519060200190620002ce9291906200087c565b5085600b9080519060200190620002e79291906200082a565b5081600e9080519060200190620003009291906200082a565b5080600f9080519060200190620003199291906200082a565b506200032b83620004a660201b60201c565b50505050505050505081601190805190602001906200034c929190620008e3565b508060129080519060200190620003659291906200082a565b5050505050505050505050506200179c565b600033905090565b6200039a8160056200051c60201b62000ce11790919060201c565b8073ffffffffffffffffffffffffffffffffffffffff167f22380c05984257a1cb900161c713dd71d39e74820f1aea43bd3f1bdd2096129960405160405180910390a250565b6000600760009054906101000a900473ffffffffffffffffffffffffffffffffffffffff16905081600760006101000a81548173ffffffffffffffffffffffffffffffffffffffff021916908373ffffffffffffffffffffffffffffffffffffffff1602179055508173ffffffffffffffffffffffffffffffffffffffff168173ffffffffffffffffffffffffffffffffffffffff167f8be0079c531659141344cd1fd0a4f28419497f9722a3daafe3b4186f6b6457e060405160405180910390a35050565b620004c6620004ba6200037760201b60201c565b620005cf60201b60201c565b62000508576040517f08c379a0000000000000000000000000000000000000000000000000000000008152600401620004ff906200158e565b60405180910390fd5b6200051981620005f360201b60201c565b50565b6200052e8282620006b260201b60201c565b1562000571576040517f08c379a0000000000000000000000000000000000000000000000000000000008152600401620005689062001600565b60405180910390fd5b60018260000160008373ffffffffffffffffffffffffffffffffffffffff1673ffffffffffffffffffffffffffffffffffffffff16815260200190815260200160002060006101000a81548160ff0219169083151502179055505050565b6000620005ec826005620006b260201b62000d891790919060201c565b9050919050565b60005b8151811015620006ae57620006388282815181106200061a576200061962001336565b5b602002602001015160066200051c60201b62000ce11790919060201c565b8181815181106200064e576200064d62001336565b5b602002602001015173ffffffffffffffffffffffffffffffffffffffff167fee1504a83b6d4a361f4c1dc78ab59bfa30d6a3b6612c403e86bb01ef2984295f60405160405180910390a28080620006a59062001651565b915050620005f6565b5050565b60008073ffffffffffffffffffffffffffffffffffffffff168273ffffffffffffffffffffffffffffffffffffffff16141562000726576040517f08c379a00000000000000000000000000000000000000000000000000000000081526004016200071d9062001715565b60405180910390fd5b8260000160008373ffffffffffffffffffffffffffffffffffffffff1673ffffffffffffffffffffffffffffffffffffffff16815260200190815260200160002060009054906101000a900460ff16905092915050565b82805482825590600052602060002090601f01602090048101928215620008175791602002820160005b83821115620007e657835183826101000a81548160ff0219169083151502179055509260200192600101602081600001049283019260010302620007a7565b8015620008155782816101000a81549060ff0219169055600101602081600001049283019260010302620007e6565b505b50905062000826919062000972565b5090565b82805482825590600052602060002090810192821562000869579160200282015b82811115620008685782518255916020019190600101906200084b565b5b50905062000878919062000972565b5090565b828054828255906000526020600020908101928215620008d0579160200282015b82811115620008cf578251829080519060200190620008be92919062000991565b50916020019190600101906200089d565b5b509050620008df919062000a22565b5090565b8280548282559060005260206000209081019282156200095f579160200282015b828111156200095e5782518260006101000a81548173ffffffffffffffffffffffffffffffffffffffff021916908373ffffffffffffffffffffffffffffffffffffffff1602179055509160200191906001019062000904565b5b5090506200096e919062000972565b5090565b5b808211156200098d57600081600090555060010162000973565b5090565b8280546200099f9062001766565b90600052602060002090601f016020900481019282620009c3576000855562000a0f565b82601f10620009de57805160ff191683800117855562000a0f565b8280016001018555821562000a0f579182015b8281111562000a0e578251825591602001919060010190620009f1565b5b50905062000a1e919062000972565b5090565b5b8082111562000a46576000818162000a3c919062000a4a565b5060010162000a23565b5090565b50805462000a589062001766565b6000825580601f1062000a6c575062000a8d565b601f01602090049060005260206000209081019062000a8c919062000972565b5b50565b6000604051905090565b600080fd5b600080fd5b600073ffffffffffffffffffffffffffffffffffffffff82169050919050565b600062000ad18262000aa4565b9050919050565b62000ae38162000ac4565b811462000aef57600080fd5b50565b60008151905062000b038162000ad8565b92915050565b600062000b168262000aa4565b9050919050565b600062000b2a8262000b09565b9050919050565b62000b3c8162000b1d565b811462000b4857600080fd5b50565b60008151905062000b5c8162000b31565b92915050565b600080fd5b6000601f19601f8301169050919050565b7f4e487b7100000000000000000000000000000000000000000000000000000000600052604160045260246000fd5b62000bb28262000b67565b810181811067ffffffffffffffff8211171562000bd45762000bd362000b78565b5b80604052505050565b600062000be962000a90565b905062000bf7828262000ba7565b919050565b600067ffffffffffffffff82111562000c1a5762000c1962000b78565b5b602082029050602081019050919050565b600080fd5b600080fd5b600067ffffffffffffffff82111562000c535762000c5262000b78565b5b62000c5e8262000b67565b9050602081019050919050565b60005b8381101562000c8b57808201518184015260208101905062000c6e565b8381111562000c9b576000848401525b50505050565b600062000cb862000cb28462000c35565b62000bdd565b90508281526020810184848401111562000cd75762000cd662000c30565b5b62000ce484828562000c6b565b509392505050565b600082601f83011262000d045762000d0362000b62565b5b815162000d1684826020860162000ca1565b91505092915050565b600062000d3662000d308462000bfc565b62000bdd565b9050808382526020820190506020840283018581111562000d5c5762000d5b62000c2b565b5b835b8181101562000daa57805167ffffffffffffffff81111562000d855762000d8462000b62565b5b80860162000d94898262000cec565b8552602085019450505060208101905062000d5e565b5050509392505050565b600082601f83011262000dcc5762000dcb62000b62565b5b815162000dde84826020860162000d1f565b91505092915050565b600067ffffffffffffffff82111562000e055762000e0462000b78565b5b602082029050602081019050919050565b6000819050919050565b62000e2b8162000e16565b811462000e3757600080fd5b50565b60008151905062000e4b8162000e20565b92915050565b600062000e6862000e628462000de7565b62000bdd565b9050808382526020820190506020840283018581111562000e8e5762000e8d62000c2b565b5b835b8181101562000ebb578062000ea6888262000e3a565b84526020840193505060208101905062000e90565b5050509392505050565b600082601f83011262000edd5762000edc62000b62565b5b815162000eef84826020860162000e51565b91505092915050565b600067ffffffffffffffff82111562000f165762000f1562000b78565b5b602082029050602081019050919050565b60008115159050919050565b62000f3e8162000f27565b811462000f4a57600080fd5b50565b60008151905062000f5e8162000f33565b92915050565b600062000f7b62000f758462000ef8565b62000bdd565b9050808382526020820190506020840283018581111562000fa15762000fa062000c2b565b5b835b8181101562000fce578062000fb9888262000f4d565b84526020840193505060208101905062000fa3565b5050509392505050565b600082601f83011262000ff05762000fef62000b62565b5b81516200100284826020860162000f64565b91505092915050565b600067ffffffffffffffff82111562001029576200102862000b78565b5b602082029050602081019050919050565b620010458162000b09565b81146200105157600080fd5b50565b60008151905062001065816200103a565b92915050565b6000620010826200107c846200100b565b62000bdd565b90508083825260208201905060208402830185811115620010a857620010a762000c2b565b5b835b81811015620010d55780620010c0888262001054565b845260208401935050602081019050620010aa565b5050509392505050565b600082601f830112620010f757620010f662000b62565b5b8151620011098482602086016200106b565b91505092915050565b60008060008060008060008060008060006101608c8e0312156200113b576200113a62000a9a565b5b60006200114b8e828f0162000af2565b9b505060206200115e8e828f0162000b4b565b9a505060408c015167ffffffffffffffff81111562001182576200118162000a9f565b5b620011908e828f0162000db4565b99505060608c015167ffffffffffffffff811115620011b457620011b362000a9f565b5b620011c28e828f0162000ec5565b98505060808c015167ffffffffffffffff811115620011e657620011e562000a9f565b5b620011f48e828f0162000ec5565b97505060a08c015167ffffffffffffffff81111562001218576200121762000a9f565b5b620012268e828f0162000fd8565b96505060c08c015167ffffffffffffffff8111156200124a576200124962000a9f565b5b620012588e828f01620010df565b95505060e08c015167ffffffffffffffff8111156200127c576200127b62000a9f565b5b6200128a8e828f0162000ec5565b9450506101008c015167ffffffffffffffff811115620012af57620012ae62000a9f565b5b620012bd8e828f0162000ec5565b9350506101208c015167ffffffffffffffff811115620012e257620012e162000a9f565b5b620012f08e828f01620010df565b9250506101408c015167ffffffffffffffff81111562001315576200131462000a9f565b5b620013238e828f0162000ec5565b9150509295989b509295989b9093969950565b7f4e487b7100000000000000000000000000000000000000000000000000000000600052603260045260246000fd5b600082825260208201905092915050565b7f43726f776473616c653a20726174652069732030000000000000000000000000600082015250565b6000620013ae60148362001365565b9150620013bb8262001376565b602082019050919050565b60006020820190508181036000830152620013e1816200139f565b9050919050565b7f43726f776473616c653a2077616c6c657420697320746865207a65726f20616460008201527f6472657373000000000000000000000000000000000000000000000000000000602082015250565b60006200144660258362001365565b91506200145382620013e8565b604082019050919050565b60006020820190508181036000830152620014798162001437565b9050919050565b7f43726f776473616c653a20746f6b656e20697320746865207a65726f2061646460008201527f7265737300000000000000000000000000000000000000000000000000000000602082015250565b6000620014de60248362001365565b9150620014eb8262001480565b604082019050919050565b600060208201905081810360008301526200151181620014cf565b9050919050565b7f57686974656c69737441646d696e526f6c653a2063616c6c657220646f65732060008201527f6e6f742068617665207468652057686974656c69737441646d696e20726f6c65602082015250565b60006200157660408362001365565b9150620015838262001518565b604082019050919050565b60006020820190508181036000830152620015a98162001567565b9050919050565b7f526f6c65733a206163636f756e7420616c72656164792068617320726f6c6500600082015250565b6000620015e8601f8362001365565b9150620015f582620015b0565b602082019050919050565b600060208201905081810360008301526200161b81620015d9565b9050919050565b7f4e487b7100000000000000000000000000000000000000000000000000000000600052601160045260246000fd5b60006200165e8262000e16565b91507fffffffffffffffffffffffffffffffffffffffffffffffffffffffffffffffff82141562001694576200169362001622565b5b600182019050919050565b7f526f6c65733a206163636f756e7420697320746865207a65726f20616464726560008201527f7373000000000000000000000000000000000000000000000000000000000000602082015250565b6000620016fd60228362001365565b91506200170a826200169f565b604082019050919050565b600060208201905081810360008301526200173081620016ee565b9050919050565b7f4e487b7100000000000000000000000000000000000000000000000000000000600052602260045260246000fd5b600060028204905060018216806200177f57607f821691505b6020821081141562001796576200179562001737565b5b50919050565b6124d780620017ac6000396000f3fe6080604052600436106101445760003560e01c8063679aefce116100b6578063c040e6b81161006f578063c040e6b81461043c578063c4c5184814610467578063d6cd947314610492578063ec8ac4d8146104a9578063f2fde38b146104c5578063ff41cbcb146104ee5761015b565b8063679aefce14610352578063715018a61461037d5780637362d9c8146103945780638456cb59146103bd5780638da5cb5b146103d4578063bb5f747b146103ff5761015b565b80633af32abf116101085780633af32abf1461024057806340582f131461027d57806342e94c90146102a85780634c5a628c146102e55780634f935945146102fc5780635c975abb146103275761015b565b8063132996041461016d57806321df0da714610198578063227275ef146101c3578063291d9549146101ec578063355274ea146102155761015b565b3661015b57610159610154610505565b61050d565b005b61016b610166610505565b61050d565b005b34801561017957600080fd5b5061018261063d565b60405161018f91906117ea565b60405180910390f35b3480156101a457600080fd5b506101ad610667565b6040516101ba9190611864565b60405180910390f35b3480156101cf57600080fd5b506101ea60048036038101906101e59190611a2a565b610691565b005b3480156101f857600080fd5b50610213600480360381019061020e9190611a73565b6106ec565b005b34801561022157600080fd5b5061022a610747565b6040516102379190611ab9565b60405180910390f35b34801561024c57600080fd5b5061026760048036038101906102629190611a73565b61076f565b6040516102749190611aef565b60405180910390f35b34801561028957600080fd5b5061029261078c565b60405161029f9190611ab9565b60405180910390f35b3480156102b457600080fd5b506102cf60048036038101906102ca9190611a73565b610796565b6040516102dc9190611ab9565b60405180910390f35b3480156102f157600080fd5b506102fa6107ae565b005b34801561030857600080fd5b506103116107c0565b60405161031e9190611aef565b60405180910390f35b34801561033357600080fd5b5061033c6107f2565b6040516103499190611aef565b60405180910390f35b34801561035e57600080fd5b50610367610809565b6040516103749190611ab9565b60405180910390f35b34801561038957600080fd5b50610392610813565b005b3480156103a057600080fd5b506103bb60048036038101906103b69190611a73565b61089b565b005b3480156103c957600080fd5b506103d26108f6565b005b3480156103e057600080fd5b506103e96109c4565b6040516103f69190611b19565b60405180910390f35b34801561040b57600080fd5b5061042660048036038101906104219190611a73565b6109ee565b6040516104339190611aef565b60405180910390f35b34801561044857600080fd5b50610451610a0b565b60405161045e9190611bbc565b60405180910390f35b34801561047357600080fd5b5061047c610abb565b6040516104899190611b19565b60405180910390f35b34801561049e57600080fd5b506104a7610ae1565b005b6104c360048036038101906104be9190611a73565b61050d565b005b3480156104d157600080fd5b506104ec60048036038101906104e79190611a73565b610af3565b005b3480156104fa57600080fd5b50610503610beb565b005b600033905090565b60026000541415610553576040517f08c379a000000000000000000000000000000000000000000000000000000000815260040161054a90611c2a565b60405180910390fd5b6002600081905550600034905061056a8282610e51565b600061057582610fb0565b905061058c82600454610fce90919063ffffffff16565b60048190555061059c8382610fe4565b8273ffffffffffffffffffffffffffffffffffffffff166105bb610505565b73ffffffffffffffffffffffffffffffffffffffff167f6faf93231a456e552dbc9961f58d9713ee4f2e69d15f1975b050ef0911053a7b8484604051610602929190611c4a565b60405180910390a36106148383610ff2565b61061e8382611095565b610626611138565b61063083836111a3565b5050600160008190555050565b6000600260009054906101000a900473ffffffffffffffffffffffffffffffffffffffff16905090565b6000600160009054906101000a900473ffffffffffffffffffffffffffffffffffffffff16905090565b6106a161069c610505565b6109ee565b6106e0576040517f08c379a00000000000000000000000000000000000000000000000000000000081526004016106d790611ce5565b60405180910390fd5b6106e9816111a7565b50565b6106fc6106f7610505565b6109ee565b61073b576040517f08c379a000000000000000000000000000000000000000000000000000000000815260040161073290611ce5565b60405180910390fd5b61074481611255565b50565b6000600c6008548154811061075f5761075e611d05565b5b9060005260206000200154905090565b6000610785826006610d8990919063ffffffff16565b9050919050565b6000600454905090565b60136020528060005260406000206000915090505481565b6107be6107b9610505565b6112af565b565b6000600c600854815481106107d8576107d7611d05565b5b90600052602060002001546107eb61078c565b1015905090565b6000600760149054906101000a900460ff16905090565b6000600354905090565b61081b610505565b73ffffffffffffffffffffffffffffffffffffffff166108396109c4565b73ffffffffffffffffffffffffffffffffffffffff161461088f576040517f08c379a000000000000000000000000000000000000000000000000000000000815260040161088690611d80565b60405180910390fd5b6108996000611309565b565b6108ab6108a6610505565b6109ee565b6108ea576040517f08c379a00000000000000000000000000000000000000000000000000000000081526004016108e190611ce5565b60405180910390fd5b6108f3816113cf565b50565b6108fe610505565b73ffffffffffffffffffffffffffffffffffffffff1661091c6109c4565b73ffffffffffffffffffffffffffffffffffffffff1614610972576040517f08c379a000000000000000000000000000000000000000000000000000000000815260040161096990611d80565b60405180910390fd5b61097a6107f2565b156109ba576040517f08c379a00000000000000000000000000000000000000000000000000000000081526004016109b190611dec565b60405180910390fd5b6109c2611429565b565b6000600760009054906101000a900473ffffffffffffffffffffffffffffffffffffffff16905090565b6000610a04826005610d8990919063ffffffff16565b9050919050565b6060600a60085481548110610a2357610a22611d05565b5b906000526020600020018054610a3890611e3b565b80601f0160208091040260200160405190810160405280929190818152602001828054610a6490611e3b565b8015610ab15780601f10610a8657610100808354040283529160200191610ab1565b820191906000526020600020905b815481529060010190602001808311610a9457829003601f168201915b5050505050905090565b601460019054906101000a900473ffffffffffffffffffffffffffffffffffffffff1681565b610af1610aec610505565b611255565b565b610afb610505565b73ffffffffffffffffffffffffffffffffffffffff16610b196109c4565b73ffffffffffffffffffffffffffffffffffffffff1614610b6f576040517f08c379a0000000000000000000000000000000000000000000000000000000008152600401610b6690611d80565b60405180910390fd5b600073ffffffffffffffffffffffffffffffffffffffff168173ffffffffffffffffffffffffffffffffffffffff161415610bdf576040517f08c379a0000000000000000000000000000000000000000000000000000000008152600401610bd690611edf565b60405180910390fd5b610be881611309565b50565b610bf3610505565b73ffffffffffffffffffffffffffffffffffffffff16610c116109c4565b73ffffffffffffffffffffffffffffffffffffffff1614610c67576040517f08c379a0000000000000000000000000000000000000000000000000000000008152600401610c5e90611d80565b60405180910390fd5b600b805490506001600854610c7c9190611f2e565b10610c8657600080fd5b600160086000828254610c999190611f2e565b92505081905550610cc9600b60085481548110610cb957610cb8611d05565b5b90600052602060002001546114cc565b610cd16107f2565b15610cdf57610cde6114d6565b5b565b610ceb8282610d89565b15610d2b576040517f08c379a0000000000000000000000000000000000000000000000000000000008152600401610d2290611fd0565b60405180910390fd5b60018260000160008373ffffffffffffffffffffffffffffffffffffffff1673ffffffffffffffffffffffffffffffffffffffff16815260200190815260200160002060006101000a81548160ff0219169083151502179055505050565b60008073ffffffffffffffffffffffffffffffffffffffff168273ffffffffffffffffffffffffffffffffffffffff161415610dfa576040517f08c379a0000000000000000000000000000000000000000000000000000000008152600401610df190612062565b60405180910390fd5b8260000160008373ffffffffffffffffffffffffffffffffffffffff1673ffffffffffffffffffffffffffffffffffffffff16815260200190815260200160002060009054906101000a900460ff16905092915050565b610e596107f2565b15610e99576040517f08c379a0000000000000000000000000000000000000000000000000000000008152600401610e9090611dec565b60405180910390fd5b610ea38282611578565b60011515600d60085481548110610ebd57610ebc611d05565b5b90600052602060002090602091828204019190069054906101000a900460ff161515141580610ef15750610ef08261076f565b5b610f30576040517f08c379a0000000000000000000000000000000000000000000000000000000008152600401610f27906120f4565b60405180910390fd5b600c60085481548110610f4657610f45611d05565b5b9060005260206000200154610f6b82610f5d61078c565b610fce90919063ffffffff16565b1115610fac576040517f08c379a0000000000000000000000000000000000000000000000000000000008152600401610fa390612160565b60405180910390fd5b5050565b6000610fc76003548361163090919063ffffffff16565b9050919050565b60008183610fdc9190611f2e565b905092915050565b610fee8282611646565b5050565b610ffc82826116fa565b61104e81601060008573ffffffffffffffffffffffffffffffffffffffff1673ffffffffffffffffffffffffffffffffffffffff16815260200190815260200160002054610fce90919063ffffffff16565b601060008473ffffffffffffffffffffffffffffffffffffffff1673ffffffffffffffffffffffffffffffffffffffff168152602001908152602001600020819055505050565b61109f82826116fe565b6110f181601060008573ffffffffffffffffffffffffffffffffffffffff1673ffffffffffffffffffffffffffffffffffffffff16815260200190815260200160002054610fce90919063ffffffff16565b601060008473ffffffffffffffffffffffffffffffffffffffff1673ffffffffffffffffffffffffffffffffffffffff168152602001908152602001600020819055505050565b600260009054906101000a900473ffffffffffffffffffffffffffffffffffffffff1673ffffffffffffffffffffffffffffffffffffffff166108fc349081150290604051600060405180830381858888f193505050501580156111a0573d6000803e3d6000fd5b50565b5050565b60005b8151811015611251576111e18282815181106111c9576111c8611d05565b5b60200260200101516006610ce190919063ffffffff16565b8181815181106111f4576111f3611d05565b5b602002602001015173ffffffffffffffffffffffffffffffffffffffff167fee1504a83b6d4a361f4c1dc78ab59bfa30d6a3b6612c403e86bb01ef2984295f60405160405180910390a2808061124990612180565b9150506111aa565b5050565b61126981600661170290919063ffffffff16565b8073ffffffffffffffffffffffffffffffffffffffff167f270d9b30cf5b0793bbfd54c9d5b94aeb49462b8148399000265144a8722da6b660405160405180910390a250565b6112c381600561170290919063ffffffff16565b8073ffffffffffffffffffffffffffffffffffffffff167f0a8eb35e5ca14b3d6f28e4abf2f128dbab231a58b56e89beb5d636115001e16560405160405180910390a250565b6000600760009054906101000a900473ffffffffffffffffffffffffffffffffffffffff16905081600760006101000a81548173ffffffffffffffffffffffffffffffffffffffff021916908373ffffffffffffffffffffffffffffffffffffffff1602179055508173ffffffffffffffffffffffffffffffffffffffff168173ffffffffffffffffffffffffffffffffffffffff167f8be0079c531659141344cd1fd0a4f28419497f9722a3daafe3b4186f6b6457e060405160405180910390a35050565b6113e3816005610ce190919063ffffffff16565b8073ffffffffffffffffffffffffffffffffffffffff167f22380c05984257a1cb900161c713dd71d39e74820f1aea43bd3f1bdd2096129960405160405180910390a250565b6114316107f2565b15611471576040517f08c379a000000000000000000000000000000000000000000000000000000000815260040161146890611dec565b60405180910390fd5b6001600760146101000a81548160ff0219169083151502179055507f62e78cea01bee320cd4e420270b5ea74000d11b0c9f74754ebdbfc544b05a2586114b5610505565b6040516114c29190611b19565b60405180910390a1565b8060038190555050565b6114de6107f2565b61151d576040517f08c379a000000000000000000000000000000000000000000000000000000000815260040161151490612215565b60405180910390fd5b6000600760146101000a81548160ff0219169083151502179055507f5db9ee0a495bf2e6ff9c91a7834c1ba4fdd244a5e8aa4e537bd38aeae4b073aa611561610505565b60405161156e9190611b19565b60405180910390a1565b600073ffffffffffffffffffffffffffffffffffffffff168273ffffffffffffffffffffffffffffffffffffffff1614156115e8576040517f08c379a00000000000000000000000000000000000000000000000000000000081526004016115df906122a7565b60405180910390fd5b600081141561162c576040517f08c379a000000000000000000000000000000000000000000000000000000000815260040161162390612313565b60405180910390fd5b5050565b6000818361163e9190612333565b905092915050565b600160009054906101000a900473ffffffffffffffffffffffffffffffffffffffff1673ffffffffffffffffffffffffffffffffffffffff1663a9059cbb83836040518363ffffffff1660e01b81526004016116a392919061238d565b602060405180830381600087803b1580156116bd57600080fd5b505af11580156116d1573d6000803e3d6000fd5b505050506040513d601f19601f820116820180604052508101906116f591906123e2565b505050565b5050565b5050565b61170c8282610d89565b61174b576040517f08c379a000000000000000000000000000000000000000000000000000000000815260040161174290612481565b60405180910390fd5b60008260000160008373ffffffffffffffffffffffffffffffffffffffff1673ffffffffffffffffffffffffffffffffffffffff16815260200190815260200160002060006101000a81548160ff0219169083151502179055505050565b600073ffffffffffffffffffffffffffffffffffffffff82169050919050565b60006117d4826117a9565b9050919050565b6117e4816117c9565b82525050565b60006020820190506117ff60008301846117db565b92915050565b6000819050919050565b600061182a611825611820846117a9565b611805565b6117a9565b9050919050565b600061183c8261180f565b9050919050565b600061184e82611831565b9050919050565b61185e81611843565b82525050565b60006020820190506118796000830184611855565b92915050565b6000604051905090565b600080fd5b600080fd5b600080fd5b6000601f19601f8301169050919050565b7f4e487b7100000000000000000000000000000000000000000000000000000000600052604160045260246000fd5b6118e182611898565b810181811067ffffffffffffffff82111715611900576118ff6118a9565b5b80604052505050565b600061191361187f565b905061191f82826118d8565b919050565b600067ffffffffffffffff82111561193f5761193e6118a9565b5b602082029050602081019050919050565b600080fd5b6000611960826117a9565b9050919050565b61197081611955565b811461197b57600080fd5b50565b60008135905061198d81611967565b92915050565b60006119a66119a184611924565b611909565b905080838252602082019050602084028301858111156119c9576119c8611950565b5b835b818110156119f257806119de888261197e565b8452602084019350506020810190506119cb565b5050509392505050565b600082601f830112611a1157611a10611893565b5b8135611a21848260208601611993565b91505092915050565b600060208284031215611a4057611a3f611889565b5b600082013567ffffffffffffffff811115611a5e57611a5d61188e565b5b611a6a848285016119fc565b91505092915050565b600060208284031215611a8957611a88611889565b5b6000611a978482850161197e565b91505092915050565b6000819050919050565b611ab381611aa0565b82525050565b6000602082019050611ace6000830184611aaa565b92915050565b60008115159050919050565b611ae981611ad4565b82525050565b6000602082019050611b046000830184611ae0565b92915050565b611b1381611955565b82525050565b6000602082019050611b2e6000830184611b0a565b92915050565b600081519050919050565b600082825260208201905092915050565b60005b83811015611b6e578082015181840152602081019050611b53565b83811115611b7d576000848401525b50505050565b6000611b8e82611b34565b611b988185611b3f565b9350611ba8818560208601611b50565b611bb181611898565b840191505092915050565b60006020820190508181036000830152611bd68184611b83565b905092915050565b7f5265656e7472616e637947756172643a207265656e7472616e742063616c6c00600082015250565b6000611c14601f83611b3f565b9150611c1f82611bde565b602082019050919050565b60006020820190508181036000830152611c4381611c07565b9050919050565b6000604082019050611c5f6000830185611aaa565b611c6c6020830184611aaa565b9392505050565b7f57686974656c69737441646d696e526f6c653a2063616c6c657220646f65732060008201527f6e6f742068617665207468652057686974656c69737441646d696e20726f6c65602082015250565b6000611ccf604083611b3f565b9150611cda82611c73565b604082019050919050565b60006020820190508181036000830152611cfe81611cc2565b9050919050565b7f4e487b7100000000000000000000000000000000000000000000000000000000600052603260045260246000fd5b7f4f776e61626c653a2063616c6c6572206973206e6f7420746865206f776e6572600082015250565b6000611d6a602083611b3f565b9150611d7582611d34565b602082019050919050565b60006020820190508181036000830152611d9981611d5d565b9050919050565b7f5061757361626c653a2070617573656400000000000000000000000000000000600082015250565b6000611dd6601083611b3f565b9150611de182611da0565b602082019050919050565b60006020820190508181036000830152611e0581611dc9565b9050919050565b7f4e487b7100000000000000000000000000000000000000000000000000000000600052602260045260246000fd5b60006002820490506001821680611e5357607f821691505b60208210811415611e6757611e66611e0c565b5b50919050565b7f4f776e61626c653a206e6577206f776e657220697320746865207a65726f206160008201527f6464726573730000000000000000000000000000000000000000000000000000602082015250565b6000611ec9602683611b3f565b9150611ed482611e6d565b604082019050919050565b60006020820190508181036000830152611ef881611ebc565b9050919050565b7f4e487b7100000000000000000000000000000000000000000000000000000000600052601160045260246000fd5b6000611f3982611aa0565b9150611f4483611aa0565b9250827fffffffffffffffffffffffffffffffffffffffffffffffffffffffffffffffff03821115611f7957611f78611eff565b5b828201905092915050565b7f526f6c65733a206163636f756e7420616c72656164792068617320726f6c6500600082015250565b6000611fba601f83611b3f565b9150611fc582611f84565b602082019050919050565b60006020820190508181036000830152611fe981611fad565b9050919050565b7f526f6c65733a206163636f756e7420697320746865207a65726f20616464726560008201527f7373000000000000000000000000000000000000000000000000000000000000602082015250565b600061204c602283611b3f565b915061205782611ff0565b604082019050919050565b6000602082019050818103600083015261207b8161203f565b9050919050565b7f4f6e676f696e6720707269766174652073616c653a2062656e6566656369617260008201527f79206973206e6f74207768697465206c69737465640000000000000000000000602082015250565b60006120de603583611b3f565b91506120e982612082565b604082019050919050565b6000602082019050818103600083015261210d816120d1565b9050919050565b7f43617070656443726f776473616c653a20636170206578636565646564000000600082015250565b600061214a601d83611b3f565b915061215582612114565b602082019050919050565b600060208201905081810360008301526121798161213d565b9050919050565b600061218b82611aa0565b91507fffffffffffffffffffffffffffffffffffffffffffffffffffffffffffffffff8214156121be576121bd611eff565b5b600182019050919050565b7f5061757361626c653a206e6f7420706175736564000000000000000000000000600082015250565b60006121ff601483611b3f565b915061220a826121c9565b602082019050919050565b6000602082019050818103600083015261222e816121f2565b9050919050565b7f43726f776473616c653a2062656e656669636961727920697320746865207a6560008201527f726f206164647265737300000000000000000000000000000000000000000000602082015250565b6000612291602a83611b3f565b915061229c82612235565b604082019050919050565b600060208201905081810360008301526122c081612284565b9050919050565b7f43726f776473616c653a20776569416d6f756e74206973203000000000000000600082015250565b60006122fd601983611b3f565b9150612308826122c7565b602082019050919050565b6000602082019050818103600083015261232c816122f0565b9050919050565b600061233e82611aa0565b915061234983611aa0565b9250817fffffffffffffffffffffffffffffffffffffffffffffffffffffffffffffffff048311821515161561238257612381611eff565b5b828202905092915050565b60006040820190506123a26000830185611b0a565b6123af6020830184611aaa565b9392505050565b6123bf81611ad4565b81146123ca57600080fd5b50565b6000815190506123dc816123b6565b92915050565b6000602082840312156123f8576123f7611889565b5b6000612406848285016123cd565b91505092915050565b7f526f6c65733a206163636f756e7420646f6573206e6f74206861766520726f6c60008201527f6500000000000000000000000000000000000000000000000000000000000000602082015250565b600061246b602183611b3f565b91506124768261240f565b604082019050919050565b6000602082019050818103600083015261249a8161245e565b905091905056fea26469706673582212201dbbb67e2ec32b606167f7e4746d51f2a8ca453866c3e4d53d465c3591dfd18f64736f6c63430008090033",
  "immutableReferences": {},
  "source": "// SPDX-License-Identifier: MIT\r\n// OpenZeppelin Contracts v4.3.2 (utils/DefaultCrowdsale.sol)\r\npragma solidity ^0.8.9;\r\nimport \"./DefaultCrowdsalev1.sol\";\r\n\r\n/**\r\n * @title VestingCrowdsalev1\r\n * @dev This is an example of a fully fledged crowdsale.\r\n */\r\ncontract VestingCrowdsalev1 is DefaultCrowdsalev1  {\r\n    address[] internal _fundWallets;\r\n    uint256[] internal _releaseTimes;\r\n    mapping(address => uint256) public contributions;\r\n    bool internal _canWithdrawEarly;\r\n    address public privateSaleTimeLock;\r\n\r\n    constructor(\r\n        address payable wallet,\r\n        IERC20 token,\r\n        string[] memory names, \r\n        uint256[] memory rates,\r\n        uint256[] memory caps, \r\n        bool[] memory privateSales,\r\n        address[] memory whitelist,\r\n        uint[] memory minIndividualCaps,\r\n        uint[] memory maxIndividualCaps,\r\n        address[] memory fundWallets,\r\n        uint256[] memory releaseTimes\r\n    ) DefaultCrowdsalev1(wallet, token, names, rates, caps, privateSales, whitelist, minIndividualCaps, maxIndividualCaps) {\r\n        _fundWallets = fundWallets;\r\n        _releaseTimes = releaseTimes;\r\n    }\r\n}",
  "sourcePath": "D:\\repositories\\mosaico-reference\\smart_contracts\\contracts\\VestingCrowdsalev1.sol",
  "compiler": {
    "name": "solc",
    "version": "0.8.9+commit.e5eed63a.Emscripten.clang"
  },
  "schemaVersion": "3.4.3",
  "updatedAt": "2021-11-16T17:52:01.681Z",
  "devdoc": {
    "details": "This is an example of a fully fledged crowdsale.",
    "kind": "dev",
    "methods": {
      "buyTokens(address)": {
        "details": "low level token purchase ***DO NOT OVERRIDE*** This function has a non-reentrancy guard, so it shouldn't be called by another `nonReentrant` function.",
        "params": {
          "beneficiary": "Recipient of the token purchase"
        }
      },
      "capReached()": {
        "details": "Checks whether the cap has been reached.",
        "returns": {
          "_0": "Whether the cap was reached"
        }
      },
      "getRate()": {
        "returns": {
          "_0": "the number of token units a buyer gets per wei."
        }
      },
      "getToken()": {
        "returns": {
          "_0": "the token being sold."
        }
      },
      "getWallet()": {
        "returns": {
          "_0": "the address where funds are collected."
        }
      },
      "getWeiRaised()": {
        "returns": {
          "_0": "the amount of wei raised."
        }
      },
      "owner()": {
        "details": "Returns the address of the current owner."
      },
      "paused()": {
        "details": "Returns true if the contract is paused, and false otherwise."
      },
      "renounceOwnership()": {
        "details": "Leaves the contract without owner. It will not be possible to call `onlyOwner` functions anymore. Can only be called by the current owner. NOTE: Renouncing ownership will leave the contract without an owner, thereby removing any functionality that is only available to the owner."
      },
      "setNextStage()": {
        "details": "Change funding to next rate value"
      },
      "transferOwnership(address)": {
        "details": "Transfers ownership of the contract to a new account (`newOwner`). Can only be called by the current owner."
      }
    },
    "title": "VestingCrowdsalev1",
    "version": 1
  },
  "userdoc": {
    "events": {
      "TokensPurchased(address,address,uint256,uint256)": {
        "notice": "Event for token purchase logging"
      }
    },
    "kind": "user",
    "methods": {},
    "version": 1
  }
}